{
	"crowdfunding.sol": {
		"Crowdfunding": {
			"abi": [
				{
					"inputs": [
						{
							"internalType": "uint256",
							"name": "_target",
							"type": "uint256"
						},
						{
							"internalType": "uint256",
							"name": "_deadline",
							"type": "uint256"
						}
					],
					"stateMutability": "nonpayable",
					"type": "constructor"
				},
				{
					"inputs": [
						{
							"internalType": "address",
							"name": "",
							"type": "address"
						}
					],
					"name": "contributors",
					"outputs": [
						{
							"internalType": "uint256",
							"name": "",
							"type": "uint256"
						}
					],
					"stateMutability": "view",
					"type": "function"
				},
				{
					"inputs": [
						{
							"internalType": "string",
							"name": "_desc",
							"type": "string"
						},
						{
							"internalType": "address payable",
							"name": "_recipient",
							"type": "address"
						},
						{
							"internalType": "uint256",
							"name": "value",
							"type": "uint256"
						}
					],
					"name": "createRequest",
					"outputs": [],
					"stateMutability": "nonpayable",
					"type": "function"
				},
				{
					"inputs": [],
					"name": "deadline",
					"outputs": [
						{
							"internalType": "uint256",
							"name": "",
							"type": "uint256"
						}
					],
					"stateMutability": "view",
					"type": "function"
				},
				{
					"inputs": [],
					"name": "getContractBalance",
					"outputs": [
						{
							"internalType": "uint256",
							"name": "",
							"type": "uint256"
						}
					],
					"stateMutability": "view",
					"type": "function"
				},
				{
					"inputs": [],
					"name": "manager",
					"outputs": [
						{
							"internalType": "address",
							"name": "",
							"type": "address"
						}
					],
					"stateMutability": "view",
					"type": "function"
				},
				{
					"inputs": [],
					"name": "minContribution",
					"outputs": [
						{
							"internalType": "uint256",
							"name": "",
							"type": "uint256"
						}
					],
					"stateMutability": "view",
					"type": "function"
				},
				{
					"inputs": [],
					"name": "noOfContribs",
					"outputs": [
						{
							"internalType": "uint256",
							"name": "",
							"type": "uint256"
						}
					],
					"stateMutability": "view",
					"type": "function"
				},
				{
					"inputs": [
						{
							"internalType": "uint256",
							"name": "_requestNo",
							"type": "uint256"
						}
					],
					"name": "payment",
					"outputs": [],
					"stateMutability": "nonpayable",
					"type": "function"
				},
				{
					"inputs": [],
					"name": "raisedAmt",
					"outputs": [
						{
							"internalType": "uint256",
							"name": "",
							"type": "uint256"
						}
					],
					"stateMutability": "view",
					"type": "function"
				},
				{
					"inputs": [],
					"name": "refund",
					"outputs": [],
					"stateMutability": "nonpayable",
					"type": "function"
				},
				{
					"inputs": [
						{
							"internalType": "uint256",
							"name": "",
							"type": "uint256"
						}
					],
					"name": "requests",
					"outputs": [
						{
							"internalType": "string",
							"name": "description",
							"type": "string"
						},
						{
							"internalType": "address payable",
							"name": "recipient",
							"type": "address"
						},
						{
							"internalType": "uint256",
							"name": "value",
							"type": "uint256"
						},
						{
							"internalType": "bool",
							"name": "completed",
							"type": "bool"
						},
						{
							"internalType": "uint256",
							"name": "noOfVoters",
							"type": "uint256"
						}
					],
					"stateMutability": "view",
					"type": "function"
				},
				{
					"inputs": [],
					"name": "sendEth",
					"outputs": [],
					"stateMutability": "payable",
					"type": "function"
				},
				{
					"inputs": [],
					"name": "target",
					"outputs": [
						{
							"internalType": "uint256",
							"name": "",
							"type": "uint256"
						}
					],
					"stateMutability": "view",
					"type": "function"
				},
				{
					"inputs": [
						{
							"internalType": "uint256",
							"name": "_requestNo",
							"type": "uint256"
						}
					],
					"name": "voteRequest",
					"outputs": [],
					"stateMutability": "nonpayable",
					"type": "function"
				}
			],
			"devdoc": {
				"kind": "dev",
				"methods": {},
				"version": 1
			},
			"evm": {
				"assembly": "    /* \"crowdfunding.sol\":67:2848  contract Crowdfunding{\r... */\n  mstore(0x40, 0x80)\n    /* \"crowdfunding.sol\":595:780  constructor(uint _target, uint _deadline){\r... */\n  callvalue\n  dup1\n  iszero\n  tag_1\n  jumpi\n  0x00\n  dup1\n  revert\ntag_1:\n  pop\n  mload(0x40)\n  sub(codesize, bytecodeSize)\n  dup1\n  bytecodeSize\n  dup4\n  codecopy\n  dup2\n  dup2\n  add\n  0x40\n  mstore\n  dup2\n  add\n  swap1\n  tag_2\n  swap2\n  swap1\n  tag_3\n  jump\t// in\ntag_2:\n    /* \"crowdfunding.sol\":654:661  _target */\n  dup2\n    /* \"crowdfunding.sol\":647:653  target */\n  0x04\n    /* \"crowdfunding.sol\":647:661  target=_target */\n  dup2\n  swap1\n  sstore\n  pop\n    /* \"crowdfunding.sol\":697:706  _deadline */\n  dup1\n    /* \"crowdfunding.sol\":681:696  block.timestamp */\n  timestamp\n    /* \"crowdfunding.sol\":681:706  block.timestamp+_deadline */\n  tag_6\n  swap2\n  swap1\n  tag_7\n  jump\t// in\ntag_6:\n    /* \"crowdfunding.sol\":672:680  deadline */\n  0x03\n    /* \"crowdfunding.sol\":672:706  deadline=block.timestamp+_deadline */\n  dup2\n  swap1\n  sstore\n  pop\n    /* \"crowdfunding.sol\":736:743  100 wei */\n  0x64\n    /* \"crowdfunding.sol\":720:735  minContribution */\n  0x02\n    /* \"crowdfunding.sol\":720:743  minContribution=100 wei */\n  dup2\n  swap1\n  sstore\n  pop\n    /* \"crowdfunding.sol\":762:772  msg.sender */\n  caller\n    /* \"crowdfunding.sol\":754:761  manager */\n  0x01\n  0x00\n    /* \"crowdfunding.sol\":754:772  manager=msg.sender */\n  0x0100\n  exp\n  dup2\n  sload\n  dup2\n  0xffffffffffffffffffffffffffffffffffffffff\n  mul\n  not\n  and\n  swap1\n  dup4\n  0xffffffffffffffffffffffffffffffffffffffff\n  and\n  mul\n  or\n  swap1\n  sstore\n  pop\n    /* \"crowdfunding.sol\":595:780  constructor(uint _target, uint _deadline){\r... */\n  pop\n  pop\n    /* \"crowdfunding.sol\":67:2848  contract Crowdfunding{\r... */\n  jump(tag_8)\n    /* \"#utility.yul\":7:150   */\ntag_10:\n    /* \"#utility.yul\":64:69   */\n  0x00\n    /* \"#utility.yul\":95:101   */\n  dup2\n    /* \"#utility.yul\":89:102   */\n  mload\n    /* \"#utility.yul\":80:102   */\n  swap1\n  pop\n    /* \"#utility.yul\":111:144   */\n  tag_12\n    /* \"#utility.yul\":138:143   */\n  dup2\n    /* \"#utility.yul\":111:144   */\n  tag_13\n  jump\t// in\ntag_12:\n    /* \"#utility.yul\":7:150   */\n  swap3\n  swap2\n  pop\n  pop\n  jump\t// out\n    /* \"#utility.yul\":156:663   */\ntag_3:\n    /* \"#utility.yul\":235:241   */\n  0x00\n    /* \"#utility.yul\":243:249   */\n  dup1\n    /* \"#utility.yul\":292:294   */\n  0x40\n    /* \"#utility.yul\":280:289   */\n  dup4\n    /* \"#utility.yul\":271:278   */\n  dup6\n    /* \"#utility.yul\":267:290   */\n  sub\n    /* \"#utility.yul\":263:295   */\n  slt\n    /* \"#utility.yul\":260:379   */\n  iszero\n  tag_15\n  jumpi\n    /* \"#utility.yul\":298:377   */\n  tag_16\n  tag_17\n  jump\t// in\ntag_16:\n    /* \"#utility.yul\":260:379   */\ntag_15:\n    /* \"#utility.yul\":418:419   */\n  0x00\n    /* \"#utility.yul\":443:507   */\n  tag_18\n    /* \"#utility.yul\":499:506   */\n  dup6\n    /* \"#utility.yul\":490:496   */\n  dup3\n    /* \"#utility.yul\":479:488   */\n  dup7\n    /* \"#utility.yul\":475:497   */\n  add\n    /* \"#utility.yul\":443:507   */\n  tag_10\n  jump\t// in\ntag_18:\n    /* \"#utility.yul\":433:507   */\n  swap3\n  pop\n    /* \"#utility.yul\":389:517   */\n  pop\n    /* \"#utility.yul\":556:558   */\n  0x20\n    /* \"#utility.yul\":582:646   */\n  tag_19\n    /* \"#utility.yul\":638:645   */\n  dup6\n    /* \"#utility.yul\":629:635   */\n  dup3\n    /* \"#utility.yul\":618:627   */\n  dup7\n    /* \"#utility.yul\":614:636   */\n  add\n    /* \"#utility.yul\":582:646   */\n  tag_10\n  jump\t// in\ntag_19:\n    /* \"#utility.yul\":572:646   */\n  swap2\n  pop\n    /* \"#utility.yul\":527:656   */\n  pop\n    /* \"#utility.yul\":156:663   */\n  swap3\n  pop\n  swap3\n  swap1\n  pop\n  jump\t// out\n    /* \"#utility.yul\":750:1055   */\ntag_7:\n    /* \"#utility.yul\":790:793   */\n  0x00\n    /* \"#utility.yul\":809:829   */\n  tag_23\n    /* \"#utility.yul\":827:828   */\n  dup3\n    /* \"#utility.yul\":809:829   */\n  tag_24\n  jump\t// in\ntag_23:\n    /* \"#utility.yul\":804:829   */\n  swap2\n  pop\n    /* \"#utility.yul\":843:863   */\n  tag_25\n    /* \"#utility.yul\":861:862   */\n  dup4\n    /* \"#utility.yul\":843:863   */\n  tag_24\n  jump\t// in\ntag_25:\n    /* \"#utility.yul\":838:863   */\n  swap3\n  pop\n    /* \"#utility.yul\":997:998   */\n  dup3\n    /* \"#utility.yul\":929:995   */\n  0xffffffffffffffffffffffffffffffffffffffffffffffffffffffffffffffff\n    /* \"#utility.yul\":925:999   */\n  sub\n    /* \"#utility.yul\":922:923   */\n  dup3\n    /* \"#utility.yul\":919:1000   */\n  gt\n    /* \"#utility.yul\":916:1023   */\n  iszero\n  tag_26\n  jumpi\n    /* \"#utility.yul\":1003:1021   */\n  tag_27\n  tag_28\n  jump\t// in\ntag_27:\n    /* \"#utility.yul\":916:1023   */\ntag_26:\n    /* \"#utility.yul\":1047:1048   */\n  dup3\n    /* \"#utility.yul\":1044:1045   */\n  dup3\n    /* \"#utility.yul\":1040:1049   */\n  add\n    /* \"#utility.yul\":1033:1049   */\n  swap1\n  pop\n    /* \"#utility.yul\":750:1055   */\n  swap3\n  swap2\n  pop\n  pop\n  jump\t// out\n    /* \"#utility.yul\":1061:1138   */\ntag_24:\n    /* \"#utility.yul\":1098:1105   */\n  0x00\n    /* \"#utility.yul\":1127:1132   */\n  dup2\n    /* \"#utility.yul\":1116:1132   */\n  swap1\n  pop\n    /* \"#utility.yul\":1061:1138   */\n  swap2\n  swap1\n  pop\n  jump\t// out\n    /* \"#utility.yul\":1144:1324   */\ntag_28:\n    /* \"#utility.yul\":1192:1269   */\n  0x4e487b7100000000000000000000000000000000000000000000000000000000\n    /* \"#utility.yul\":1189:1190   */\n  0x00\n    /* \"#utility.yul\":1182:1270   */\n  mstore\n    /* \"#utility.yul\":1289:1293   */\n  0x11\n    /* \"#utility.yul\":1286:1287   */\n  0x04\n    /* \"#utility.yul\":1279:1294   */\n  mstore\n    /* \"#utility.yul\":1313:1317   */\n  0x24\n    /* \"#utility.yul\":1310:1311   */\n  0x00\n    /* \"#utility.yul\":1303:1318   */\n  revert\n    /* \"#utility.yul\":1453:1570   */\ntag_17:\n    /* \"#utility.yul\":1562:1563   */\n  0x00\n    /* \"#utility.yul\":1559:1560   */\n  dup1\n    /* \"#utility.yul\":1552:1564   */\n  revert\n    /* \"#utility.yul\":1576:1698   */\ntag_13:\n    /* \"#utility.yul\":1649:1673   */\n  tag_35\n    /* \"#utility.yul\":1667:1672   */\n  dup2\n    /* \"#utility.yul\":1649:1673   */\n  tag_24\n  jump\t// in\ntag_35:\n    /* \"#utility.yul\":1642:1647   */\n  dup2\n    /* \"#utility.yul\":1639:1674   */\n  eq\n    /* \"#utility.yul\":1629:1692   */\n  tag_36\n  jumpi\n    /* \"#utility.yul\":1688:1689   */\n  0x00\n    /* \"#utility.yul\":1685:1686   */\n  dup1\n    /* \"#utility.yul\":1678:1690   */\n  revert\n    /* \"#utility.yul\":1629:1692   */\ntag_36:\n    /* \"#utility.yul\":1576:1698   */\n  pop\n  jump\t// out\n    /* \"crowdfunding.sol\":67:2848  contract Crowdfunding{\r... */\ntag_8:\n  dataSize(sub_0)\n  dup1\n  dataOffset(sub_0)\n  0x00\n  codecopy\n  0x00\n  return\nstop\n\nsub_0: assembly {\n        /* \"crowdfunding.sol\":67:2848  contract Crowdfunding{\r... */\n      mstore(0x40, 0x80)\n      jumpi(tag_1, lt(calldatasize, 0x04))\n      shr(0xe0, calldataload(0x00))\n      dup1\n      0x4cb6f4a5\n      gt\n      tag_16\n      jumpi\n      dup1\n      0x81d12c58\n      gt\n      tag_17\n      jumpi\n      dup1\n      0x81d12c58\n      eq\n      tag_12\n      jumpi\n      dup1\n      0x8b3c99e3\n      eq\n      tag_13\n      jumpi\n      dup1\n      0xaaffadf3\n      eq\n      tag_14\n      jumpi\n      dup1\n      0xd4b83992\n      eq\n      tag_15\n      jumpi\n      jump(tag_1)\n    tag_17:\n      dup1\n      0x4cb6f4a5\n      eq\n      tag_9\n      jumpi\n      dup1\n      0x590e1ae3\n      eq\n      tag_10\n      jumpi\n      dup1\n      0x6f9fb98a\n      eq\n      tag_11\n      jumpi\n      jump(tag_1)\n    tag_16:\n      dup1\n      0x29dcb0cf\n      gt\n      tag_18\n      jumpi\n      dup1\n      0x29dcb0cf\n      eq\n      tag_5\n      jumpi\n      dup1\n      0x35d755e6\n      eq\n      tag_6\n      jumpi\n      dup1\n      0x3ece2b4f\n      eq\n      tag_7\n      jumpi\n      dup1\n      0x481c6a75\n      eq\n      tag_8\n      jumpi\n      jump(tag_1)\n    tag_18:\n      dup1\n      0x06e99fef\n      eq\n      tag_2\n      jumpi\n      dup1\n      0x1b16bb5c\n      eq\n      tag_3\n      jumpi\n      dup1\n      0x1f6d4942\n      eq\n      tag_4\n      jumpi\n    tag_1:\n      0x00\n      dup1\n      revert\n        /* \"crowdfunding.sol\":788:1132  function sendEth() public payable{\r... */\n    tag_2:\n      tag_19\n      tag_20\n      jump\t// in\n    tag_19:\n      stop\n        /* \"crowdfunding.sol\":1709:2086  function createRequest(string memory _desc,address payable _recipient, uint value) public onlyManager{\r... */\n    tag_3:\n      callvalue\n      dup1\n      iszero\n      tag_21\n      jumpi\n      0x00\n      dup1\n      revert\n    tag_21:\n      pop\n      tag_22\n      0x04\n      dup1\n      calldatasize\n      sub\n      dup2\n      add\n      swap1\n      tag_23\n      swap2\n      swap1\n      tag_24\n      jump\t// in\n    tag_23:\n      tag_25\n      jump\t// in\n    tag_22:\n      stop\n        /* \"crowdfunding.sol\":95:137  mapping(address=>uint) public contributors */\n    tag_4:\n      callvalue\n      dup1\n      iszero\n      tag_26\n      jumpi\n      0x00\n      dup1\n      revert\n    tag_26:\n      pop\n      tag_27\n      0x04\n      dup1\n      calldatasize\n      sub\n      dup2\n      add\n      swap1\n      tag_28\n      swap2\n      swap1\n      tag_29\n      jump\t// in\n    tag_28:\n      tag_30\n      jump\t// in\n    tag_27:\n      mload(0x40)\n      tag_31\n      swap2\n      swap1\n      tag_32\n      jump\t// in\n    tag_31:\n      mload(0x40)\n      dup1\n      swap2\n      sub\n      swap1\n      return\n        /* \"crowdfunding.sol\":207:227  uint public deadline */\n    tag_5:\n      callvalue\n      dup1\n      iszero\n      tag_33\n      jumpi\n      0x00\n      dup1\n      revert\n    tag_33:\n      pop\n      tag_34\n      tag_35\n      jump\t// in\n    tag_34:\n      mload(0x40)\n      tag_36\n      swap2\n      swap1\n      tag_32\n      jump\t// in\n    tag_36:\n      mload(0x40)\n      dup1\n      swap2\n      sub\n      swap1\n      return\n        /* \"crowdfunding.sol\":287:311  uint public noOfContribs */\n    tag_6:\n      callvalue\n      dup1\n      iszero\n      tag_37\n      jumpi\n      0x00\n      dup1\n      revert\n    tag_37:\n      pop\n      tag_38\n      tag_39\n      jump\t// in\n    tag_38:\n      mload(0x40)\n      tag_40\n      swap2\n      swap1\n      tag_32\n      jump\t// in\n    tag_40:\n      mload(0x40)\n      dup1\n      swap2\n      sub\n      swap1\n      return\n        /* \"crowdfunding.sol\":259:280  uint public raisedAmt */\n    tag_7:\n      callvalue\n      dup1\n      iszero\n      tag_41\n      jumpi\n      0x00\n      dup1\n      revert\n    tag_41:\n      pop\n      tag_42\n      tag_43\n      jump\t// in\n    tag_42:\n      mload(0x40)\n      tag_44\n      swap2\n      swap1\n      tag_32\n      jump\t// in\n    tag_44:\n      mload(0x40)\n      dup1\n      swap2\n      sub\n      swap1\n      return\n        /* \"crowdfunding.sol\":144:166  address public manager */\n    tag_8:\n      callvalue\n      dup1\n      iszero\n      tag_45\n      jumpi\n      0x00\n      dup1\n      revert\n    tag_45:\n      pop\n      tag_46\n      tag_47\n      jump\t// in\n    tag_46:\n      mload(0x40)\n      tag_48\n      swap2\n      swap1\n      tag_49\n      jump\t// in\n    tag_48:\n      mload(0x40)\n      dup1\n      swap2\n      sub\n      swap1\n      return\n        /* \"crowdfunding.sol\":2094:2442  function voteRequest(uint _requestNo) public{\r... */\n    tag_9:\n      callvalue\n      dup1\n      iszero\n      tag_50\n      jumpi\n      0x00\n      dup1\n      revert\n    tag_50:\n      pop\n      tag_51\n      0x04\n      dup1\n      calldatasize\n      sub\n      dup2\n      add\n      swap1\n      tag_52\n      swap2\n      swap1\n      tag_53\n      jump\t// in\n    tag_52:\n      tag_54\n      jump\t// in\n    tag_51:\n      stop\n        /* \"crowdfunding.sol\":1250:1568  function refund() public{\r... */\n    tag_10:\n      callvalue\n      dup1\n      iszero\n      tag_55\n      jumpi\n      0x00\n      dup1\n      revert\n    tag_55:\n      pop\n      tag_56\n      tag_57\n      jump\t// in\n    tag_56:\n      stop\n        /* \"crowdfunding.sol\":1140:1242  function getContractBalance() public view returns(uint){\r... */\n    tag_11:\n      callvalue\n      dup1\n      iszero\n      tag_58\n      jumpi\n      0x00\n      dup1\n      revert\n    tag_58:\n      pop\n      tag_59\n      tag_60\n      jump\t// in\n    tag_59:\n      mload(0x40)\n      tag_61\n      swap2\n      swap1\n      tag_32\n      jump\t// in\n    tag_61:\n      mload(0x40)\n      dup1\n      swap2\n      sub\n      swap1\n      return\n        /* \"crowdfunding.sol\":525:563  mapping(uint=>Request) public requests */\n    tag_12:\n      callvalue\n      dup1\n      iszero\n      tag_62\n      jumpi\n      0x00\n      dup1\n      revert\n    tag_62:\n      pop\n      tag_63\n      0x04\n      dup1\n      calldatasize\n      sub\n      dup2\n      add\n      swap1\n      tag_64\n      swap2\n      swap1\n      tag_53\n      jump\t// in\n    tag_64:\n      tag_65\n      jump\t// in\n    tag_63:\n      mload(0x40)\n      tag_66\n      swap6\n      swap5\n      swap4\n      swap3\n      swap2\n      swap1\n      tag_67\n      jump\t// in\n    tag_66:\n      mload(0x40)\n      dup1\n      swap2\n      sub\n      swap1\n      return\n        /* \"crowdfunding.sol\":2450:2845  function payment(uint _requestNo) public onlyManager{\r... */\n    tag_13:\n      callvalue\n      dup1\n      iszero\n      tag_68\n      jumpi\n      0x00\n      dup1\n      revert\n    tag_68:\n      pop\n      tag_69\n      0x04\n      dup1\n      calldatasize\n      sub\n      dup2\n      add\n      swap1\n      tag_70\n      swap2\n      swap1\n      tag_53\n      jump\t// in\n    tag_70:\n      tag_71\n      jump\t// in\n    tag_69:\n      stop\n        /* \"crowdfunding.sol\":173:200  uint public minContribution */\n    tag_14:\n      callvalue\n      dup1\n      iszero\n      tag_72\n      jumpi\n      0x00\n      dup1\n      revert\n    tag_72:\n      pop\n      tag_73\n      tag_74\n      jump\t// in\n    tag_73:\n      mload(0x40)\n      tag_75\n      swap2\n      swap1\n      tag_32\n      jump\t// in\n    tag_75:\n      mload(0x40)\n      dup1\n      swap2\n      sub\n      swap1\n      return\n        /* \"crowdfunding.sol\":234:252  uint public target */\n    tag_15:\n      callvalue\n      dup1\n      iszero\n      tag_76\n      jumpi\n      0x00\n      dup1\n      revert\n    tag_76:\n      pop\n      tag_77\n      tag_78\n      jump\t// in\n    tag_77:\n      mload(0x40)\n      tag_79\n      swap2\n      swap1\n      tag_32\n      jump\t// in\n    tag_79:\n      mload(0x40)\n      dup1\n      swap2\n      sub\n      swap1\n      return\n        /* \"crowdfunding.sol\":788:1132  function sendEth() public payable{\r... */\n    tag_20:\n        /* \"crowdfunding.sol\":856:864  deadline */\n      sload(0x03)\n        /* \"crowdfunding.sol\":840:855  block.timestamp */\n      timestamp\n        /* \"crowdfunding.sol\":840:864  block.timestamp<deadline */\n      lt\n        /* \"crowdfunding.sol\":832:883  require(block.timestamp<deadline,\"Deadline passed\") */\n      tag_81\n      jumpi\n      mload(0x40)\n      0x08c379a000000000000000000000000000000000000000000000000000000000\n      dup2\n      mstore\n      0x04\n      add\n      tag_82\n      swap1\n      tag_83\n      jump\t// in\n    tag_82:\n      mload(0x40)\n      dup1\n      swap2\n      sub\n      swap1\n      revert\n    tag_81:\n        /* \"crowdfunding.sol\":913:928  minContribution */\n      sload(0x02)\n        /* \"crowdfunding.sol\":902:911  msg.value */\n      callvalue\n        /* \"crowdfunding.sol\":902:928  msg.value>=minContribution */\n      lt\n      iszero\n        /* \"crowdfunding.sol\":894:963  require(msg.value>=minContribution,\"Minimum Contribution is not met\") */\n      tag_84\n      jumpi\n      mload(0x40)\n      0x08c379a000000000000000000000000000000000000000000000000000000000\n      dup2\n      mstore\n      0x04\n      add\n      tag_85\n      swap1\n      tag_86\n      jump\t// in\n    tag_85:\n      mload(0x40)\n      dup1\n      swap2\n      sub\n      swap1\n      revert\n    tag_84:\n        /* \"crowdfunding.sol\":1005:1006  0 */\n      0x00\n        /* \"crowdfunding.sol\":979:991  contributors */\n      dup1\n        /* \"crowdfunding.sol\":979:1003  contributors[msg.sender] */\n      0x00\n        /* \"crowdfunding.sol\":992:1002  msg.sender */\n      caller\n        /* \"crowdfunding.sol\":979:1003  contributors[msg.sender] */\n      0xffffffffffffffffffffffffffffffffffffffff\n      and\n      0xffffffffffffffffffffffffffffffffffffffff\n      and\n      dup2\n      mstore\n      0x20\n      add\n      swap1\n      dup2\n      mstore\n      0x20\n      add\n      0x00\n      keccak256\n      sload\n        /* \"crowdfunding.sol\":979:1006  contributors[msg.sender]==0 */\n      eq\n        /* \"crowdfunding.sol\":976:1048  if(contributors[msg.sender]==0){\r... */\n      iszero\n      tag_87\n      jumpi\n        /* \"crowdfunding.sol\":1022:1034  noOfContribs */\n      0x06\n      0x00\n        /* \"crowdfunding.sol\":1022:1036  noOfContribs++ */\n      dup2\n      sload\n      dup1\n      swap3\n      swap2\n      swap1\n      tag_88\n      swap1\n      tag_89\n      jump\t// in\n    tag_88:\n      swap2\n      swap1\n      pop\n      sstore\n      pop\n        /* \"crowdfunding.sol\":976:1048  if(contributors[msg.sender]==0){\r... */\n    tag_87:\n        /* \"crowdfunding.sol\":1084:1093  msg.value */\n      callvalue\n        /* \"crowdfunding.sol\":1058:1070  contributors */\n      0x00\n        /* \"crowdfunding.sol\":1058:1082  contributors[msg.sender] */\n      dup1\n        /* \"crowdfunding.sol\":1071:1081  msg.sender */\n      caller\n        /* \"crowdfunding.sol\":1058:1082  contributors[msg.sender] */\n      0xffffffffffffffffffffffffffffffffffffffff\n      and\n      0xffffffffffffffffffffffffffffffffffffffff\n      and\n      dup2\n      mstore\n      0x20\n      add\n      swap1\n      dup2\n      mstore\n      0x20\n      add\n      0x00\n      keccak256\n      0x00\n        /* \"crowdfunding.sol\":1058:1093  contributors[msg.sender]+=msg.value */\n      dup3\n      dup3\n      sload\n      tag_90\n      swap2\n      swap1\n      tag_91\n      jump\t// in\n    tag_90:\n      swap3\n      pop\n      pop\n      dup2\n      swap1\n      sstore\n      pop\n        /* \"crowdfunding.sol\":1115:1124  msg.value */\n      callvalue\n        /* \"crowdfunding.sol\":1104:1113  raisedAmt */\n      0x05\n      0x00\n        /* \"crowdfunding.sol\":1104:1124  raisedAmt+=msg.value */\n      dup3\n      dup3\n      sload\n      tag_92\n      swap2\n      swap1\n      tag_91\n      jump\t// in\n    tag_92:\n      swap3\n      pop\n      pop\n      dup2\n      swap1\n      sstore\n      pop\n        /* \"crowdfunding.sol\":788:1132  function sendEth() public payable{\r... */\n      jump\t// out\n        /* \"crowdfunding.sol\":1709:2086  function createRequest(string memory _desc,address payable _recipient, uint value) public onlyManager{\r... */\n    tag_25:\n        /* \"crowdfunding.sol\":1629:1636  manager */\n      0x01\n      0x00\n      swap1\n      sload\n      swap1\n      0x0100\n      exp\n      swap1\n      div\n      0xffffffffffffffffffffffffffffffffffffffff\n      and\n        /* \"crowdfunding.sol\":1617:1636  msg.sender==manager */\n      0xffffffffffffffffffffffffffffffffffffffff\n      and\n        /* \"crowdfunding.sol\":1617:1627  msg.sender */\n      caller\n        /* \"crowdfunding.sol\":1617:1636  msg.sender==manager */\n      0xffffffffffffffffffffffffffffffffffffffff\n      and\n      eq\n        /* \"crowdfunding.sol\":1609:1681  require(msg.sender==manager,\"Only manager allowed to call the function\") */\n      tag_94\n      jumpi\n      mload(0x40)\n      0x08c379a000000000000000000000000000000000000000000000000000000000\n      dup2\n      mstore\n      0x04\n      add\n      tag_95\n      swap1\n      tag_96\n      jump\t// in\n    tag_95:\n      mload(0x40)\n      dup1\n      swap2\n      sub\n      swap1\n      revert\n    tag_94:\n        /* \"crowdfunding.sol\":1821:1847  Request storage newRequest */\n      0x00\n        /* \"crowdfunding.sol\":1848:1856  requests */\n      0x07\n        /* \"crowdfunding.sol\":1848:1869  requests[numRequests] */\n      0x00\n        /* \"crowdfunding.sol\":1857:1868  numRequests */\n      sload(0x08)\n        /* \"crowdfunding.sol\":1848:1869  requests[numRequests] */\n      dup2\n      mstore\n      0x20\n      add\n      swap1\n      dup2\n      mstore\n      0x20\n      add\n      0x00\n      keccak256\n        /* \"crowdfunding.sol\":1821:1869  Request storage newRequest=requests[numRequests] */\n      swap1\n      pop\n        /* \"crowdfunding.sol\":1880:1891  numRequests */\n      0x08\n      0x00\n        /* \"crowdfunding.sol\":1880:1893  numRequests++ */\n      dup2\n      sload\n      dup1\n      swap3\n      swap2\n      swap1\n      tag_98\n      swap1\n      tag_89\n      jump\t// in\n    tag_98:\n      swap2\n      swap1\n      pop\n      sstore\n      pop\n        /* \"crowdfunding.sol\":1927:1932  _desc */\n      dup4\n        /* \"crowdfunding.sol\":1904:1914  newRequest */\n      dup2\n        /* \"crowdfunding.sol\":1904:1926  newRequest.description */\n      0x00\n      add\n        /* \"crowdfunding.sol\":1904:1932  newRequest.description=_desc */\n      swap1\n      dup1\n      mload\n      swap1\n      0x20\n      add\n      swap1\n      tag_99\n      swap3\n      swap2\n      swap1\n      tag_100\n      jump\t// in\n    tag_99:\n      pop\n        /* \"crowdfunding.sol\":1964:1974  _recipient */\n      dup3\n        /* \"crowdfunding.sol\":1943:1953  newRequest */\n      dup2\n        /* \"crowdfunding.sol\":1943:1963  newRequest.recipient */\n      0x01\n      add\n      0x00\n        /* \"crowdfunding.sol\":1943:1974  newRequest.recipient=_recipient */\n      0x0100\n      exp\n      dup2\n      sload\n      dup2\n      0xffffffffffffffffffffffffffffffffffffffff\n      mul\n      not\n      and\n      swap1\n      dup4\n      0xffffffffffffffffffffffffffffffffffffffff\n      and\n      mul\n      or\n      swap1\n      sstore\n      pop\n        /* \"crowdfunding.sol\":2002:2007  value */\n      dup2\n        /* \"crowdfunding.sol\":1985:1995  newRequest */\n      dup2\n        /* \"crowdfunding.sol\":1985:2001  newRequest.value */\n      0x02\n      add\n        /* \"crowdfunding.sol\":1985:2007  newRequest.value=value */\n      dup2\n      swap1\n      sstore\n      pop\n        /* \"crowdfunding.sol\":2039:2044  false */\n      0x00\n        /* \"crowdfunding.sol\":2018:2028  newRequest */\n      dup2\n        /* \"crowdfunding.sol\":2018:2038  newRequest.completed */\n      0x03\n      add\n      0x00\n        /* \"crowdfunding.sol\":2018:2044  newRequest.completed=false */\n      0x0100\n      exp\n      dup2\n      sload\n      dup2\n      0xff\n      mul\n      not\n      and\n      swap1\n      dup4\n      iszero\n      iszero\n      mul\n      or\n      swap1\n      sstore\n      pop\n        /* \"crowdfunding.sol\":2077:2078  0 */\n      0x00\n        /* \"crowdfunding.sol\":2055:2065  newRequest */\n      dup2\n        /* \"crowdfunding.sol\":2055:2076  newRequest.noOfVoters */\n      0x04\n      add\n        /* \"crowdfunding.sol\":2055:2078  newRequest.noOfVoters=0 */\n      dup2\n      swap1\n      sstore\n      pop\n        /* \"crowdfunding.sol\":1810:2086  {\r... */\n      pop\n        /* \"crowdfunding.sol\":1709:2086  function createRequest(string memory _desc,address payable _recipient, uint value) public onlyManager{\r... */\n      pop\n      pop\n      pop\n      jump\t// out\n        /* \"crowdfunding.sol\":95:137  mapping(address=>uint) public contributors */\n    tag_30:\n      mstore(0x20, 0x00)\n      dup1\n      0x00\n      mstore\n      keccak256(0x00, 0x40)\n      0x00\n      swap2\n      pop\n      swap1\n      pop\n      sload\n      dup2\n      jump\t// out\n        /* \"crowdfunding.sol\":207:227  uint public deadline */\n    tag_35:\n      sload(0x03)\n      dup2\n      jump\t// out\n        /* \"crowdfunding.sol\":287:311  uint public noOfContribs */\n    tag_39:\n      sload(0x06)\n      dup2\n      jump\t// out\n        /* \"crowdfunding.sol\":259:280  uint public raisedAmt */\n    tag_43:\n      sload(0x05)\n      dup2\n      jump\t// out\n        /* \"crowdfunding.sol\":144:166  address public manager */\n    tag_47:\n      0x01\n      0x00\n      swap1\n      sload\n      swap1\n      0x0100\n      exp\n      swap1\n      div\n      0xffffffffffffffffffffffffffffffffffffffff\n      and\n      dup2\n      jump\t// out\n        /* \"crowdfunding.sol\":2094:2442  function voteRequest(uint _requestNo) public{\r... */\n    tag_54:\n        /* \"crowdfunding.sol\":2182:2183  0 */\n      0x00\n        /* \"crowdfunding.sol\":2157:2169  contributors */\n      dup1\n        /* \"crowdfunding.sol\":2157:2181  contributors[msg.sender] */\n      0x00\n        /* \"crowdfunding.sol\":2170:2180  msg.sender */\n      caller\n        /* \"crowdfunding.sol\":2157:2181  contributors[msg.sender] */\n      0xffffffffffffffffffffffffffffffffffffffff\n      and\n      0xffffffffffffffffffffffffffffffffffffffff\n      and\n      dup2\n      mstore\n      0x20\n      add\n      swap1\n      dup2\n      mstore\n      0x20\n      add\n      0x00\n      keccak256\n      sload\n        /* \"crowdfunding.sol\":2157:2183  contributors[msg.sender]>0 */\n      gt\n        /* \"crowdfunding.sol\":2149:2212  require(contributors[msg.sender]>0,\"You must be a contributor\") */\n      tag_102\n      jumpi\n      mload(0x40)\n      0x08c379a000000000000000000000000000000000000000000000000000000000\n      dup2\n      mstore\n      0x04\n      add\n      tag_103\n      swap1\n      tag_104\n      jump\t// in\n    tag_103:\n      mload(0x40)\n      dup1\n      swap2\n      sub\n      swap1\n      revert\n    tag_102:\n        /* \"crowdfunding.sol\":2223:2250  Request storage thisRequest */\n      0x00\n        /* \"crowdfunding.sol\":2251:2259  requests */\n      0x07\n        /* \"crowdfunding.sol\":2251:2271  requests[_requestNo] */\n      0x00\n        /* \"crowdfunding.sol\":2260:2270  _requestNo */\n      dup4\n        /* \"crowdfunding.sol\":2251:2271  requests[_requestNo] */\n      dup2\n      mstore\n      0x20\n      add\n      swap1\n      dup2\n      mstore\n      0x20\n      add\n      0x00\n      keccak256\n        /* \"crowdfunding.sol\":2223:2271  Request storage thisRequest=requests[_requestNo] */\n      swap1\n      pop\n        /* \"crowdfunding.sol\":2322:2327  false */\n      0x00\n        /* \"crowdfunding.sol\":2290:2327  thisRequest.voters[msg.sender]==false */\n      iszero\n      iszero\n        /* \"crowdfunding.sol\":2290:2301  thisRequest */\n      dup2\n        /* \"crowdfunding.sol\":2290:2308  thisRequest.voters */\n      0x05\n      add\n        /* \"crowdfunding.sol\":2290:2320  thisRequest.voters[msg.sender] */\n      0x00\n        /* \"crowdfunding.sol\":2309:2319  msg.sender */\n      caller\n        /* \"crowdfunding.sol\":2290:2320  thisRequest.voters[msg.sender] */\n      0xffffffffffffffffffffffffffffffffffffffff\n      and\n      0xffffffffffffffffffffffffffffffffffffffff\n      and\n      dup2\n      mstore\n      0x20\n      add\n      swap1\n      dup2\n      mstore\n      0x20\n      add\n      0x00\n      keccak256\n      0x00\n      swap1\n      sload\n      swap1\n      0x0100\n      exp\n      swap1\n      div\n      0xff\n      and\n        /* \"crowdfunding.sol\":2290:2327  thisRequest.voters[msg.sender]==false */\n      iszero\n      iszero\n      eq\n        /* \"crowdfunding.sol\":2282:2353  require(thisRequest.voters[msg.sender]==false,\"You have already voted\") */\n      tag_105\n      jumpi\n      mload(0x40)\n      0x08c379a000000000000000000000000000000000000000000000000000000000\n      dup2\n      mstore\n      0x04\n      add\n      tag_106\n      swap1\n      tag_107\n      jump\t// in\n    tag_106:\n      mload(0x40)\n      dup1\n      swap2\n      sub\n      swap1\n      revert\n    tag_105:\n        /* \"crowdfunding.sol\":2395:2399  true */\n      0x01\n        /* \"crowdfunding.sol\":2364:2375  thisRequest */\n      dup2\n        /* \"crowdfunding.sol\":2364:2382  thisRequest.voters */\n      0x05\n      add\n        /* \"crowdfunding.sol\":2364:2394  thisRequest.voters[msg.sender] */\n      0x00\n        /* \"crowdfunding.sol\":2383:2393  msg.sender */\n      caller\n        /* \"crowdfunding.sol\":2364:2394  thisRequest.voters[msg.sender] */\n      0xffffffffffffffffffffffffffffffffffffffff\n      and\n      0xffffffffffffffffffffffffffffffffffffffff\n      and\n      dup2\n      mstore\n      0x20\n      add\n      swap1\n      dup2\n      mstore\n      0x20\n      add\n      0x00\n      keccak256\n      0x00\n        /* \"crowdfunding.sol\":2364:2399  thisRequest.voters[msg.sender]=true */\n      0x0100\n      exp\n      dup2\n      sload\n      dup2\n      0xff\n      mul\n      not\n      and\n      swap1\n      dup4\n      iszero\n      iszero\n      mul\n      or\n      swap1\n      sstore\n      pop\n        /* \"crowdfunding.sol\":2410:2421  thisRequest */\n      dup1\n        /* \"crowdfunding.sol\":2410:2432  thisRequest.noOfVoters */\n      0x04\n      add\n      0x00\n        /* \"crowdfunding.sol\":2410:2434  thisRequest.noOfVoters++ */\n      dup2\n      sload\n      dup1\n      swap3\n      swap2\n      swap1\n      tag_108\n      swap1\n      tag_89\n      jump\t// in\n    tag_108:\n      swap2\n      swap1\n      pop\n      sstore\n      pop\n        /* \"crowdfunding.sol\":2138:2442  {\r... */\n      pop\n        /* \"crowdfunding.sol\":2094:2442  function voteRequest(uint _requestNo) public{\r... */\n      pop\n      jump\t// out\n        /* \"crowdfunding.sol\":1250:1568  function refund() public{\r... */\n    tag_57:\n        /* \"crowdfunding.sol\":1309:1317  deadline */\n      sload(0x03)\n        /* \"crowdfunding.sol\":1293:1308  block.timestamp */\n      timestamp\n        /* \"crowdfunding.sol\":1293:1317  block.timestamp>deadline */\n      gt\n        /* \"crowdfunding.sol\":1293:1337  block.timestamp>deadline && raisedAmt<target */\n      dup1\n      iszero\n      tag_110\n      jumpi\n      pop\n        /* \"crowdfunding.sol\":1331:1337  target */\n      sload(0x04)\n        /* \"crowdfunding.sol\":1321:1330  raisedAmt */\n      sload(0x05)\n        /* \"crowdfunding.sol\":1321:1337  raisedAmt<target */\n      lt\n        /* \"crowdfunding.sol\":1293:1337  block.timestamp>deadline && raisedAmt<target */\n    tag_110:\n        /* \"crowdfunding.sol\":1285:1376  require(block.timestamp>deadline && raisedAmt<target,\"You are not eligible for the refund\") */\n      tag_111\n      jumpi\n      mload(0x40)\n      0x08c379a000000000000000000000000000000000000000000000000000000000\n      dup2\n      mstore\n      0x04\n      add\n      tag_112\n      swap1\n      tag_113\n      jump\t// in\n    tag_112:\n      mload(0x40)\n      dup1\n      swap2\n      sub\n      swap1\n      revert\n    tag_111:\n        /* \"crowdfunding.sol\":1420:1421  0 */\n      0x00\n        /* \"crowdfunding.sol\":1395:1407  contributors */\n      dup1\n        /* \"crowdfunding.sol\":1395:1419  contributors[msg.sender] */\n      0x00\n        /* \"crowdfunding.sol\":1408:1418  msg.sender */\n      caller\n        /* \"crowdfunding.sol\":1395:1419  contributors[msg.sender] */\n      0xffffffffffffffffffffffffffffffffffffffff\n      and\n      0xffffffffffffffffffffffffffffffffffffffff\n      and\n      dup2\n      mstore\n      0x20\n      add\n      swap1\n      dup2\n      mstore\n      0x20\n      add\n      0x00\n      keccak256\n      sload\n        /* \"crowdfunding.sol\":1395:1421  contributors[msg.sender]>0 */\n      gt\n        /* \"crowdfunding.sol\":1387:1422  require(contributors[msg.sender]>0) */\n      tag_114\n      jumpi\n      0x00\n      dup1\n      revert\n    tag_114:\n        /* \"crowdfunding.sol\":1433:1453  address payable user */\n      0x00\n        /* \"crowdfunding.sol\":1462:1472  msg.sender */\n      caller\n        /* \"crowdfunding.sol\":1433:1473  address payable user=payable(msg.sender) */\n      swap1\n      pop\n        /* \"crowdfunding.sol\":1484:1488  user */\n      dup1\n        /* \"crowdfunding.sol\":1484:1497  user.transfer */\n      0xffffffffffffffffffffffffffffffffffffffff\n      and\n        /* \"crowdfunding.sol\":1484:1523  user.transfer(contributors[msg.sender]) */\n      0x08fc\n        /* \"crowdfunding.sol\":1498:1510  contributors */\n      0x00\n        /* \"crowdfunding.sol\":1498:1522  contributors[msg.sender] */\n      dup1\n        /* \"crowdfunding.sol\":1511:1521  msg.sender */\n      caller\n        /* \"crowdfunding.sol\":1498:1522  contributors[msg.sender] */\n      0xffffffffffffffffffffffffffffffffffffffff\n      and\n      0xffffffffffffffffffffffffffffffffffffffff\n      and\n      dup2\n      mstore\n      0x20\n      add\n      swap1\n      dup2\n      mstore\n      0x20\n      add\n      0x00\n      keccak256\n      sload\n        /* \"crowdfunding.sol\":1484:1523  user.transfer(contributors[msg.sender]) */\n      swap1\n      dup2\n      iszero\n      mul\n      swap1\n      mload(0x40)\n      0x00\n      mload(0x40)\n      dup1\n      dup4\n      sub\n      dup2\n      dup6\n      dup9\n      dup9\n      call\n      swap4\n      pop\n      pop\n      pop\n      pop\n      iszero\n      dup1\n      iszero\n      tag_116\n      jumpi\n      returndatasize\n      0x00\n      dup1\n      returndatacopy\n      revert(0x00, returndatasize)\n    tag_116:\n      pop\n        /* \"crowdfunding.sol\":1559:1560  0 */\n      0x00\n        /* \"crowdfunding.sol\":1534:1546  contributors */\n      dup1\n        /* \"crowdfunding.sol\":1534:1558  contributors[msg.sender] */\n      0x00\n        /* \"crowdfunding.sol\":1547:1557  msg.sender */\n      caller\n        /* \"crowdfunding.sol\":1534:1558  contributors[msg.sender] */\n      0xffffffffffffffffffffffffffffffffffffffff\n      and\n      0xffffffffffffffffffffffffffffffffffffffff\n      and\n      dup2\n      mstore\n      0x20\n      add\n      swap1\n      dup2\n      mstore\n      0x20\n      add\n      0x00\n      keccak256\n        /* \"crowdfunding.sol\":1534:1560  contributors[msg.sender]=0 */\n      dup2\n      swap1\n      sstore\n      pop\n        /* \"crowdfunding.sol\":1274:1568  {\r... */\n      pop\n        /* \"crowdfunding.sol\":1250:1568  function refund() public{\r... */\n      jump\t// out\n        /* \"crowdfunding.sol\":1140:1242  function getContractBalance() public view returns(uint){\r... */\n    tag_60:\n        /* \"crowdfunding.sol\":1190:1194  uint */\n      0x00\n        /* \"crowdfunding.sol\":1213:1234  address(this).balance */\n      selfbalance\n        /* \"crowdfunding.sol\":1206:1234  return address(this).balance */\n      swap1\n      pop\n        /* \"crowdfunding.sol\":1140:1242  function getContractBalance() public view returns(uint){\r... */\n      swap1\n      jump\t// out\n        /* \"crowdfunding.sol\":525:563  mapping(uint=>Request) public requests */\n    tag_65:\n      mstore(0x20, 0x07)\n      dup1\n      0x00\n      mstore\n      keccak256(0x00, 0x40)\n      0x00\n      swap2\n      pop\n      swap1\n      pop\n      dup1\n      0x00\n      add\n      dup1\n      sload\n      tag_118\n      swap1\n      tag_119\n      jump\t// in\n    tag_118:\n      dup1\n      0x1f\n      add\n      0x20\n      dup1\n      swap2\n      div\n      mul\n      0x20\n      add\n      mload(0x40)\n      swap1\n      dup2\n      add\n      0x40\n      mstore\n      dup1\n      swap3\n      swap2\n      swap1\n      dup2\n      dup2\n      mstore\n      0x20\n      add\n      dup3\n      dup1\n      sload\n      tag_120\n      swap1\n      tag_119\n      jump\t// in\n    tag_120:\n      dup1\n      iszero\n      tag_121\n      jumpi\n      dup1\n      0x1f\n      lt\n      tag_122\n      jumpi\n      0x0100\n      dup1\n      dup4\n      sload\n      div\n      mul\n      dup4\n      mstore\n      swap2\n      0x20\n      add\n      swap2\n      jump(tag_121)\n    tag_122:\n      dup3\n      add\n      swap2\n      swap1\n      0x00\n      mstore\n      keccak256(0x00, 0x20)\n      swap1\n    tag_123:\n      dup2\n      sload\n      dup2\n      mstore\n      swap1\n      0x01\n      add\n      swap1\n      0x20\n      add\n      dup1\n      dup4\n      gt\n      tag_123\n      jumpi\n      dup3\n      swap1\n      sub\n      0x1f\n      and\n      dup3\n      add\n      swap2\n    tag_121:\n      pop\n      pop\n      pop\n      pop\n      pop\n      swap1\n      dup1\n      0x01\n      add\n      0x00\n      swap1\n      sload\n      swap1\n      0x0100\n      exp\n      swap1\n      div\n      0xffffffffffffffffffffffffffffffffffffffff\n      and\n      swap1\n      dup1\n      0x02\n      add\n      sload\n      swap1\n      dup1\n      0x03\n      add\n      0x00\n      swap1\n      sload\n      swap1\n      0x0100\n      exp\n      swap1\n      div\n      0xff\n      and\n      swap1\n      dup1\n      0x04\n      add\n      sload\n      swap1\n      pop\n      dup6\n      jump\t// out\n        /* \"crowdfunding.sol\":2450:2845  function payment(uint _requestNo) public onlyManager{\r... */\n    tag_71:\n        /* \"crowdfunding.sol\":1629:1636  manager */\n      0x01\n      0x00\n      swap1\n      sload\n      swap1\n      0x0100\n      exp\n      swap1\n      div\n      0xffffffffffffffffffffffffffffffffffffffff\n      and\n        /* \"crowdfunding.sol\":1617:1636  msg.sender==manager */\n      0xffffffffffffffffffffffffffffffffffffffff\n      and\n        /* \"crowdfunding.sol\":1617:1627  msg.sender */\n      caller\n        /* \"crowdfunding.sol\":1617:1636  msg.sender==manager */\n      0xffffffffffffffffffffffffffffffffffffffff\n      and\n      eq\n        /* \"crowdfunding.sol\":1609:1681  require(msg.sender==manager,\"Only manager allowed to call the function\") */\n      tag_125\n      jumpi\n      mload(0x40)\n      0x08c379a000000000000000000000000000000000000000000000000000000000\n      dup2\n      mstore\n      0x04\n      add\n      tag_126\n      swap1\n      tag_96\n      jump\t// in\n    tag_126:\n      mload(0x40)\n      dup1\n      swap2\n      sub\n      swap1\n      revert\n    tag_125:\n        /* \"crowdfunding.sol\":2532:2538  target */\n      sload(0x04)\n        /* \"crowdfunding.sol\":2521:2530  raisedAmt */\n      sload(0x05)\n        /* \"crowdfunding.sol\":2521:2538  raisedAmt>=target */\n      lt\n      iszero\n        /* \"crowdfunding.sol\":2513:2539  require(raisedAmt>=target) */\n      tag_128\n      jumpi\n      0x00\n      dup1\n      revert\n    tag_128:\n        /* \"crowdfunding.sol\":2550:2577  Request storage thisRequest */\n      0x00\n        /* \"crowdfunding.sol\":2578:2586  requests */\n      0x07\n        /* \"crowdfunding.sol\":2578:2598  requests[_requestNo] */\n      0x00\n        /* \"crowdfunding.sol\":2587:2597  _requestNo */\n      dup4\n        /* \"crowdfunding.sol\":2578:2598  requests[_requestNo] */\n      dup2\n      mstore\n      0x20\n      add\n      swap1\n      dup2\n      mstore\n      0x20\n      add\n      0x00\n      keccak256\n        /* \"crowdfunding.sol\":2550:2598  Request storage thisRequest=requests[_requestNo] */\n      swap1\n      pop\n        /* \"crowdfunding.sol\":2640:2645  false */\n      0x00\n        /* \"crowdfunding.sol\":2617:2645  thisRequest.completed==false */\n      iszero\n      iszero\n        /* \"crowdfunding.sol\":2617:2628  thisRequest */\n      dup2\n        /* \"crowdfunding.sol\":2617:2638  thisRequest.completed */\n      0x03\n      add\n      0x00\n      swap1\n      sload\n      swap1\n      0x0100\n      exp\n      swap1\n      div\n      0xff\n      and\n        /* \"crowdfunding.sol\":2617:2645  thisRequest.completed==false */\n      iszero\n      iszero\n      eq\n        /* \"crowdfunding.sol\":2609:2683  require(thisRequest.completed==false,\"Request has been already completed\") */\n      tag_129\n      jumpi\n      mload(0x40)\n      0x08c379a000000000000000000000000000000000000000000000000000000000\n      dup2\n      mstore\n      0x04\n      add\n      tag_130\n      swap1\n      tag_131\n      jump\t// in\n    tag_130:\n      mload(0x40)\n      dup1\n      swap2\n      sub\n      swap1\n      revert\n    tag_129:\n        /* \"crowdfunding.sol\":2738:2739  2 */\n      0x02\n        /* \"crowdfunding.sol\":2725:2737  noOfContribs */\n      sload(0x06)\n        /* \"crowdfunding.sol\":2725:2739  noOfContribs/2 */\n      tag_132\n      swap2\n      swap1\n      tag_133\n      jump\t// in\n    tag_132:\n        /* \"crowdfunding.sol\":2702:2713  thisRequest */\n      dup2\n        /* \"crowdfunding.sol\":2702:2724  thisRequest.noOfVoters */\n      0x04\n      add\n      sload\n        /* \"crowdfunding.sol\":2702:2739  thisRequest.noOfVoters>noOfContribs/2 */\n      gt\n        /* \"crowdfunding.sol\":2694:2740  require(thisRequest.noOfVoters>noOfContribs/2) */\n      tag_134\n      jumpi\n      0x00\n      dup1\n      revert\n    tag_134:\n        /* \"crowdfunding.sol\":2751:2762  thisRequest */\n      dup1\n        /* \"crowdfunding.sol\":2751:2772  thisRequest.recipient */\n      0x01\n      add\n      0x00\n      swap1\n      sload\n      swap1\n      0x0100\n      exp\n      swap1\n      div\n      0xffffffffffffffffffffffffffffffffffffffff\n      and\n        /* \"crowdfunding.sol\":2751:2781  thisRequest.recipient.transfer */\n      0xffffffffffffffffffffffffffffffffffffffff\n      and\n        /* \"crowdfunding.sol\":2751:2800  thisRequest.recipient.transfer(thisRequest.value) */\n      0x08fc\n        /* \"crowdfunding.sol\":2782:2793  thisRequest */\n      dup3\n        /* \"crowdfunding.sol\":2782:2799  thisRequest.value */\n      0x02\n      add\n      sload\n        /* \"crowdfunding.sol\":2751:2800  thisRequest.recipient.transfer(thisRequest.value) */\n      swap1\n      dup2\n      iszero\n      mul\n      swap1\n      mload(0x40)\n      0x00\n      mload(0x40)\n      dup1\n      dup4\n      sub\n      dup2\n      dup6\n      dup9\n      dup9\n      call\n      swap4\n      pop\n      pop\n      pop\n      pop\n      iszero\n      dup1\n      iszero\n      tag_136\n      jumpi\n      returndatasize\n      0x00\n      dup1\n      returndatacopy\n      revert(0x00, returndatasize)\n    tag_136:\n      pop\n        /* \"crowdfunding.sol\":2833:2837  true */\n      0x01\n        /* \"crowdfunding.sol\":2811:2822  thisRequest */\n      dup2\n        /* \"crowdfunding.sol\":2811:2832  thisRequest.completed */\n      0x03\n      add\n      0x00\n        /* \"crowdfunding.sol\":2811:2837  thisRequest.completed=true */\n      0x0100\n      exp\n      dup2\n      sload\n      dup2\n      0xff\n      mul\n      not\n      and\n      swap1\n      dup4\n      iszero\n      iszero\n      mul\n      or\n      swap1\n      sstore\n      pop\n        /* \"crowdfunding.sol\":2502:2845  {\r... */\n      pop\n        /* \"crowdfunding.sol\":2450:2845  function payment(uint _requestNo) public onlyManager{\r... */\n      pop\n      jump\t// out\n        /* \"crowdfunding.sol\":173:200  uint public minContribution */\n    tag_74:\n      sload(0x02)\n      dup2\n      jump\t// out\n        /* \"crowdfunding.sol\":234:252  uint public target */\n    tag_78:\n      sload(0x04)\n      dup2\n      jump\t// out\n    tag_100:\n      dup3\n      dup1\n      sload\n      tag_137\n      swap1\n      tag_119\n      jump\t// in\n    tag_137:\n      swap1\n      0x00\n      mstore\n      keccak256(0x00, 0x20)\n      swap1\n      0x1f\n      add\n      0x20\n      swap1\n      div\n      dup2\n      add\n      swap3\n      dup3\n      tag_139\n      jumpi\n      0x00\n      dup6\n      sstore\n      jump(tag_138)\n    tag_139:\n      dup3\n      0x1f\n      lt\n      tag_140\n      jumpi\n      dup1\n      mload\n      not(0xff)\n      and\n      dup4\n      dup1\n      add\n      or\n      dup6\n      sstore\n      jump(tag_138)\n    tag_140:\n      dup3\n      dup1\n      add\n      0x01\n      add\n      dup6\n      sstore\n      dup3\n      iszero\n      tag_138\n      jumpi\n      swap2\n      dup3\n      add\n    tag_141:\n      dup3\n      dup2\n      gt\n      iszero\n      tag_142\n      jumpi\n      dup3\n      mload\n      dup3\n      sstore\n      swap2\n      0x20\n      add\n      swap2\n      swap1\n      0x01\n      add\n      swap1\n      jump(tag_141)\n    tag_142:\n    tag_138:\n      pop\n      swap1\n      pop\n      tag_143\n      swap2\n      swap1\n      tag_144\n      jump\t// in\n    tag_143:\n      pop\n      swap1\n      jump\t// out\n    tag_144:\n    tag_145:\n      dup1\n      dup3\n      gt\n      iszero\n      tag_146\n      jumpi\n      0x00\n      dup2\n      0x00\n      swap1\n      sstore\n      pop\n      0x01\n      add\n      jump(tag_145)\n    tag_146:\n      pop\n      swap1\n      jump\t// out\n        /* \"#utility.yul\":7:419   */\n    tag_148:\n        /* \"#utility.yul\":85:90   */\n      0x00\n        /* \"#utility.yul\":110:176   */\n      tag_150\n        /* \"#utility.yul\":126:175   */\n      tag_151\n        /* \"#utility.yul\":168:174   */\n      dup5\n        /* \"#utility.yul\":126:175   */\n      tag_152\n      jump\t// in\n    tag_151:\n        /* \"#utility.yul\":110:176   */\n      tag_153\n      jump\t// in\n    tag_150:\n        /* \"#utility.yul\":101:176   */\n      swap1\n      pop\n        /* \"#utility.yul\":199:205   */\n      dup3\n        /* \"#utility.yul\":192:197   */\n      dup2\n        /* \"#utility.yul\":185:206   */\n      mstore\n        /* \"#utility.yul\":237:241   */\n      0x20\n        /* \"#utility.yul\":230:235   */\n      dup2\n        /* \"#utility.yul\":226:242   */\n      add\n        /* \"#utility.yul\":275:278   */\n      dup5\n        /* \"#utility.yul\":266:272   */\n      dup5\n        /* \"#utility.yul\":261:264   */\n      dup5\n        /* \"#utility.yul\":257:273   */\n      add\n        /* \"#utility.yul\":254:279   */\n      gt\n        /* \"#utility.yul\":251:363   */\n      iszero\n      tag_154\n      jumpi\n        /* \"#utility.yul\":282:361   */\n      tag_155\n      tag_156\n      jump\t// in\n    tag_155:\n        /* \"#utility.yul\":251:363   */\n    tag_154:\n        /* \"#utility.yul\":372:413   */\n      tag_157\n        /* \"#utility.yul\":406:412   */\n      dup5\n        /* \"#utility.yul\":401:404   */\n      dup3\n        /* \"#utility.yul\":396:399   */\n      dup6\n        /* \"#utility.yul\":372:413   */\n      tag_158\n      jump\t// in\n    tag_157:\n        /* \"#utility.yul\":91:419   */\n      pop\n        /* \"#utility.yul\":7:419   */\n      swap4\n      swap3\n      pop\n      pop\n      pop\n      jump\t// out\n        /* \"#utility.yul\":425:564   */\n    tag_159:\n        /* \"#utility.yul\":471:476   */\n      0x00\n        /* \"#utility.yul\":509:515   */\n      dup2\n        /* \"#utility.yul\":496:516   */\n      calldataload\n        /* \"#utility.yul\":487:516   */\n      swap1\n      pop\n        /* \"#utility.yul\":525:558   */\n      tag_161\n        /* \"#utility.yul\":552:557   */\n      dup2\n        /* \"#utility.yul\":525:558   */\n      tag_162\n      jump\t// in\n    tag_161:\n        /* \"#utility.yul\":425:564   */\n      swap3\n      swap2\n      pop\n      pop\n      jump\t// out\n        /* \"#utility.yul\":570:725   */\n    tag_163:\n        /* \"#utility.yul\":624:629   */\n      0x00\n        /* \"#utility.yul\":662:668   */\n      dup2\n        /* \"#utility.yul\":649:669   */\n      calldataload\n        /* \"#utility.yul\":640:669   */\n      swap1\n      pop\n        /* \"#utility.yul\":678:719   */\n      tag_165\n        /* \"#utility.yul\":713:718   */\n      dup2\n        /* \"#utility.yul\":678:719   */\n      tag_166\n      jump\t// in\n    tag_165:\n        /* \"#utility.yul\":570:725   */\n      swap3\n      swap2\n      pop\n      pop\n      jump\t// out\n        /* \"#utility.yul\":745:1085   */\n    tag_167:\n        /* \"#utility.yul\":801:806   */\n      0x00\n        /* \"#utility.yul\":850:853   */\n      dup3\n        /* \"#utility.yul\":843:847   */\n      0x1f\n        /* \"#utility.yul\":835:841   */\n      dup4\n        /* \"#utility.yul\":831:848   */\n      add\n        /* \"#utility.yul\":827:854   */\n      slt\n        /* \"#utility.yul\":817:939   */\n      tag_169\n      jumpi\n        /* \"#utility.yul\":858:937   */\n      tag_170\n      tag_171\n      jump\t// in\n    tag_170:\n        /* \"#utility.yul\":817:939   */\n    tag_169:\n        /* \"#utility.yul\":975:981   */\n      dup2\n        /* \"#utility.yul\":962:982   */\n      calldataload\n        /* \"#utility.yul\":1000:1079   */\n      tag_172\n        /* \"#utility.yul\":1075:1078   */\n      dup5\n        /* \"#utility.yul\":1067:1073   */\n      dup3\n        /* \"#utility.yul\":1060:1064   */\n      0x20\n        /* \"#utility.yul\":1052:1058   */\n      dup7\n        /* \"#utility.yul\":1048:1065   */\n      add\n        /* \"#utility.yul\":1000:1079   */\n      tag_148\n      jump\t// in\n    tag_172:\n        /* \"#utility.yul\":991:1079   */\n      swap2\n      pop\n        /* \"#utility.yul\":807:1085   */\n      pop\n        /* \"#utility.yul\":745:1085   */\n      swap3\n      swap2\n      pop\n      pop\n      jump\t// out\n        /* \"#utility.yul\":1091:1230   */\n    tag_173:\n        /* \"#utility.yul\":1137:1142   */\n      0x00\n        /* \"#utility.yul\":1175:1181   */\n      dup2\n        /* \"#utility.yul\":1162:1182   */\n      calldataload\n        /* \"#utility.yul\":1153:1182   */\n      swap1\n      pop\n        /* \"#utility.yul\":1191:1224   */\n      tag_175\n        /* \"#utility.yul\":1218:1223   */\n      dup2\n        /* \"#utility.yul\":1191:1224   */\n      tag_176\n      jump\t// in\n    tag_175:\n        /* \"#utility.yul\":1091:1230   */\n      swap3\n      swap2\n      pop\n      pop\n      jump\t// out\n        /* \"#utility.yul\":1236:1565   */\n    tag_29:\n        /* \"#utility.yul\":1295:1301   */\n      0x00\n        /* \"#utility.yul\":1344:1346   */\n      0x20\n        /* \"#utility.yul\":1332:1341   */\n      dup3\n        /* \"#utility.yul\":1323:1330   */\n      dup5\n        /* \"#utility.yul\":1319:1342   */\n      sub\n        /* \"#utility.yul\":1315:1347   */\n      slt\n        /* \"#utility.yul\":1312:1431   */\n      iszero\n      tag_178\n      jumpi\n        /* \"#utility.yul\":1350:1429   */\n      tag_179\n      tag_180\n      jump\t// in\n    tag_179:\n        /* \"#utility.yul\":1312:1431   */\n    tag_178:\n        /* \"#utility.yul\":1470:1471   */\n      0x00\n        /* \"#utility.yul\":1495:1548   */\n      tag_181\n        /* \"#utility.yul\":1540:1547   */\n      dup5\n        /* \"#utility.yul\":1531:1537   */\n      dup3\n        /* \"#utility.yul\":1520:1529   */\n      dup6\n        /* \"#utility.yul\":1516:1538   */\n      add\n        /* \"#utility.yul\":1495:1548   */\n      tag_159\n      jump\t// in\n    tag_181:\n        /* \"#utility.yul\":1485:1548   */\n      swap2\n      pop\n        /* \"#utility.yul\":1441:1558   */\n      pop\n        /* \"#utility.yul\":1236:1565   */\n      swap3\n      swap2\n      pop\n      pop\n      jump\t// out\n        /* \"#utility.yul\":1571:2386   */\n    tag_24:\n        /* \"#utility.yul\":1666:1672   */\n      0x00\n        /* \"#utility.yul\":1674:1680   */\n      dup1\n        /* \"#utility.yul\":1682:1688   */\n      0x00\n        /* \"#utility.yul\":1731:1733   */\n      0x60\n        /* \"#utility.yul\":1719:1728   */\n      dup5\n        /* \"#utility.yul\":1710:1717   */\n      dup7\n        /* \"#utility.yul\":1706:1729   */\n      sub\n        /* \"#utility.yul\":1702:1734   */\n      slt\n        /* \"#utility.yul\":1699:1818   */\n      iszero\n      tag_183\n      jumpi\n        /* \"#utility.yul\":1737:1816   */\n      tag_184\n      tag_180\n      jump\t// in\n    tag_184:\n        /* \"#utility.yul\":1699:1818   */\n    tag_183:\n        /* \"#utility.yul\":1885:1886   */\n      0x00\n        /* \"#utility.yul\":1874:1883   */\n      dup5\n        /* \"#utility.yul\":1870:1887   */\n      add\n        /* \"#utility.yul\":1857:1888   */\n      calldataload\n        /* \"#utility.yul\":1915:1933   */\n      0xffffffffffffffff\n        /* \"#utility.yul\":1907:1913   */\n      dup2\n        /* \"#utility.yul\":1904:1934   */\n      gt\n        /* \"#utility.yul\":1901:2018   */\n      iszero\n      tag_185\n      jumpi\n        /* \"#utility.yul\":1937:2016   */\n      tag_186\n      tag_187\n      jump\t// in\n    tag_186:\n        /* \"#utility.yul\":1901:2018   */\n    tag_185:\n        /* \"#utility.yul\":2042:2105   */\n      tag_188\n        /* \"#utility.yul\":2097:2104   */\n      dup7\n        /* \"#utility.yul\":2088:2094   */\n      dup3\n        /* \"#utility.yul\":2077:2086   */\n      dup8\n        /* \"#utility.yul\":2073:2095   */\n      add\n        /* \"#utility.yul\":2042:2105   */\n      tag_167\n      jump\t// in\n    tag_188:\n        /* \"#utility.yul\":2032:2105   */\n      swap4\n      pop\n        /* \"#utility.yul\":1828:2115   */\n      pop\n        /* \"#utility.yul\":2154:2156   */\n      0x20\n        /* \"#utility.yul\":2180:2241   */\n      tag_189\n        /* \"#utility.yul\":2233:2240   */\n      dup7\n        /* \"#utility.yul\":2224:2230   */\n      dup3\n        /* \"#utility.yul\":2213:2222   */\n      dup8\n        /* \"#utility.yul\":2209:2231   */\n      add\n        /* \"#utility.yul\":2180:2241   */\n      tag_163\n      jump\t// in\n    tag_189:\n        /* \"#utility.yul\":2170:2241   */\n      swap3\n      pop\n        /* \"#utility.yul\":2125:2251   */\n      pop\n        /* \"#utility.yul\":2290:2292   */\n      0x40\n        /* \"#utility.yul\":2316:2369   */\n      tag_190\n        /* \"#utility.yul\":2361:2368   */\n      dup7\n        /* \"#utility.yul\":2352:2358   */\n      dup3\n        /* \"#utility.yul\":2341:2350   */\n      dup8\n        /* \"#utility.yul\":2337:2359   */\n      add\n        /* \"#utility.yul\":2316:2369   */\n      tag_173\n      jump\t// in\n    tag_190:\n        /* \"#utility.yul\":2306:2369   */\n      swap2\n      pop\n        /* \"#utility.yul\":2261:2379   */\n      pop\n        /* \"#utility.yul\":1571:2386   */\n      swap3\n      pop\n      swap3\n      pop\n      swap3\n      jump\t// out\n        /* \"#utility.yul\":2392:2721   */\n    tag_53:\n        /* \"#utility.yul\":2451:2457   */\n      0x00\n        /* \"#utility.yul\":2500:2502   */\n      0x20\n        /* \"#utility.yul\":2488:2497   */\n      dup3\n        /* \"#utility.yul\":2479:2486   */\n      dup5\n        /* \"#utility.yul\":2475:2498   */\n      sub\n        /* \"#utility.yul\":2471:2503   */\n      slt\n        /* \"#utility.yul\":2468:2587   */\n      iszero\n      tag_192\n      jumpi\n        /* \"#utility.yul\":2506:2585   */\n      tag_193\n      tag_180\n      jump\t// in\n    tag_193:\n        /* \"#utility.yul\":2468:2587   */\n    tag_192:\n        /* \"#utility.yul\":2626:2627   */\n      0x00\n        /* \"#utility.yul\":2651:2704   */\n      tag_194\n        /* \"#utility.yul\":2696:2703   */\n      dup5\n        /* \"#utility.yul\":2687:2693   */\n      dup3\n        /* \"#utility.yul\":2676:2685   */\n      dup6\n        /* \"#utility.yul\":2672:2694   */\n      add\n        /* \"#utility.yul\":2651:2704   */\n      tag_173\n      jump\t// in\n    tag_194:\n        /* \"#utility.yul\":2641:2704   */\n      swap2\n      pop\n        /* \"#utility.yul\":2597:2714   */\n      pop\n        /* \"#utility.yul\":2392:2721   */\n      swap3\n      swap2\n      pop\n      pop\n      jump\t// out\n        /* \"#utility.yul\":2727:2869   */\n    tag_195:\n        /* \"#utility.yul\":2830:2862   */\n      tag_197\n        /* \"#utility.yul\":2856:2861   */\n      dup2\n        /* \"#utility.yul\":2830:2862   */\n      tag_198\n      jump\t// in\n    tag_197:\n        /* \"#utility.yul\":2825:2828   */\n      dup3\n        /* \"#utility.yul\":2818:2863   */\n      mstore\n        /* \"#utility.yul\":2727:2869   */\n      pop\n      pop\n      jump\t// out\n        /* \"#utility.yul\":2875:2993   */\n    tag_199:\n        /* \"#utility.yul\":2962:2986   */\n      tag_201\n        /* \"#utility.yul\":2980:2985   */\n      dup2\n        /* \"#utility.yul\":2962:2986   */\n      tag_202\n      jump\t// in\n    tag_201:\n        /* \"#utility.yul\":2957:2960   */\n      dup3\n        /* \"#utility.yul\":2950:2987   */\n      mstore\n        /* \"#utility.yul\":2875:2993   */\n      pop\n      pop\n      jump\t// out\n        /* \"#utility.yul\":2999:3108   */\n    tag_203:\n        /* \"#utility.yul\":3080:3101   */\n      tag_205\n        /* \"#utility.yul\":3095:3100   */\n      dup2\n        /* \"#utility.yul\":3080:3101   */\n      tag_206\n      jump\t// in\n    tag_205:\n        /* \"#utility.yul\":3075:3078   */\n      dup3\n        /* \"#utility.yul\":3068:3102   */\n      mstore\n        /* \"#utility.yul\":2999:3108   */\n      pop\n      pop\n      jump\t// out\n        /* \"#utility.yul\":3114:3478   */\n    tag_207:\n        /* \"#utility.yul\":3202:3205   */\n      0x00\n        /* \"#utility.yul\":3230:3269   */\n      tag_209\n        /* \"#utility.yul\":3263:3268   */\n      dup3\n        /* \"#utility.yul\":3230:3269   */\n      tag_210\n      jump\t// in\n    tag_209:\n        /* \"#utility.yul\":3285:3356   */\n      tag_211\n        /* \"#utility.yul\":3349:3355   */\n      dup2\n        /* \"#utility.yul\":3344:3347   */\n      dup6\n        /* \"#utility.yul\":3285:3356   */\n      tag_212\n      jump\t// in\n    tag_211:\n        /* \"#utility.yul\":3278:3356   */\n      swap4\n      pop\n        /* \"#utility.yul\":3365:3417   */\n      tag_213\n        /* \"#utility.yul\":3410:3416   */\n      dup2\n        /* \"#utility.yul\":3405:3408   */\n      dup6\n        /* \"#utility.yul\":3398:3402   */\n      0x20\n        /* \"#utility.yul\":3391:3396   */\n      dup7\n        /* \"#utility.yul\":3387:3403   */\n      add\n        /* \"#utility.yul\":3365:3417   */\n      tag_214\n      jump\t// in\n    tag_213:\n        /* \"#utility.yul\":3442:3471   */\n      tag_215\n        /* \"#utility.yul\":3464:3470   */\n      dup2\n        /* \"#utility.yul\":3442:3471   */\n      tag_216\n      jump\t// in\n    tag_215:\n        /* \"#utility.yul\":3437:3440   */\n      dup5\n        /* \"#utility.yul\":3433:3472   */\n      add\n        /* \"#utility.yul\":3426:3472   */\n      swap2\n      pop\n        /* \"#utility.yul\":3206:3478   */\n      pop\n        /* \"#utility.yul\":3114:3478   */\n      swap3\n      swap2\n      pop\n      pop\n      jump\t// out\n        /* \"#utility.yul\":3484:3850   */\n    tag_217:\n        /* \"#utility.yul\":3626:3629   */\n      0x00\n        /* \"#utility.yul\":3647:3714   */\n      tag_219\n        /* \"#utility.yul\":3711:3713   */\n      0x23\n        /* \"#utility.yul\":3706:3709   */\n      dup4\n        /* \"#utility.yul\":3647:3714   */\n      tag_212\n      jump\t// in\n    tag_219:\n        /* \"#utility.yul\":3640:3714   */\n      swap2\n      pop\n        /* \"#utility.yul\":3723:3816   */\n      tag_220\n        /* \"#utility.yul\":3812:3815   */\n      dup3\n        /* \"#utility.yul\":3723:3816   */\n      tag_221\n      jump\t// in\n    tag_220:\n        /* \"#utility.yul\":3841:3843   */\n      0x40\n        /* \"#utility.yul\":3836:3839   */\n      dup3\n        /* \"#utility.yul\":3832:3844   */\n      add\n        /* \"#utility.yul\":3825:3844   */\n      swap1\n      pop\n        /* \"#utility.yul\":3484:3850   */\n      swap2\n      swap1\n      pop\n      jump\t// out\n        /* \"#utility.yul\":3856:4222   */\n    tag_222:\n        /* \"#utility.yul\":3998:4001   */\n      0x00\n        /* \"#utility.yul\":4019:4086   */\n      tag_224\n        /* \"#utility.yul\":4083:4085   */\n      0x1f\n        /* \"#utility.yul\":4078:4081   */\n      dup4\n        /* \"#utility.yul\":4019:4086   */\n      tag_212\n      jump\t// in\n    tag_224:\n        /* \"#utility.yul\":4012:4086   */\n      swap2\n      pop\n        /* \"#utility.yul\":4095:4188   */\n      tag_225\n        /* \"#utility.yul\":4184:4187   */\n      dup3\n        /* \"#utility.yul\":4095:4188   */\n      tag_226\n      jump\t// in\n    tag_225:\n        /* \"#utility.yul\":4213:4215   */\n      0x20\n        /* \"#utility.yul\":4208:4211   */\n      dup3\n        /* \"#utility.yul\":4204:4216   */\n      add\n        /* \"#utility.yul\":4197:4216   */\n      swap1\n      pop\n        /* \"#utility.yul\":3856:4222   */\n      swap2\n      swap1\n      pop\n      jump\t// out\n        /* \"#utility.yul\":4228:4594   */\n    tag_227:\n        /* \"#utility.yul\":4370:4373   */\n      0x00\n        /* \"#utility.yul\":4391:4458   */\n      tag_229\n        /* \"#utility.yul\":4455:4457   */\n      0x22\n        /* \"#utility.yul\":4450:4453   */\n      dup4\n        /* \"#utility.yul\":4391:4458   */\n      tag_212\n      jump\t// in\n    tag_229:\n        /* \"#utility.yul\":4384:4458   */\n      swap2\n      pop\n        /* \"#utility.yul\":4467:4560   */\n      tag_230\n        /* \"#utility.yul\":4556:4559   */\n      dup3\n        /* \"#utility.yul\":4467:4560   */\n      tag_231\n      jump\t// in\n    tag_230:\n        /* \"#utility.yul\":4585:4587   */\n      0x40\n        /* \"#utility.yul\":4580:4583   */\n      dup3\n        /* \"#utility.yul\":4576:4588   */\n      add\n        /* \"#utility.yul\":4569:4588   */\n      swap1\n      pop\n        /* \"#utility.yul\":4228:4594   */\n      swap2\n      swap1\n      pop\n      jump\t// out\n        /* \"#utility.yul\":4600:4966   */\n    tag_232:\n        /* \"#utility.yul\":4742:4745   */\n      0x00\n        /* \"#utility.yul\":4763:4830   */\n      tag_234\n        /* \"#utility.yul\":4827:4829   */\n      0x29\n        /* \"#utility.yul\":4822:4825   */\n      dup4\n        /* \"#utility.yul\":4763:4830   */\n      tag_212\n      jump\t// in\n    tag_234:\n        /* \"#utility.yul\":4756:4830   */\n      swap2\n      pop\n        /* \"#utility.yul\":4839:4932   */\n      tag_235\n        /* \"#utility.yul\":4928:4931   */\n      dup3\n        /* \"#utility.yul\":4839:4932   */\n      tag_236\n      jump\t// in\n    tag_235:\n        /* \"#utility.yul\":4957:4959   */\n      0x40\n        /* \"#utility.yul\":4952:4955   */\n      dup3\n        /* \"#utility.yul\":4948:4960   */\n      add\n        /* \"#utility.yul\":4941:4960   */\n      swap1\n      pop\n        /* \"#utility.yul\":4600:4966   */\n      swap2\n      swap1\n      pop\n      jump\t// out\n        /* \"#utility.yul\":4972:5338   */\n    tag_237:\n        /* \"#utility.yul\":5114:5117   */\n      0x00\n        /* \"#utility.yul\":5135:5202   */\n      tag_239\n        /* \"#utility.yul\":5199:5201   */\n      0x19\n        /* \"#utility.yul\":5194:5197   */\n      dup4\n        /* \"#utility.yul\":5135:5202   */\n      tag_212\n      jump\t// in\n    tag_239:\n        /* \"#utility.yul\":5128:5202   */\n      swap2\n      pop\n        /* \"#utility.yul\":5211:5304   */\n      tag_240\n        /* \"#utility.yul\":5300:5303   */\n      dup3\n        /* \"#utility.yul\":5211:5304   */\n      tag_241\n      jump\t// in\n    tag_240:\n        /* \"#utility.yul\":5329:5331   */\n      0x20\n        /* \"#utility.yul\":5324:5327   */\n      dup3\n        /* \"#utility.yul\":5320:5332   */\n      add\n        /* \"#utility.yul\":5313:5332   */\n      swap1\n      pop\n        /* \"#utility.yul\":4972:5338   */\n      swap2\n      swap1\n      pop\n      jump\t// out\n        /* \"#utility.yul\":5344:5710   */\n    tag_242:\n        /* \"#utility.yul\":5486:5489   */\n      0x00\n        /* \"#utility.yul\":5507:5574   */\n      tag_244\n        /* \"#utility.yul\":5571:5573   */\n      0x0f\n        /* \"#utility.yul\":5566:5569   */\n      dup4\n        /* \"#utility.yul\":5507:5574   */\n      tag_212\n      jump\t// in\n    tag_244:\n        /* \"#utility.yul\":5500:5574   */\n      swap2\n      pop\n        /* \"#utility.yul\":5583:5676   */\n      tag_245\n        /* \"#utility.yul\":5672:5675   */\n      dup3\n        /* \"#utility.yul\":5583:5676   */\n      tag_246\n      jump\t// in\n    tag_245:\n        /* \"#utility.yul\":5701:5703   */\n      0x20\n        /* \"#utility.yul\":5696:5699   */\n      dup3\n        /* \"#utility.yul\":5692:5704   */\n      add\n        /* \"#utility.yul\":5685:5704   */\n      swap1\n      pop\n        /* \"#utility.yul\":5344:5710   */\n      swap2\n      swap1\n      pop\n      jump\t// out\n        /* \"#utility.yul\":5716:6082   */\n    tag_247:\n        /* \"#utility.yul\":5858:5861   */\n      0x00\n        /* \"#utility.yul\":5879:5946   */\n      tag_249\n        /* \"#utility.yul\":5943:5945   */\n      0x16\n        /* \"#utility.yul\":5938:5941   */\n      dup4\n        /* \"#utility.yul\":5879:5946   */\n      tag_212\n      jump\t// in\n    tag_249:\n        /* \"#utility.yul\":5872:5946   */\n      swap2\n      pop\n        /* \"#utility.yul\":5955:6048   */\n      tag_250\n        /* \"#utility.yul\":6044:6047   */\n      dup3\n        /* \"#utility.yul\":5955:6048   */\n      tag_251\n      jump\t// in\n    tag_250:\n        /* \"#utility.yul\":6073:6075   */\n      0x20\n        /* \"#utility.yul\":6068:6071   */\n      dup3\n        /* \"#utility.yul\":6064:6076   */\n      add\n        /* \"#utility.yul\":6057:6076   */\n      swap1\n      pop\n        /* \"#utility.yul\":5716:6082   */\n      swap2\n      swap1\n      pop\n      jump\t// out\n        /* \"#utility.yul\":6088:6206   */\n    tag_252:\n        /* \"#utility.yul\":6175:6199   */\n      tag_254\n        /* \"#utility.yul\":6193:6198   */\n      dup2\n        /* \"#utility.yul\":6175:6199   */\n      tag_255\n      jump\t// in\n    tag_254:\n        /* \"#utility.yul\":6170:6173   */\n      dup3\n        /* \"#utility.yul\":6163:6200   */\n      mstore\n        /* \"#utility.yul\":6088:6206   */\n      pop\n      pop\n      jump\t// out\n        /* \"#utility.yul\":6212:6434   */\n    tag_49:\n        /* \"#utility.yul\":6305:6309   */\n      0x00\n        /* \"#utility.yul\":6343:6345   */\n      0x20\n        /* \"#utility.yul\":6332:6341   */\n      dup3\n        /* \"#utility.yul\":6328:6346   */\n      add\n        /* \"#utility.yul\":6320:6346   */\n      swap1\n      pop\n        /* \"#utility.yul\":6356:6427   */\n      tag_257\n        /* \"#utility.yul\":6424:6425   */\n      0x00\n        /* \"#utility.yul\":6413:6422   */\n      dup4\n        /* \"#utility.yul\":6409:6426   */\n      add\n        /* \"#utility.yul\":6400:6406   */\n      dup5\n        /* \"#utility.yul\":6356:6427   */\n      tag_199\n      jump\t// in\n    tag_257:\n        /* \"#utility.yul\":6212:6434   */\n      swap3\n      swap2\n      pop\n      pop\n      jump\t// out\n        /* \"#utility.yul\":6440:7215   */\n    tag_67:\n        /* \"#utility.yul\":6675:6679   */\n      0x00\n        /* \"#utility.yul\":6713:6716   */\n      0xa0\n        /* \"#utility.yul\":6702:6711   */\n      dup3\n        /* \"#utility.yul\":6698:6717   */\n      add\n        /* \"#utility.yul\":6690:6717   */\n      swap1\n      pop\n        /* \"#utility.yul\":6763:6772   */\n      dup2\n        /* \"#utility.yul\":6757:6761   */\n      dup2\n        /* \"#utility.yul\":6753:6773   */\n      sub\n        /* \"#utility.yul\":6749:6750   */\n      0x00\n        /* \"#utility.yul\":6738:6747   */\n      dup4\n        /* \"#utility.yul\":6734:6751   */\n      add\n        /* \"#utility.yul\":6727:6774   */\n      mstore\n        /* \"#utility.yul\":6791:6869   */\n      tag_259\n        /* \"#utility.yul\":6864:6868   */\n      dup2\n        /* \"#utility.yul\":6855:6861   */\n      dup9\n        /* \"#utility.yul\":6791:6869   */\n      tag_207\n      jump\t// in\n    tag_259:\n        /* \"#utility.yul\":6783:6869   */\n      swap1\n      pop\n        /* \"#utility.yul\":6879:6967   */\n      tag_260\n        /* \"#utility.yul\":6963:6965   */\n      0x20\n        /* \"#utility.yul\":6952:6961   */\n      dup4\n        /* \"#utility.yul\":6948:6966   */\n      add\n        /* \"#utility.yul\":6939:6945   */\n      dup8\n        /* \"#utility.yul\":6879:6967   */\n      tag_195\n      jump\t// in\n    tag_260:\n        /* \"#utility.yul\":6977:7049   */\n      tag_261\n        /* \"#utility.yul\":7045:7047   */\n      0x40\n        /* \"#utility.yul\":7034:7043   */\n      dup4\n        /* \"#utility.yul\":7030:7048   */\n      add\n        /* \"#utility.yul\":7021:7027   */\n      dup7\n        /* \"#utility.yul\":6977:7049   */\n      tag_252\n      jump\t// in\n    tag_261:\n        /* \"#utility.yul\":7059:7125   */\n      tag_262\n        /* \"#utility.yul\":7121:7123   */\n      0x60\n        /* \"#utility.yul\":7110:7119   */\n      dup4\n        /* \"#utility.yul\":7106:7124   */\n      add\n        /* \"#utility.yul\":7097:7103   */\n      dup6\n        /* \"#utility.yul\":7059:7125   */\n      tag_203\n      jump\t// in\n    tag_262:\n        /* \"#utility.yul\":7135:7208   */\n      tag_263\n        /* \"#utility.yul\":7203:7206   */\n      0x80\n        /* \"#utility.yul\":7192:7201   */\n      dup4\n        /* \"#utility.yul\":7188:7207   */\n      add\n        /* \"#utility.yul\":7179:7185   */\n      dup5\n        /* \"#utility.yul\":7135:7208   */\n      tag_252\n      jump\t// in\n    tag_263:\n        /* \"#utility.yul\":6440:7215   */\n      swap7\n      swap6\n      pop\n      pop\n      pop\n      pop\n      pop\n      pop\n      jump\t// out\n        /* \"#utility.yul\":7221:7640   */\n    tag_113:\n        /* \"#utility.yul\":7387:7391   */\n      0x00\n        /* \"#utility.yul\":7425:7427   */\n      0x20\n        /* \"#utility.yul\":7414:7423   */\n      dup3\n        /* \"#utility.yul\":7410:7428   */\n      add\n        /* \"#utility.yul\":7402:7428   */\n      swap1\n      pop\n        /* \"#utility.yul\":7474:7483   */\n      dup2\n        /* \"#utility.yul\":7468:7472   */\n      dup2\n        /* \"#utility.yul\":7464:7484   */\n      sub\n        /* \"#utility.yul\":7460:7461   */\n      0x00\n        /* \"#utility.yul\":7449:7458   */\n      dup4\n        /* \"#utility.yul\":7445:7462   */\n      add\n        /* \"#utility.yul\":7438:7485   */\n      mstore\n        /* \"#utility.yul\":7502:7633   */\n      tag_265\n        /* \"#utility.yul\":7628:7632   */\n      dup2\n        /* \"#utility.yul\":7502:7633   */\n      tag_217\n      jump\t// in\n    tag_265:\n        /* \"#utility.yul\":7494:7633   */\n      swap1\n      pop\n        /* \"#utility.yul\":7221:7640   */\n      swap2\n      swap1\n      pop\n      jump\t// out\n        /* \"#utility.yul\":7646:8065   */\n    tag_86:\n        /* \"#utility.yul\":7812:7816   */\n      0x00\n        /* \"#utility.yul\":7850:7852   */\n      0x20\n        /* \"#utility.yul\":7839:7848   */\n      dup3\n        /* \"#utility.yul\":7835:7853   */\n      add\n        /* \"#utility.yul\":7827:7853   */\n      swap1\n      pop\n        /* \"#utility.yul\":7899:7908   */\n      dup2\n        /* \"#utility.yul\":7893:7897   */\n      dup2\n        /* \"#utility.yul\":7889:7909   */\n      sub\n        /* \"#utility.yul\":7885:7886   */\n      0x00\n        /* \"#utility.yul\":7874:7883   */\n      dup4\n        /* \"#utility.yul\":7870:7887   */\n      add\n        /* \"#utility.yul\":7863:7910   */\n      mstore\n        /* \"#utility.yul\":7927:8058   */\n      tag_267\n        /* \"#utility.yul\":8053:8057   */\n      dup2\n        /* \"#utility.yul\":7927:8058   */\n      tag_222\n      jump\t// in\n    tag_267:\n        /* \"#utility.yul\":7919:8058   */\n      swap1\n      pop\n        /* \"#utility.yul\":7646:8065   */\n      swap2\n      swap1\n      pop\n      jump\t// out\n        /* \"#utility.yul\":8071:8490   */\n    tag_131:\n        /* \"#utility.yul\":8237:8241   */\n      0x00\n        /* \"#utility.yul\":8275:8277   */\n      0x20\n        /* \"#utility.yul\":8264:8273   */\n      dup3\n        /* \"#utility.yul\":8260:8278   */\n      add\n        /* \"#utility.yul\":8252:8278   */\n      swap1\n      pop\n        /* \"#utility.yul\":8324:8333   */\n      dup2\n        /* \"#utility.yul\":8318:8322   */\n      dup2\n        /* \"#utility.yul\":8314:8334   */\n      sub\n        /* \"#utility.yul\":8310:8311   */\n      0x00\n        /* \"#utility.yul\":8299:8308   */\n      dup4\n        /* \"#utility.yul\":8295:8312   */\n      add\n        /* \"#utility.yul\":8288:8335   */\n      mstore\n        /* \"#utility.yul\":8352:8483   */\n      tag_269\n        /* \"#utility.yul\":8478:8482   */\n      dup2\n        /* \"#utility.yul\":8352:8483   */\n      tag_227\n      jump\t// in\n    tag_269:\n        /* \"#utility.yul\":8344:8483   */\n      swap1\n      pop\n        /* \"#utility.yul\":8071:8490   */\n      swap2\n      swap1\n      pop\n      jump\t// out\n        /* \"#utility.yul\":8496:8915   */\n    tag_96:\n        /* \"#utility.yul\":8662:8666   */\n      0x00\n        /* \"#utility.yul\":8700:8702   */\n      0x20\n        /* \"#utility.yul\":8689:8698   */\n      dup3\n        /* \"#utility.yul\":8685:8703   */\n      add\n        /* \"#utility.yul\":8677:8703   */\n      swap1\n      pop\n        /* \"#utility.yul\":8749:8758   */\n      dup2\n        /* \"#utility.yul\":8743:8747   */\n      dup2\n        /* \"#utility.yul\":8739:8759   */\n      sub\n        /* \"#utility.yul\":8735:8736   */\n      0x00\n        /* \"#utility.yul\":8724:8733   */\n      dup4\n        /* \"#utility.yul\":8720:8737   */\n      add\n        /* \"#utility.yul\":8713:8760   */\n      mstore\n        /* \"#utility.yul\":8777:8908   */\n      tag_271\n        /* \"#utility.yul\":8903:8907   */\n      dup2\n        /* \"#utility.yul\":8777:8908   */\n      tag_232\n      jump\t// in\n    tag_271:\n        /* \"#utility.yul\":8769:8908   */\n      swap1\n      pop\n        /* \"#utility.yul\":8496:8915   */\n      swap2\n      swap1\n      pop\n      jump\t// out\n        /* \"#utility.yul\":8921:9340   */\n    tag_104:\n        /* \"#utility.yul\":9087:9091   */\n      0x00\n        /* \"#utility.yul\":9125:9127   */\n      0x20\n        /* \"#utility.yul\":9114:9123   */\n      dup3\n        /* \"#utility.yul\":9110:9128   */\n      add\n        /* \"#utility.yul\":9102:9128   */\n      swap1\n      pop\n        /* \"#utility.yul\":9174:9183   */\n      dup2\n        /* \"#utility.yul\":9168:9172   */\n      dup2\n        /* \"#utility.yul\":9164:9184   */\n      sub\n        /* \"#utility.yul\":9160:9161   */\n      0x00\n        /* \"#utility.yul\":9149:9158   */\n      dup4\n        /* \"#utility.yul\":9145:9162   */\n      add\n        /* \"#utility.yul\":9138:9185   */\n      mstore\n        /* \"#utility.yul\":9202:9333   */\n      tag_273\n        /* \"#utility.yul\":9328:9332   */\n      dup2\n        /* \"#utility.yul\":9202:9333   */\n      tag_237\n      jump\t// in\n    tag_273:\n        /* \"#utility.yul\":9194:9333   */\n      swap1\n      pop\n        /* \"#utility.yul\":8921:9340   */\n      swap2\n      swap1\n      pop\n      jump\t// out\n        /* \"#utility.yul\":9346:9765   */\n    tag_83:\n        /* \"#utility.yul\":9512:9516   */\n      0x00\n        /* \"#utility.yul\":9550:9552   */\n      0x20\n        /* \"#utility.yul\":9539:9548   */\n      dup3\n        /* \"#utility.yul\":9535:9553   */\n      add\n        /* \"#utility.yul\":9527:9553   */\n      swap1\n      pop\n        /* \"#utility.yul\":9599:9608   */\n      dup2\n        /* \"#utility.yul\":9593:9597   */\n      dup2\n        /* \"#utility.yul\":9589:9609   */\n      sub\n        /* \"#utility.yul\":9585:9586   */\n      0x00\n        /* \"#utility.yul\":9574:9583   */\n      dup4\n        /* \"#utility.yul\":9570:9587   */\n      add\n        /* \"#utility.yul\":9563:9610   */\n      mstore\n        /* \"#utility.yul\":9627:9758   */\n      tag_275\n        /* \"#utility.yul\":9753:9757   */\n      dup2\n        /* \"#utility.yul\":9627:9758   */\n      tag_242\n      jump\t// in\n    tag_275:\n        /* \"#utility.yul\":9619:9758   */\n      swap1\n      pop\n        /* \"#utility.yul\":9346:9765   */\n      swap2\n      swap1\n      pop\n      jump\t// out\n        /* \"#utility.yul\":9771:10190   */\n    tag_107:\n        /* \"#utility.yul\":9937:9941   */\n      0x00\n        /* \"#utility.yul\":9975:9977   */\n      0x20\n        /* \"#utility.yul\":9964:9973   */\n      dup3\n        /* \"#utility.yul\":9960:9978   */\n      add\n        /* \"#utility.yul\":9952:9978   */\n      swap1\n      pop\n        /* \"#utility.yul\":10024:10033   */\n      dup2\n        /* \"#utility.yul\":10018:10022   */\n      dup2\n        /* \"#utility.yul\":10014:10034   */\n      sub\n        /* \"#utility.yul\":10010:10011   */\n      0x00\n        /* \"#utility.yul\":9999:10008   */\n      dup4\n        /* \"#utility.yul\":9995:10012   */\n      add\n        /* \"#utility.yul\":9988:10035   */\n      mstore\n        /* \"#utility.yul\":10052:10183   */\n      tag_277\n        /* \"#utility.yul\":10178:10182   */\n      dup2\n        /* \"#utility.yul\":10052:10183   */\n      tag_247\n      jump\t// in\n    tag_277:\n        /* \"#utility.yul\":10044:10183   */\n      swap1\n      pop\n        /* \"#utility.yul\":9771:10190   */\n      swap2\n      swap1\n      pop\n      jump\t// out\n        /* \"#utility.yul\":10196:10418   */\n    tag_32:\n        /* \"#utility.yul\":10289:10293   */\n      0x00\n        /* \"#utility.yul\":10327:10329   */\n      0x20\n        /* \"#utility.yul\":10316:10325   */\n      dup3\n        /* \"#utility.yul\":10312:10330   */\n      add\n        /* \"#utility.yul\":10304:10330   */\n      swap1\n      pop\n        /* \"#utility.yul\":10340:10411   */\n      tag_279\n        /* \"#utility.yul\":10408:10409   */\n      0x00\n        /* \"#utility.yul\":10397:10406   */\n      dup4\n        /* \"#utility.yul\":10393:10410   */\n      add\n        /* \"#utility.yul\":10384:10390   */\n      dup5\n        /* \"#utility.yul\":10340:10411   */\n      tag_252\n      jump\t// in\n    tag_279:\n        /* \"#utility.yul\":10196:10418   */\n      swap3\n      swap2\n      pop\n      pop\n      jump\t// out\n        /* \"#utility.yul\":10424:10553   */\n    tag_153:\n        /* \"#utility.yul\":10458:10464   */\n      0x00\n        /* \"#utility.yul\":10485:10505   */\n      tag_281\n      tag_282\n      jump\t// in\n    tag_281:\n        /* \"#utility.yul\":10475:10505   */\n      swap1\n      pop\n        /* \"#utility.yul\":10514:10547   */\n      tag_283\n        /* \"#utility.yul\":10542:10546   */\n      dup3\n        /* \"#utility.yul\":10534:10540   */\n      dup3\n        /* \"#utility.yul\":10514:10547   */\n      tag_284\n      jump\t// in\n    tag_283:\n        /* \"#utility.yul\":10424:10553   */\n      swap2\n      swap1\n      pop\n      jump\t// out\n        /* \"#utility.yul\":10559:10634   */\n    tag_282:\n        /* \"#utility.yul\":10592:10598   */\n      0x00\n        /* \"#utility.yul\":10625:10627   */\n      0x40\n        /* \"#utility.yul\":10619:10628   */\n      mload\n        /* \"#utility.yul\":10609:10628   */\n      swap1\n      pop\n        /* \"#utility.yul\":10559:10634   */\n      swap1\n      jump\t// out\n        /* \"#utility.yul\":10640:10948   */\n    tag_152:\n        /* \"#utility.yul\":10702:10706   */\n      0x00\n        /* \"#utility.yul\":10792:10810   */\n      0xffffffffffffffff\n        /* \"#utility.yul\":10784:10790   */\n      dup3\n        /* \"#utility.yul\":10781:10811   */\n      gt\n        /* \"#utility.yul\":10778:10834   */\n      iszero\n      tag_287\n      jumpi\n        /* \"#utility.yul\":10814:10832   */\n      tag_288\n      tag_289\n      jump\t// in\n    tag_288:\n        /* \"#utility.yul\":10778:10834   */\n    tag_287:\n        /* \"#utility.yul\":10852:10881   */\n      tag_290\n        /* \"#utility.yul\":10874:10880   */\n      dup3\n        /* \"#utility.yul\":10852:10881   */\n      tag_216\n      jump\t// in\n    tag_290:\n        /* \"#utility.yul\":10844:10881   */\n      swap1\n      pop\n        /* \"#utility.yul\":10936:10940   */\n      0x20\n        /* \"#utility.yul\":10930:10934   */\n      dup2\n        /* \"#utility.yul\":10926:10941   */\n      add\n        /* \"#utility.yul\":10918:10941   */\n      swap1\n      pop\n        /* \"#utility.yul\":10640:10948   */\n      swap2\n      swap1\n      pop\n      jump\t// out\n        /* \"#utility.yul\":10954:11053   */\n    tag_210:\n        /* \"#utility.yul\":11006:11012   */\n      0x00\n        /* \"#utility.yul\":11040:11045   */\n      dup2\n        /* \"#utility.yul\":11034:11046   */\n      mload\n        /* \"#utility.yul\":11024:11046   */\n      swap1\n      pop\n        /* \"#utility.yul\":10954:11053   */\n      swap2\n      swap1\n      pop\n      jump\t// out\n        /* \"#utility.yul\":11059:11228   */\n    tag_212:\n        /* \"#utility.yul\":11143:11154   */\n      0x00\n        /* \"#utility.yul\":11177:11183   */\n      dup3\n        /* \"#utility.yul\":11172:11175   */\n      dup3\n        /* \"#utility.yul\":11165:11184   */\n      mstore\n        /* \"#utility.yul\":11217:11221   */\n      0x20\n        /* \"#utility.yul\":11212:11215   */\n      dup3\n        /* \"#utility.yul\":11208:11222   */\n      add\n        /* \"#utility.yul\":11193:11222   */\n      swap1\n      pop\n        /* \"#utility.yul\":11059:11228   */\n      swap3\n      swap2\n      pop\n      pop\n      jump\t// out\n        /* \"#utility.yul\":11234:11539   */\n    tag_91:\n        /* \"#utility.yul\":11274:11277   */\n      0x00\n        /* \"#utility.yul\":11293:11313   */\n      tag_294\n        /* \"#utility.yul\":11311:11312   */\n      dup3\n        /* \"#utility.yul\":11293:11313   */\n      tag_255\n      jump\t// in\n    tag_294:\n        /* \"#utility.yul\":11288:11313   */\n      swap2\n      pop\n        /* \"#utility.yul\":11327:11347   */\n      tag_295\n        /* \"#utility.yul\":11345:11346   */\n      dup4\n        /* \"#utility.yul\":11327:11347   */\n      tag_255\n      jump\t// in\n    tag_295:\n        /* \"#utility.yul\":11322:11347   */\n      swap3\n      pop\n        /* \"#utility.yul\":11481:11482   */\n      dup3\n        /* \"#utility.yul\":11413:11479   */\n      0xffffffffffffffffffffffffffffffffffffffffffffffffffffffffffffffff\n        /* \"#utility.yul\":11409:11483   */\n      sub\n        /* \"#utility.yul\":11406:11407   */\n      dup3\n        /* \"#utility.yul\":11403:11484   */\n      gt\n        /* \"#utility.yul\":11400:11507   */\n      iszero\n      tag_296\n      jumpi\n        /* \"#utility.yul\":11487:11505   */\n      tag_297\n      tag_298\n      jump\t// in\n    tag_297:\n        /* \"#utility.yul\":11400:11507   */\n    tag_296:\n        /* \"#utility.yul\":11531:11532   */\n      dup3\n        /* \"#utility.yul\":11528:11529   */\n      dup3\n        /* \"#utility.yul\":11524:11533   */\n      add\n        /* \"#utility.yul\":11517:11533   */\n      swap1\n      pop\n        /* \"#utility.yul\":11234:11539   */\n      swap3\n      swap2\n      pop\n      pop\n      jump\t// out\n        /* \"#utility.yul\":11545:11730   */\n    tag_133:\n        /* \"#utility.yul\":11585:11586   */\n      0x00\n        /* \"#utility.yul\":11602:11622   */\n      tag_300\n        /* \"#utility.yul\":11620:11621   */\n      dup3\n        /* \"#utility.yul\":11602:11622   */\n      tag_255\n      jump\t// in\n    tag_300:\n        /* \"#utility.yul\":11597:11622   */\n      swap2\n      pop\n        /* \"#utility.yul\":11636:11656   */\n      tag_301\n        /* \"#utility.yul\":11654:11655   */\n      dup4\n        /* \"#utility.yul\":11636:11656   */\n      tag_255\n      jump\t// in\n    tag_301:\n        /* \"#utility.yul\":11631:11656   */\n      swap3\n      pop\n        /* \"#utility.yul\":11675:11676   */\n      dup3\n        /* \"#utility.yul\":11665:11700   */\n      tag_302\n      jumpi\n        /* \"#utility.yul\":11680:11698   */\n      tag_303\n      tag_304\n      jump\t// in\n    tag_303:\n        /* \"#utility.yul\":11665:11700   */\n    tag_302:\n        /* \"#utility.yul\":11722:11723   */\n      dup3\n        /* \"#utility.yul\":11719:11720   */\n      dup3\n        /* \"#utility.yul\":11715:11724   */\n      div\n        /* \"#utility.yul\":11710:11724   */\n      swap1\n      pop\n        /* \"#utility.yul\":11545:11730   */\n      swap3\n      swap2\n      pop\n      pop\n      jump\t// out\n        /* \"#utility.yul\":11736:11832   */\n    tag_202:\n        /* \"#utility.yul\":11773:11780   */\n      0x00\n        /* \"#utility.yul\":11802:11826   */\n      tag_306\n        /* \"#utility.yul\":11820:11825   */\n      dup3\n        /* \"#utility.yul\":11802:11826   */\n      tag_307\n      jump\t// in\n    tag_306:\n        /* \"#utility.yul\":11791:11826   */\n      swap1\n      pop\n        /* \"#utility.yul\":11736:11832   */\n      swap2\n      swap1\n      pop\n      jump\t// out\n        /* \"#utility.yul\":11838:11942   */\n    tag_198:\n        /* \"#utility.yul\":11883:11890   */\n      0x00\n        /* \"#utility.yul\":11912:11936   */\n      tag_309\n        /* \"#utility.yul\":11930:11935   */\n      dup3\n        /* \"#utility.yul\":11912:11936   */\n      tag_307\n      jump\t// in\n    tag_309:\n        /* \"#utility.yul\":11901:11936   */\n      swap1\n      pop\n        /* \"#utility.yul\":11838:11942   */\n      swap2\n      swap1\n      pop\n      jump\t// out\n        /* \"#utility.yul\":11948:12038   */\n    tag_206:\n        /* \"#utility.yul\":11982:11989   */\n      0x00\n        /* \"#utility.yul\":12025:12030   */\n      dup2\n        /* \"#utility.yul\":12018:12031   */\n      iszero\n        /* \"#utility.yul\":12011:12032   */\n      iszero\n        /* \"#utility.yul\":12000:12032   */\n      swap1\n      pop\n        /* \"#utility.yul\":11948:12038   */\n      swap2\n      swap1\n      pop\n      jump\t// out\n        /* \"#utility.yul\":12044:12170   */\n    tag_307:\n        /* \"#utility.yul\":12081:12088   */\n      0x00\n        /* \"#utility.yul\":12121:12163   */\n      0xffffffffffffffffffffffffffffffffffffffff\n        /* \"#utility.yul\":12114:12119   */\n      dup3\n        /* \"#utility.yul\":12110:12164   */\n      and\n        /* \"#utility.yul\":12099:12164   */\n      swap1\n      pop\n        /* \"#utility.yul\":12044:12170   */\n      swap2\n      swap1\n      pop\n      jump\t// out\n        /* \"#utility.yul\":12176:12253   */\n    tag_255:\n        /* \"#utility.yul\":12213:12220   */\n      0x00\n        /* \"#utility.yul\":12242:12247   */\n      dup2\n        /* \"#utility.yul\":12231:12247   */\n      swap1\n      pop\n        /* \"#utility.yul\":12176:12253   */\n      swap2\n      swap1\n      pop\n      jump\t// out\n        /* \"#utility.yul\":12259:12413   */\n    tag_158:\n        /* \"#utility.yul\":12343:12349   */\n      dup3\n        /* \"#utility.yul\":12338:12341   */\n      dup2\n        /* \"#utility.yul\":12333:12336   */\n      dup4\n        /* \"#utility.yul\":12320:12350   */\n      calldatacopy\n        /* \"#utility.yul\":12405:12406   */\n      0x00\n        /* \"#utility.yul\":12396:12402   */\n      dup4\n        /* \"#utility.yul\":12391:12394   */\n      dup4\n        /* \"#utility.yul\":12387:12403   */\n      add\n        /* \"#utility.yul\":12380:12407   */\n      mstore\n        /* \"#utility.yul\":12259:12413   */\n      pop\n      pop\n      pop\n      jump\t// out\n        /* \"#utility.yul\":12419:12726   */\n    tag_214:\n        /* \"#utility.yul\":12487:12488   */\n      0x00\n        /* \"#utility.yul\":12497:12610   */\n    tag_315:\n        /* \"#utility.yul\":12511:12517   */\n      dup4\n        /* \"#utility.yul\":12508:12509   */\n      dup2\n        /* \"#utility.yul\":12505:12518   */\n      lt\n        /* \"#utility.yul\":12497:12610   */\n      iszero\n      tag_317\n      jumpi\n        /* \"#utility.yul\":12596:12597   */\n      dup1\n        /* \"#utility.yul\":12591:12594   */\n      dup3\n        /* \"#utility.yul\":12587:12598   */\n      add\n        /* \"#utility.yul\":12581:12599   */\n      mload\n        /* \"#utility.yul\":12577:12578   */\n      dup2\n        /* \"#utility.yul\":12572:12575   */\n      dup5\n        /* \"#utility.yul\":12568:12579   */\n      add\n        /* \"#utility.yul\":12561:12600   */\n      mstore\n        /* \"#utility.yul\":12533:12535   */\n      0x20\n        /* \"#utility.yul\":12530:12531   */\n      dup2\n        /* \"#utility.yul\":12526:12536   */\n      add\n        /* \"#utility.yul\":12521:12536   */\n      swap1\n      pop\n        /* \"#utility.yul\":12497:12610   */\n      jump(tag_315)\n    tag_317:\n        /* \"#utility.yul\":12628:12634   */\n      dup4\n        /* \"#utility.yul\":12625:12626   */\n      dup2\n        /* \"#utility.yul\":12622:12635   */\n      gt\n        /* \"#utility.yul\":12619:12720   */\n      iszero\n      tag_318\n      jumpi\n        /* \"#utility.yul\":12708:12709   */\n      0x00\n        /* \"#utility.yul\":12699:12705   */\n      dup5\n        /* \"#utility.yul\":12694:12697   */\n      dup5\n        /* \"#utility.yul\":12690:12706   */\n      add\n        /* \"#utility.yul\":12683:12710   */\n      mstore\n        /* \"#utility.yul\":12619:12720   */\n    tag_318:\n        /* \"#utility.yul\":12468:12726   */\n      pop\n        /* \"#utility.yul\":12419:12726   */\n      pop\n      pop\n      pop\n      jump\t// out\n        /* \"#utility.yul\":12732:13052   */\n    tag_119:\n        /* \"#utility.yul\":12776:12782   */\n      0x00\n        /* \"#utility.yul\":12813:12814   */\n      0x02\n        /* \"#utility.yul\":12807:12811   */\n      dup3\n        /* \"#utility.yul\":12803:12815   */\n      div\n        /* \"#utility.yul\":12793:12815   */\n      swap1\n      pop\n        /* \"#utility.yul\":12860:12861   */\n      0x01\n        /* \"#utility.yul\":12854:12858   */\n      dup3\n        /* \"#utility.yul\":12850:12862   */\n      and\n        /* \"#utility.yul\":12881:12899   */\n      dup1\n        /* \"#utility.yul\":12871:12952   */\n      tag_320\n      jumpi\n        /* \"#utility.yul\":12937:12941   */\n      0x7f\n        /* \"#utility.yul\":12929:12935   */\n      dup3\n        /* \"#utility.yul\":12925:12942   */\n      and\n        /* \"#utility.yul\":12915:12942   */\n      swap2\n      pop\n        /* \"#utility.yul\":12871:12952   */\n    tag_320:\n        /* \"#utility.yul\":12999:13001   */\n      0x20\n        /* \"#utility.yul\":12991:12997   */\n      dup3\n        /* \"#utility.yul\":12988:13002   */\n      lt\n        /* \"#utility.yul\":12968:12986   */\n      dup2\n        /* \"#utility.yul\":12965:13003   */\n      eq\n        /* \"#utility.yul\":12962:13046   */\n      iszero\n      tag_321\n      jumpi\n        /* \"#utility.yul\":13018:13036   */\n      tag_322\n      tag_323\n      jump\t// in\n    tag_322:\n        /* \"#utility.yul\":12962:13046   */\n    tag_321:\n        /* \"#utility.yul\":12783:13052   */\n      pop\n        /* \"#utility.yul\":12732:13052   */\n      swap2\n      swap1\n      pop\n      jump\t// out\n        /* \"#utility.yul\":13058:13339   */\n    tag_284:\n        /* \"#utility.yul\":13141:13168   */\n      tag_325\n        /* \"#utility.yul\":13163:13167   */\n      dup3\n        /* \"#utility.yul\":13141:13168   */\n      tag_216\n      jump\t// in\n    tag_325:\n        /* \"#utility.yul\":13133:13139   */\n      dup2\n        /* \"#utility.yul\":13129:13169   */\n      add\n        /* \"#utility.yul\":13271:13277   */\n      dup2\n        /* \"#utility.yul\":13259:13269   */\n      dup2\n        /* \"#utility.yul\":13256:13278   */\n      lt\n        /* \"#utility.yul\":13235:13253   */\n      0xffffffffffffffff\n        /* \"#utility.yul\":13223:13233   */\n      dup3\n        /* \"#utility.yul\":13220:13254   */\n      gt\n        /* \"#utility.yul\":13217:13279   */\n      or\n        /* \"#utility.yul\":13214:13302   */\n      iszero\n      tag_326\n      jumpi\n        /* \"#utility.yul\":13282:13300   */\n      tag_327\n      tag_289\n      jump\t// in\n    tag_327:\n        /* \"#utility.yul\":13214:13302   */\n    tag_326:\n        /* \"#utility.yul\":13322:13332   */\n      dup1\n        /* \"#utility.yul\":13318:13320   */\n      0x40\n        /* \"#utility.yul\":13311:13333   */\n      mstore\n        /* \"#utility.yul\":13101:13339   */\n      pop\n        /* \"#utility.yul\":13058:13339   */\n      pop\n      pop\n      jump\t// out\n        /* \"#utility.yul\":13345:13578   */\n    tag_89:\n        /* \"#utility.yul\":13384:13387   */\n      0x00\n        /* \"#utility.yul\":13407:13431   */\n      tag_329\n        /* \"#utility.yul\":13425:13430   */\n      dup3\n        /* \"#utility.yul\":13407:13431   */\n      tag_255\n      jump\t// in\n    tag_329:\n        /* \"#utility.yul\":13398:13431   */\n      swap2\n      pop\n        /* \"#utility.yul\":13453:13519   */\n      0xffffffffffffffffffffffffffffffffffffffffffffffffffffffffffffffff\n        /* \"#utility.yul\":13446:13451   */\n      dup3\n        /* \"#utility.yul\":13443:13520   */\n      eq\n        /* \"#utility.yul\":13440:13543   */\n      iszero\n      tag_330\n      jumpi\n        /* \"#utility.yul\":13523:13541   */\n      tag_331\n      tag_298\n      jump\t// in\n    tag_331:\n        /* \"#utility.yul\":13440:13543   */\n    tag_330:\n        /* \"#utility.yul\":13570:13571   */\n      0x01\n        /* \"#utility.yul\":13563:13568   */\n      dup3\n        /* \"#utility.yul\":13559:13572   */\n      add\n        /* \"#utility.yul\":13552:13572   */\n      swap1\n      pop\n        /* \"#utility.yul\":13345:13578   */\n      swap2\n      swap1\n      pop\n      jump\t// out\n        /* \"#utility.yul\":13584:13764   */\n    tag_298:\n        /* \"#utility.yul\":13632:13709   */\n      0x4e487b7100000000000000000000000000000000000000000000000000000000\n        /* \"#utility.yul\":13629:13630   */\n      0x00\n        /* \"#utility.yul\":13622:13710   */\n      mstore\n        /* \"#utility.yul\":13729:13733   */\n      0x11\n        /* \"#utility.yul\":13726:13727   */\n      0x04\n        /* \"#utility.yul\":13719:13734   */\n      mstore\n        /* \"#utility.yul\":13753:13757   */\n      0x24\n        /* \"#utility.yul\":13750:13751   */\n      0x00\n        /* \"#utility.yul\":13743:13758   */\n      revert\n        /* \"#utility.yul\":13770:13950   */\n    tag_304:\n        /* \"#utility.yul\":13818:13895   */\n      0x4e487b7100000000000000000000000000000000000000000000000000000000\n        /* \"#utility.yul\":13815:13816   */\n      0x00\n        /* \"#utility.yul\":13808:13896   */\n      mstore\n        /* \"#utility.yul\":13915:13919   */\n      0x12\n        /* \"#utility.yul\":13912:13913   */\n      0x04\n        /* \"#utility.yul\":13905:13920   */\n      mstore\n        /* \"#utility.yul\":13939:13943   */\n      0x24\n        /* \"#utility.yul\":13936:13937   */\n      0x00\n        /* \"#utility.yul\":13929:13944   */\n      revert\n        /* \"#utility.yul\":13956:14136   */\n    tag_323:\n        /* \"#utility.yul\":14004:14081   */\n      0x4e487b7100000000000000000000000000000000000000000000000000000000\n        /* \"#utility.yul\":14001:14002   */\n      0x00\n        /* \"#utility.yul\":13994:14082   */\n      mstore\n        /* \"#utility.yul\":14101:14105   */\n      0x22\n        /* \"#utility.yul\":14098:14099   */\n      0x04\n        /* \"#utility.yul\":14091:14106   */\n      mstore\n        /* \"#utility.yul\":14125:14129   */\n      0x24\n        /* \"#utility.yul\":14122:14123   */\n      0x00\n        /* \"#utility.yul\":14115:14130   */\n      revert\n        /* \"#utility.yul\":14142:14322   */\n    tag_289:\n        /* \"#utility.yul\":14190:14267   */\n      0x4e487b7100000000000000000000000000000000000000000000000000000000\n        /* \"#utility.yul\":14187:14188   */\n      0x00\n        /* \"#utility.yul\":14180:14268   */\n      mstore\n        /* \"#utility.yul\":14287:14291   */\n      0x41\n        /* \"#utility.yul\":14284:14285   */\n      0x04\n        /* \"#utility.yul\":14277:14292   */\n      mstore\n        /* \"#utility.yul\":14311:14315   */\n      0x24\n        /* \"#utility.yul\":14308:14309   */\n      0x00\n        /* \"#utility.yul\":14301:14316   */\n      revert\n        /* \"#utility.yul\":14328:14445   */\n    tag_171:\n        /* \"#utility.yul\":14437:14438   */\n      0x00\n        /* \"#utility.yul\":14434:14435   */\n      dup1\n        /* \"#utility.yul\":14427:14439   */\n      revert\n        /* \"#utility.yul\":14451:14568   */\n    tag_156:\n        /* \"#utility.yul\":14560:14561   */\n      0x00\n        /* \"#utility.yul\":14557:14558   */\n      dup1\n        /* \"#utility.yul\":14550:14562   */\n      revert\n        /* \"#utility.yul\":14574:14691   */\n    tag_187:\n        /* \"#utility.yul\":14683:14684   */\n      0x00\n        /* \"#utility.yul\":14680:14681   */\n      dup1\n        /* \"#utility.yul\":14673:14685   */\n      revert\n        /* \"#utility.yul\":14697:14814   */\n    tag_180:\n        /* \"#utility.yul\":14806:14807   */\n      0x00\n        /* \"#utility.yul\":14803:14804   */\n      dup1\n        /* \"#utility.yul\":14796:14808   */\n      revert\n        /* \"#utility.yul\":14820:14922   */\n    tag_216:\n        /* \"#utility.yul\":14861:14867   */\n      0x00\n        /* \"#utility.yul\":14912:14914   */\n      0x1f\n        /* \"#utility.yul\":14908:14915   */\n      not\n        /* \"#utility.yul\":14903:14905   */\n      0x1f\n        /* \"#utility.yul\":14896:14901   */\n      dup4\n        /* \"#utility.yul\":14892:14906   */\n      add\n        /* \"#utility.yul\":14888:14916   */\n      and\n        /* \"#utility.yul\":14878:14916   */\n      swap1\n      pop\n        /* \"#utility.yul\":14820:14922   */\n      swap2\n      swap1\n      pop\n      jump\t// out\n        /* \"#utility.yul\":14928:15150   */\n    tag_221:\n        /* \"#utility.yul\":15068:15102   */\n      0x596f7520617265206e6f7420656c696769626c6520666f722074686520726566\n        /* \"#utility.yul\":15064:15065   */\n      0x00\n        /* \"#utility.yul\":15056:15062   */\n      dup3\n        /* \"#utility.yul\":15052:15066   */\n      add\n        /* \"#utility.yul\":15045:15103   */\n      mstore\n        /* \"#utility.yul\":15137:15142   */\n      0x756e640000000000000000000000000000000000000000000000000000000000\n        /* \"#utility.yul\":15132:15134   */\n      0x20\n        /* \"#utility.yul\":15124:15130   */\n      dup3\n        /* \"#utility.yul\":15120:15135   */\n      add\n        /* \"#utility.yul\":15113:15143   */\n      mstore\n        /* \"#utility.yul\":14928:15150   */\n      pop\n      jump\t// out\n        /* \"#utility.yul\":15156:15337   */\n    tag_226:\n        /* \"#utility.yul\":15296:15329   */\n      0x4d696e696d756d20436f6e747269627574696f6e206973206e6f74206d657400\n        /* \"#utility.yul\":15292:15293   */\n      0x00\n        /* \"#utility.yul\":15284:15290   */\n      dup3\n        /* \"#utility.yul\":15280:15294   */\n      add\n        /* \"#utility.yul\":15273:15330   */\n      mstore\n        /* \"#utility.yul\":15156:15337   */\n      pop\n      jump\t// out\n        /* \"#utility.yul\":15343:15564   */\n    tag_231:\n        /* \"#utility.yul\":15483:15517   */\n      0x5265717565737420686173206265656e20616c726561647920636f6d706c6574\n        /* \"#utility.yul\":15479:15480   */\n      0x00\n        /* \"#utility.yul\":15471:15477   */\n      dup3\n        /* \"#utility.yul\":15467:15481   */\n      add\n        /* \"#utility.yul\":15460:15518   */\n      mstore\n        /* \"#utility.yul\":15552:15556   */\n      0x6564000000000000000000000000000000000000000000000000000000000000\n        /* \"#utility.yul\":15547:15549   */\n      0x20\n        /* \"#utility.yul\":15539:15545   */\n      dup3\n        /* \"#utility.yul\":15535:15550   */\n      add\n        /* \"#utility.yul\":15528:15557   */\n      mstore\n        /* \"#utility.yul\":15343:15564   */\n      pop\n      jump\t// out\n        /* \"#utility.yul\":15570:15798   */\n    tag_236:\n        /* \"#utility.yul\":15710:15744   */\n      0x4f6e6c79206d616e6167657220616c6c6f77656420746f2063616c6c20746865\n        /* \"#utility.yul\":15706:15707   */\n      0x00\n        /* \"#utility.yul\":15698:15704   */\n      dup3\n        /* \"#utility.yul\":15694:15708   */\n      add\n        /* \"#utility.yul\":15687:15745   */\n      mstore\n        /* \"#utility.yul\":15779:15790   */\n      0x2066756e6374696f6e0000000000000000000000000000000000000000000000\n        /* \"#utility.yul\":15774:15776   */\n      0x20\n        /* \"#utility.yul\":15766:15772   */\n      dup3\n        /* \"#utility.yul\":15762:15777   */\n      add\n        /* \"#utility.yul\":15755:15791   */\n      mstore\n        /* \"#utility.yul\":15570:15798   */\n      pop\n      jump\t// out\n        /* \"#utility.yul\":15804:15979   */\n    tag_241:\n        /* \"#utility.yul\":15944:15971   */\n      0x596f75206d757374206265206120636f6e7472696275746f7200000000000000\n        /* \"#utility.yul\":15940:15941   */\n      0x00\n        /* \"#utility.yul\":15932:15938   */\n      dup3\n        /* \"#utility.yul\":15928:15942   */\n      add\n        /* \"#utility.yul\":15921:15972   */\n      mstore\n        /* \"#utility.yul\":15804:15979   */\n      pop\n      jump\t// out\n        /* \"#utility.yul\":15985:16150   */\n    tag_246:\n        /* \"#utility.yul\":16125:16142   */\n      0x446561646c696e65207061737365640000000000000000000000000000000000\n        /* \"#utility.yul\":16121:16122   */\n      0x00\n        /* \"#utility.yul\":16113:16119   */\n      dup3\n        /* \"#utility.yul\":16109:16123   */\n      add\n        /* \"#utility.yul\":16102:16143   */\n      mstore\n        /* \"#utility.yul\":15985:16150   */\n      pop\n      jump\t// out\n        /* \"#utility.yul\":16156:16328   */\n    tag_251:\n        /* \"#utility.yul\":16296:16320   */\n      0x596f75206861766520616c726561647920766f74656400000000000000000000\n        /* \"#utility.yul\":16292:16293   */\n      0x00\n        /* \"#utility.yul\":16284:16290   */\n      dup3\n        /* \"#utility.yul\":16280:16294   */\n      add\n        /* \"#utility.yul\":16273:16321   */\n      mstore\n        /* \"#utility.yul\":16156:16328   */\n      pop\n      jump\t// out\n        /* \"#utility.yul\":16334:16456   */\n    tag_162:\n        /* \"#utility.yul\":16407:16431   */\n      tag_349\n        /* \"#utility.yul\":16425:16430   */\n      dup2\n        /* \"#utility.yul\":16407:16431   */\n      tag_202\n      jump\t// in\n    tag_349:\n        /* \"#utility.yul\":16400:16405   */\n      dup2\n        /* \"#utility.yul\":16397:16432   */\n      eq\n        /* \"#utility.yul\":16387:16450   */\n      tag_350\n      jumpi\n        /* \"#utility.yul\":16446:16447   */\n      0x00\n        /* \"#utility.yul\":16443:16444   */\n      dup1\n        /* \"#utility.yul\":16436:16448   */\n      revert\n        /* \"#utility.yul\":16387:16450   */\n    tag_350:\n        /* \"#utility.yul\":16334:16456   */\n      pop\n      jump\t// out\n        /* \"#utility.yul\":16462:16600   */\n    tag_166:\n        /* \"#utility.yul\":16543:16575   */\n      tag_352\n        /* \"#utility.yul\":16569:16574   */\n      dup2\n        /* \"#utility.yul\":16543:16575   */\n      tag_198\n      jump\t// in\n    tag_352:\n        /* \"#utility.yul\":16536:16541   */\n      dup2\n        /* \"#utility.yul\":16533:16576   */\n      eq\n        /* \"#utility.yul\":16523:16594   */\n      tag_353\n      jumpi\n        /* \"#utility.yul\":16590:16591   */\n      0x00\n        /* \"#utility.yul\":16587:16588   */\n      dup1\n        /* \"#utility.yul\":16580:16592   */\n      revert\n        /* \"#utility.yul\":16523:16594   */\n    tag_353:\n        /* \"#utility.yul\":16462:16600   */\n      pop\n      jump\t// out\n        /* \"#utility.yul\":16606:16728   */\n    tag_176:\n        /* \"#utility.yul\":16679:16703   */\n      tag_355\n        /* \"#utility.yul\":16697:16702   */\n      dup2\n        /* \"#utility.yul\":16679:16703   */\n      tag_255\n      jump\t// in\n    tag_355:\n        /* \"#utility.yul\":16672:16677   */\n      dup2\n        /* \"#utility.yul\":16669:16704   */\n      eq\n        /* \"#utility.yul\":16659:16722   */\n      tag_356\n      jumpi\n        /* \"#utility.yul\":16718:16719   */\n      0x00\n        /* \"#utility.yul\":16715:16716   */\n      dup1\n        /* \"#utility.yul\":16708:16720   */\n      revert\n        /* \"#utility.yul\":16659:16722   */\n    tag_356:\n        /* \"#utility.yul\":16606:16728   */\n      pop\n      jump\t// out\n\n    auxdata: 0xa26469706673582212203621456706560d681c85cac376001fe9cba277ac076d104c5d41c88d8f239b4a64736f6c63430008070033\n}\n",
				"bytecode": {
					"linkReferences": {},
					"object": "60806040523480156200001157600080fd5b50604051620017df380380620017df8339818101604052810190620000379190620000ba565b8160048190555080426200004c919062000101565b600381905550606460028190555033600160006101000a81548173ffffffffffffffffffffffffffffffffffffffff021916908373ffffffffffffffffffffffffffffffffffffffff1602179055505050620001b6565b600081519050620000b4816200019c565b92915050565b60008060408385031215620000d457620000d362000197565b5b6000620000e485828601620000a3565b9250506020620000f785828601620000a3565b9150509250929050565b60006200010e826200015e565b91506200011b836200015e565b9250827fffffffffffffffffffffffffffffffffffffffffffffffffffffffffffffffff0382111562000153576200015262000168565b5b828201905092915050565b6000819050919050565b7f4e487b7100000000000000000000000000000000000000000000000000000000600052601160045260246000fd5b600080fd5b620001a7816200015e565b8114620001b357600080fd5b50565b61161980620001c66000396000f3fe6080604052600436106100dd5760003560e01c80634cb6f4a51161007f57806381d12c581161005957806381d12c58146102695780638b3c99e3146102aa578063aaffadf3146102d3578063d4b83992146102fe576100dd565b80634cb6f4a5146101fe578063590e1ae3146102275780636f9fb98a1461023e576100dd565b806329dcb0cf116100bb57806329dcb0cf1461015257806335d755e61461017d5780633ece2b4f146101a8578063481c6a75146101d3576100dd565b806306e99fef146100e25780631b16bb5c146100ec5780631f6d494214610115575b600080fd5b6100ea610329565b005b3480156100f857600080fd5b50610113600480360381019061010e9190610d75565b610482565b005b34801561012157600080fd5b5061013c60048036038101906101379190610d48565b6105d5565b60405161014991906110d0565b60405180910390f35b34801561015e57600080fd5b506101676105ed565b60405161017491906110d0565b60405180910390f35b34801561018957600080fd5b506101926105f3565b60405161019f91906110d0565b60405180910390f35b3480156101b457600080fd5b506101bd6105f9565b6040516101ca91906110d0565b60405180910390f35b3480156101df57600080fd5b506101e86105ff565b6040516101f59190610f7b565b60405180910390f35b34801561020a57600080fd5b5061022560048036038101906102209190610de4565b610625565b005b34801561023357600080fd5b5061023c6107ca565b005b34801561024a57600080fd5b50610253610939565b60405161026091906110d0565b60405180910390f35b34801561027557600080fd5b50610290600480360381019061028b9190610de4565b610941565b6040516102a1959493929190610f96565b60405180910390f35b3480156102b657600080fd5b506102d160048036038101906102cc9190610de4565b610a2c565b005b3480156102df57600080fd5b506102e8610bea565b6040516102f591906110d0565b60405180910390f35b34801561030a57600080fd5b50610313610bf0565b60405161032091906110d0565b60405180910390f35b600354421061036d576040517f08c379a000000000000000000000000000000000000000000000000000000000815260040161036490611090565b60405180910390fd5b6002543410156103b2576040517f08c379a00000000000000000000000000000000000000000000000000000000081526004016103a990611010565b60405180910390fd5b60008060003373ffffffffffffffffffffffffffffffffffffffff1673ffffffffffffffffffffffffffffffffffffffff168152602001908152602001600020541415610412576006600081548092919061040c906112e3565b91905055505b346000803373ffffffffffffffffffffffffffffffffffffffff1673ffffffffffffffffffffffffffffffffffffffff1681526020019081526020016000206000828254610460919061115d565b925050819055503460056000828254610479919061115d565b92505081905550565b600160009054906101000a900473ffffffffffffffffffffffffffffffffffffffff1673ffffffffffffffffffffffffffffffffffffffff163373ffffffffffffffffffffffffffffffffffffffff1614610512576040517f08c379a000000000000000000000000000000000000000000000000000000000815260040161050990611050565b60405180910390fd5b600060076000600854815260200190815260200160002090506008600081548092919061053e906112e3565b91905055508381600001908051906020019061055b929190610bf6565b50828160010160006101000a81548173ffffffffffffffffffffffffffffffffffffffff021916908373ffffffffffffffffffffffffffffffffffffffff16021790555081816002018190555060008160030160006101000a81548160ff0219169083151502179055506000816004018190555050505050565b60006020528060005260406000206000915090505481565b60035481565b60065481565b60055481565b600160009054906101000a900473ffffffffffffffffffffffffffffffffffffffff1681565b60008060003373ffffffffffffffffffffffffffffffffffffffff1673ffffffffffffffffffffffffffffffffffffffff16815260200190815260200160002054116106a6576040517f08c379a000000000000000000000000000000000000000000000000000000000815260040161069d90611070565b60405180910390fd5b6000600760008381526020019081526020016000209050600015158160050160003373ffffffffffffffffffffffffffffffffffffffff1673ffffffffffffffffffffffffffffffffffffffff16815260200190815260200160002060009054906101000a900460ff16151514610752576040517f08c379a0000000000000000000000000000000000000000000000000000000008152600401610749906110b0565b60405180910390fd5b60018160050160003373ffffffffffffffffffffffffffffffffffffffff1673ffffffffffffffffffffffffffffffffffffffff16815260200190815260200160002060006101000a81548160ff0219169083151502179055508060040160008154809291906107c1906112e3565b91905055505050565b600354421180156107de5750600454600554105b61081d576040517f08c379a000000000000000000000000000000000000000000000000000000000815260040161081490610ff0565b60405180910390fd5b60008060003373ffffffffffffffffffffffffffffffffffffffff1673ffffffffffffffffffffffffffffffffffffffff168152602001908152602001600020541161086857600080fd5b60003390508073ffffffffffffffffffffffffffffffffffffffff166108fc6000803373ffffffffffffffffffffffffffffffffffffffff1673ffffffffffffffffffffffffffffffffffffffff168152602001908152602001600020549081150290604051600060405180830381858888f193505050501580156108f1573d6000803e3d6000fd5b5060008060003373ffffffffffffffffffffffffffffffffffffffff1673ffffffffffffffffffffffffffffffffffffffff1681526020019081526020016000208190555050565b600047905090565b600760205280600052604060002060009150905080600001805461096490611280565b80601f016020809104026020016040519081016040528092919081815260200182805461099090611280565b80156109dd5780601f106109b2576101008083540402835291602001916109dd565b820191906000526020600020905b8154815290600101906020018083116109c057829003601f168201915b5050505050908060010160009054906101000a900473ffffffffffffffffffffffffffffffffffffffff16908060020154908060030160009054906101000a900460ff16908060040154905085565b600160009054906101000a900473ffffffffffffffffffffffffffffffffffffffff1673ffffffffffffffffffffffffffffffffffffffff163373ffffffffffffffffffffffffffffffffffffffff1614610abc576040517f08c379a0000000000000000000000000000000000000000000000000000000008152600401610ab390611050565b60405180910390fd5b6004546005541015610acd57600080fd5b6000600760008381526020019081526020016000209050600015158160030160009054906101000a900460ff16151514610b3c576040517f08c379a0000000000000000000000000000000000000000000000000000000008152600401610b3390611030565b60405180910390fd5b6002600654610b4b91906111b3565b816004015411610b5a57600080fd5b8060010160009054906101000a900473ffffffffffffffffffffffffffffffffffffffff1673ffffffffffffffffffffffffffffffffffffffff166108fc82600201549081150290604051600060405180830381858888f19350505050158015610bc8573d6000803e3d6000fd5b5060018160030160006101000a81548160ff0219169083151502179055505050565b60025481565b60045481565b828054610c0290611280565b90600052602060002090601f016020900481019282610c245760008555610c6b565b82601f10610c3d57805160ff1916838001178555610c6b565b82800160010185558215610c6b579182015b82811115610c6a578251825591602001919060010190610c4f565b5b509050610c789190610c7c565b5090565b5b80821115610c95576000816000905550600101610c7d565b5090565b6000610cac610ca784611110565b6110eb565b905082815260208101848484011115610cc857610cc76113ed565b5b610cd384828561123e565b509392505050565b600081359050610cea8161159e565b92915050565b600081359050610cff816115b5565b92915050565b600082601f830112610d1a57610d196113e8565b5b8135610d2a848260208601610c99565b91505092915050565b600081359050610d42816115cc565b92915050565b600060208284031215610d5e57610d5d6113f7565b5b6000610d6c84828501610cdb565b91505092915050565b600080600060608486031215610d8e57610d8d6113f7565b5b600084013567ffffffffffffffff811115610dac57610dab6113f2565b5b610db886828701610d05565b9350506020610dc986828701610cf0565b9250506040610dda86828701610d33565b9150509250925092565b600060208284031215610dfa57610df96113f7565b5b6000610e0884828501610d33565b91505092915050565b610e1a816111f6565b82525050565b610e29816111e4565b82525050565b610e3881611208565b82525050565b6000610e4982611141565b610e53818561114c565b9350610e6381856020860161124d565b610e6c816113fc565b840191505092915050565b6000610e8460238361114c565b9150610e8f8261140d565b604082019050919050565b6000610ea7601f8361114c565b9150610eb28261145c565b602082019050919050565b6000610eca60228361114c565b9150610ed582611485565b604082019050919050565b6000610eed60298361114c565b9150610ef8826114d4565b604082019050919050565b6000610f1060198361114c565b9150610f1b82611523565b602082019050919050565b6000610f33600f8361114c565b9150610f3e8261154c565b602082019050919050565b6000610f5660168361114c565b9150610f6182611575565b602082019050919050565b610f7581611234565b82525050565b6000602082019050610f906000830184610e20565b92915050565b600060a0820190508181036000830152610fb08188610e3e565b9050610fbf6020830187610e11565b610fcc6040830186610f6c565b610fd96060830185610e2f565b610fe66080830184610f6c565b9695505050505050565b6000602082019050818103600083015261100981610e77565b9050919050565b6000602082019050818103600083015261102981610e9a565b9050919050565b6000602082019050818103600083015261104981610ebd565b9050919050565b6000602082019050818103600083015261106981610ee0565b9050919050565b6000602082019050818103600083015261108981610f03565b9050919050565b600060208201905081810360008301526110a981610f26565b9050919050565b600060208201905081810360008301526110c981610f49565b9050919050565b60006020820190506110e56000830184610f6c565b92915050565b60006110f5611106565b905061110182826112b2565b919050565b6000604051905090565b600067ffffffffffffffff82111561112b5761112a6113b9565b5b611134826113fc565b9050602081019050919050565b600081519050919050565b600082825260208201905092915050565b600061116882611234565b915061117383611234565b9250827fffffffffffffffffffffffffffffffffffffffffffffffffffffffffffffffff038211156111a8576111a761132c565b5b828201905092915050565b60006111be82611234565b91506111c983611234565b9250826111d9576111d861135b565b5b828204905092915050565b60006111ef82611214565b9050919050565b600061120182611214565b9050919050565b60008115159050919050565b600073ffffffffffffffffffffffffffffffffffffffff82169050919050565b6000819050919050565b82818337600083830152505050565b60005b8381101561126b578082015181840152602081019050611250565b8381111561127a576000848401525b50505050565b6000600282049050600182168061129857607f821691505b602082108114156112ac576112ab61138a565b5b50919050565b6112bb826113fc565b810181811067ffffffffffffffff821117156112da576112d96113b9565b5b80604052505050565b60006112ee82611234565b91507fffffffffffffffffffffffffffffffffffffffffffffffffffffffffffffffff8214156113215761132061132c565b5b600182019050919050565b7f4e487b7100000000000000000000000000000000000000000000000000000000600052601160045260246000fd5b7f4e487b7100000000000000000000000000000000000000000000000000000000600052601260045260246000fd5b7f4e487b7100000000000000000000000000000000000000000000000000000000600052602260045260246000fd5b7f4e487b7100000000000000000000000000000000000000000000000000000000600052604160045260246000fd5b600080fd5b600080fd5b600080fd5b600080fd5b6000601f19601f8301169050919050565b7f596f7520617265206e6f7420656c696769626c6520666f72207468652072656660008201527f756e640000000000000000000000000000000000000000000000000000000000602082015250565b7f4d696e696d756d20436f6e747269627574696f6e206973206e6f74206d657400600082015250565b7f5265717565737420686173206265656e20616c726561647920636f6d706c657460008201527f6564000000000000000000000000000000000000000000000000000000000000602082015250565b7f4f6e6c79206d616e6167657220616c6c6f77656420746f2063616c6c2074686560008201527f2066756e6374696f6e0000000000000000000000000000000000000000000000602082015250565b7f596f75206d757374206265206120636f6e7472696275746f7200000000000000600082015250565b7f446561646c696e65207061737365640000000000000000000000000000000000600082015250565b7f596f75206861766520616c726561647920766f74656400000000000000000000600082015250565b6115a7816111e4565b81146115b257600080fd5b50565b6115be816111f6565b81146115c957600080fd5b50565b6115d581611234565b81146115e057600080fd5b5056fea26469706673582212203621456706560d681c85cac376001fe9cba277ac076d104c5d41c88d8f239b4a64736f6c63430008070033",
					"opcodes": "PUSH1 0x80 PUSH1 0x40 MSTORE CALLVALUE DUP1 ISZERO PUSH3 0x11 JUMPI PUSH1 0x0 DUP1 REVERT JUMPDEST POP PUSH1 0x40 MLOAD PUSH3 0x17DF CODESIZE SUB DUP1 PUSH3 0x17DF DUP4 CODECOPY DUP2 DUP2 ADD PUSH1 0x40 MSTORE DUP2 ADD SWAP1 PUSH3 0x37 SWAP2 SWAP1 PUSH3 0xBA JUMP JUMPDEST DUP2 PUSH1 0x4 DUP2 SWAP1 SSTORE POP DUP1 TIMESTAMP PUSH3 0x4C SWAP2 SWAP1 PUSH3 0x101 JUMP JUMPDEST PUSH1 0x3 DUP2 SWAP1 SSTORE POP PUSH1 0x64 PUSH1 0x2 DUP2 SWAP1 SSTORE POP CALLER PUSH1 0x1 PUSH1 0x0 PUSH2 0x100 EXP DUP2 SLOAD DUP2 PUSH20 0xFFFFFFFFFFFFFFFFFFFFFFFFFFFFFFFFFFFFFFFF MUL NOT AND SWAP1 DUP4 PUSH20 0xFFFFFFFFFFFFFFFFFFFFFFFFFFFFFFFFFFFFFFFF AND MUL OR SWAP1 SSTORE POP POP POP PUSH3 0x1B6 JUMP JUMPDEST PUSH1 0x0 DUP2 MLOAD SWAP1 POP PUSH3 0xB4 DUP2 PUSH3 0x19C JUMP JUMPDEST SWAP3 SWAP2 POP POP JUMP JUMPDEST PUSH1 0x0 DUP1 PUSH1 0x40 DUP4 DUP6 SUB SLT ISZERO PUSH3 0xD4 JUMPI PUSH3 0xD3 PUSH3 0x197 JUMP JUMPDEST JUMPDEST PUSH1 0x0 PUSH3 0xE4 DUP6 DUP3 DUP7 ADD PUSH3 0xA3 JUMP JUMPDEST SWAP3 POP POP PUSH1 0x20 PUSH3 0xF7 DUP6 DUP3 DUP7 ADD PUSH3 0xA3 JUMP JUMPDEST SWAP2 POP POP SWAP3 POP SWAP3 SWAP1 POP JUMP JUMPDEST PUSH1 0x0 PUSH3 0x10E DUP3 PUSH3 0x15E JUMP JUMPDEST SWAP2 POP PUSH3 0x11B DUP4 PUSH3 0x15E JUMP JUMPDEST SWAP3 POP DUP3 PUSH32 0xFFFFFFFFFFFFFFFFFFFFFFFFFFFFFFFFFFFFFFFFFFFFFFFFFFFFFFFFFFFFFFFF SUB DUP3 GT ISZERO PUSH3 0x153 JUMPI PUSH3 0x152 PUSH3 0x168 JUMP JUMPDEST JUMPDEST DUP3 DUP3 ADD SWAP1 POP SWAP3 SWAP2 POP POP JUMP JUMPDEST PUSH1 0x0 DUP2 SWAP1 POP SWAP2 SWAP1 POP JUMP JUMPDEST PUSH32 0x4E487B7100000000000000000000000000000000000000000000000000000000 PUSH1 0x0 MSTORE PUSH1 0x11 PUSH1 0x4 MSTORE PUSH1 0x24 PUSH1 0x0 REVERT JUMPDEST PUSH1 0x0 DUP1 REVERT JUMPDEST PUSH3 0x1A7 DUP2 PUSH3 0x15E JUMP JUMPDEST DUP2 EQ PUSH3 0x1B3 JUMPI PUSH1 0x0 DUP1 REVERT JUMPDEST POP JUMP JUMPDEST PUSH2 0x1619 DUP1 PUSH3 0x1C6 PUSH1 0x0 CODECOPY PUSH1 0x0 RETURN INVALID PUSH1 0x80 PUSH1 0x40 MSTORE PUSH1 0x4 CALLDATASIZE LT PUSH2 0xDD JUMPI PUSH1 0x0 CALLDATALOAD PUSH1 0xE0 SHR DUP1 PUSH4 0x4CB6F4A5 GT PUSH2 0x7F JUMPI DUP1 PUSH4 0x81D12C58 GT PUSH2 0x59 JUMPI DUP1 PUSH4 0x81D12C58 EQ PUSH2 0x269 JUMPI DUP1 PUSH4 0x8B3C99E3 EQ PUSH2 0x2AA JUMPI DUP1 PUSH4 0xAAFFADF3 EQ PUSH2 0x2D3 JUMPI DUP1 PUSH4 0xD4B83992 EQ PUSH2 0x2FE JUMPI PUSH2 0xDD JUMP JUMPDEST DUP1 PUSH4 0x4CB6F4A5 EQ PUSH2 0x1FE JUMPI DUP1 PUSH4 0x590E1AE3 EQ PUSH2 0x227 JUMPI DUP1 PUSH4 0x6F9FB98A EQ PUSH2 0x23E JUMPI PUSH2 0xDD JUMP JUMPDEST DUP1 PUSH4 0x29DCB0CF GT PUSH2 0xBB JUMPI DUP1 PUSH4 0x29DCB0CF EQ PUSH2 0x152 JUMPI DUP1 PUSH4 0x35D755E6 EQ PUSH2 0x17D JUMPI DUP1 PUSH4 0x3ECE2B4F EQ PUSH2 0x1A8 JUMPI DUP1 PUSH4 0x481C6A75 EQ PUSH2 0x1D3 JUMPI PUSH2 0xDD JUMP JUMPDEST DUP1 PUSH4 0x6E99FEF EQ PUSH2 0xE2 JUMPI DUP1 PUSH4 0x1B16BB5C EQ PUSH2 0xEC JUMPI DUP1 PUSH4 0x1F6D4942 EQ PUSH2 0x115 JUMPI JUMPDEST PUSH1 0x0 DUP1 REVERT JUMPDEST PUSH2 0xEA PUSH2 0x329 JUMP JUMPDEST STOP JUMPDEST CALLVALUE DUP1 ISZERO PUSH2 0xF8 JUMPI PUSH1 0x0 DUP1 REVERT JUMPDEST POP PUSH2 0x113 PUSH1 0x4 DUP1 CALLDATASIZE SUB DUP2 ADD SWAP1 PUSH2 0x10E SWAP2 SWAP1 PUSH2 0xD75 JUMP JUMPDEST PUSH2 0x482 JUMP JUMPDEST STOP JUMPDEST CALLVALUE DUP1 ISZERO PUSH2 0x121 JUMPI PUSH1 0x0 DUP1 REVERT JUMPDEST POP PUSH2 0x13C PUSH1 0x4 DUP1 CALLDATASIZE SUB DUP2 ADD SWAP1 PUSH2 0x137 SWAP2 SWAP1 PUSH2 0xD48 JUMP JUMPDEST PUSH2 0x5D5 JUMP JUMPDEST PUSH1 0x40 MLOAD PUSH2 0x149 SWAP2 SWAP1 PUSH2 0x10D0 JUMP JUMPDEST PUSH1 0x40 MLOAD DUP1 SWAP2 SUB SWAP1 RETURN JUMPDEST CALLVALUE DUP1 ISZERO PUSH2 0x15E JUMPI PUSH1 0x0 DUP1 REVERT JUMPDEST POP PUSH2 0x167 PUSH2 0x5ED JUMP JUMPDEST PUSH1 0x40 MLOAD PUSH2 0x174 SWAP2 SWAP1 PUSH2 0x10D0 JUMP JUMPDEST PUSH1 0x40 MLOAD DUP1 SWAP2 SUB SWAP1 RETURN JUMPDEST CALLVALUE DUP1 ISZERO PUSH2 0x189 JUMPI PUSH1 0x0 DUP1 REVERT JUMPDEST POP PUSH2 0x192 PUSH2 0x5F3 JUMP JUMPDEST PUSH1 0x40 MLOAD PUSH2 0x19F SWAP2 SWAP1 PUSH2 0x10D0 JUMP JUMPDEST PUSH1 0x40 MLOAD DUP1 SWAP2 SUB SWAP1 RETURN JUMPDEST CALLVALUE DUP1 ISZERO PUSH2 0x1B4 JUMPI PUSH1 0x0 DUP1 REVERT JUMPDEST POP PUSH2 0x1BD PUSH2 0x5F9 JUMP JUMPDEST PUSH1 0x40 MLOAD PUSH2 0x1CA SWAP2 SWAP1 PUSH2 0x10D0 JUMP JUMPDEST PUSH1 0x40 MLOAD DUP1 SWAP2 SUB SWAP1 RETURN JUMPDEST CALLVALUE DUP1 ISZERO PUSH2 0x1DF JUMPI PUSH1 0x0 DUP1 REVERT JUMPDEST POP PUSH2 0x1E8 PUSH2 0x5FF JUMP JUMPDEST PUSH1 0x40 MLOAD PUSH2 0x1F5 SWAP2 SWAP1 PUSH2 0xF7B JUMP JUMPDEST PUSH1 0x40 MLOAD DUP1 SWAP2 SUB SWAP1 RETURN JUMPDEST CALLVALUE DUP1 ISZERO PUSH2 0x20A JUMPI PUSH1 0x0 DUP1 REVERT JUMPDEST POP PUSH2 0x225 PUSH1 0x4 DUP1 CALLDATASIZE SUB DUP2 ADD SWAP1 PUSH2 0x220 SWAP2 SWAP1 PUSH2 0xDE4 JUMP JUMPDEST PUSH2 0x625 JUMP JUMPDEST STOP JUMPDEST CALLVALUE DUP1 ISZERO PUSH2 0x233 JUMPI PUSH1 0x0 DUP1 REVERT JUMPDEST POP PUSH2 0x23C PUSH2 0x7CA JUMP JUMPDEST STOP JUMPDEST CALLVALUE DUP1 ISZERO PUSH2 0x24A JUMPI PUSH1 0x0 DUP1 REVERT JUMPDEST POP PUSH2 0x253 PUSH2 0x939 JUMP JUMPDEST PUSH1 0x40 MLOAD PUSH2 0x260 SWAP2 SWAP1 PUSH2 0x10D0 JUMP JUMPDEST PUSH1 0x40 MLOAD DUP1 SWAP2 SUB SWAP1 RETURN JUMPDEST CALLVALUE DUP1 ISZERO PUSH2 0x275 JUMPI PUSH1 0x0 DUP1 REVERT JUMPDEST POP PUSH2 0x290 PUSH1 0x4 DUP1 CALLDATASIZE SUB DUP2 ADD SWAP1 PUSH2 0x28B SWAP2 SWAP1 PUSH2 0xDE4 JUMP JUMPDEST PUSH2 0x941 JUMP JUMPDEST PUSH1 0x40 MLOAD PUSH2 0x2A1 SWAP6 SWAP5 SWAP4 SWAP3 SWAP2 SWAP1 PUSH2 0xF96 JUMP JUMPDEST PUSH1 0x40 MLOAD DUP1 SWAP2 SUB SWAP1 RETURN JUMPDEST CALLVALUE DUP1 ISZERO PUSH2 0x2B6 JUMPI PUSH1 0x0 DUP1 REVERT JUMPDEST POP PUSH2 0x2D1 PUSH1 0x4 DUP1 CALLDATASIZE SUB DUP2 ADD SWAP1 PUSH2 0x2CC SWAP2 SWAP1 PUSH2 0xDE4 JUMP JUMPDEST PUSH2 0xA2C JUMP JUMPDEST STOP JUMPDEST CALLVALUE DUP1 ISZERO PUSH2 0x2DF JUMPI PUSH1 0x0 DUP1 REVERT JUMPDEST POP PUSH2 0x2E8 PUSH2 0xBEA JUMP JUMPDEST PUSH1 0x40 MLOAD PUSH2 0x2F5 SWAP2 SWAP1 PUSH2 0x10D0 JUMP JUMPDEST PUSH1 0x40 MLOAD DUP1 SWAP2 SUB SWAP1 RETURN JUMPDEST CALLVALUE DUP1 ISZERO PUSH2 0x30A JUMPI PUSH1 0x0 DUP1 REVERT JUMPDEST POP PUSH2 0x313 PUSH2 0xBF0 JUMP JUMPDEST PUSH1 0x40 MLOAD PUSH2 0x320 SWAP2 SWAP1 PUSH2 0x10D0 JUMP JUMPDEST PUSH1 0x40 MLOAD DUP1 SWAP2 SUB SWAP1 RETURN JUMPDEST PUSH1 0x3 SLOAD TIMESTAMP LT PUSH2 0x36D JUMPI PUSH1 0x40 MLOAD PUSH32 0x8C379A000000000000000000000000000000000000000000000000000000000 DUP2 MSTORE PUSH1 0x4 ADD PUSH2 0x364 SWAP1 PUSH2 0x1090 JUMP JUMPDEST PUSH1 0x40 MLOAD DUP1 SWAP2 SUB SWAP1 REVERT JUMPDEST PUSH1 0x2 SLOAD CALLVALUE LT ISZERO PUSH2 0x3B2 JUMPI PUSH1 0x40 MLOAD PUSH32 0x8C379A000000000000000000000000000000000000000000000000000000000 DUP2 MSTORE PUSH1 0x4 ADD PUSH2 0x3A9 SWAP1 PUSH2 0x1010 JUMP JUMPDEST PUSH1 0x40 MLOAD DUP1 SWAP2 SUB SWAP1 REVERT JUMPDEST PUSH1 0x0 DUP1 PUSH1 0x0 CALLER PUSH20 0xFFFFFFFFFFFFFFFFFFFFFFFFFFFFFFFFFFFFFFFF AND PUSH20 0xFFFFFFFFFFFFFFFFFFFFFFFFFFFFFFFFFFFFFFFF AND DUP2 MSTORE PUSH1 0x20 ADD SWAP1 DUP2 MSTORE PUSH1 0x20 ADD PUSH1 0x0 KECCAK256 SLOAD EQ ISZERO PUSH2 0x412 JUMPI PUSH1 0x6 PUSH1 0x0 DUP2 SLOAD DUP1 SWAP3 SWAP2 SWAP1 PUSH2 0x40C SWAP1 PUSH2 0x12E3 JUMP JUMPDEST SWAP2 SWAP1 POP SSTORE POP JUMPDEST CALLVALUE PUSH1 0x0 DUP1 CALLER PUSH20 0xFFFFFFFFFFFFFFFFFFFFFFFFFFFFFFFFFFFFFFFF AND PUSH20 0xFFFFFFFFFFFFFFFFFFFFFFFFFFFFFFFFFFFFFFFF AND DUP2 MSTORE PUSH1 0x20 ADD SWAP1 DUP2 MSTORE PUSH1 0x20 ADD PUSH1 0x0 KECCAK256 PUSH1 0x0 DUP3 DUP3 SLOAD PUSH2 0x460 SWAP2 SWAP1 PUSH2 0x115D JUMP JUMPDEST SWAP3 POP POP DUP2 SWAP1 SSTORE POP CALLVALUE PUSH1 0x5 PUSH1 0x0 DUP3 DUP3 SLOAD PUSH2 0x479 SWAP2 SWAP1 PUSH2 0x115D JUMP JUMPDEST SWAP3 POP POP DUP2 SWAP1 SSTORE POP JUMP JUMPDEST PUSH1 0x1 PUSH1 0x0 SWAP1 SLOAD SWAP1 PUSH2 0x100 EXP SWAP1 DIV PUSH20 0xFFFFFFFFFFFFFFFFFFFFFFFFFFFFFFFFFFFFFFFF AND PUSH20 0xFFFFFFFFFFFFFFFFFFFFFFFFFFFFFFFFFFFFFFFF AND CALLER PUSH20 0xFFFFFFFFFFFFFFFFFFFFFFFFFFFFFFFFFFFFFFFF AND EQ PUSH2 0x512 JUMPI PUSH1 0x40 MLOAD PUSH32 0x8C379A000000000000000000000000000000000000000000000000000000000 DUP2 MSTORE PUSH1 0x4 ADD PUSH2 0x509 SWAP1 PUSH2 0x1050 JUMP JUMPDEST PUSH1 0x40 MLOAD DUP1 SWAP2 SUB SWAP1 REVERT JUMPDEST PUSH1 0x0 PUSH1 0x7 PUSH1 0x0 PUSH1 0x8 SLOAD DUP2 MSTORE PUSH1 0x20 ADD SWAP1 DUP2 MSTORE PUSH1 0x20 ADD PUSH1 0x0 KECCAK256 SWAP1 POP PUSH1 0x8 PUSH1 0x0 DUP2 SLOAD DUP1 SWAP3 SWAP2 SWAP1 PUSH2 0x53E SWAP1 PUSH2 0x12E3 JUMP JUMPDEST SWAP2 SWAP1 POP SSTORE POP DUP4 DUP2 PUSH1 0x0 ADD SWAP1 DUP1 MLOAD SWAP1 PUSH1 0x20 ADD SWAP1 PUSH2 0x55B SWAP3 SWAP2 SWAP1 PUSH2 0xBF6 JUMP JUMPDEST POP DUP3 DUP2 PUSH1 0x1 ADD PUSH1 0x0 PUSH2 0x100 EXP DUP2 SLOAD DUP2 PUSH20 0xFFFFFFFFFFFFFFFFFFFFFFFFFFFFFFFFFFFFFFFF MUL NOT AND SWAP1 DUP4 PUSH20 0xFFFFFFFFFFFFFFFFFFFFFFFFFFFFFFFFFFFFFFFF AND MUL OR SWAP1 SSTORE POP DUP2 DUP2 PUSH1 0x2 ADD DUP2 SWAP1 SSTORE POP PUSH1 0x0 DUP2 PUSH1 0x3 ADD PUSH1 0x0 PUSH2 0x100 EXP DUP2 SLOAD DUP2 PUSH1 0xFF MUL NOT AND SWAP1 DUP4 ISZERO ISZERO MUL OR SWAP1 SSTORE POP PUSH1 0x0 DUP2 PUSH1 0x4 ADD DUP2 SWAP1 SSTORE POP POP POP POP POP JUMP JUMPDEST PUSH1 0x0 PUSH1 0x20 MSTORE DUP1 PUSH1 0x0 MSTORE PUSH1 0x40 PUSH1 0x0 KECCAK256 PUSH1 0x0 SWAP2 POP SWAP1 POP SLOAD DUP2 JUMP JUMPDEST PUSH1 0x3 SLOAD DUP2 JUMP JUMPDEST PUSH1 0x6 SLOAD DUP2 JUMP JUMPDEST PUSH1 0x5 SLOAD DUP2 JUMP JUMPDEST PUSH1 0x1 PUSH1 0x0 SWAP1 SLOAD SWAP1 PUSH2 0x100 EXP SWAP1 DIV PUSH20 0xFFFFFFFFFFFFFFFFFFFFFFFFFFFFFFFFFFFFFFFF AND DUP2 JUMP JUMPDEST PUSH1 0x0 DUP1 PUSH1 0x0 CALLER PUSH20 0xFFFFFFFFFFFFFFFFFFFFFFFFFFFFFFFFFFFFFFFF AND PUSH20 0xFFFFFFFFFFFFFFFFFFFFFFFFFFFFFFFFFFFFFFFF AND DUP2 MSTORE PUSH1 0x20 ADD SWAP1 DUP2 MSTORE PUSH1 0x20 ADD PUSH1 0x0 KECCAK256 SLOAD GT PUSH2 0x6A6 JUMPI PUSH1 0x40 MLOAD PUSH32 0x8C379A000000000000000000000000000000000000000000000000000000000 DUP2 MSTORE PUSH1 0x4 ADD PUSH2 0x69D SWAP1 PUSH2 0x1070 JUMP JUMPDEST PUSH1 0x40 MLOAD DUP1 SWAP2 SUB SWAP1 REVERT JUMPDEST PUSH1 0x0 PUSH1 0x7 PUSH1 0x0 DUP4 DUP2 MSTORE PUSH1 0x20 ADD SWAP1 DUP2 MSTORE PUSH1 0x20 ADD PUSH1 0x0 KECCAK256 SWAP1 POP PUSH1 0x0 ISZERO ISZERO DUP2 PUSH1 0x5 ADD PUSH1 0x0 CALLER PUSH20 0xFFFFFFFFFFFFFFFFFFFFFFFFFFFFFFFFFFFFFFFF AND PUSH20 0xFFFFFFFFFFFFFFFFFFFFFFFFFFFFFFFFFFFFFFFF AND DUP2 MSTORE PUSH1 0x20 ADD SWAP1 DUP2 MSTORE PUSH1 0x20 ADD PUSH1 0x0 KECCAK256 PUSH1 0x0 SWAP1 SLOAD SWAP1 PUSH2 0x100 EXP SWAP1 DIV PUSH1 0xFF AND ISZERO ISZERO EQ PUSH2 0x752 JUMPI PUSH1 0x40 MLOAD PUSH32 0x8C379A000000000000000000000000000000000000000000000000000000000 DUP2 MSTORE PUSH1 0x4 ADD PUSH2 0x749 SWAP1 PUSH2 0x10B0 JUMP JUMPDEST PUSH1 0x40 MLOAD DUP1 SWAP2 SUB SWAP1 REVERT JUMPDEST PUSH1 0x1 DUP2 PUSH1 0x5 ADD PUSH1 0x0 CALLER PUSH20 0xFFFFFFFFFFFFFFFFFFFFFFFFFFFFFFFFFFFFFFFF AND PUSH20 0xFFFFFFFFFFFFFFFFFFFFFFFFFFFFFFFFFFFFFFFF AND DUP2 MSTORE PUSH1 0x20 ADD SWAP1 DUP2 MSTORE PUSH1 0x20 ADD PUSH1 0x0 KECCAK256 PUSH1 0x0 PUSH2 0x100 EXP DUP2 SLOAD DUP2 PUSH1 0xFF MUL NOT AND SWAP1 DUP4 ISZERO ISZERO MUL OR SWAP1 SSTORE POP DUP1 PUSH1 0x4 ADD PUSH1 0x0 DUP2 SLOAD DUP1 SWAP3 SWAP2 SWAP1 PUSH2 0x7C1 SWAP1 PUSH2 0x12E3 JUMP JUMPDEST SWAP2 SWAP1 POP SSTORE POP POP POP JUMP JUMPDEST PUSH1 0x3 SLOAD TIMESTAMP GT DUP1 ISZERO PUSH2 0x7DE JUMPI POP PUSH1 0x4 SLOAD PUSH1 0x5 SLOAD LT JUMPDEST PUSH2 0x81D JUMPI PUSH1 0x40 MLOAD PUSH32 0x8C379A000000000000000000000000000000000000000000000000000000000 DUP2 MSTORE PUSH1 0x4 ADD PUSH2 0x814 SWAP1 PUSH2 0xFF0 JUMP JUMPDEST PUSH1 0x40 MLOAD DUP1 SWAP2 SUB SWAP1 REVERT JUMPDEST PUSH1 0x0 DUP1 PUSH1 0x0 CALLER PUSH20 0xFFFFFFFFFFFFFFFFFFFFFFFFFFFFFFFFFFFFFFFF AND PUSH20 0xFFFFFFFFFFFFFFFFFFFFFFFFFFFFFFFFFFFFFFFF AND DUP2 MSTORE PUSH1 0x20 ADD SWAP1 DUP2 MSTORE PUSH1 0x20 ADD PUSH1 0x0 KECCAK256 SLOAD GT PUSH2 0x868 JUMPI PUSH1 0x0 DUP1 REVERT JUMPDEST PUSH1 0x0 CALLER SWAP1 POP DUP1 PUSH20 0xFFFFFFFFFFFFFFFFFFFFFFFFFFFFFFFFFFFFFFFF AND PUSH2 0x8FC PUSH1 0x0 DUP1 CALLER PUSH20 0xFFFFFFFFFFFFFFFFFFFFFFFFFFFFFFFFFFFFFFFF AND PUSH20 0xFFFFFFFFFFFFFFFFFFFFFFFFFFFFFFFFFFFFFFFF AND DUP2 MSTORE PUSH1 0x20 ADD SWAP1 DUP2 MSTORE PUSH1 0x20 ADD PUSH1 0x0 KECCAK256 SLOAD SWAP1 DUP2 ISZERO MUL SWAP1 PUSH1 0x40 MLOAD PUSH1 0x0 PUSH1 0x40 MLOAD DUP1 DUP4 SUB DUP2 DUP6 DUP9 DUP9 CALL SWAP4 POP POP POP POP ISZERO DUP1 ISZERO PUSH2 0x8F1 JUMPI RETURNDATASIZE PUSH1 0x0 DUP1 RETURNDATACOPY RETURNDATASIZE PUSH1 0x0 REVERT JUMPDEST POP PUSH1 0x0 DUP1 PUSH1 0x0 CALLER PUSH20 0xFFFFFFFFFFFFFFFFFFFFFFFFFFFFFFFFFFFFFFFF AND PUSH20 0xFFFFFFFFFFFFFFFFFFFFFFFFFFFFFFFFFFFFFFFF AND DUP2 MSTORE PUSH1 0x20 ADD SWAP1 DUP2 MSTORE PUSH1 0x20 ADD PUSH1 0x0 KECCAK256 DUP2 SWAP1 SSTORE POP POP JUMP JUMPDEST PUSH1 0x0 SELFBALANCE SWAP1 POP SWAP1 JUMP JUMPDEST PUSH1 0x7 PUSH1 0x20 MSTORE DUP1 PUSH1 0x0 MSTORE PUSH1 0x40 PUSH1 0x0 KECCAK256 PUSH1 0x0 SWAP2 POP SWAP1 POP DUP1 PUSH1 0x0 ADD DUP1 SLOAD PUSH2 0x964 SWAP1 PUSH2 0x1280 JUMP JUMPDEST DUP1 PUSH1 0x1F ADD PUSH1 0x20 DUP1 SWAP2 DIV MUL PUSH1 0x20 ADD PUSH1 0x40 MLOAD SWAP1 DUP2 ADD PUSH1 0x40 MSTORE DUP1 SWAP3 SWAP2 SWAP1 DUP2 DUP2 MSTORE PUSH1 0x20 ADD DUP3 DUP1 SLOAD PUSH2 0x990 SWAP1 PUSH2 0x1280 JUMP JUMPDEST DUP1 ISZERO PUSH2 0x9DD JUMPI DUP1 PUSH1 0x1F LT PUSH2 0x9B2 JUMPI PUSH2 0x100 DUP1 DUP4 SLOAD DIV MUL DUP4 MSTORE SWAP2 PUSH1 0x20 ADD SWAP2 PUSH2 0x9DD JUMP JUMPDEST DUP3 ADD SWAP2 SWAP1 PUSH1 0x0 MSTORE PUSH1 0x20 PUSH1 0x0 KECCAK256 SWAP1 JUMPDEST DUP2 SLOAD DUP2 MSTORE SWAP1 PUSH1 0x1 ADD SWAP1 PUSH1 0x20 ADD DUP1 DUP4 GT PUSH2 0x9C0 JUMPI DUP3 SWAP1 SUB PUSH1 0x1F AND DUP3 ADD SWAP2 JUMPDEST POP POP POP POP POP SWAP1 DUP1 PUSH1 0x1 ADD PUSH1 0x0 SWAP1 SLOAD SWAP1 PUSH2 0x100 EXP SWAP1 DIV PUSH20 0xFFFFFFFFFFFFFFFFFFFFFFFFFFFFFFFFFFFFFFFF AND SWAP1 DUP1 PUSH1 0x2 ADD SLOAD SWAP1 DUP1 PUSH1 0x3 ADD PUSH1 0x0 SWAP1 SLOAD SWAP1 PUSH2 0x100 EXP SWAP1 DIV PUSH1 0xFF AND SWAP1 DUP1 PUSH1 0x4 ADD SLOAD SWAP1 POP DUP6 JUMP JUMPDEST PUSH1 0x1 PUSH1 0x0 SWAP1 SLOAD SWAP1 PUSH2 0x100 EXP SWAP1 DIV PUSH20 0xFFFFFFFFFFFFFFFFFFFFFFFFFFFFFFFFFFFFFFFF AND PUSH20 0xFFFFFFFFFFFFFFFFFFFFFFFFFFFFFFFFFFFFFFFF AND CALLER PUSH20 0xFFFFFFFFFFFFFFFFFFFFFFFFFFFFFFFFFFFFFFFF AND EQ PUSH2 0xABC JUMPI PUSH1 0x40 MLOAD PUSH32 0x8C379A000000000000000000000000000000000000000000000000000000000 DUP2 MSTORE PUSH1 0x4 ADD PUSH2 0xAB3 SWAP1 PUSH2 0x1050 JUMP JUMPDEST PUSH1 0x40 MLOAD DUP1 SWAP2 SUB SWAP1 REVERT JUMPDEST PUSH1 0x4 SLOAD PUSH1 0x5 SLOAD LT ISZERO PUSH2 0xACD JUMPI PUSH1 0x0 DUP1 REVERT JUMPDEST PUSH1 0x0 PUSH1 0x7 PUSH1 0x0 DUP4 DUP2 MSTORE PUSH1 0x20 ADD SWAP1 DUP2 MSTORE PUSH1 0x20 ADD PUSH1 0x0 KECCAK256 SWAP1 POP PUSH1 0x0 ISZERO ISZERO DUP2 PUSH1 0x3 ADD PUSH1 0x0 SWAP1 SLOAD SWAP1 PUSH2 0x100 EXP SWAP1 DIV PUSH1 0xFF AND ISZERO ISZERO EQ PUSH2 0xB3C JUMPI PUSH1 0x40 MLOAD PUSH32 0x8C379A000000000000000000000000000000000000000000000000000000000 DUP2 MSTORE PUSH1 0x4 ADD PUSH2 0xB33 SWAP1 PUSH2 0x1030 JUMP JUMPDEST PUSH1 0x40 MLOAD DUP1 SWAP2 SUB SWAP1 REVERT JUMPDEST PUSH1 0x2 PUSH1 0x6 SLOAD PUSH2 0xB4B SWAP2 SWAP1 PUSH2 0x11B3 JUMP JUMPDEST DUP2 PUSH1 0x4 ADD SLOAD GT PUSH2 0xB5A JUMPI PUSH1 0x0 DUP1 REVERT JUMPDEST DUP1 PUSH1 0x1 ADD PUSH1 0x0 SWAP1 SLOAD SWAP1 PUSH2 0x100 EXP SWAP1 DIV PUSH20 0xFFFFFFFFFFFFFFFFFFFFFFFFFFFFFFFFFFFFFFFF AND PUSH20 0xFFFFFFFFFFFFFFFFFFFFFFFFFFFFFFFFFFFFFFFF AND PUSH2 0x8FC DUP3 PUSH1 0x2 ADD SLOAD SWAP1 DUP2 ISZERO MUL SWAP1 PUSH1 0x40 MLOAD PUSH1 0x0 PUSH1 0x40 MLOAD DUP1 DUP4 SUB DUP2 DUP6 DUP9 DUP9 CALL SWAP4 POP POP POP POP ISZERO DUP1 ISZERO PUSH2 0xBC8 JUMPI RETURNDATASIZE PUSH1 0x0 DUP1 RETURNDATACOPY RETURNDATASIZE PUSH1 0x0 REVERT JUMPDEST POP PUSH1 0x1 DUP2 PUSH1 0x3 ADD PUSH1 0x0 PUSH2 0x100 EXP DUP2 SLOAD DUP2 PUSH1 0xFF MUL NOT AND SWAP1 DUP4 ISZERO ISZERO MUL OR SWAP1 SSTORE POP POP POP JUMP JUMPDEST PUSH1 0x2 SLOAD DUP2 JUMP JUMPDEST PUSH1 0x4 SLOAD DUP2 JUMP JUMPDEST DUP3 DUP1 SLOAD PUSH2 0xC02 SWAP1 PUSH2 0x1280 JUMP JUMPDEST SWAP1 PUSH1 0x0 MSTORE PUSH1 0x20 PUSH1 0x0 KECCAK256 SWAP1 PUSH1 0x1F ADD PUSH1 0x20 SWAP1 DIV DUP2 ADD SWAP3 DUP3 PUSH2 0xC24 JUMPI PUSH1 0x0 DUP6 SSTORE PUSH2 0xC6B JUMP JUMPDEST DUP3 PUSH1 0x1F LT PUSH2 0xC3D JUMPI DUP1 MLOAD PUSH1 0xFF NOT AND DUP4 DUP1 ADD OR DUP6 SSTORE PUSH2 0xC6B JUMP JUMPDEST DUP3 DUP1 ADD PUSH1 0x1 ADD DUP6 SSTORE DUP3 ISZERO PUSH2 0xC6B JUMPI SWAP2 DUP3 ADD JUMPDEST DUP3 DUP2 GT ISZERO PUSH2 0xC6A JUMPI DUP3 MLOAD DUP3 SSTORE SWAP2 PUSH1 0x20 ADD SWAP2 SWAP1 PUSH1 0x1 ADD SWAP1 PUSH2 0xC4F JUMP JUMPDEST JUMPDEST POP SWAP1 POP PUSH2 0xC78 SWAP2 SWAP1 PUSH2 0xC7C JUMP JUMPDEST POP SWAP1 JUMP JUMPDEST JUMPDEST DUP1 DUP3 GT ISZERO PUSH2 0xC95 JUMPI PUSH1 0x0 DUP2 PUSH1 0x0 SWAP1 SSTORE POP PUSH1 0x1 ADD PUSH2 0xC7D JUMP JUMPDEST POP SWAP1 JUMP JUMPDEST PUSH1 0x0 PUSH2 0xCAC PUSH2 0xCA7 DUP5 PUSH2 0x1110 JUMP JUMPDEST PUSH2 0x10EB JUMP JUMPDEST SWAP1 POP DUP3 DUP2 MSTORE PUSH1 0x20 DUP2 ADD DUP5 DUP5 DUP5 ADD GT ISZERO PUSH2 0xCC8 JUMPI PUSH2 0xCC7 PUSH2 0x13ED JUMP JUMPDEST JUMPDEST PUSH2 0xCD3 DUP5 DUP3 DUP6 PUSH2 0x123E JUMP JUMPDEST POP SWAP4 SWAP3 POP POP POP JUMP JUMPDEST PUSH1 0x0 DUP2 CALLDATALOAD SWAP1 POP PUSH2 0xCEA DUP2 PUSH2 0x159E JUMP JUMPDEST SWAP3 SWAP2 POP POP JUMP JUMPDEST PUSH1 0x0 DUP2 CALLDATALOAD SWAP1 POP PUSH2 0xCFF DUP2 PUSH2 0x15B5 JUMP JUMPDEST SWAP3 SWAP2 POP POP JUMP JUMPDEST PUSH1 0x0 DUP3 PUSH1 0x1F DUP4 ADD SLT PUSH2 0xD1A JUMPI PUSH2 0xD19 PUSH2 0x13E8 JUMP JUMPDEST JUMPDEST DUP2 CALLDATALOAD PUSH2 0xD2A DUP5 DUP3 PUSH1 0x20 DUP7 ADD PUSH2 0xC99 JUMP JUMPDEST SWAP2 POP POP SWAP3 SWAP2 POP POP JUMP JUMPDEST PUSH1 0x0 DUP2 CALLDATALOAD SWAP1 POP PUSH2 0xD42 DUP2 PUSH2 0x15CC JUMP JUMPDEST SWAP3 SWAP2 POP POP JUMP JUMPDEST PUSH1 0x0 PUSH1 0x20 DUP3 DUP5 SUB SLT ISZERO PUSH2 0xD5E JUMPI PUSH2 0xD5D PUSH2 0x13F7 JUMP JUMPDEST JUMPDEST PUSH1 0x0 PUSH2 0xD6C DUP5 DUP3 DUP6 ADD PUSH2 0xCDB JUMP JUMPDEST SWAP2 POP POP SWAP3 SWAP2 POP POP JUMP JUMPDEST PUSH1 0x0 DUP1 PUSH1 0x0 PUSH1 0x60 DUP5 DUP7 SUB SLT ISZERO PUSH2 0xD8E JUMPI PUSH2 0xD8D PUSH2 0x13F7 JUMP JUMPDEST JUMPDEST PUSH1 0x0 DUP5 ADD CALLDATALOAD PUSH8 0xFFFFFFFFFFFFFFFF DUP2 GT ISZERO PUSH2 0xDAC JUMPI PUSH2 0xDAB PUSH2 0x13F2 JUMP JUMPDEST JUMPDEST PUSH2 0xDB8 DUP7 DUP3 DUP8 ADD PUSH2 0xD05 JUMP JUMPDEST SWAP4 POP POP PUSH1 0x20 PUSH2 0xDC9 DUP7 DUP3 DUP8 ADD PUSH2 0xCF0 JUMP JUMPDEST SWAP3 POP POP PUSH1 0x40 PUSH2 0xDDA DUP7 DUP3 DUP8 ADD PUSH2 0xD33 JUMP JUMPDEST SWAP2 POP POP SWAP3 POP SWAP3 POP SWAP3 JUMP JUMPDEST PUSH1 0x0 PUSH1 0x20 DUP3 DUP5 SUB SLT ISZERO PUSH2 0xDFA JUMPI PUSH2 0xDF9 PUSH2 0x13F7 JUMP JUMPDEST JUMPDEST PUSH1 0x0 PUSH2 0xE08 DUP5 DUP3 DUP6 ADD PUSH2 0xD33 JUMP JUMPDEST SWAP2 POP POP SWAP3 SWAP2 POP POP JUMP JUMPDEST PUSH2 0xE1A DUP2 PUSH2 0x11F6 JUMP JUMPDEST DUP3 MSTORE POP POP JUMP JUMPDEST PUSH2 0xE29 DUP2 PUSH2 0x11E4 JUMP JUMPDEST DUP3 MSTORE POP POP JUMP JUMPDEST PUSH2 0xE38 DUP2 PUSH2 0x1208 JUMP JUMPDEST DUP3 MSTORE POP POP JUMP JUMPDEST PUSH1 0x0 PUSH2 0xE49 DUP3 PUSH2 0x1141 JUMP JUMPDEST PUSH2 0xE53 DUP2 DUP6 PUSH2 0x114C JUMP JUMPDEST SWAP4 POP PUSH2 0xE63 DUP2 DUP6 PUSH1 0x20 DUP7 ADD PUSH2 0x124D JUMP JUMPDEST PUSH2 0xE6C DUP2 PUSH2 0x13FC JUMP JUMPDEST DUP5 ADD SWAP2 POP POP SWAP3 SWAP2 POP POP JUMP JUMPDEST PUSH1 0x0 PUSH2 0xE84 PUSH1 0x23 DUP4 PUSH2 0x114C JUMP JUMPDEST SWAP2 POP PUSH2 0xE8F DUP3 PUSH2 0x140D JUMP JUMPDEST PUSH1 0x40 DUP3 ADD SWAP1 POP SWAP2 SWAP1 POP JUMP JUMPDEST PUSH1 0x0 PUSH2 0xEA7 PUSH1 0x1F DUP4 PUSH2 0x114C JUMP JUMPDEST SWAP2 POP PUSH2 0xEB2 DUP3 PUSH2 0x145C JUMP JUMPDEST PUSH1 0x20 DUP3 ADD SWAP1 POP SWAP2 SWAP1 POP JUMP JUMPDEST PUSH1 0x0 PUSH2 0xECA PUSH1 0x22 DUP4 PUSH2 0x114C JUMP JUMPDEST SWAP2 POP PUSH2 0xED5 DUP3 PUSH2 0x1485 JUMP JUMPDEST PUSH1 0x40 DUP3 ADD SWAP1 POP SWAP2 SWAP1 POP JUMP JUMPDEST PUSH1 0x0 PUSH2 0xEED PUSH1 0x29 DUP4 PUSH2 0x114C JUMP JUMPDEST SWAP2 POP PUSH2 0xEF8 DUP3 PUSH2 0x14D4 JUMP JUMPDEST PUSH1 0x40 DUP3 ADD SWAP1 POP SWAP2 SWAP1 POP JUMP JUMPDEST PUSH1 0x0 PUSH2 0xF10 PUSH1 0x19 DUP4 PUSH2 0x114C JUMP JUMPDEST SWAP2 POP PUSH2 0xF1B DUP3 PUSH2 0x1523 JUMP JUMPDEST PUSH1 0x20 DUP3 ADD SWAP1 POP SWAP2 SWAP1 POP JUMP JUMPDEST PUSH1 0x0 PUSH2 0xF33 PUSH1 0xF DUP4 PUSH2 0x114C JUMP JUMPDEST SWAP2 POP PUSH2 0xF3E DUP3 PUSH2 0x154C JUMP JUMPDEST PUSH1 0x20 DUP3 ADD SWAP1 POP SWAP2 SWAP1 POP JUMP JUMPDEST PUSH1 0x0 PUSH2 0xF56 PUSH1 0x16 DUP4 PUSH2 0x114C JUMP JUMPDEST SWAP2 POP PUSH2 0xF61 DUP3 PUSH2 0x1575 JUMP JUMPDEST PUSH1 0x20 DUP3 ADD SWAP1 POP SWAP2 SWAP1 POP JUMP JUMPDEST PUSH2 0xF75 DUP2 PUSH2 0x1234 JUMP JUMPDEST DUP3 MSTORE POP POP JUMP JUMPDEST PUSH1 0x0 PUSH1 0x20 DUP3 ADD SWAP1 POP PUSH2 0xF90 PUSH1 0x0 DUP4 ADD DUP5 PUSH2 0xE20 JUMP JUMPDEST SWAP3 SWAP2 POP POP JUMP JUMPDEST PUSH1 0x0 PUSH1 0xA0 DUP3 ADD SWAP1 POP DUP2 DUP2 SUB PUSH1 0x0 DUP4 ADD MSTORE PUSH2 0xFB0 DUP2 DUP9 PUSH2 0xE3E JUMP JUMPDEST SWAP1 POP PUSH2 0xFBF PUSH1 0x20 DUP4 ADD DUP8 PUSH2 0xE11 JUMP JUMPDEST PUSH2 0xFCC PUSH1 0x40 DUP4 ADD DUP7 PUSH2 0xF6C JUMP JUMPDEST PUSH2 0xFD9 PUSH1 0x60 DUP4 ADD DUP6 PUSH2 0xE2F JUMP JUMPDEST PUSH2 0xFE6 PUSH1 0x80 DUP4 ADD DUP5 PUSH2 0xF6C JUMP JUMPDEST SWAP7 SWAP6 POP POP POP POP POP POP JUMP JUMPDEST PUSH1 0x0 PUSH1 0x20 DUP3 ADD SWAP1 POP DUP2 DUP2 SUB PUSH1 0x0 DUP4 ADD MSTORE PUSH2 0x1009 DUP2 PUSH2 0xE77 JUMP JUMPDEST SWAP1 POP SWAP2 SWAP1 POP JUMP JUMPDEST PUSH1 0x0 PUSH1 0x20 DUP3 ADD SWAP1 POP DUP2 DUP2 SUB PUSH1 0x0 DUP4 ADD MSTORE PUSH2 0x1029 DUP2 PUSH2 0xE9A JUMP JUMPDEST SWAP1 POP SWAP2 SWAP1 POP JUMP JUMPDEST PUSH1 0x0 PUSH1 0x20 DUP3 ADD SWAP1 POP DUP2 DUP2 SUB PUSH1 0x0 DUP4 ADD MSTORE PUSH2 0x1049 DUP2 PUSH2 0xEBD JUMP JUMPDEST SWAP1 POP SWAP2 SWAP1 POP JUMP JUMPDEST PUSH1 0x0 PUSH1 0x20 DUP3 ADD SWAP1 POP DUP2 DUP2 SUB PUSH1 0x0 DUP4 ADD MSTORE PUSH2 0x1069 DUP2 PUSH2 0xEE0 JUMP JUMPDEST SWAP1 POP SWAP2 SWAP1 POP JUMP JUMPDEST PUSH1 0x0 PUSH1 0x20 DUP3 ADD SWAP1 POP DUP2 DUP2 SUB PUSH1 0x0 DUP4 ADD MSTORE PUSH2 0x1089 DUP2 PUSH2 0xF03 JUMP JUMPDEST SWAP1 POP SWAP2 SWAP1 POP JUMP JUMPDEST PUSH1 0x0 PUSH1 0x20 DUP3 ADD SWAP1 POP DUP2 DUP2 SUB PUSH1 0x0 DUP4 ADD MSTORE PUSH2 0x10A9 DUP2 PUSH2 0xF26 JUMP JUMPDEST SWAP1 POP SWAP2 SWAP1 POP JUMP JUMPDEST PUSH1 0x0 PUSH1 0x20 DUP3 ADD SWAP1 POP DUP2 DUP2 SUB PUSH1 0x0 DUP4 ADD MSTORE PUSH2 0x10C9 DUP2 PUSH2 0xF49 JUMP JUMPDEST SWAP1 POP SWAP2 SWAP1 POP JUMP JUMPDEST PUSH1 0x0 PUSH1 0x20 DUP3 ADD SWAP1 POP PUSH2 0x10E5 PUSH1 0x0 DUP4 ADD DUP5 PUSH2 0xF6C JUMP JUMPDEST SWAP3 SWAP2 POP POP JUMP JUMPDEST PUSH1 0x0 PUSH2 0x10F5 PUSH2 0x1106 JUMP JUMPDEST SWAP1 POP PUSH2 0x1101 DUP3 DUP3 PUSH2 0x12B2 JUMP JUMPDEST SWAP2 SWAP1 POP JUMP JUMPDEST PUSH1 0x0 PUSH1 0x40 MLOAD SWAP1 POP SWAP1 JUMP JUMPDEST PUSH1 0x0 PUSH8 0xFFFFFFFFFFFFFFFF DUP3 GT ISZERO PUSH2 0x112B JUMPI PUSH2 0x112A PUSH2 0x13B9 JUMP JUMPDEST JUMPDEST PUSH2 0x1134 DUP3 PUSH2 0x13FC JUMP JUMPDEST SWAP1 POP PUSH1 0x20 DUP2 ADD SWAP1 POP SWAP2 SWAP1 POP JUMP JUMPDEST PUSH1 0x0 DUP2 MLOAD SWAP1 POP SWAP2 SWAP1 POP JUMP JUMPDEST PUSH1 0x0 DUP3 DUP3 MSTORE PUSH1 0x20 DUP3 ADD SWAP1 POP SWAP3 SWAP2 POP POP JUMP JUMPDEST PUSH1 0x0 PUSH2 0x1168 DUP3 PUSH2 0x1234 JUMP JUMPDEST SWAP2 POP PUSH2 0x1173 DUP4 PUSH2 0x1234 JUMP JUMPDEST SWAP3 POP DUP3 PUSH32 0xFFFFFFFFFFFFFFFFFFFFFFFFFFFFFFFFFFFFFFFFFFFFFFFFFFFFFFFFFFFFFFFF SUB DUP3 GT ISZERO PUSH2 0x11A8 JUMPI PUSH2 0x11A7 PUSH2 0x132C JUMP JUMPDEST JUMPDEST DUP3 DUP3 ADD SWAP1 POP SWAP3 SWAP2 POP POP JUMP JUMPDEST PUSH1 0x0 PUSH2 0x11BE DUP3 PUSH2 0x1234 JUMP JUMPDEST SWAP2 POP PUSH2 0x11C9 DUP4 PUSH2 0x1234 JUMP JUMPDEST SWAP3 POP DUP3 PUSH2 0x11D9 JUMPI PUSH2 0x11D8 PUSH2 0x135B JUMP JUMPDEST JUMPDEST DUP3 DUP3 DIV SWAP1 POP SWAP3 SWAP2 POP POP JUMP JUMPDEST PUSH1 0x0 PUSH2 0x11EF DUP3 PUSH2 0x1214 JUMP JUMPDEST SWAP1 POP SWAP2 SWAP1 POP JUMP JUMPDEST PUSH1 0x0 PUSH2 0x1201 DUP3 PUSH2 0x1214 JUMP JUMPDEST SWAP1 POP SWAP2 SWAP1 POP JUMP JUMPDEST PUSH1 0x0 DUP2 ISZERO ISZERO SWAP1 POP SWAP2 SWAP1 POP JUMP JUMPDEST PUSH1 0x0 PUSH20 0xFFFFFFFFFFFFFFFFFFFFFFFFFFFFFFFFFFFFFFFF DUP3 AND SWAP1 POP SWAP2 SWAP1 POP JUMP JUMPDEST PUSH1 0x0 DUP2 SWAP1 POP SWAP2 SWAP1 POP JUMP JUMPDEST DUP3 DUP2 DUP4 CALLDATACOPY PUSH1 0x0 DUP4 DUP4 ADD MSTORE POP POP POP JUMP JUMPDEST PUSH1 0x0 JUMPDEST DUP4 DUP2 LT ISZERO PUSH2 0x126B JUMPI DUP1 DUP3 ADD MLOAD DUP2 DUP5 ADD MSTORE PUSH1 0x20 DUP2 ADD SWAP1 POP PUSH2 0x1250 JUMP JUMPDEST DUP4 DUP2 GT ISZERO PUSH2 0x127A JUMPI PUSH1 0x0 DUP5 DUP5 ADD MSTORE JUMPDEST POP POP POP POP JUMP JUMPDEST PUSH1 0x0 PUSH1 0x2 DUP3 DIV SWAP1 POP PUSH1 0x1 DUP3 AND DUP1 PUSH2 0x1298 JUMPI PUSH1 0x7F DUP3 AND SWAP2 POP JUMPDEST PUSH1 0x20 DUP3 LT DUP2 EQ ISZERO PUSH2 0x12AC JUMPI PUSH2 0x12AB PUSH2 0x138A JUMP JUMPDEST JUMPDEST POP SWAP2 SWAP1 POP JUMP JUMPDEST PUSH2 0x12BB DUP3 PUSH2 0x13FC JUMP JUMPDEST DUP2 ADD DUP2 DUP2 LT PUSH8 0xFFFFFFFFFFFFFFFF DUP3 GT OR ISZERO PUSH2 0x12DA JUMPI PUSH2 0x12D9 PUSH2 0x13B9 JUMP JUMPDEST JUMPDEST DUP1 PUSH1 0x40 MSTORE POP POP POP JUMP JUMPDEST PUSH1 0x0 PUSH2 0x12EE DUP3 PUSH2 0x1234 JUMP JUMPDEST SWAP2 POP PUSH32 0xFFFFFFFFFFFFFFFFFFFFFFFFFFFFFFFFFFFFFFFFFFFFFFFFFFFFFFFFFFFFFFFF DUP3 EQ ISZERO PUSH2 0x1321 JUMPI PUSH2 0x1320 PUSH2 0x132C JUMP JUMPDEST JUMPDEST PUSH1 0x1 DUP3 ADD SWAP1 POP SWAP2 SWAP1 POP JUMP JUMPDEST PUSH32 0x4E487B7100000000000000000000000000000000000000000000000000000000 PUSH1 0x0 MSTORE PUSH1 0x11 PUSH1 0x4 MSTORE PUSH1 0x24 PUSH1 0x0 REVERT JUMPDEST PUSH32 0x4E487B7100000000000000000000000000000000000000000000000000000000 PUSH1 0x0 MSTORE PUSH1 0x12 PUSH1 0x4 MSTORE PUSH1 0x24 PUSH1 0x0 REVERT JUMPDEST PUSH32 0x4E487B7100000000000000000000000000000000000000000000000000000000 PUSH1 0x0 MSTORE PUSH1 0x22 PUSH1 0x4 MSTORE PUSH1 0x24 PUSH1 0x0 REVERT JUMPDEST PUSH32 0x4E487B7100000000000000000000000000000000000000000000000000000000 PUSH1 0x0 MSTORE PUSH1 0x41 PUSH1 0x4 MSTORE PUSH1 0x24 PUSH1 0x0 REVERT JUMPDEST PUSH1 0x0 DUP1 REVERT JUMPDEST PUSH1 0x0 DUP1 REVERT JUMPDEST PUSH1 0x0 DUP1 REVERT JUMPDEST PUSH1 0x0 DUP1 REVERT JUMPDEST PUSH1 0x0 PUSH1 0x1F NOT PUSH1 0x1F DUP4 ADD AND SWAP1 POP SWAP2 SWAP1 POP JUMP JUMPDEST PUSH32 0x596F7520617265206E6F7420656C696769626C6520666F722074686520726566 PUSH1 0x0 DUP3 ADD MSTORE PUSH32 0x756E640000000000000000000000000000000000000000000000000000000000 PUSH1 0x20 DUP3 ADD MSTORE POP JUMP JUMPDEST PUSH32 0x4D696E696D756D20436F6E747269627574696F6E206973206E6F74206D657400 PUSH1 0x0 DUP3 ADD MSTORE POP JUMP JUMPDEST PUSH32 0x5265717565737420686173206265656E20616C726561647920636F6D706C6574 PUSH1 0x0 DUP3 ADD MSTORE PUSH32 0x6564000000000000000000000000000000000000000000000000000000000000 PUSH1 0x20 DUP3 ADD MSTORE POP JUMP JUMPDEST PUSH32 0x4F6E6C79206D616E6167657220616C6C6F77656420746F2063616C6C20746865 PUSH1 0x0 DUP3 ADD MSTORE PUSH32 0x2066756E6374696F6E0000000000000000000000000000000000000000000000 PUSH1 0x20 DUP3 ADD MSTORE POP JUMP JUMPDEST PUSH32 0x596F75206D757374206265206120636F6E7472696275746F7200000000000000 PUSH1 0x0 DUP3 ADD MSTORE POP JUMP JUMPDEST PUSH32 0x446561646C696E65207061737365640000000000000000000000000000000000 PUSH1 0x0 DUP3 ADD MSTORE POP JUMP JUMPDEST PUSH32 0x596F75206861766520616C726561647920766F74656400000000000000000000 PUSH1 0x0 DUP3 ADD MSTORE POP JUMP JUMPDEST PUSH2 0x15A7 DUP2 PUSH2 0x11E4 JUMP JUMPDEST DUP2 EQ PUSH2 0x15B2 JUMPI PUSH1 0x0 DUP1 REVERT JUMPDEST POP JUMP JUMPDEST PUSH2 0x15BE DUP2 PUSH2 0x11F6 JUMP JUMPDEST DUP2 EQ PUSH2 0x15C9 JUMPI PUSH1 0x0 DUP1 REVERT JUMPDEST POP JUMP JUMPDEST PUSH2 0x15D5 DUP2 PUSH2 0x1234 JUMP JUMPDEST DUP2 EQ PUSH2 0x15E0 JUMPI PUSH1 0x0 DUP1 REVERT JUMPDEST POP JUMP INVALID LOG2 PUSH5 0x6970667358 0x22 SLT KECCAK256 CALLDATASIZE 0x21 GASLIMIT PUSH8 0x6560D681C85CAC3 PUSH23 0x1FE9CBA277AC076D104C5D41C88D8F239B4A64736F6C PUSH4 0x43000807 STOP CALLER "
				},
				"gasEstimates": {
					"creation": {
						"codeDepositCost": "1131400",
						"executionCost": "infinite",
						"totalCost": "infinite"
					},
					"external": {
						"contributors(address)": "2882",
						"createRequest(string,address,uint256)": "infinite",
						"deadline()": "2452",
						"getContractBalance()": "406",
						"manager()": "2603",
						"minContribution()": "2495",
						"noOfContribs()": "2474",
						"payment(uint256)": "infinite",
						"raisedAmt()": "2496",
						"refund()": "infinite",
						"requests(uint256)": "infinite",
						"sendEth()": "infinite",
						"target()": "2517",
						"voteRequest(uint256)": "infinite"
					}
				},
				"methodIdentifiers": {
					"contributors(address)": "1f6d4942",
					"createRequest(string,address,uint256)": "1b16bb5c",
					"deadline()": "29dcb0cf",
					"getContractBalance()": "6f9fb98a",
					"manager()": "481c6a75",
					"minContribution()": "aaffadf3",
					"noOfContribs()": "35d755e6",
					"payment(uint256)": "8b3c99e3",
					"raisedAmt()": "3ece2b4f",
					"refund()": "590e1ae3",
					"requests(uint256)": "81d12c58",
					"sendEth()": "06e99fef",
					"target()": "d4b83992",
					"voteRequest(uint256)": "4cb6f4a5"
				}
			},
			"userdoc": {
				"kind": "user",
				"methods": {},
				"version": 1
			}
		}
	}
}