{
	"tests/4_Ballot_test.sol": {
		"BallotTest": {
			"abi": [
				{
					"inputs": [],
					"name": "beforeAll",
					"outputs": [],
					"stateMutability": "nonpayable",
					"type": "function"
				},
				{
					"inputs": [],
					"name": "checkWinninProposalWithReturnValue",
					"outputs": [
						{
							"internalType": "bool",
							"name": "",
							"type": "bool"
						}
					],
					"stateMutability": "view",
					"type": "function"
				},
				{
					"inputs": [],
					"name": "checkWinningProposal",
					"outputs": [],
					"stateMutability": "nonpayable",
					"type": "function"
				}
			],
			"devdoc": {
				"kind": "dev",
				"methods": {},
				"version": 1
			},
			"evm": {
				"assembly": "    /* \"tests/4_Ballot_test.sol\":183:869  contract BallotTest {... */\n  mstore(0x40, 0x80)\n  callvalue\n  dup1\n  iszero\n  tag_1\n  jumpi\n  0x00\n  dup1\n  revert\ntag_1:\n  pop\n  dataSize(sub_0)\n  dup1\n  dataOffset(sub_0)\n  0x00\n  codecopy\n  0x00\n  return\nstop\n\nsub_0: assembly {\n        /* \"tests/4_Ballot_test.sol\":183:869  contract BallotTest {... */\n      mstore(0x40, 0x80)\n      callvalue\n      dup1\n      iszero\n      tag_1\n      jumpi\n      0x00\n      dup1\n      revert\n    tag_1:\n      pop\n      jumpi(tag_2, lt(calldatasize, 0x04))\n      shr(0xe0, calldataload(0x00))\n      dup1\n      0x3439c57b\n      eq\n      tag_3\n      jumpi\n      dup1\n      0x7fea0d4b\n      eq\n      tag_4\n      jumpi\n      dup1\n      0xed2bee10\n      eq\n      tag_5\n      jumpi\n    tag_2:\n      0x00\n      dup1\n      revert\n        /* \"tests/4_Ballot_test.sol\":734:867  function checkWinninProposalWithReturnValue () public view returns (bool) {... */\n    tag_3:\n      tag_6\n      tag_7\n      jump\t// in\n    tag_6:\n      mload(0x40)\n      tag_8\n      swap2\n      swap1\n      tag_9\n      jump\t// in\n    tag_8:\n      mload(0x40)\n      dup1\n      swap2\n      sub\n      swap1\n      return\n        /* \"tests/4_Ballot_test.sol\":271:408  function beforeAll () public {... */\n    tag_4:\n      tag_10\n      tag_11\n      jump\t// in\n    tag_10:\n      stop\n        /* \"tests/4_Ballot_test.sol\":418:724  function checkWinningProposal () public {... */\n    tag_5:\n      tag_12\n      tag_13\n      jump\t// in\n    tag_12:\n      stop\n        /* \"tests/4_Ballot_test.sol\":734:867  function checkWinninProposalWithReturnValue () public view returns (bool) {... */\n    tag_7:\n        /* \"tests/4_Ballot_test.sol\":802:806  bool */\n      0x00\n        /* \"tests/4_Ballot_test.sol\":859:860  0 */\n      dup1\n        /* \"tests/4_Ballot_test.sol\":825:837  ballotToTest */\n      0x01\n      0x00\n      swap1\n      sload\n      swap1\n      0x0100\n      exp\n      swap1\n      div\n      0xffffffffffffffffffffffffffffffffffffffff\n      and\n        /* \"tests/4_Ballot_test.sol\":825:853  ballotToTest.winningProposal */\n      0xffffffffffffffffffffffffffffffffffffffff\n      and\n      0x609ff1bd\n        /* \"tests/4_Ballot_test.sol\":825:855  ballotToTest.winningProposal() */\n      mload(0x40)\n      dup2\n      0xffffffff\n      and\n      0xe0\n      shl\n      dup2\n      mstore\n      0x04\n      add\n      0x20\n      mload(0x40)\n      dup1\n      dup4\n      sub\n      dup2\n      dup7\n      dup1\n      extcodesize\n      iszero\n      dup1\n      iszero\n      tag_15\n      jumpi\n      0x00\n      dup1\n      revert\n    tag_15:\n      pop\n      gas\n      staticcall\n      iszero\n      dup1\n      iszero\n      tag_17\n      jumpi\n      returndatasize\n      0x00\n      dup1\n      returndatacopy\n      revert(0x00, returndatasize)\n    tag_17:\n      pop\n      pop\n      pop\n      pop\n      mload(0x40)\n      returndatasize\n      not(0x1f)\n      0x1f\n      dup3\n      add\n      and\n      dup3\n      add\n      dup1\n      0x40\n      mstore\n      pop\n      dup2\n      add\n      swap1\n      tag_18\n      swap2\n      swap1\n      tag_19\n      jump\t// in\n    tag_18:\n        /* \"tests/4_Ballot_test.sol\":825:860  ballotToTest.winningProposal() == 0 */\n      eq\n        /* \"tests/4_Ballot_test.sol\":818:860  return ballotToTest.winningProposal() == 0 */\n      swap1\n      pop\n        /* \"tests/4_Ballot_test.sol\":734:867  function checkWinninProposalWithReturnValue () public view returns (bool) {... */\n      swap1\n      jump\t// out\n        /* \"tests/4_Ballot_test.sol\":271:408  function beforeAll () public {... */\n    tag_11:\n        /* \"tests/4_Ballot_test.sol\":310:323  proposalNames */\n      0x00\n        /* \"tests/4_Ballot_test.sol\":329:350  bytes32(\"candidate1\") */\n      0x63616e6469646174653100000000000000000000000000000000000000000000\n        /* \"tests/4_Ballot_test.sol\":310:351  proposalNames.push(bytes32(\"candidate1\")) */\n      swap1\n      dup1\n      0x01\n      dup2\n      sload\n      add\n      dup1\n      dup3\n      sstore\n      dup1\n      swap2\n      pop\n      pop\n      0x01\n      swap1\n      sub\n      swap1\n      0x00\n      mstore\n      keccak256(0x00, 0x20)\n      add\n      0x00\n      swap1\n      swap2\n      swap1\n      swap2\n      swap1\n      swap2\n      pop\n      sstore\n        /* \"tests/4_Ballot_test.sol\":387:400  proposalNames */\n      0x00\n        /* \"tests/4_Ballot_test.sol\":376:401  new Ballot(proposalNames) */\n      mload(0x40)\n      tag_22\n      swap1\n      tag_23\n      jump\t// in\n    tag_22:\n      tag_24\n      swap2\n      swap1\n      tag_25\n      jump\t// in\n    tag_24:\n      mload(0x40)\n      dup1\n      swap2\n      sub\n      swap1\n      0x00\n      create\n      dup1\n      iszero\n      dup1\n      iszero\n      tag_26\n      jumpi\n      returndatasize\n      0x00\n      dup1\n      returndatacopy\n      revert(0x00, returndatasize)\n    tag_26:\n      pop\n        /* \"tests/4_Ballot_test.sol\":361:373  ballotToTest */\n      0x01\n      0x00\n        /* \"tests/4_Ballot_test.sol\":361:401  ballotToTest = new Ballot(proposalNames) */\n      0x0100\n      exp\n      dup2\n      sload\n      dup2\n      0xffffffffffffffffffffffffffffffffffffffff\n      mul\n      not\n      and\n      swap1\n      dup4\n      0xffffffffffffffffffffffffffffffffffffffff\n      and\n      mul\n      or\n      swap1\n      sstore\n      pop\n        /* \"tests/4_Ballot_test.sol\":271:408  function beforeAll () public {... */\n      jump\t// out\n        /* \"tests/4_Ballot_test.sol\":418:724  function checkWinningProposal () public {... */\n    tag_13:\n        /* \"tests/4_Ballot_test.sol\":468:480  ballotToTest */\n      0x01\n      0x00\n      swap1\n      sload\n      swap1\n      0x0100\n      exp\n      swap1\n      div\n      0xffffffffffffffffffffffffffffffffffffffff\n      and\n        /* \"tests/4_Ballot_test.sol\":468:485  ballotToTest.vote */\n      0xffffffffffffffffffffffffffffffffffffffff\n      and\n      0x0121b93f\n        /* \"tests/4_Ballot_test.sol\":486:487  0 */\n      0x00\n        /* \"tests/4_Ballot_test.sol\":468:488  ballotToTest.vote(0) */\n      mload(0x40)\n      dup3\n      0xffffffff\n      and\n      0xe0\n      shl\n      dup2\n      mstore\n      0x04\n      add\n      tag_28\n      swap2\n      swap1\n      tag_29\n      jump\t// in\n    tag_28:\n      0x00\n      mload(0x40)\n      dup1\n      dup4\n      sub\n      dup2\n      0x00\n      dup8\n      dup1\n      extcodesize\n      iszero\n      dup1\n      iszero\n      tag_30\n      jumpi\n      0x00\n      dup1\n      revert\n    tag_30:\n      pop\n      gas\n      call\n      iszero\n      dup1\n      iszero\n      tag_32\n      jumpi\n      returndatasize\n      0x00\n      dup1\n      returndatacopy\n      revert(0x00, returndatasize)\n    tag_32:\n      pop\n      pop\n      pop\n      pop\n        /* \"tests/4_Ballot_test.sol\":498:504  Assert */\n      linkerSymbol(\"acbfb1c35000d78352310b16a054a6b1066124b9c6f054b10c085f549bff80c6\")\n        /* \"tests/4_Ballot_test.sol\":498:510  Assert.equal */\n      0xabcd7960\n        /* \"tests/4_Ballot_test.sol\":511:523  ballotToTest */\n      0x01\n      0x00\n      swap1\n      sload\n      swap1\n      0x0100\n      exp\n      swap1\n      div\n      0xffffffffffffffffffffffffffffffffffffffff\n      and\n        /* \"tests/4_Ballot_test.sol\":511:539  ballotToTest.winningProposal */\n      0xffffffffffffffffffffffffffffffffffffffff\n      and\n      0x609ff1bd\n        /* \"tests/4_Ballot_test.sol\":511:541  ballotToTest.winningProposal() */\n      mload(0x40)\n      dup2\n      0xffffffff\n      and\n      0xe0\n      shl\n      dup2\n      mstore\n      0x04\n      add\n      0x20\n      mload(0x40)\n      dup1\n      dup4\n      sub\n      dup2\n      dup7\n      dup1\n      extcodesize\n      iszero\n      dup1\n      iszero\n      tag_33\n      jumpi\n      0x00\n      dup1\n      revert\n    tag_33:\n      pop\n      gas\n      staticcall\n      iszero\n      dup1\n      iszero\n      tag_35\n      jumpi\n      returndatasize\n      0x00\n      dup1\n      returndatacopy\n      revert(0x00, returndatasize)\n    tag_35:\n      pop\n      pop\n      pop\n      pop\n      mload(0x40)\n      returndatasize\n      not(0x1f)\n      0x1f\n      dup3\n      add\n      and\n      dup3\n      add\n      dup1\n      0x40\n      mstore\n      pop\n      dup2\n      add\n      swap1\n      tag_36\n      swap2\n      swap1\n      tag_19\n      jump\t// in\n    tag_36:\n        /* \"tests/4_Ballot_test.sol\":548:549  0 */\n      0x00\n        /* \"tests/4_Ballot_test.sol\":498:605  Assert.equal(ballotToTest.winningProposal(), uint(0), \"proposal at index 0 should be the winning proposal\") */\n      mload(0x40)\n      dup4\n      0xffffffff\n      and\n      0xe0\n      shl\n      dup2\n      mstore\n      0x04\n      add\n      tag_37\n      swap3\n      swap2\n      swap1\n      tag_38\n      jump\t// in\n    tag_37:\n      0x20\n      mload(0x40)\n      dup1\n      dup4\n      sub\n      dup2\n      dup7\n      dup1\n      extcodesize\n      iszero\n      dup1\n      iszero\n      tag_39\n      jumpi\n      0x00\n      dup1\n      revert\n    tag_39:\n      pop\n      gas\n      delegatecall\n      iszero\n      dup1\n      iszero\n      tag_41\n      jumpi\n      returndatasize\n      0x00\n      dup1\n      returndatacopy\n      revert(0x00, returndatasize)\n    tag_41:\n      pop\n      pop\n      pop\n      pop\n      mload(0x40)\n      returndatasize\n      not(0x1f)\n      0x1f\n      dup3\n      add\n      and\n      dup3\n      add\n      dup1\n      0x40\n      mstore\n      pop\n      dup2\n      add\n      swap1\n      tag_42\n      swap2\n      swap1\n      tag_43\n      jump\t// in\n    tag_42:\n      pop\n        /* \"tests/4_Ballot_test.sol\":615:621  Assert */\n      linkerSymbol(\"acbfb1c35000d78352310b16a054a6b1066124b9c6f054b10c085f549bff80c6\")\n        /* \"tests/4_Ballot_test.sol\":615:627  Assert.equal */\n      0xea79dd79\n        /* \"tests/4_Ballot_test.sol\":628:640  ballotToTest */\n      0x01\n      0x00\n      swap1\n      sload\n      swap1\n      0x0100\n      exp\n      swap1\n      div\n      0xffffffffffffffffffffffffffffffffffffffff\n      and\n        /* \"tests/4_Ballot_test.sol\":628:651  ballotToTest.winnerName */\n      0xffffffffffffffffffffffffffffffffffffffff\n      and\n      0xe2ba53f0\n        /* \"tests/4_Ballot_test.sol\":628:653  ballotToTest.winnerName() */\n      mload(0x40)\n      dup2\n      0xffffffff\n      and\n      0xe0\n      shl\n      dup2\n      mstore\n      0x04\n      add\n      0x20\n      mload(0x40)\n      dup1\n      dup4\n      sub\n      dup2\n      dup7\n      dup1\n      extcodesize\n      iszero\n      dup1\n      iszero\n      tag_44\n      jumpi\n      0x00\n      dup1\n      revert\n    tag_44:\n      pop\n      gas\n      staticcall\n      iszero\n      dup1\n      iszero\n      tag_46\n      jumpi\n      returndatasize\n      0x00\n      dup1\n      returndatacopy\n      revert(0x00, returndatasize)\n    tag_46:\n      pop\n      pop\n      pop\n      pop\n      mload(0x40)\n      returndatasize\n      not(0x1f)\n      0x1f\n      dup3\n      add\n      and\n      dup3\n      add\n      dup1\n      0x40\n      mstore\n      pop\n      dup2\n      add\n      swap1\n      tag_47\n      swap2\n      swap1\n      tag_48\n      jump\t// in\n    tag_47:\n        /* \"tests/4_Ballot_test.sol\":655:676  bytes32(\"candidate1\") */\n      0x63616e6469646174653100000000000000000000000000000000000000000000\n        /* \"tests/4_Ballot_test.sol\":615:717  Assert.equal(ballotToTest.winnerName(), bytes32(\"candidate1\"), \"candidate1 should be the winner name\") */\n      mload(0x40)\n      dup4\n      0xffffffff\n      and\n      0xe0\n      shl\n      dup2\n      mstore\n      0x04\n      add\n      tag_49\n      swap3\n      swap2\n      swap1\n      tag_50\n      jump\t// in\n    tag_49:\n      0x20\n      mload(0x40)\n      dup1\n      dup4\n      sub\n      dup2\n      dup7\n      dup1\n      extcodesize\n      iszero\n      dup1\n      iszero\n      tag_51\n      jumpi\n      0x00\n      dup1\n      revert\n    tag_51:\n      pop\n      gas\n      delegatecall\n      iszero\n      dup1\n      iszero\n      tag_53\n      jumpi\n      returndatasize\n      0x00\n      dup1\n      returndatacopy\n      revert(0x00, returndatasize)\n    tag_53:\n      pop\n      pop\n      pop\n      pop\n      mload(0x40)\n      returndatasize\n      not(0x1f)\n      0x1f\n      dup3\n      add\n      and\n      dup3\n      add\n      dup1\n      0x40\n      mstore\n      pop\n      dup2\n      add\n      swap1\n      tag_54\n      swap2\n      swap1\n      tag_43\n      jump\t// in\n    tag_54:\n      pop\n        /* \"tests/4_Ballot_test.sol\":418:724  function checkWinningProposal () public {... */\n      jump\t// out\n    tag_23:\n      dataSize(sub_0)\n      dup1\n      dataOffset(sub_0)\n      dup4\n      codecopy\n      add\n      swap1\n      jump\t// out\n        /* \"#utility.yul\":7:144   */\n    tag_56:\n        /* \"#utility.yul\":61:66   */\n      0x00\n        /* \"#utility.yul\":92:98   */\n      dup2\n        /* \"#utility.yul\":86:99   */\n      mload\n        /* \"#utility.yul\":77:99   */\n      swap1\n      pop\n        /* \"#utility.yul\":108:138   */\n      tag_58\n        /* \"#utility.yul\":132:137   */\n      dup2\n        /* \"#utility.yul\":108:138   */\n      tag_59\n      jump\t// in\n    tag_58:\n        /* \"#utility.yul\":7:144   */\n      swap3\n      swap2\n      pop\n      pop\n      jump\t// out\n        /* \"#utility.yul\":150:293   */\n    tag_60:\n        /* \"#utility.yul\":207:212   */\n      0x00\n        /* \"#utility.yul\":238:244   */\n      dup2\n        /* \"#utility.yul\":232:245   */\n      mload\n        /* \"#utility.yul\":223:245   */\n      swap1\n      pop\n        /* \"#utility.yul\":254:287   */\n      tag_62\n        /* \"#utility.yul\":281:286   */\n      dup2\n        /* \"#utility.yul\":254:287   */\n      tag_63\n      jump\t// in\n    tag_62:\n        /* \"#utility.yul\":150:293   */\n      swap3\n      swap2\n      pop\n      pop\n      jump\t// out\n        /* \"#utility.yul\":299:442   */\n    tag_64:\n        /* \"#utility.yul\":356:361   */\n      0x00\n        /* \"#utility.yul\":387:393   */\n      dup2\n        /* \"#utility.yul\":381:394   */\n      mload\n        /* \"#utility.yul\":372:394   */\n      swap1\n      pop\n        /* \"#utility.yul\":403:436   */\n      tag_66\n        /* \"#utility.yul\":430:435   */\n      dup2\n        /* \"#utility.yul\":403:436   */\n      tag_67\n      jump\t// in\n    tag_66:\n        /* \"#utility.yul\":299:442   */\n      swap3\n      swap2\n      pop\n      pop\n      jump\t// out\n        /* \"#utility.yul\":448:793   */\n    tag_43:\n        /* \"#utility.yul\":515:521   */\n      0x00\n        /* \"#utility.yul\":564:566   */\n      0x20\n        /* \"#utility.yul\":552:561   */\n      dup3\n        /* \"#utility.yul\":543:550   */\n      dup5\n        /* \"#utility.yul\":539:562   */\n      sub\n        /* \"#utility.yul\":535:567   */\n      slt\n        /* \"#utility.yul\":532:651   */\n      iszero\n      tag_69\n      jumpi\n        /* \"#utility.yul\":570:649   */\n      tag_70\n      tag_71\n      jump\t// in\n    tag_70:\n        /* \"#utility.yul\":532:651   */\n    tag_69:\n        /* \"#utility.yul\":690:691   */\n      0x00\n        /* \"#utility.yul\":715:776   */\n      tag_72\n        /* \"#utility.yul\":768:775   */\n      dup5\n        /* \"#utility.yul\":759:765   */\n      dup3\n        /* \"#utility.yul\":748:757   */\n      dup6\n        /* \"#utility.yul\":744:766   */\n      add\n        /* \"#utility.yul\":715:776   */\n      tag_56\n      jump\t// in\n    tag_72:\n        /* \"#utility.yul\":705:776   */\n      swap2\n      pop\n        /* \"#utility.yul\":661:786   */\n      pop\n        /* \"#utility.yul\":448:793   */\n      swap3\n      swap2\n      pop\n      pop\n      jump\t// out\n        /* \"#utility.yul\":799:1150   */\n    tag_48:\n        /* \"#utility.yul\":869:875   */\n      0x00\n        /* \"#utility.yul\":918:920   */\n      0x20\n        /* \"#utility.yul\":906:915   */\n      dup3\n        /* \"#utility.yul\":897:904   */\n      dup5\n        /* \"#utility.yul\":893:916   */\n      sub\n        /* \"#utility.yul\":889:921   */\n      slt\n        /* \"#utility.yul\":886:1005   */\n      iszero\n      tag_74\n      jumpi\n        /* \"#utility.yul\":924:1003   */\n      tag_75\n      tag_71\n      jump\t// in\n    tag_75:\n        /* \"#utility.yul\":886:1005   */\n    tag_74:\n        /* \"#utility.yul\":1044:1045   */\n      0x00\n        /* \"#utility.yul\":1069:1133   */\n      tag_76\n        /* \"#utility.yul\":1125:1132   */\n      dup5\n        /* \"#utility.yul\":1116:1122   */\n      dup3\n        /* \"#utility.yul\":1105:1114   */\n      dup6\n        /* \"#utility.yul\":1101:1123   */\n      add\n        /* \"#utility.yul\":1069:1133   */\n      tag_60\n      jump\t// in\n    tag_76:\n        /* \"#utility.yul\":1059:1133   */\n      swap2\n      pop\n        /* \"#utility.yul\":1015:1143   */\n      pop\n        /* \"#utility.yul\":799:1150   */\n      swap3\n      swap2\n      pop\n      pop\n      jump\t// out\n        /* \"#utility.yul\":1156:1507   */\n    tag_19:\n        /* \"#utility.yul\":1226:1232   */\n      0x00\n        /* \"#utility.yul\":1275:1277   */\n      0x20\n        /* \"#utility.yul\":1263:1272   */\n      dup3\n        /* \"#utility.yul\":1254:1261   */\n      dup5\n        /* \"#utility.yul\":1250:1273   */\n      sub\n        /* \"#utility.yul\":1246:1278   */\n      slt\n        /* \"#utility.yul\":1243:1362   */\n      iszero\n      tag_78\n      jumpi\n        /* \"#utility.yul\":1281:1360   */\n      tag_79\n      tag_71\n      jump\t// in\n    tag_79:\n        /* \"#utility.yul\":1243:1362   */\n    tag_78:\n        /* \"#utility.yul\":1401:1402   */\n      0x00\n        /* \"#utility.yul\":1426:1490   */\n      tag_80\n        /* \"#utility.yul\":1482:1489   */\n      dup5\n        /* \"#utility.yul\":1473:1479   */\n      dup3\n        /* \"#utility.yul\":1462:1471   */\n      dup6\n        /* \"#utility.yul\":1458:1480   */\n      add\n        /* \"#utility.yul\":1426:1490   */\n      tag_64\n      jump\t// in\n    tag_80:\n        /* \"#utility.yul\":1416:1490   */\n      swap2\n      pop\n        /* \"#utility.yul\":1372:1500   */\n      pop\n        /* \"#utility.yul\":1156:1507   */\n      swap3\n      swap2\n      pop\n      pop\n      jump\t// out\n        /* \"#utility.yul\":1513:1692   */\n    tag_81:\n        /* \"#utility.yul\":1582:1592   */\n      0x00\n        /* \"#utility.yul\":1603:1649   */\n      tag_83\n        /* \"#utility.yul\":1645:1648   */\n      dup4\n        /* \"#utility.yul\":1637:1643   */\n      dup4\n        /* \"#utility.yul\":1603:1649   */\n      tag_84\n      jump\t// in\n    tag_83:\n        /* \"#utility.yul\":1681:1685   */\n      0x20\n        /* \"#utility.yul\":1676:1679   */\n      dup4\n        /* \"#utility.yul\":1672:1686   */\n      add\n        /* \"#utility.yul\":1658:1686   */\n      swap1\n      pop\n        /* \"#utility.yul\":1513:1692   */\n      swap3\n      swap2\n      pop\n      pop\n      jump\t// out\n        /* \"#utility.yul\":1728:2479   */\n    tag_85:\n        /* \"#utility.yul\":1844:1847   */\n      0x00\n        /* \"#utility.yul\":1873:1924   */\n      tag_87\n        /* \"#utility.yul\":1918:1923   */\n      dup3\n        /* \"#utility.yul\":1873:1924   */\n      tag_88\n      jump\t// in\n    tag_87:\n        /* \"#utility.yul\":1940:2026   */\n      tag_89\n        /* \"#utility.yul\":2019:2025   */\n      dup2\n        /* \"#utility.yul\":2014:2017   */\n      dup6\n        /* \"#utility.yul\":1940:2026   */\n      tag_90\n      jump\t// in\n    tag_89:\n        /* \"#utility.yul\":1933:2026   */\n      swap4\n      pop\n        /* \"#utility.yul\":2050:2103   */\n      tag_91\n        /* \"#utility.yul\":2097:2102   */\n      dup4\n        /* \"#utility.yul\":2050:2103   */\n      tag_92\n      jump\t// in\n    tag_91:\n        /* \"#utility.yul\":2126:2133   */\n      dup1\n        /* \"#utility.yul\":2157:2158   */\n      0x00\n        /* \"#utility.yul\":2142:2454   */\n    tag_93:\n        /* \"#utility.yul\":2167:2173   */\n      dup4\n        /* \"#utility.yul\":2164:2165   */\n      dup2\n        /* \"#utility.yul\":2161:2174   */\n      lt\n        /* \"#utility.yul\":2142:2454   */\n      iszero\n      tag_95\n      jumpi\n        /* \"#utility.yul\":2237:2281   */\n      tag_96\n        /* \"#utility.yul\":2274:2280   */\n      dup3\n        /* \"#utility.yul\":2237:2281   */\n      tag_97\n      jump\t// in\n    tag_96:\n        /* \"#utility.yul\":2301:2364   */\n      tag_98\n        /* \"#utility.yul\":2360:2363   */\n      dup9\n        /* \"#utility.yul\":2345:2358   */\n      dup3\n        /* \"#utility.yul\":2301:2364   */\n      tag_81\n      jump\t// in\n    tag_98:\n        /* \"#utility.yul\":2294:2364   */\n      swap8\n      pop\n        /* \"#utility.yul\":2387:2444   */\n      tag_99\n        /* \"#utility.yul\":2437:2443   */\n      dup4\n        /* \"#utility.yul\":2387:2444   */\n      tag_100\n      jump\t// in\n    tag_99:\n        /* \"#utility.yul\":2377:2444   */\n      swap3\n      pop\n        /* \"#utility.yul\":2202:2454   */\n      pop\n        /* \"#utility.yul\":2189:2190   */\n      0x01\n        /* \"#utility.yul\":2186:2187   */\n      dup2\n        /* \"#utility.yul\":2182:2191   */\n      add\n        /* \"#utility.yul\":2177:2191   */\n      swap1\n      pop\n        /* \"#utility.yul\":2142:2454   */\n      jump(tag_93)\n    tag_95:\n        /* \"#utility.yul\":2146:2160   */\n      pop\n        /* \"#utility.yul\":2470:2473   */\n      dup6\n        /* \"#utility.yul\":2463:2473   */\n      swap4\n      pop\n        /* \"#utility.yul\":1849:2479   */\n      pop\n      pop\n      pop\n        /* \"#utility.yul\":1728:2479   */\n      swap3\n      swap2\n      pop\n      pop\n      jump\t// out\n        /* \"#utility.yul\":2485:2594   */\n    tag_101:\n        /* \"#utility.yul\":2566:2587   */\n      tag_103\n        /* \"#utility.yul\":2581:2586   */\n      dup2\n        /* \"#utility.yul\":2566:2587   */\n      tag_104\n      jump\t// in\n    tag_103:\n        /* \"#utility.yul\":2561:2564   */\n      dup3\n        /* \"#utility.yul\":2554:2588   */\n      mstore\n        /* \"#utility.yul\":2485:2594   */\n      pop\n      pop\n      jump\t// out\n        /* \"#utility.yul\":2600:2708   */\n    tag_84:\n        /* \"#utility.yul\":2677:2701   */\n      tag_106\n        /* \"#utility.yul\":2695:2700   */\n      dup2\n        /* \"#utility.yul\":2677:2701   */\n      tag_107\n      jump\t// in\n    tag_106:\n        /* \"#utility.yul\":2672:2675   */\n      dup3\n        /* \"#utility.yul\":2665:2702   */\n      mstore\n        /* \"#utility.yul\":2600:2708   */\n      pop\n      pop\n      jump\t// out\n        /* \"#utility.yul\":2714:2840   */\n    tag_108:\n        /* \"#utility.yul\":2809:2833   */\n      tag_110\n        /* \"#utility.yul\":2827:2832   */\n      dup2\n        /* \"#utility.yul\":2809:2833   */\n      tag_107\n      jump\t// in\n    tag_110:\n        /* \"#utility.yul\":2804:2807   */\n      dup3\n        /* \"#utility.yul\":2797:2834   */\n      mstore\n        /* \"#utility.yul\":2714:2840   */\n      pop\n      pop\n      jump\t// out\n        /* \"#utility.yul\":2846:2993   */\n    tag_111:\n        /* \"#utility.yul\":2941:2986   */\n      tag_113\n        /* \"#utility.yul\":2980:2985   */\n      dup2\n        /* \"#utility.yul\":2941:2986   */\n      tag_114\n      jump\t// in\n    tag_113:\n        /* \"#utility.yul\":2936:2939   */\n      dup3\n        /* \"#utility.yul\":2929:2987   */\n      mstore\n        /* \"#utility.yul\":2846:2993   */\n      pop\n      pop\n      jump\t// out\n        /* \"#utility.yul\":2999:3381   */\n    tag_115:\n        /* \"#utility.yul\":3149:3152   */\n      0x00\n        /* \"#utility.yul\":3170:3245   */\n      tag_117\n        /* \"#utility.yul\":3242:3244   */\n      0x32\n        /* \"#utility.yul\":3237:3240   */\n      dup4\n        /* \"#utility.yul\":3170:3245   */\n      tag_118\n      jump\t// in\n    tag_117:\n        /* \"#utility.yul\":3163:3245   */\n      swap2\n      pop\n        /* \"#utility.yul\":3254:3347   */\n      tag_119\n        /* \"#utility.yul\":3343:3346   */\n      dup3\n        /* \"#utility.yul\":3254:3347   */\n      tag_120\n      jump\t// in\n    tag_119:\n        /* \"#utility.yul\":3372:3374   */\n      0x40\n        /* \"#utility.yul\":3367:3370   */\n      dup3\n        /* \"#utility.yul\":3363:3375   */\n      add\n        /* \"#utility.yul\":3356:3375   */\n      swap1\n      pop\n        /* \"#utility.yul\":2999:3381   */\n      swap2\n      swap1\n      pop\n      jump\t// out\n        /* \"#utility.yul\":3387:3769   */\n    tag_121:\n        /* \"#utility.yul\":3537:3540   */\n      0x00\n        /* \"#utility.yul\":3558:3633   */\n      tag_123\n        /* \"#utility.yul\":3630:3632   */\n      0x24\n        /* \"#utility.yul\":3625:3628   */\n      dup4\n        /* \"#utility.yul\":3558:3633   */\n      tag_118\n      jump\t// in\n    tag_123:\n        /* \"#utility.yul\":3551:3633   */\n      swap2\n      pop\n        /* \"#utility.yul\":3642:3735   */\n      tag_124\n        /* \"#utility.yul\":3731:3734   */\n      dup3\n        /* \"#utility.yul\":3642:3735   */\n      tag_125\n      jump\t// in\n    tag_124:\n        /* \"#utility.yul\":3760:3762   */\n      0x40\n        /* \"#utility.yul\":3755:3758   */\n      dup3\n        /* \"#utility.yul\":3751:3763   */\n      add\n        /* \"#utility.yul\":3744:3763   */\n      swap1\n      pop\n        /* \"#utility.yul\":3387:3769   */\n      swap2\n      swap1\n      pop\n      jump\t// out\n        /* \"#utility.yul\":3775:3901   */\n    tag_126:\n        /* \"#utility.yul\":3870:3894   */\n      tag_128\n        /* \"#utility.yul\":3888:3893   */\n      dup2\n        /* \"#utility.yul\":3870:3894   */\n      tag_129\n      jump\t// in\n    tag_128:\n        /* \"#utility.yul\":3865:3868   */\n      dup3\n        /* \"#utility.yul\":3858:3895   */\n      mstore\n        /* \"#utility.yul\":3775:3901   */\n      pop\n      pop\n      jump\t// out\n        /* \"#utility.yul\":3907:4274   */\n    tag_25:\n        /* \"#utility.yul\":4047:4051   */\n      0x00\n        /* \"#utility.yul\":4085:4087   */\n      0x20\n        /* \"#utility.yul\":4074:4083   */\n      dup3\n        /* \"#utility.yul\":4070:4088   */\n      add\n        /* \"#utility.yul\":4062:4088   */\n      swap1\n      pop\n        /* \"#utility.yul\":4134:4143   */\n      dup2\n        /* \"#utility.yul\":4128:4132   */\n      dup2\n        /* \"#utility.yul\":4124:4144   */\n      sub\n        /* \"#utility.yul\":4120:4121   */\n      0x00\n        /* \"#utility.yul\":4109:4118   */\n      dup4\n        /* \"#utility.yul\":4105:4122   */\n      add\n        /* \"#utility.yul\":4098:4145   */\n      mstore\n        /* \"#utility.yul\":4162:4267   */\n      tag_131\n        /* \"#utility.yul\":4262:4266   */\n      dup2\n        /* \"#utility.yul\":4253:4259   */\n      dup5\n        /* \"#utility.yul\":4162:4267   */\n      tag_85\n      jump\t// in\n    tag_131:\n        /* \"#utility.yul\":4154:4267   */\n      swap1\n      pop\n        /* \"#utility.yul\":3907:4274   */\n      swap3\n      swap2\n      pop\n      pop\n      jump\t// out\n        /* \"#utility.yul\":4280:4490   */\n    tag_9:\n        /* \"#utility.yul\":4367:4371   */\n      0x00\n        /* \"#utility.yul\":4405:4407   */\n      0x20\n        /* \"#utility.yul\":4394:4403   */\n      dup3\n        /* \"#utility.yul\":4390:4408   */\n      add\n        /* \"#utility.yul\":4382:4408   */\n      swap1\n      pop\n        /* \"#utility.yul\":4418:4483   */\n      tag_133\n        /* \"#utility.yul\":4480:4481   */\n      0x00\n        /* \"#utility.yul\":4469:4478   */\n      dup4\n        /* \"#utility.yul\":4465:4482   */\n      add\n        /* \"#utility.yul\":4456:4462   */\n      dup5\n        /* \"#utility.yul\":4418:4483   */\n      tag_101\n      jump\t// in\n    tag_133:\n        /* \"#utility.yul\":4280:4490   */\n      swap3\n      swap2\n      pop\n      pop\n      jump\t// out\n        /* \"#utility.yul\":4496:5167   */\n    tag_50:\n        /* \"#utility.yul\":4726:4730   */\n      0x00\n        /* \"#utility.yul\":4764:4766   */\n      0x60\n        /* \"#utility.yul\":4753:4762   */\n      dup3\n        /* \"#utility.yul\":4749:4767   */\n      add\n        /* \"#utility.yul\":4741:4767   */\n      swap1\n      pop\n        /* \"#utility.yul\":4777:4856   */\n      tag_135\n        /* \"#utility.yul\":4853:4854   */\n      0x00\n        /* \"#utility.yul\":4842:4851   */\n      dup4\n        /* \"#utility.yul\":4838:4855   */\n      add\n        /* \"#utility.yul\":4829:4835   */\n      dup6\n        /* \"#utility.yul\":4777:4856   */\n      tag_108\n      jump\t// in\n    tag_135:\n        /* \"#utility.yul\":4866:4946   */\n      tag_136\n        /* \"#utility.yul\":4942:4944   */\n      0x20\n        /* \"#utility.yul\":4931:4940   */\n      dup4\n        /* \"#utility.yul\":4927:4945   */\n      add\n        /* \"#utility.yul\":4918:4924   */\n      dup5\n        /* \"#utility.yul\":4866:4946   */\n      tag_108\n      jump\t// in\n    tag_136:\n        /* \"#utility.yul\":4993:5002   */\n      dup2\n        /* \"#utility.yul\":4987:4991   */\n      dup2\n        /* \"#utility.yul\":4983:5003   */\n      sub\n        /* \"#utility.yul\":4978:4980   */\n      0x40\n        /* \"#utility.yul\":4967:4976   */\n      dup4\n        /* \"#utility.yul\":4963:4981   */\n      add\n        /* \"#utility.yul\":4956:5004   */\n      mstore\n        /* \"#utility.yul\":5021:5160   */\n      tag_137\n        /* \"#utility.yul\":5155:5159   */\n      dup2\n        /* \"#utility.yul\":5021:5160   */\n      tag_121\n      jump\t// in\n    tag_137:\n        /* \"#utility.yul\":5013:5160   */\n      swap1\n      pop\n        /* \"#utility.yul\":4496:5167   */\n      swap4\n      swap3\n      pop\n      pop\n      pop\n      jump\t// out\n        /* \"#utility.yul\":5173:5411   */\n    tag_29:\n        /* \"#utility.yul\":5274:5278   */\n      0x00\n        /* \"#utility.yul\":5312:5314   */\n      0x20\n        /* \"#utility.yul\":5301:5310   */\n      dup3\n        /* \"#utility.yul\":5297:5315   */\n      add\n        /* \"#utility.yul\":5289:5315   */\n      swap1\n      pop\n        /* \"#utility.yul\":5325:5404   */\n      tag_139\n        /* \"#utility.yul\":5401:5402   */\n      0x00\n        /* \"#utility.yul\":5390:5399   */\n      dup4\n        /* \"#utility.yul\":5386:5403   */\n      add\n        /* \"#utility.yul\":5377:5383   */\n      dup5\n        /* \"#utility.yul\":5325:5404   */\n      tag_111\n      jump\t// in\n    tag_139:\n        /* \"#utility.yul\":5173:5411   */\n      swap3\n      swap2\n      pop\n      pop\n      jump\t// out\n        /* \"#utility.yul\":5417:6088   */\n    tag_38:\n        /* \"#utility.yul\":5647:5651   */\n      0x00\n        /* \"#utility.yul\":5685:5687   */\n      0x60\n        /* \"#utility.yul\":5674:5683   */\n      dup3\n        /* \"#utility.yul\":5670:5688   */\n      add\n        /* \"#utility.yul\":5662:5688   */\n      swap1\n      pop\n        /* \"#utility.yul\":5698:5777   */\n      tag_141\n        /* \"#utility.yul\":5774:5775   */\n      0x00\n        /* \"#utility.yul\":5763:5772   */\n      dup4\n        /* \"#utility.yul\":5759:5776   */\n      add\n        /* \"#utility.yul\":5750:5756   */\n      dup6\n        /* \"#utility.yul\":5698:5777   */\n      tag_126\n      jump\t// in\n    tag_141:\n        /* \"#utility.yul\":5787:5867   */\n      tag_142\n        /* \"#utility.yul\":5863:5865   */\n      0x20\n        /* \"#utility.yul\":5852:5861   */\n      dup4\n        /* \"#utility.yul\":5848:5866   */\n      add\n        /* \"#utility.yul\":5839:5845   */\n      dup5\n        /* \"#utility.yul\":5787:5867   */\n      tag_126\n      jump\t// in\n    tag_142:\n        /* \"#utility.yul\":5914:5923   */\n      dup2\n        /* \"#utility.yul\":5908:5912   */\n      dup2\n        /* \"#utility.yul\":5904:5924   */\n      sub\n        /* \"#utility.yul\":5899:5901   */\n      0x40\n        /* \"#utility.yul\":5888:5897   */\n      dup4\n        /* \"#utility.yul\":5884:5902   */\n      add\n        /* \"#utility.yul\":5877:5925   */\n      mstore\n        /* \"#utility.yul\":5942:6081   */\n      tag_143\n        /* \"#utility.yul\":6076:6080   */\n      dup2\n        /* \"#utility.yul\":5942:6081   */\n      tag_115\n      jump\t// in\n    tag_143:\n        /* \"#utility.yul\":5934:6081   */\n      swap1\n      pop\n        /* \"#utility.yul\":5417:6088   */\n      swap4\n      swap3\n      pop\n      pop\n      pop\n      jump\t// out\n        /* \"#utility.yul\":6175:6331   */\n    tag_92:\n        /* \"#utility.yul\":6239:6243   */\n      0x00\n        /* \"#utility.yul\":6262:6265   */\n      dup2\n        /* \"#utility.yul\":6254:6265   */\n      swap1\n      pop\n        /* \"#utility.yul\":6285:6288   */\n      dup2\n        /* \"#utility.yul\":6282:6283   */\n      0x00\n        /* \"#utility.yul\":6275:6289   */\n      mstore\n        /* \"#utility.yul\":6319:6323   */\n      0x20\n        /* \"#utility.yul\":6316:6317   */\n      0x00\n        /* \"#utility.yul\":6306:6324   */\n      keccak256\n        /* \"#utility.yul\":6298:6324   */\n      swap1\n      pop\n        /* \"#utility.yul\":6175:6331   */\n      swap2\n      swap1\n      pop\n      jump\t// out\n        /* \"#utility.yul\":6337:6448   */\n    tag_88:\n        /* \"#utility.yul\":6401:6407   */\n      0x00\n        /* \"#utility.yul\":6435:6440   */\n      dup2\n        /* \"#utility.yul\":6429:6441   */\n      sload\n        /* \"#utility.yul\":6419:6441   */\n      swap1\n      pop\n        /* \"#utility.yul\":6337:6448   */\n      swap2\n      swap1\n      pop\n      jump\t// out\n        /* \"#utility.yul\":6454:6564   */\n    tag_100:\n        /* \"#utility.yul\":6521:6525   */\n      0x00\n        /* \"#utility.yul\":6553:6557   */\n      0x01\n        /* \"#utility.yul\":6548:6551   */\n      dup3\n        /* \"#utility.yul\":6544:6558   */\n      add\n        /* \"#utility.yul\":6536:6558   */\n      swap1\n      pop\n        /* \"#utility.yul\":6454:6564   */\n      swap2\n      swap1\n      pop\n      jump\t// out\n        /* \"#utility.yul\":6570:6754   */\n    tag_90:\n        /* \"#utility.yul\":6669:6680   */\n      0x00\n        /* \"#utility.yul\":6703:6709   */\n      dup3\n        /* \"#utility.yul\":6698:6701   */\n      dup3\n        /* \"#utility.yul\":6691:6710   */\n      mstore\n        /* \"#utility.yul\":6743:6747   */\n      0x20\n        /* \"#utility.yul\":6738:6741   */\n      dup3\n        /* \"#utility.yul\":6734:6748   */\n      add\n        /* \"#utility.yul\":6719:6748   */\n      swap1\n      pop\n        /* \"#utility.yul\":6570:6754   */\n      swap3\n      swap2\n      pop\n      pop\n      jump\t// out\n        /* \"#utility.yul\":6760:6937   */\n    tag_118:\n        /* \"#utility.yul\":6852:6863   */\n      0x00\n        /* \"#utility.yul\":6886:6892   */\n      dup3\n        /* \"#utility.yul\":6881:6884   */\n      dup3\n        /* \"#utility.yul\":6874:6893   */\n      mstore\n        /* \"#utility.yul\":6926:6930   */\n      0x20\n        /* \"#utility.yul\":6921:6924   */\n      dup3\n        /* \"#utility.yul\":6917:6931   */\n      add\n        /* \"#utility.yul\":6902:6931   */\n      swap1\n      pop\n        /* \"#utility.yul\":6760:6937   */\n      swap3\n      swap2\n      pop\n      pop\n      jump\t// out\n        /* \"#utility.yul\":6943:7033   */\n    tag_151:\n        /* \"#utility.yul\":6993:7000   */\n      0x00\n        /* \"#utility.yul\":7022:7027   */\n      dup2\n        /* \"#utility.yul\":7011:7027   */\n      swap1\n      pop\n        /* \"#utility.yul\":6943:7033   */\n      swap2\n      swap1\n      pop\n      jump\t// out\n        /* \"#utility.yul\":7039:7129   */\n    tag_104:\n        /* \"#utility.yul\":7073:7080   */\n      0x00\n        /* \"#utility.yul\":7116:7121   */\n      dup2\n        /* \"#utility.yul\":7109:7122   */\n      iszero\n        /* \"#utility.yul\":7102:7123   */\n      iszero\n        /* \"#utility.yul\":7091:7123   */\n      swap1\n      pop\n        /* \"#utility.yul\":7039:7129   */\n      swap2\n      swap1\n      pop\n      jump\t// out\n        /* \"#utility.yul\":7135:7212   */\n    tag_107:\n        /* \"#utility.yul\":7172:7179   */\n      0x00\n        /* \"#utility.yul\":7201:7206   */\n      dup2\n        /* \"#utility.yul\":7190:7206   */\n      swap1\n      pop\n        /* \"#utility.yul\":7135:7212   */\n      swap2\n      swap1\n      pop\n      jump\t// out\n        /* \"#utility.yul\":7218:7295   */\n    tag_129:\n        /* \"#utility.yul\":7255:7262   */\n      0x00\n        /* \"#utility.yul\":7284:7289   */\n      dup2\n        /* \"#utility.yul\":7273:7289   */\n      swap1\n      pop\n        /* \"#utility.yul\":7218:7295   */\n      swap2\n      swap1\n      pop\n      jump\t// out\n        /* \"#utility.yul\":7301:7422   */\n    tag_114:\n        /* \"#utility.yul\":7359:7368   */\n      0x00\n        /* \"#utility.yul\":7392:7416   */\n      tag_157\n        /* \"#utility.yul\":7410:7415   */\n      dup3\n        /* \"#utility.yul\":7392:7416   */\n      tag_129\n      jump\t// in\n    tag_157:\n        /* \"#utility.yul\":7379:7416   */\n      swap1\n      pop\n        /* \"#utility.yul\":7301:7422   */\n      swap2\n      swap1\n      pop\n      jump\t// out\n        /* \"#utility.yul\":7428:7594   */\n    tag_158:\n        /* \"#utility.yul\":7497:7502   */\n      0x00\n        /* \"#utility.yul\":7522:7588   */\n      tag_160\n        /* \"#utility.yul\":7553:7587   */\n      tag_161\n        /* \"#utility.yul\":7576:7586   */\n      dup4\n        /* \"#utility.yul\":7553:7587   */\n      tag_162\n      jump\t// in\n    tag_161:\n        /* \"#utility.yul\":7522:7588   */\n      tag_151\n      jump\t// in\n    tag_160:\n        /* \"#utility.yul\":7513:7588   */\n      swap1\n      pop\n        /* \"#utility.yul\":7428:7594   */\n      swap2\n      swap1\n      pop\n      jump\t// out\n        /* \"#utility.yul\":7600:7744   */\n    tag_97:\n        /* \"#utility.yul\":7655:7660   */\n      0x00\n        /* \"#utility.yul\":7680:7737   */\n      tag_164\n        /* \"#utility.yul\":7731:7735   */\n      dup3\n        /* \"#utility.yul\":7725:7736   */\n      sload\n        /* \"#utility.yul\":7680:7737   */\n      tag_158\n      jump\t// in\n    tag_164:\n        /* \"#utility.yul\":7671:7737   */\n      swap1\n      pop\n        /* \"#utility.yul\":7600:7744   */\n      swap2\n      swap1\n      pop\n      jump\t// out\n        /* \"#utility.yul\":7873:7990   */\n    tag_71:\n        /* \"#utility.yul\":7982:7983   */\n      0x00\n        /* \"#utility.yul\":7979:7980   */\n      dup1\n        /* \"#utility.yul\":7972:7984   */\n      revert\n        /* \"#utility.yul\":7996:8098   */\n    tag_162:\n        /* \"#utility.yul\":8038:8046   */\n      0x00\n        /* \"#utility.yul\":8085:8090   */\n      dup2\n        /* \"#utility.yul\":8082:8083   */\n      0x00\n        /* \"#utility.yul\":8078:8091   */\n      shr\n        /* \"#utility.yul\":8057:8091   */\n      swap1\n      pop\n        /* \"#utility.yul\":7996:8098   */\n      swap2\n      swap1\n      pop\n      jump\t// out\n        /* \"#utility.yul\":8104:8341   */\n    tag_120:\n        /* \"#utility.yul\":8244:8278   */\n      0x70726f706f73616c20617420696e64657820302073686f756c64206265207468\n        /* \"#utility.yul\":8240:8241   */\n      0x00\n        /* \"#utility.yul\":8232:8238   */\n      dup3\n        /* \"#utility.yul\":8228:8242   */\n      add\n        /* \"#utility.yul\":8221:8279   */\n      mstore\n        /* \"#utility.yul\":8313:8333   */\n      0x652077696e6e696e672070726f706f73616c0000000000000000000000000000\n        /* \"#utility.yul\":8308:8310   */\n      0x20\n        /* \"#utility.yul\":8300:8306   */\n      dup3\n        /* \"#utility.yul\":8296:8311   */\n      add\n        /* \"#utility.yul\":8289:8334   */\n      mstore\n        /* \"#utility.yul\":8104:8341   */\n      pop\n      jump\t// out\n        /* \"#utility.yul\":8347:8570   */\n    tag_125:\n        /* \"#utility.yul\":8487:8521   */\n      0x63616e646964617465312073686f756c64206265207468652077696e6e657220\n        /* \"#utility.yul\":8483:8484   */\n      0x00\n        /* \"#utility.yul\":8475:8481   */\n      dup3\n        /* \"#utility.yul\":8471:8485   */\n      add\n        /* \"#utility.yul\":8464:8522   */\n      mstore\n        /* \"#utility.yul\":8556:8562   */\n      0x6e616d6500000000000000000000000000000000000000000000000000000000\n        /* \"#utility.yul\":8551:8553   */\n      0x20\n        /* \"#utility.yul\":8543:8549   */\n      dup3\n        /* \"#utility.yul\":8539:8554   */\n      add\n        /* \"#utility.yul\":8532:8563   */\n      mstore\n        /* \"#utility.yul\":8347:8570   */\n      pop\n      jump\t// out\n        /* \"#utility.yul\":8576:8692   */\n    tag_59:\n        /* \"#utility.yul\":8646:8667   */\n      tag_172\n        /* \"#utility.yul\":8661:8666   */\n      dup2\n        /* \"#utility.yul\":8646:8667   */\n      tag_104\n      jump\t// in\n    tag_172:\n        /* \"#utility.yul\":8639:8644   */\n      dup2\n        /* \"#utility.yul\":8636:8668   */\n      eq\n        /* \"#utility.yul\":8626:8686   */\n      tag_173\n      jumpi\n        /* \"#utility.yul\":8682:8683   */\n      0x00\n        /* \"#utility.yul\":8679:8680   */\n      dup1\n        /* \"#utility.yul\":8672:8684   */\n      revert\n        /* \"#utility.yul\":8626:8686   */\n    tag_173:\n        /* \"#utility.yul\":8576:8692   */\n      pop\n      jump\t// out\n        /* \"#utility.yul\":8698:8820   */\n    tag_63:\n        /* \"#utility.yul\":8771:8795   */\n      tag_175\n        /* \"#utility.yul\":8789:8794   */\n      dup2\n        /* \"#utility.yul\":8771:8795   */\n      tag_107\n      jump\t// in\n    tag_175:\n        /* \"#utility.yul\":8764:8769   */\n      dup2\n        /* \"#utility.yul\":8761:8796   */\n      eq\n        /* \"#utility.yul\":8751:8814   */\n      tag_176\n      jumpi\n        /* \"#utility.yul\":8810:8811   */\n      0x00\n        /* \"#utility.yul\":8807:8808   */\n      dup1\n        /* \"#utility.yul\":8800:8812   */\n      revert\n        /* \"#utility.yul\":8751:8814   */\n    tag_176:\n        /* \"#utility.yul\":8698:8820   */\n      pop\n      jump\t// out\n        /* \"#utility.yul\":8826:8948   */\n    tag_67:\n        /* \"#utility.yul\":8899:8923   */\n      tag_178\n        /* \"#utility.yul\":8917:8922   */\n      dup2\n        /* \"#utility.yul\":8899:8923   */\n      tag_129\n      jump\t// in\n    tag_178:\n        /* \"#utility.yul\":8892:8897   */\n      dup2\n        /* \"#utility.yul\":8889:8924   */\n      eq\n        /* \"#utility.yul\":8879:8942   */\n      tag_179\n      jumpi\n        /* \"#utility.yul\":8938:8939   */\n      0x00\n        /* \"#utility.yul\":8935:8936   */\n      dup1\n        /* \"#utility.yul\":8928:8940   */\n      revert\n        /* \"#utility.yul\":8879:8942   */\n    tag_179:\n        /* \"#utility.yul\":8826:8948   */\n      pop\n      jump\t// out\n    stop\n\n    sub_0: assembly {\n            /* \"contracts/3_Ballot.sol\":157:4519  contract Ballot {... */\n          mstore(0x40, 0x80)\n            /* \"contracts/3_Ballot.sol\":958:1439  constructor(bytes32[] memory proposalNames) {... */\n          callvalue\n          dup1\n          iszero\n          tag_1\n          jumpi\n          0x00\n          dup1\n          revert\n        tag_1:\n          pop\n          mload(0x40)\n          sub(codesize, bytecodeSize)\n          dup1\n          bytecodeSize\n          dup4\n          codecopy\n          dup2\n          dup2\n          add\n          0x40\n          mstore\n          dup2\n          add\n          swap1\n          tag_2\n          swap2\n          swap1\n          tag_3\n          jump\t// in\n        tag_2:\n            /* \"contracts/3_Ballot.sol\":1026:1036  msg.sender */\n          caller\n            /* \"contracts/3_Ballot.sol\":1012:1023  chairperson */\n          0x00\n          dup1\n            /* \"contracts/3_Ballot.sol\":1012:1036  chairperson = msg.sender */\n          0x0100\n          exp\n          dup2\n          sload\n          dup2\n          0xffffffffffffffffffffffffffffffffffffffff\n          mul\n          not\n          and\n          swap1\n          dup4\n          0xffffffffffffffffffffffffffffffffffffffff\n          and\n          mul\n          or\n          swap1\n          sstore\n          pop\n            /* \"contracts/3_Ballot.sol\":1075:1076  1 */\n          0x01\n            /* \"contracts/3_Ballot.sol\":1046:1052  voters */\n          dup1\n            /* \"contracts/3_Ballot.sol\":1046:1065  voters[chairperson] */\n          0x00\n            /* \"contracts/3_Ballot.sol\":1053:1064  chairperson */\n          dup1\n          0x00\n          swap1\n          sload\n          swap1\n          0x0100\n          exp\n          swap1\n          div\n          0xffffffffffffffffffffffffffffffffffffffff\n          and\n            /* \"contracts/3_Ballot.sol\":1046:1065  voters[chairperson] */\n          0xffffffffffffffffffffffffffffffffffffffff\n          and\n          0xffffffffffffffffffffffffffffffffffffffff\n          and\n          dup2\n          mstore\n          0x20\n          add\n          swap1\n          dup2\n          mstore\n          0x20\n          add\n          0x00\n          keccak256\n            /* \"contracts/3_Ballot.sol\":1046:1072  voters[chairperson].weight */\n          0x00\n          add\n            /* \"contracts/3_Ballot.sol\":1046:1076  voters[chairperson].weight = 1 */\n          dup2\n          swap1\n          sstore\n          pop\n            /* \"contracts/3_Ballot.sol\":1092:1098  uint i */\n          0x00\n            /* \"contracts/3_Ballot.sol\":1087:1433  for (uint i = 0; i < proposalNames.length; i++) {... */\n        tag_6:\n            /* \"contracts/3_Ballot.sol\":1108:1121  proposalNames */\n          dup2\n            /* \"contracts/3_Ballot.sol\":1108:1128  proposalNames.length */\n          mload\n            /* \"contracts/3_Ballot.sol\":1104:1105  i */\n          dup2\n            /* \"contracts/3_Ballot.sol\":1104:1128  i < proposalNames.length */\n          lt\n            /* \"contracts/3_Ballot.sol\":1087:1433  for (uint i = 0; i < proposalNames.length; i++) {... */\n          iszero\n          tag_7\n          jumpi\n            /* \"contracts/3_Ballot.sol\":1312:1321  proposals */\n          0x02\n            /* \"contracts/3_Ballot.sol\":1327:1421  Proposal({... */\n          mload(0x40)\n          dup1\n          0x40\n          add\n          0x40\n          mstore\n          dup1\n            /* \"contracts/3_Ballot.sol\":1360:1373  proposalNames */\n          dup5\n            /* \"contracts/3_Ballot.sol\":1374:1375  i */\n          dup5\n            /* \"contracts/3_Ballot.sol\":1360:1376  proposalNames[i] */\n          dup2\n          mload\n          dup2\n          lt\n          tag_9\n          jumpi\n          tag_10\n          tag_11\n          jump\t// in\n        tag_10:\n        tag_9:\n          0x20\n          mul\n          0x20\n          add\n          add\n          mload\n            /* \"contracts/3_Ballot.sol\":1327:1421  Proposal({... */\n          dup2\n          mstore\n          0x20\n          add\n            /* \"contracts/3_Ballot.sol\":1405:1406  0 */\n          0x00\n            /* \"contracts/3_Ballot.sol\":1327:1421  Proposal({... */\n          dup2\n          mstore\n          pop\n            /* \"contracts/3_Ballot.sol\":1312:1422  proposals.push(Proposal({... */\n          swap1\n          dup1\n          0x01\n          dup2\n          sload\n          add\n          dup1\n          dup3\n          sstore\n          dup1\n          swap2\n          pop\n          pop\n          0x01\n          swap1\n          sub\n          swap1\n          0x00\n          mstore\n          keccak256(0x00, 0x20)\n          swap1\n          0x02\n          mul\n          add\n          0x00\n          swap1\n          swap2\n          swap1\n          swap2\n          swap1\n          swap2\n          pop\n          0x00\n          dup3\n          add\n          mload\n          dup2\n          0x00\n          add\n          sstore\n          0x20\n          dup3\n          add\n          mload\n          dup2\n          0x01\n          add\n          sstore\n          pop\n          pop\n            /* \"contracts/3_Ballot.sol\":1130:1133  i++ */\n          dup1\n          dup1\n          tag_13\n          swap1\n          tag_14\n          jump\t// in\n        tag_13:\n          swap2\n          pop\n          pop\n            /* \"contracts/3_Ballot.sol\":1087:1433  for (uint i = 0; i < proposalNames.length; i++) {... */\n          jump(tag_6)\n        tag_7:\n          pop\n            /* \"contracts/3_Ballot.sol\":958:1439  constructor(bytes32[] memory proposalNames) {... */\n          pop\n            /* \"contracts/3_Ballot.sol\":157:4519  contract Ballot {... */\n          jump(tag_15)\n            /* \"#utility.yul\":24:768   */\n        tag_17:\n            /* \"#utility.yul\":131:136   */\n          0x00\n            /* \"#utility.yul\":156:237   */\n          tag_19\n            /* \"#utility.yul\":172:236   */\n          tag_20\n            /* \"#utility.yul\":229:235   */\n          dup5\n            /* \"#utility.yul\":172:236   */\n          tag_21\n          jump\t// in\n        tag_20:\n            /* \"#utility.yul\":156:237   */\n          tag_22\n          jump\t// in\n        tag_19:\n            /* \"#utility.yul\":147:237   */\n          swap1\n          pop\n            /* \"#utility.yul\":257:262   */\n          dup1\n            /* \"#utility.yul\":286:292   */\n          dup4\n            /* \"#utility.yul\":279:284   */\n          dup3\n            /* \"#utility.yul\":272:293   */\n          mstore\n            /* \"#utility.yul\":320:324   */\n          0x20\n            /* \"#utility.yul\":313:318   */\n          dup3\n            /* \"#utility.yul\":309:325   */\n          add\n            /* \"#utility.yul\":302:325   */\n          swap1\n          pop\n            /* \"#utility.yul\":346:352   */\n          dup3\n            /* \"#utility.yul\":396:399   */\n          dup6\n            /* \"#utility.yul\":388:392   */\n          0x20\n            /* \"#utility.yul\":380:386   */\n          dup7\n            /* \"#utility.yul\":376:393   */\n          mul\n            /* \"#utility.yul\":371:374   */\n          dup3\n            /* \"#utility.yul\":367:394   */\n          add\n            /* \"#utility.yul\":364:400   */\n          gt\n            /* \"#utility.yul\":361:504   */\n          iszero\n          tag_23\n          jumpi\n            /* \"#utility.yul\":415:494   */\n          tag_24\n          tag_25\n          jump\t// in\n        tag_24:\n            /* \"#utility.yul\":361:504   */\n        tag_23:\n            /* \"#utility.yul\":528:529   */\n          0x00\n            /* \"#utility.yul\":513:762   */\n        tag_26:\n            /* \"#utility.yul\":538:544   */\n          dup6\n            /* \"#utility.yul\":535:536   */\n          dup2\n            /* \"#utility.yul\":532:545   */\n          lt\n            /* \"#utility.yul\":513:762   */\n          iszero\n          tag_28\n          jumpi\n            /* \"#utility.yul\":606:609   */\n          dup2\n            /* \"#utility.yul\":635:683   */\n          tag_29\n            /* \"#utility.yul\":679:682   */\n          dup9\n            /* \"#utility.yul\":667:677   */\n          dup3\n            /* \"#utility.yul\":635:683   */\n          tag_30\n          jump\t// in\n        tag_29:\n            /* \"#utility.yul\":630:633   */\n          dup5\n            /* \"#utility.yul\":623:684   */\n          mstore\n            /* \"#utility.yul\":713:717   */\n          0x20\n            /* \"#utility.yul\":708:711   */\n          dup5\n            /* \"#utility.yul\":704:718   */\n          add\n            /* \"#utility.yul\":697:718   */\n          swap4\n          pop\n            /* \"#utility.yul\":747:751   */\n          0x20\n            /* \"#utility.yul\":742:745   */\n          dup4\n            /* \"#utility.yul\":738:752   */\n          add\n            /* \"#utility.yul\":731:752   */\n          swap3\n          pop\n            /* \"#utility.yul\":573:762   */\n          pop\n            /* \"#utility.yul\":560:561   */\n          0x01\n            /* \"#utility.yul\":557:558   */\n          dup2\n            /* \"#utility.yul\":553:562   */\n          add\n            /* \"#utility.yul\":548:562   */\n          swap1\n          pop\n            /* \"#utility.yul\":513:762   */\n          jump(tag_26)\n        tag_28:\n            /* \"#utility.yul\":517:531   */\n          pop\n            /* \"#utility.yul\":137:768   */\n          pop\n          pop\n            /* \"#utility.yul\":24:768   */\n          swap4\n          swap3\n          pop\n          pop\n          pop\n          jump\t// out\n            /* \"#utility.yul\":791:1176   */\n        tag_31:\n            /* \"#utility.yul\":873:878   */\n          0x00\n            /* \"#utility.yul\":922:925   */\n          dup3\n            /* \"#utility.yul\":915:919   */\n          0x1f\n            /* \"#utility.yul\":907:913   */\n          dup4\n            /* \"#utility.yul\":903:920   */\n          add\n            /* \"#utility.yul\":899:926   */\n          slt\n            /* \"#utility.yul\":889:1011   */\n          tag_33\n          jumpi\n            /* \"#utility.yul\":930:1009   */\n          tag_34\n          tag_35\n          jump\t// in\n        tag_34:\n            /* \"#utility.yul\":889:1011   */\n        tag_33:\n            /* \"#utility.yul\":1040:1046   */\n          dup2\n            /* \"#utility.yul\":1034:1047   */\n          mload\n            /* \"#utility.yul\":1065:1170   */\n          tag_36\n            /* \"#utility.yul\":1166:1169   */\n          dup5\n            /* \"#utility.yul\":1158:1164   */\n          dup3\n            /* \"#utility.yul\":1151:1155   */\n          0x20\n            /* \"#utility.yul\":1143:1149   */\n          dup7\n            /* \"#utility.yul\":1139:1156   */\n          add\n            /* \"#utility.yul\":1065:1170   */\n          tag_17\n          jump\t// in\n        tag_36:\n            /* \"#utility.yul\":1056:1170   */\n          swap2\n          pop\n            /* \"#utility.yul\":879:1176   */\n          pop\n            /* \"#utility.yul\":791:1176   */\n          swap3\n          swap2\n          pop\n          pop\n          jump\t// out\n            /* \"#utility.yul\":1182:1325   */\n        tag_30:\n            /* \"#utility.yul\":1239:1244   */\n          0x00\n            /* \"#utility.yul\":1270:1276   */\n          dup2\n            /* \"#utility.yul\":1264:1277   */\n          mload\n            /* \"#utility.yul\":1255:1277   */\n          swap1\n          pop\n            /* \"#utility.yul\":1286:1319   */\n          tag_38\n            /* \"#utility.yul\":1313:1318   */\n          dup2\n            /* \"#utility.yul\":1286:1319   */\n          tag_39\n          jump\t// in\n        tag_38:\n            /* \"#utility.yul\":1182:1325   */\n          swap3\n          swap2\n          pop\n          pop\n          jump\t// out\n            /* \"#utility.yul\":1331:1885   */\n        tag_3:\n            /* \"#utility.yul\":1426:1432   */\n          0x00\n            /* \"#utility.yul\":1475:1477   */\n          0x20\n            /* \"#utility.yul\":1463:1472   */\n          dup3\n            /* \"#utility.yul\":1454:1461   */\n          dup5\n            /* \"#utility.yul\":1450:1473   */\n          sub\n            /* \"#utility.yul\":1446:1478   */\n          slt\n            /* \"#utility.yul\":1443:1562   */\n          iszero\n          tag_41\n          jumpi\n            /* \"#utility.yul\":1481:1560   */\n          tag_42\n          tag_43\n          jump\t// in\n        tag_42:\n            /* \"#utility.yul\":1443:1562   */\n        tag_41:\n            /* \"#utility.yul\":1622:1623   */\n          0x00\n            /* \"#utility.yul\":1611:1620   */\n          dup3\n            /* \"#utility.yul\":1607:1624   */\n          add\n            /* \"#utility.yul\":1601:1625   */\n          mload\n            /* \"#utility.yul\":1652:1670   */\n          0xffffffffffffffff\n            /* \"#utility.yul\":1644:1650   */\n          dup2\n            /* \"#utility.yul\":1641:1671   */\n          gt\n            /* \"#utility.yul\":1638:1755   */\n          iszero\n          tag_44\n          jumpi\n            /* \"#utility.yul\":1674:1753   */\n          tag_45\n          tag_46\n          jump\t// in\n        tag_45:\n            /* \"#utility.yul\":1638:1755   */\n        tag_44:\n            /* \"#utility.yul\":1779:1868   */\n          tag_47\n            /* \"#utility.yul\":1860:1867   */\n          dup5\n            /* \"#utility.yul\":1851:1857   */\n          dup3\n            /* \"#utility.yul\":1840:1849   */\n          dup6\n            /* \"#utility.yul\":1836:1858   */\n          add\n            /* \"#utility.yul\":1779:1868   */\n          tag_31\n          jump\t// in\n        tag_47:\n            /* \"#utility.yul\":1769:1868   */\n          swap2\n          pop\n            /* \"#utility.yul\":1572:1878   */\n          pop\n            /* \"#utility.yul\":1331:1885   */\n          swap3\n          swap2\n          pop\n          pop\n          jump\t// out\n            /* \"#utility.yul\":1891:2020   */\n        tag_22:\n            /* \"#utility.yul\":1925:1931   */\n          0x00\n            /* \"#utility.yul\":1952:1972   */\n          tag_49\n          tag_50\n          jump\t// in\n        tag_49:\n            /* \"#utility.yul\":1942:1972   */\n          swap1\n          pop\n            /* \"#utility.yul\":1981:2014   */\n          tag_51\n            /* \"#utility.yul\":2009:2013   */\n          dup3\n            /* \"#utility.yul\":2001:2007   */\n          dup3\n            /* \"#utility.yul\":1981:2014   */\n          tag_52\n          jump\t// in\n        tag_51:\n            /* \"#utility.yul\":1891:2020   */\n          swap2\n          swap1\n          pop\n          jump\t// out\n            /* \"#utility.yul\":2026:2101   */\n        tag_50:\n            /* \"#utility.yul\":2059:2065   */\n          0x00\n            /* \"#utility.yul\":2092:2094   */\n          0x40\n            /* \"#utility.yul\":2086:2095   */\n          mload\n            /* \"#utility.yul\":2076:2095   */\n          swap1\n          pop\n            /* \"#utility.yul\":2026:2101   */\n          swap1\n          jump\t// out\n            /* \"#utility.yul\":2107:2418   */\n        tag_21:\n            /* \"#utility.yul\":2184:2188   */\n          0x00\n            /* \"#utility.yul\":2274:2292   */\n          0xffffffffffffffff\n            /* \"#utility.yul\":2266:2272   */\n          dup3\n            /* \"#utility.yul\":2263:2293   */\n          gt\n            /* \"#utility.yul\":2260:2316   */\n          iszero\n          tag_55\n          jumpi\n            /* \"#utility.yul\":2296:2314   */\n          tag_56\n          tag_57\n          jump\t// in\n        tag_56:\n            /* \"#utility.yul\":2260:2316   */\n        tag_55:\n            /* \"#utility.yul\":2346:2350   */\n          0x20\n            /* \"#utility.yul\":2338:2344   */\n          dup3\n            /* \"#utility.yul\":2334:2351   */\n          mul\n            /* \"#utility.yul\":2326:2351   */\n          swap1\n          pop\n            /* \"#utility.yul\":2406:2410   */\n          0x20\n            /* \"#utility.yul\":2400:2404   */\n          dup2\n            /* \"#utility.yul\":2396:2411   */\n          add\n            /* \"#utility.yul\":2388:2411   */\n          swap1\n          pop\n            /* \"#utility.yul\":2107:2418   */\n          swap2\n          swap1\n          pop\n          jump\t// out\n            /* \"#utility.yul\":2424:2501   */\n        tag_58:\n            /* \"#utility.yul\":2461:2468   */\n          0x00\n            /* \"#utility.yul\":2490:2495   */\n          dup2\n            /* \"#utility.yul\":2479:2495   */\n          swap1\n          pop\n            /* \"#utility.yul\":2424:2501   */\n          swap2\n          swap1\n          pop\n          jump\t// out\n            /* \"#utility.yul\":2507:2584   */\n        tag_60:\n            /* \"#utility.yul\":2544:2551   */\n          0x00\n            /* \"#utility.yul\":2573:2578   */\n          dup2\n            /* \"#utility.yul\":2562:2578   */\n          swap1\n          pop\n            /* \"#utility.yul\":2507:2584   */\n          swap2\n          swap1\n          pop\n          jump\t// out\n            /* \"#utility.yul\":2590:2871   */\n        tag_52:\n            /* \"#utility.yul\":2673:2700   */\n          tag_63\n            /* \"#utility.yul\":2695:2699   */\n          dup3\n            /* \"#utility.yul\":2673:2700   */\n          tag_64\n          jump\t// in\n        tag_63:\n            /* \"#utility.yul\":2665:2671   */\n          dup2\n            /* \"#utility.yul\":2661:2701   */\n          add\n            /* \"#utility.yul\":2803:2809   */\n          dup2\n            /* \"#utility.yul\":2791:2801   */\n          dup2\n            /* \"#utility.yul\":2788:2810   */\n          lt\n            /* \"#utility.yul\":2767:2785   */\n          0xffffffffffffffff\n            /* \"#utility.yul\":2755:2765   */\n          dup3\n            /* \"#utility.yul\":2752:2786   */\n          gt\n            /* \"#utility.yul\":2749:2811   */\n          or\n            /* \"#utility.yul\":2746:2834   */\n          iszero\n          tag_65\n          jumpi\n            /* \"#utility.yul\":2814:2832   */\n          tag_66\n          tag_57\n          jump\t// in\n        tag_66:\n            /* \"#utility.yul\":2746:2834   */\n        tag_65:\n            /* \"#utility.yul\":2854:2864   */\n          dup1\n            /* \"#utility.yul\":2850:2852   */\n          0x40\n            /* \"#utility.yul\":2843:2865   */\n          mstore\n            /* \"#utility.yul\":2633:2871   */\n          pop\n            /* \"#utility.yul\":2590:2871   */\n          pop\n          pop\n          jump\t// out\n            /* \"#utility.yul\":2877:3110   */\n        tag_14:\n            /* \"#utility.yul\":2916:2919   */\n          0x00\n            /* \"#utility.yul\":2939:2963   */\n          tag_68\n            /* \"#utility.yul\":2957:2962   */\n          dup3\n            /* \"#utility.yul\":2939:2963   */\n          tag_60\n          jump\t// in\n        tag_68:\n            /* \"#utility.yul\":2930:2963   */\n          swap2\n          pop\n            /* \"#utility.yul\":2985:3051   */\n          0xffffffffffffffffffffffffffffffffffffffffffffffffffffffffffffffff\n            /* \"#utility.yul\":2978:2983   */\n          dup3\n            /* \"#utility.yul\":2975:3052   */\n          eq\n            /* \"#utility.yul\":2972:3075   */\n          iszero\n          tag_69\n          jumpi\n            /* \"#utility.yul\":3055:3073   */\n          tag_70\n          tag_71\n          jump\t// in\n        tag_70:\n            /* \"#utility.yul\":2972:3075   */\n        tag_69:\n            /* \"#utility.yul\":3102:3103   */\n          0x01\n            /* \"#utility.yul\":3095:3100   */\n          dup3\n            /* \"#utility.yul\":3091:3104   */\n          add\n            /* \"#utility.yul\":3084:3104   */\n          swap1\n          pop\n            /* \"#utility.yul\":2877:3110   */\n          swap2\n          swap1\n          pop\n          jump\t// out\n            /* \"#utility.yul\":3116:3296   */\n        tag_71:\n            /* \"#utility.yul\":3164:3241   */\n          0x4e487b7100000000000000000000000000000000000000000000000000000000\n            /* \"#utility.yul\":3161:3162   */\n          0x00\n            /* \"#utility.yul\":3154:3242   */\n          mstore\n            /* \"#utility.yul\":3261:3265   */\n          0x11\n            /* \"#utility.yul\":3258:3259   */\n          0x04\n            /* \"#utility.yul\":3251:3266   */\n          mstore\n            /* \"#utility.yul\":3285:3289   */\n          0x24\n            /* \"#utility.yul\":3282:3283   */\n          0x00\n            /* \"#utility.yul\":3275:3290   */\n          revert\n            /* \"#utility.yul\":3302:3482   */\n        tag_11:\n            /* \"#utility.yul\":3350:3427   */\n          0x4e487b7100000000000000000000000000000000000000000000000000000000\n            /* \"#utility.yul\":3347:3348   */\n          0x00\n            /* \"#utility.yul\":3340:3428   */\n          mstore\n            /* \"#utility.yul\":3447:3451   */\n          0x32\n            /* \"#utility.yul\":3444:3445   */\n          0x04\n            /* \"#utility.yul\":3437:3452   */\n          mstore\n            /* \"#utility.yul\":3471:3475   */\n          0x24\n            /* \"#utility.yul\":3468:3469   */\n          0x00\n            /* \"#utility.yul\":3461:3476   */\n          revert\n            /* \"#utility.yul\":3488:3668   */\n        tag_57:\n            /* \"#utility.yul\":3536:3613   */\n          0x4e487b7100000000000000000000000000000000000000000000000000000000\n            /* \"#utility.yul\":3533:3534   */\n          0x00\n            /* \"#utility.yul\":3526:3614   */\n          mstore\n            /* \"#utility.yul\":3633:3637   */\n          0x41\n            /* \"#utility.yul\":3630:3631   */\n          0x04\n            /* \"#utility.yul\":3623:3638   */\n          mstore\n            /* \"#utility.yul\":3657:3661   */\n          0x24\n            /* \"#utility.yul\":3654:3655   */\n          0x00\n            /* \"#utility.yul\":3647:3662   */\n          revert\n            /* \"#utility.yul\":3674:3791   */\n        tag_35:\n            /* \"#utility.yul\":3783:3784   */\n          0x00\n            /* \"#utility.yul\":3780:3781   */\n          dup1\n            /* \"#utility.yul\":3773:3785   */\n          revert\n            /* \"#utility.yul\":3797:3914   */\n        tag_25:\n            /* \"#utility.yul\":3906:3907   */\n          0x00\n            /* \"#utility.yul\":3903:3904   */\n          dup1\n            /* \"#utility.yul\":3896:3908   */\n          revert\n            /* \"#utility.yul\":3920:4037   */\n        tag_46:\n            /* \"#utility.yul\":4029:4030   */\n          0x00\n            /* \"#utility.yul\":4026:4027   */\n          dup1\n            /* \"#utility.yul\":4019:4031   */\n          revert\n            /* \"#utility.yul\":4043:4160   */\n        tag_43:\n            /* \"#utility.yul\":4152:4153   */\n          0x00\n            /* \"#utility.yul\":4149:4150   */\n          dup1\n            /* \"#utility.yul\":4142:4154   */\n          revert\n            /* \"#utility.yul\":4166:4268   */\n        tag_64:\n            /* \"#utility.yul\":4207:4213   */\n          0x00\n            /* \"#utility.yul\":4258:4260   */\n          0x1f\n            /* \"#utility.yul\":4254:4261   */\n          not\n            /* \"#utility.yul\":4249:4251   */\n          0x1f\n            /* \"#utility.yul\":4242:4247   */\n          dup4\n            /* \"#utility.yul\":4238:4252   */\n          add\n            /* \"#utility.yul\":4234:4262   */\n          and\n            /* \"#utility.yul\":4224:4262   */\n          swap1\n          pop\n            /* \"#utility.yul\":4166:4268   */\n          swap2\n          swap1\n          pop\n          jump\t// out\n            /* \"#utility.yul\":4274:4396   */\n        tag_39:\n            /* \"#utility.yul\":4347:4371   */\n          tag_81\n            /* \"#utility.yul\":4365:4370   */\n          dup2\n            /* \"#utility.yul\":4347:4371   */\n          tag_58\n          jump\t// in\n        tag_81:\n            /* \"#utility.yul\":4340:4345   */\n          dup2\n            /* \"#utility.yul\":4337:4372   */\n          eq\n            /* \"#utility.yul\":4327:4390   */\n          tag_82\n          jumpi\n            /* \"#utility.yul\":4386:4387   */\n          0x00\n            /* \"#utility.yul\":4383:4384   */\n          dup1\n            /* \"#utility.yul\":4376:4388   */\n          revert\n            /* \"#utility.yul\":4327:4390   */\n        tag_82:\n            /* \"#utility.yul\":4274:4396   */\n          pop\n          jump\t// out\n            /* \"contracts/3_Ballot.sol\":157:4519  contract Ballot {... */\n        tag_15:\n          dataSize(sub_0)\n          dup1\n          dataOffset(sub_0)\n          0x00\n          codecopy\n          0x00\n          return\n        stop\n\n        sub_0: assembly {\n                /* \"contracts/3_Ballot.sol\":157:4519  contract Ballot {... */\n              mstore(0x40, 0x80)\n              callvalue\n              dup1\n              iszero\n              tag_1\n              jumpi\n              0x00\n              dup1\n              revert\n            tag_1:\n              pop\n              jumpi(tag_2, lt(calldatasize, 0x04))\n              shr(0xe0, calldataload(0x00))\n              dup1\n              0x609ff1bd\n              gt\n              tag_11\n              jumpi\n              dup1\n              0x609ff1bd\n              eq\n              tag_7\n              jumpi\n              dup1\n              0x9e7b8d61\n              eq\n              tag_8\n              jumpi\n              dup1\n              0xa3ec138d\n              eq\n              tag_9\n              jumpi\n              dup1\n              0xe2ba53f0\n              eq\n              tag_10\n              jumpi\n              jump(tag_2)\n            tag_11:\n              dup1\n              0x0121b93f\n              eq\n              tag_3\n              jumpi\n              dup1\n              0x013cf08b\n              eq\n              tag_4\n              jumpi\n              dup1\n              0x2e4176cf\n              eq\n              tag_5\n              jumpi\n              dup1\n              0x5c19a95c\n              eq\n              tag_6\n              jumpi\n            tag_2:\n              0x00\n              dup1\n              revert\n                /* \"contracts/3_Ballot.sol\":3173:3631  function vote(uint proposal) public {... */\n            tag_3:\n              tag_12\n              0x04\n              dup1\n              calldatasize\n              sub\n              dup2\n              add\n              swap1\n              tag_13\n              swap2\n              swap1\n              tag_14\n              jump\t// in\n            tag_13:\n              tag_15\n              jump\t// in\n            tag_12:\n              stop\n                /* \"contracts/3_Ballot.sol\":794:821  Proposal[] public proposals */\n            tag_4:\n              tag_16\n              0x04\n              dup1\n              calldatasize\n              sub\n              dup2\n              add\n              swap1\n              tag_17\n              swap2\n              swap1\n              tag_14\n              jump\t// in\n            tag_17:\n              tag_18\n              jump\t// in\n            tag_16:\n              mload(0x40)\n              tag_19\n              swap3\n              swap2\n              swap1\n              tag_20\n              jump\t// in\n            tag_19:\n              mload(0x40)\n              dup1\n              swap2\n              sub\n              swap1\n              return\n                /* \"contracts/3_Ballot.sol\":715:741  address public chairperson */\n            tag_5:\n              tag_21\n              tag_22\n              jump\t// in\n            tag_21:\n              mload(0x40)\n              tag_23\n              swap2\n              swap1\n              tag_24\n              jump\t// in\n            tag_23:\n              mload(0x40)\n              dup1\n              swap2\n              sub\n              swap1\n              return\n                /* \"contracts/3_Ballot.sol\":2078:2985  function delegate(address to) public {... */\n            tag_6:\n              tag_25\n              0x04\n              dup1\n              calldatasize\n              sub\n              dup2\n              add\n              swap1\n              tag_26\n              swap2\n              swap1\n              tag_27\n              jump\t// in\n            tag_26:\n              tag_28\n              jump\t// in\n            tag_25:\n              stop\n                /* \"contracts/3_Ballot.sol\":3817:4182  function winningProposal() public view... */\n            tag_7:\n              tag_29\n              tag_30\n              jump\t// in\n            tag_29:\n              mload(0x40)\n              tag_31\n              swap2\n              swap1\n              tag_32\n              jump\t// in\n            tag_31:\n              mload(0x40)\n              dup1\n              swap2\n              sub\n              swap1\n              return\n                /* \"contracts/3_Ballot.sol\":1599:1954  function giveRightToVote(address voter) public {... */\n            tag_8:\n              tag_33\n              0x04\n              dup1\n              calldatasize\n              sub\n              dup2\n              add\n              swap1\n              tag_34\n              swap2\n              swap1\n              tag_27\n              jump\t// in\n            tag_34:\n              tag_35\n              jump\t// in\n            tag_33:\n              stop\n                /* \"contracts/3_Ballot.sol\":748:787  mapping(address => Voter) public voters */\n            tag_9:\n              tag_36\n              0x04\n              dup1\n              calldatasize\n              sub\n              dup2\n              add\n              swap1\n              tag_37\n              swap2\n              swap1\n              tag_27\n              jump\t// in\n            tag_37:\n              tag_38\n              jump\t// in\n            tag_36:\n              mload(0x40)\n              tag_39\n              swap5\n              swap4\n              swap3\n              swap2\n              swap1\n              tag_40\n              jump\t// in\n            tag_39:\n              mload(0x40)\n              dup1\n              swap2\n              sub\n              swap1\n              return\n                /* \"contracts/3_Ballot.sol\":4373:4517  function winnerName() public view... */\n            tag_10:\n              tag_41\n              tag_42\n              jump\t// in\n            tag_41:\n              mload(0x40)\n              tag_43\n              swap2\n              swap1\n              tag_44\n              jump\t// in\n            tag_43:\n              mload(0x40)\n              dup1\n              swap2\n              sub\n              swap1\n              return\n                /* \"contracts/3_Ballot.sol\":3173:3631  function vote(uint proposal) public {... */\n            tag_15:\n                /* \"contracts/3_Ballot.sol\":3219:3239  Voter storage sender */\n              0x00\n                /* \"contracts/3_Ballot.sol\":3242:3248  voters */\n              0x01\n                /* \"contracts/3_Ballot.sol\":3242:3260  voters[msg.sender] */\n              0x00\n                /* \"contracts/3_Ballot.sol\":3249:3259  msg.sender */\n              caller\n                /* \"contracts/3_Ballot.sol\":3242:3260  voters[msg.sender] */\n              0xffffffffffffffffffffffffffffffffffffffff\n              and\n              0xffffffffffffffffffffffffffffffffffffffff\n              and\n              dup2\n              mstore\n              0x20\n              add\n              swap1\n              dup2\n              mstore\n              0x20\n              add\n              0x00\n              keccak256\n                /* \"contracts/3_Ballot.sol\":3219:3260  Voter storage sender = voters[msg.sender] */\n              swap1\n              pop\n                /* \"contracts/3_Ballot.sol\":3295:3296  0 */\n              0x00\n                /* \"contracts/3_Ballot.sol\":3278:3284  sender */\n              dup2\n                /* \"contracts/3_Ballot.sol\":3278:3291  sender.weight */\n              0x00\n              add\n              sload\n                /* \"contracts/3_Ballot.sol\":3278:3296  sender.weight != 0 */\n              eq\n              iszero\n                /* \"contracts/3_Ballot.sol\":3270:3321  require(sender.weight != 0, \"Has no right to vote\") */\n              tag_46\n              jumpi\n              mload(0x40)\n              0x08c379a000000000000000000000000000000000000000000000000000000000\n              dup2\n              mstore\n              0x04\n              add\n              tag_47\n              swap1\n              tag_48\n              jump\t// in\n            tag_47:\n              mload(0x40)\n              dup1\n              swap2\n              sub\n              swap1\n              revert\n            tag_46:\n                /* \"contracts/3_Ballot.sol\":3340:3346  sender */\n              dup1\n                /* \"contracts/3_Ballot.sol\":3340:3352  sender.voted */\n              0x01\n              add\n              0x00\n              swap1\n              sload\n              swap1\n              0x0100\n              exp\n              swap1\n              div\n              0xff\n              and\n                /* \"contracts/3_Ballot.sol\":3339:3352  !sender.voted */\n              iszero\n                /* \"contracts/3_Ballot.sol\":3331:3371  require(!sender.voted, \"Already voted.\") */\n              tag_49\n              jumpi\n              mload(0x40)\n              0x08c379a000000000000000000000000000000000000000000000000000000000\n              dup2\n              mstore\n              0x04\n              add\n              tag_50\n              swap1\n              tag_51\n              jump\t// in\n            tag_50:\n              mload(0x40)\n              dup1\n              swap2\n              sub\n              swap1\n              revert\n            tag_49:\n                /* \"contracts/3_Ballot.sol\":3396:3400  true */\n              0x01\n                /* \"contracts/3_Ballot.sol\":3381:3387  sender */\n              dup2\n                /* \"contracts/3_Ballot.sol\":3381:3393  sender.voted */\n              0x01\n              add\n              0x00\n                /* \"contracts/3_Ballot.sol\":3381:3400  sender.voted = true */\n              0x0100\n              exp\n              dup2\n              sload\n              dup2\n              0xff\n              mul\n              not\n              and\n              swap1\n              dup4\n              iszero\n              iszero\n              mul\n              or\n              swap1\n              sstore\n              pop\n                /* \"contracts/3_Ballot.sol\":3424:3432  proposal */\n              dup2\n                /* \"contracts/3_Ballot.sol\":3410:3416  sender */\n              dup2\n                /* \"contracts/3_Ballot.sol\":3410:3421  sender.vote */\n              0x02\n              add\n                /* \"contracts/3_Ballot.sol\":3410:3432  sender.vote = proposal */\n              dup2\n              swap1\n              sstore\n              pop\n                /* \"contracts/3_Ballot.sol\":3611:3617  sender */\n              dup1\n                /* \"contracts/3_Ballot.sol\":3611:3624  sender.weight */\n              0x00\n              add\n              sload\n                /* \"contracts/3_Ballot.sol\":3578:3587  proposals */\n              0x02\n                /* \"contracts/3_Ballot.sol\":3588:3596  proposal */\n              dup4\n                /* \"contracts/3_Ballot.sol\":3578:3597  proposals[proposal] */\n              dup2\n              sload\n              dup2\n              lt\n              tag_52\n              jumpi\n              tag_53\n              tag_54\n              jump\t// in\n            tag_53:\n            tag_52:\n              swap1\n              0x00\n              mstore\n              keccak256(0x00, 0x20)\n              swap1\n              0x02\n              mul\n              add\n                /* \"contracts/3_Ballot.sol\":3578:3607  proposals[proposal].voteCount */\n              0x01\n              add\n              0x00\n                /* \"contracts/3_Ballot.sol\":3578:3624  proposals[proposal].voteCount += sender.weight */\n              dup3\n              dup3\n              sload\n              tag_56\n              swap2\n              swap1\n              tag_57\n              jump\t// in\n            tag_56:\n              swap3\n              pop\n              pop\n              dup2\n              swap1\n              sstore\n              pop\n                /* \"contracts/3_Ballot.sol\":3209:3631  {... */\n              pop\n                /* \"contracts/3_Ballot.sol\":3173:3631  function vote(uint proposal) public {... */\n              pop\n              jump\t// out\n                /* \"contracts/3_Ballot.sol\":794:821  Proposal[] public proposals */\n            tag_18:\n              0x02\n              dup2\n              dup2\n              sload\n              dup2\n              lt\n              tag_58\n              jumpi\n              0x00\n              dup1\n              revert\n            tag_58:\n              swap1\n              0x00\n              mstore\n              keccak256(0x00, 0x20)\n              swap1\n              0x02\n              mul\n              add\n              0x00\n              swap2\n              pop\n              swap1\n              pop\n              dup1\n              0x00\n              add\n              sload\n              swap1\n              dup1\n              0x01\n              add\n              sload\n              swap1\n              pop\n              dup3\n              jump\t// out\n                /* \"contracts/3_Ballot.sol\":715:741  address public chairperson */\n            tag_22:\n              0x00\n              dup1\n              sload\n              swap1\n              0x0100\n              exp\n              swap1\n              div\n              0xffffffffffffffffffffffffffffffffffffffff\n              and\n              dup2\n              jump\t// out\n                /* \"contracts/3_Ballot.sol\":2078:2985  function delegate(address to) public {... */\n            tag_28:\n                /* \"contracts/3_Ballot.sol\":2125:2145  Voter storage sender */\n              0x00\n                /* \"contracts/3_Ballot.sol\":2148:2154  voters */\n              0x01\n                /* \"contracts/3_Ballot.sol\":2148:2166  voters[msg.sender] */\n              0x00\n                /* \"contracts/3_Ballot.sol\":2155:2165  msg.sender */\n              caller\n                /* \"contracts/3_Ballot.sol\":2148:2166  voters[msg.sender] */\n              0xffffffffffffffffffffffffffffffffffffffff\n              and\n              0xffffffffffffffffffffffffffffffffffffffff\n              and\n              dup2\n              mstore\n              0x20\n              add\n              swap1\n              dup2\n              mstore\n              0x20\n              add\n              0x00\n              keccak256\n                /* \"contracts/3_Ballot.sol\":2125:2166  Voter storage sender = voters[msg.sender] */\n              swap1\n              pop\n                /* \"contracts/3_Ballot.sol\":2185:2191  sender */\n              dup1\n                /* \"contracts/3_Ballot.sol\":2185:2197  sender.voted */\n              0x01\n              add\n              0x00\n              swap1\n              sload\n              swap1\n              0x0100\n              exp\n              swap1\n              div\n              0xff\n              and\n                /* \"contracts/3_Ballot.sol\":2184:2197  !sender.voted */\n              iszero\n                /* \"contracts/3_Ballot.sol\":2176:2220  require(!sender.voted, \"You already voted.\") */\n              tag_61\n              jumpi\n              mload(0x40)\n              0x08c379a000000000000000000000000000000000000000000000000000000000\n              dup2\n              mstore\n              0x04\n              add\n              tag_62\n              swap1\n              tag_63\n              jump\t// in\n            tag_62:\n              mload(0x40)\n              dup1\n              swap2\n              sub\n              swap1\n              revert\n            tag_61:\n                /* \"contracts/3_Ballot.sol\":2244:2254  msg.sender */\n              caller\n                /* \"contracts/3_Ballot.sol\":2238:2254  to != msg.sender */\n              0xffffffffffffffffffffffffffffffffffffffff\n              and\n                /* \"contracts/3_Ballot.sol\":2238:2240  to */\n              dup3\n                /* \"contracts/3_Ballot.sol\":2238:2254  to != msg.sender */\n              0xffffffffffffffffffffffffffffffffffffffff\n              and\n              eq\n              iszero\n                /* \"contracts/3_Ballot.sol\":2230:2289  require(to != msg.sender, \"Self-delegation is disallowed.\") */\n              tag_64\n              jumpi\n              mload(0x40)\n              0x08c379a000000000000000000000000000000000000000000000000000000000\n              dup2\n              mstore\n              0x04\n              add\n              tag_65\n              swap1\n              tag_66\n              jump\t// in\n            tag_65:\n              mload(0x40)\n              dup1\n              swap2\n              sub\n              swap1\n              revert\n            tag_64:\n                /* \"contracts/3_Ballot.sol\":2300:2523  while (voters[to].delegate != address(0)) {... */\n            tag_67:\n                /* \"contracts/3_Ballot.sol\":2338:2339  0 */\n              0x00\n                /* \"contracts/3_Ballot.sol\":2307:2340  voters[to].delegate != address(0) */\n              0xffffffffffffffffffffffffffffffffffffffff\n              and\n                /* \"contracts/3_Ballot.sol\":2307:2313  voters */\n              0x01\n                /* \"contracts/3_Ballot.sol\":2307:2317  voters[to] */\n              0x00\n                /* \"contracts/3_Ballot.sol\":2314:2316  to */\n              dup5\n                /* \"contracts/3_Ballot.sol\":2307:2317  voters[to] */\n              0xffffffffffffffffffffffffffffffffffffffff\n              and\n              0xffffffffffffffffffffffffffffffffffffffff\n              and\n              dup2\n              mstore\n              0x20\n              add\n              swap1\n              dup2\n              mstore\n              0x20\n              add\n              0x00\n              keccak256\n                /* \"contracts/3_Ballot.sol\":2307:2326  voters[to].delegate */\n              0x01\n              add\n              0x01\n              swap1\n              sload\n              swap1\n              0x0100\n              exp\n              swap1\n              div\n              0xffffffffffffffffffffffffffffffffffffffff\n              and\n                /* \"contracts/3_Ballot.sol\":2307:2340  voters[to].delegate != address(0) */\n              0xffffffffffffffffffffffffffffffffffffffff\n              and\n              eq\n                /* \"contracts/3_Ballot.sol\":2300:2523  while (voters[to].delegate != address(0)) {... */\n              tag_68\n              jumpi\n                /* \"contracts/3_Ballot.sol\":2361:2367  voters */\n              0x01\n                /* \"contracts/3_Ballot.sol\":2361:2371  voters[to] */\n              0x00\n                /* \"contracts/3_Ballot.sol\":2368:2370  to */\n              dup4\n                /* \"contracts/3_Ballot.sol\":2361:2371  voters[to] */\n              0xffffffffffffffffffffffffffffffffffffffff\n              and\n              0xffffffffffffffffffffffffffffffffffffffff\n              and\n              dup2\n              mstore\n              0x20\n              add\n              swap1\n              dup2\n              mstore\n              0x20\n              add\n              0x00\n              keccak256\n                /* \"contracts/3_Ballot.sol\":2361:2380  voters[to].delegate */\n              0x01\n              add\n              0x01\n              swap1\n              sload\n              swap1\n              0x0100\n              exp\n              swap1\n              div\n              0xffffffffffffffffffffffffffffffffffffffff\n              and\n                /* \"contracts/3_Ballot.sol\":2356:2380  to = voters[to].delegate */\n              swap2\n              pop\n                /* \"contracts/3_Ballot.sol\":2472:2482  msg.sender */\n              caller\n                /* \"contracts/3_Ballot.sol\":2466:2482  to != msg.sender */\n              0xffffffffffffffffffffffffffffffffffffffff\n              and\n                /* \"contracts/3_Ballot.sol\":2466:2468  to */\n              dup3\n                /* \"contracts/3_Ballot.sol\":2466:2482  to != msg.sender */\n              0xffffffffffffffffffffffffffffffffffffffff\n              and\n              eq\n              iszero\n                /* \"contracts/3_Ballot.sol\":2458:2512  require(to != msg.sender, \"Found loop in delegation.\") */\n              tag_69\n              jumpi\n              mload(0x40)\n              0x08c379a000000000000000000000000000000000000000000000000000000000\n              dup2\n              mstore\n              0x04\n              add\n              tag_70\n              swap1\n              tag_71\n              jump\t// in\n            tag_70:\n              mload(0x40)\n              dup1\n              swap2\n              sub\n              swap1\n              revert\n            tag_69:\n                /* \"contracts/3_Ballot.sol\":2300:2523  while (voters[to].delegate != address(0)) {... */\n              jump(tag_67)\n            tag_68:\n                /* \"contracts/3_Ballot.sol\":2547:2551  true */\n              0x01\n                /* \"contracts/3_Ballot.sol\":2532:2538  sender */\n              dup2\n                /* \"contracts/3_Ballot.sol\":2532:2544  sender.voted */\n              0x01\n              add\n              0x00\n                /* \"contracts/3_Ballot.sol\":2532:2551  sender.voted = true */\n              0x0100\n              exp\n              dup2\n              sload\n              dup2\n              0xff\n              mul\n              not\n              and\n              swap1\n              dup4\n              iszero\n              iszero\n              mul\n              or\n              swap1\n              sstore\n              pop\n                /* \"contracts/3_Ballot.sol\":2579:2581  to */\n              dup2\n                /* \"contracts/3_Ballot.sol\":2561:2567  sender */\n              dup2\n                /* \"contracts/3_Ballot.sol\":2561:2576  sender.delegate */\n              0x01\n              add\n              0x01\n                /* \"contracts/3_Ballot.sol\":2561:2581  sender.delegate = to */\n              0x0100\n              exp\n              dup2\n              sload\n              dup2\n              0xffffffffffffffffffffffffffffffffffffffff\n              mul\n              not\n              and\n              swap1\n              dup4\n              0xffffffffffffffffffffffffffffffffffffffff\n              and\n              mul\n              or\n              swap1\n              sstore\n              pop\n                /* \"contracts/3_Ballot.sol\":2591:2614  Voter storage delegate_ */\n              0x00\n                /* \"contracts/3_Ballot.sol\":2617:2623  voters */\n              0x01\n                /* \"contracts/3_Ballot.sol\":2617:2627  voters[to] */\n              0x00\n                /* \"contracts/3_Ballot.sol\":2624:2626  to */\n              dup5\n                /* \"contracts/3_Ballot.sol\":2617:2627  voters[to] */\n              0xffffffffffffffffffffffffffffffffffffffff\n              and\n              0xffffffffffffffffffffffffffffffffffffffff\n              and\n              dup2\n              mstore\n              0x20\n              add\n              swap1\n              dup2\n              mstore\n              0x20\n              add\n              0x00\n              keccak256\n                /* \"contracts/3_Ballot.sol\":2591:2627  Voter storage delegate_ = voters[to] */\n              swap1\n              pop\n                /* \"contracts/3_Ballot.sol\":2641:2650  delegate_ */\n              dup1\n                /* \"contracts/3_Ballot.sol\":2641:2656  delegate_.voted */\n              0x01\n              add\n              0x00\n              swap1\n              sload\n              swap1\n              0x0100\n              exp\n              swap1\n              div\n              0xff\n              and\n                /* \"contracts/3_Ballot.sol\":2637:2979  if (delegate_.voted) {... */\n              iszero\n              tag_72\n              jumpi\n                /* \"contracts/3_Ballot.sol\":2808:2814  sender */\n              dup2\n                /* \"contracts/3_Ballot.sol\":2808:2821  sender.weight */\n              0x00\n              add\n              sload\n                /* \"contracts/3_Ballot.sol\":2769:2778  proposals */\n              0x02\n                /* \"contracts/3_Ballot.sol\":2779:2788  delegate_ */\n              dup3\n                /* \"contracts/3_Ballot.sol\":2779:2793  delegate_.vote */\n              0x02\n              add\n              sload\n                /* \"contracts/3_Ballot.sol\":2769:2794  proposals[delegate_.vote] */\n              dup2\n              sload\n              dup2\n              lt\n              tag_73\n              jumpi\n              tag_74\n              tag_54\n              jump\t// in\n            tag_74:\n            tag_73:\n              swap1\n              0x00\n              mstore\n              keccak256(0x00, 0x20)\n              swap1\n              0x02\n              mul\n              add\n                /* \"contracts/3_Ballot.sol\":2769:2804  proposals[delegate_.vote].voteCount */\n              0x01\n              add\n              0x00\n                /* \"contracts/3_Ballot.sol\":2769:2821  proposals[delegate_.vote].voteCount += sender.weight */\n              dup3\n              dup3\n              sload\n              tag_76\n              swap2\n              swap1\n              tag_57\n              jump\t// in\n            tag_76:\n              swap3\n              pop\n              pop\n              dup2\n              swap1\n              sstore\n              pop\n                /* \"contracts/3_Ballot.sol\":2637:2979  if (delegate_.voted) {... */\n              jump(tag_77)\n            tag_72:\n                /* \"contracts/3_Ballot.sol\":2955:2961  sender */\n              dup2\n                /* \"contracts/3_Ballot.sol\":2955:2968  sender.weight */\n              0x00\n              add\n              sload\n                /* \"contracts/3_Ballot.sol\":2935:2944  delegate_ */\n              dup2\n                /* \"contracts/3_Ballot.sol\":2935:2951  delegate_.weight */\n              0x00\n              add\n              0x00\n                /* \"contracts/3_Ballot.sol\":2935:2968  delegate_.weight += sender.weight */\n              dup3\n              dup3\n              sload\n              tag_78\n              swap2\n              swap1\n              tag_57\n              jump\t// in\n            tag_78:\n              swap3\n              pop\n              pop\n              dup2\n              swap1\n              sstore\n              pop\n                /* \"contracts/3_Ballot.sol\":2637:2979  if (delegate_.voted) {... */\n            tag_77:\n                /* \"contracts/3_Ballot.sol\":2115:2985  {... */\n              pop\n              pop\n                /* \"contracts/3_Ballot.sol\":2078:2985  function delegate(address to) public {... */\n              pop\n              jump\t// out\n                /* \"contracts/3_Ballot.sol\":3817:4182  function winningProposal() public view... */\n            tag_30:\n                /* \"contracts/3_Ballot.sol\":3877:3898  uint winningProposal_ */\n              0x00\n                /* \"contracts/3_Ballot.sol\":3914:3935  uint winningVoteCount */\n              dup1\n                /* \"contracts/3_Ballot.sol\":3938:3939  0 */\n              0x00\n                /* \"contracts/3_Ballot.sol\":3914:3939  uint winningVoteCount = 0 */\n              swap1\n              pop\n                /* \"contracts/3_Ballot.sol\":3954:3960  uint p */\n              0x00\n                /* \"contracts/3_Ballot.sol\":3949:4176  for (uint p = 0; p < proposals.length; p++) {... */\n            tag_80:\n                /* \"contracts/3_Ballot.sol\":3970:3979  proposals */\n              0x02\n                /* \"contracts/3_Ballot.sol\":3970:3986  proposals.length */\n              dup1\n              sload\n              swap1\n              pop\n                /* \"contracts/3_Ballot.sol\":3966:3967  p */\n              dup2\n                /* \"contracts/3_Ballot.sol\":3966:3986  p < proposals.length */\n              lt\n                /* \"contracts/3_Ballot.sol\":3949:4176  for (uint p = 0; p < proposals.length; p++) {... */\n              iszero\n              tag_81\n              jumpi\n                /* \"contracts/3_Ballot.sol\":4036:4052  winningVoteCount */\n              dup2\n                /* \"contracts/3_Ballot.sol\":4011:4020  proposals */\n              0x02\n                /* \"contracts/3_Ballot.sol\":4021:4022  p */\n              dup3\n                /* \"contracts/3_Ballot.sol\":4011:4023  proposals[p] */\n              dup2\n              sload\n              dup2\n              lt\n              tag_83\n              jumpi\n              tag_84\n              tag_54\n              jump\t// in\n            tag_84:\n            tag_83:\n              swap1\n              0x00\n              mstore\n              keccak256(0x00, 0x20)\n              swap1\n              0x02\n              mul\n              add\n                /* \"contracts/3_Ballot.sol\":4011:4033  proposals[p].voteCount */\n              0x01\n              add\n              sload\n                /* \"contracts/3_Ballot.sol\":4011:4052  proposals[p].voteCount > winningVoteCount */\n              gt\n                /* \"contracts/3_Ballot.sol\":4007:4166  if (proposals[p].voteCount > winningVoteCount) {... */\n              iszero\n              tag_86\n              jumpi\n                /* \"contracts/3_Ballot.sol\":4091:4100  proposals */\n              0x02\n                /* \"contracts/3_Ballot.sol\":4101:4102  p */\n              dup2\n                /* \"contracts/3_Ballot.sol\":4091:4103  proposals[p] */\n              dup2\n              sload\n              dup2\n              lt\n              tag_87\n              jumpi\n              tag_88\n              tag_54\n              jump\t// in\n            tag_88:\n            tag_87:\n              swap1\n              0x00\n              mstore\n              keccak256(0x00, 0x20)\n              swap1\n              0x02\n              mul\n              add\n                /* \"contracts/3_Ballot.sol\":4091:4113  proposals[p].voteCount */\n              0x01\n              add\n              sload\n                /* \"contracts/3_Ballot.sol\":4072:4113  winningVoteCount = proposals[p].voteCount */\n              swap2\n              pop\n                /* \"contracts/3_Ballot.sol\":4150:4151  p */\n              dup1\n                /* \"contracts/3_Ballot.sol\":4131:4151  winningProposal_ = p */\n              swap3\n              pop\n                /* \"contracts/3_Ballot.sol\":4007:4166  if (proposals[p].voteCount > winningVoteCount) {... */\n            tag_86:\n                /* \"contracts/3_Ballot.sol\":3988:3991  p++ */\n              dup1\n              dup1\n              tag_90\n              swap1\n              tag_91\n              jump\t// in\n            tag_90:\n              swap2\n              pop\n              pop\n                /* \"contracts/3_Ballot.sol\":3949:4176  for (uint p = 0; p < proposals.length; p++) {... */\n              jump(tag_80)\n            tag_81:\n              pop\n                /* \"contracts/3_Ballot.sol\":3904:4182  {... */\n              pop\n                /* \"contracts/3_Ballot.sol\":3817:4182  function winningProposal() public view... */\n              swap1\n              jump\t// out\n                /* \"contracts/3_Ballot.sol\":1599:1954  function giveRightToVote(address voter) public {... */\n            tag_35:\n                /* \"contracts/3_Ballot.sol\":1691:1702  chairperson */\n              0x00\n              dup1\n              sload\n              swap1\n              0x0100\n              exp\n              swap1\n              div\n              0xffffffffffffffffffffffffffffffffffffffff\n              and\n                /* \"contracts/3_Ballot.sol\":1677:1702  msg.sender == chairperson */\n              0xffffffffffffffffffffffffffffffffffffffff\n              and\n                /* \"contracts/3_Ballot.sol\":1677:1687  msg.sender */\n              caller\n                /* \"contracts/3_Ballot.sol\":1677:1702  msg.sender == chairperson */\n              0xffffffffffffffffffffffffffffffffffffffff\n              and\n              eq\n                /* \"contracts/3_Ballot.sol\":1656:1768  require(... */\n              tag_93\n              jumpi\n              mload(0x40)\n              0x08c379a000000000000000000000000000000000000000000000000000000000\n              dup2\n              mstore\n              0x04\n              add\n              tag_94\n              swap1\n              tag_95\n              jump\t// in\n            tag_94:\n              mload(0x40)\n              dup1\n              swap2\n              sub\n              swap1\n              revert\n            tag_93:\n                /* \"contracts/3_Ballot.sol\":1800:1806  voters */\n              0x01\n                /* \"contracts/3_Ballot.sol\":1800:1813  voters[voter] */\n              0x00\n                /* \"contracts/3_Ballot.sol\":1807:1812  voter */\n              dup3\n                /* \"contracts/3_Ballot.sol\":1800:1813  voters[voter] */\n              0xffffffffffffffffffffffffffffffffffffffff\n              and\n              0xffffffffffffffffffffffffffffffffffffffff\n              and\n              dup2\n              mstore\n              0x20\n              add\n              swap1\n              dup2\n              mstore\n              0x20\n              add\n              0x00\n              keccak256\n                /* \"contracts/3_Ballot.sol\":1800:1819  voters[voter].voted */\n              0x01\n              add\n              0x00\n              swap1\n              sload\n              swap1\n              0x0100\n              exp\n              swap1\n              div\n              0xff\n              and\n                /* \"contracts/3_Ballot.sol\":1799:1819  !voters[voter].voted */\n              iszero\n                /* \"contracts/3_Ballot.sol\":1778:1869  require(... */\n              tag_96\n              jumpi\n              mload(0x40)\n              0x08c379a000000000000000000000000000000000000000000000000000000000\n              dup2\n              mstore\n              0x04\n              add\n              tag_97\n              swap1\n              tag_98\n              jump\t// in\n            tag_97:\n              mload(0x40)\n              dup1\n              swap2\n              sub\n              swap1\n              revert\n            tag_96:\n                /* \"contracts/3_Ballot.sol\":1911:1912  0 */\n              0x00\n                /* \"contracts/3_Ballot.sol\":1887:1893  voters */\n              0x01\n                /* \"contracts/3_Ballot.sol\":1887:1900  voters[voter] */\n              0x00\n                /* \"contracts/3_Ballot.sol\":1894:1899  voter */\n              dup4\n                /* \"contracts/3_Ballot.sol\":1887:1900  voters[voter] */\n              0xffffffffffffffffffffffffffffffffffffffff\n              and\n              0xffffffffffffffffffffffffffffffffffffffff\n              and\n              dup2\n              mstore\n              0x20\n              add\n              swap1\n              dup2\n              mstore\n              0x20\n              add\n              0x00\n              keccak256\n                /* \"contracts/3_Ballot.sol\":1887:1907  voters[voter].weight */\n              0x00\n              add\n              sload\n                /* \"contracts/3_Ballot.sol\":1887:1912  voters[voter].weight == 0 */\n              eq\n                /* \"contracts/3_Ballot.sol\":1879:1913  require(voters[voter].weight == 0) */\n              tag_99\n              jumpi\n              0x00\n              dup1\n              revert\n            tag_99:\n                /* \"contracts/3_Ballot.sol\":1946:1947  1 */\n              0x01\n                /* \"contracts/3_Ballot.sol\":1923:1929  voters */\n              dup1\n                /* \"contracts/3_Ballot.sol\":1923:1936  voters[voter] */\n              0x00\n                /* \"contracts/3_Ballot.sol\":1930:1935  voter */\n              dup4\n                /* \"contracts/3_Ballot.sol\":1923:1936  voters[voter] */\n              0xffffffffffffffffffffffffffffffffffffffff\n              and\n              0xffffffffffffffffffffffffffffffffffffffff\n              and\n              dup2\n              mstore\n              0x20\n              add\n              swap1\n              dup2\n              mstore\n              0x20\n              add\n              0x00\n              keccak256\n                /* \"contracts/3_Ballot.sol\":1923:1943  voters[voter].weight */\n              0x00\n              add\n                /* \"contracts/3_Ballot.sol\":1923:1947  voters[voter].weight = 1 */\n              dup2\n              swap1\n              sstore\n              pop\n                /* \"contracts/3_Ballot.sol\":1599:1954  function giveRightToVote(address voter) public {... */\n              pop\n              jump\t// out\n                /* \"contracts/3_Ballot.sol\":748:787  mapping(address => Voter) public voters */\n            tag_38:\n              mstore(0x20, 0x01)\n              dup1\n              0x00\n              mstore\n              keccak256(0x00, 0x40)\n              0x00\n              swap2\n              pop\n              swap1\n              pop\n              dup1\n              0x00\n              add\n              sload\n              swap1\n              dup1\n              0x01\n              add\n              0x00\n              swap1\n              sload\n              swap1\n              0x0100\n              exp\n              swap1\n              div\n              0xff\n              and\n              swap1\n              dup1\n              0x01\n              add\n              0x01\n              swap1\n              sload\n              swap1\n              0x0100\n              exp\n              swap1\n              div\n              0xffffffffffffffffffffffffffffffffffffffff\n              and\n              swap1\n              dup1\n              0x02\n              add\n              sload\n              swap1\n              pop\n              dup5\n              jump\t// out\n                /* \"contracts/3_Ballot.sol\":4373:4517  function winnerName() public view... */\n            tag_42:\n                /* \"contracts/3_Ballot.sol\":4428:4447  bytes32 winnerName_ */\n              0x00\n                /* \"contracts/3_Ballot.sol\":4477:4486  proposals */\n              0x02\n                /* \"contracts/3_Ballot.sol\":4487:4504  winningProposal() */\n              tag_101\n                /* \"contracts/3_Ballot.sol\":4487:4502  winningProposal */\n              tag_30\n                /* \"contracts/3_Ballot.sol\":4487:4504  winningProposal() */\n              jump\t// in\n            tag_101:\n                /* \"contracts/3_Ballot.sol\":4477:4505  proposals[winningProposal()] */\n              dup2\n              sload\n              dup2\n              lt\n              tag_102\n              jumpi\n              tag_103\n              tag_54\n              jump\t// in\n            tag_103:\n            tag_102:\n              swap1\n              0x00\n              mstore\n              keccak256(0x00, 0x20)\n              swap1\n              0x02\n              mul\n              add\n                /* \"contracts/3_Ballot.sol\":4477:4510  proposals[winningProposal()].name */\n              0x00\n              add\n              sload\n                /* \"contracts/3_Ballot.sol\":4463:4510  winnerName_ = proposals[winningProposal()].name */\n              swap1\n              pop\n                /* \"contracts/3_Ballot.sol\":4373:4517  function winnerName() public view... */\n              swap1\n              jump\t// out\n                /* \"#utility.yul\":7:146   */\n            tag_106:\n                /* \"#utility.yul\":53:58   */\n              0x00\n                /* \"#utility.yul\":91:97   */\n              dup2\n                /* \"#utility.yul\":78:98   */\n              calldataload\n                /* \"#utility.yul\":69:98   */\n              swap1\n              pop\n                /* \"#utility.yul\":107:140   */\n              tag_108\n                /* \"#utility.yul\":134:139   */\n              dup2\n                /* \"#utility.yul\":107:140   */\n              tag_109\n              jump\t// in\n            tag_108:\n                /* \"#utility.yul\":7:146   */\n              swap3\n              swap2\n              pop\n              pop\n              jump\t// out\n                /* \"#utility.yul\":152:291   */\n            tag_110:\n                /* \"#utility.yul\":198:203   */\n              0x00\n                /* \"#utility.yul\":236:242   */\n              dup2\n                /* \"#utility.yul\":223:243   */\n              calldataload\n                /* \"#utility.yul\":214:243   */\n              swap1\n              pop\n                /* \"#utility.yul\":252:285   */\n              tag_112\n                /* \"#utility.yul\":279:284   */\n              dup2\n                /* \"#utility.yul\":252:285   */\n              tag_113\n              jump\t// in\n            tag_112:\n                /* \"#utility.yul\":152:291   */\n              swap3\n              swap2\n              pop\n              pop\n              jump\t// out\n                /* \"#utility.yul\":297:626   */\n            tag_27:\n                /* \"#utility.yul\":356:362   */\n              0x00\n                /* \"#utility.yul\":405:407   */\n              0x20\n                /* \"#utility.yul\":393:402   */\n              dup3\n                /* \"#utility.yul\":384:391   */\n              dup5\n                /* \"#utility.yul\":380:403   */\n              sub\n                /* \"#utility.yul\":376:408   */\n              slt\n                /* \"#utility.yul\":373:492   */\n              iszero\n              tag_115\n              jumpi\n                /* \"#utility.yul\":411:490   */\n              tag_116\n              tag_117\n              jump\t// in\n            tag_116:\n                /* \"#utility.yul\":373:492   */\n            tag_115:\n                /* \"#utility.yul\":531:532   */\n              0x00\n                /* \"#utility.yul\":556:609   */\n              tag_118\n                /* \"#utility.yul\":601:608   */\n              dup5\n                /* \"#utility.yul\":592:598   */\n              dup3\n                /* \"#utility.yul\":581:590   */\n              dup6\n                /* \"#utility.yul\":577:599   */\n              add\n                /* \"#utility.yul\":556:609   */\n              tag_106\n              jump\t// in\n            tag_118:\n                /* \"#utility.yul\":546:609   */\n              swap2\n              pop\n                /* \"#utility.yul\":502:619   */\n              pop\n                /* \"#utility.yul\":297:626   */\n              swap3\n              swap2\n              pop\n              pop\n              jump\t// out\n                /* \"#utility.yul\":632:961   */\n            tag_14:\n                /* \"#utility.yul\":691:697   */\n              0x00\n                /* \"#utility.yul\":740:742   */\n              0x20\n                /* \"#utility.yul\":728:737   */\n              dup3\n                /* \"#utility.yul\":719:726   */\n              dup5\n                /* \"#utility.yul\":715:738   */\n              sub\n                /* \"#utility.yul\":711:743   */\n              slt\n                /* \"#utility.yul\":708:827   */\n              iszero\n              tag_120\n              jumpi\n                /* \"#utility.yul\":746:825   */\n              tag_121\n              tag_117\n              jump\t// in\n            tag_121:\n                /* \"#utility.yul\":708:827   */\n            tag_120:\n                /* \"#utility.yul\":866:867   */\n              0x00\n                /* \"#utility.yul\":891:944   */\n              tag_122\n                /* \"#utility.yul\":936:943   */\n              dup5\n                /* \"#utility.yul\":927:933   */\n              dup3\n                /* \"#utility.yul\":916:925   */\n              dup6\n                /* \"#utility.yul\":912:934   */\n              add\n                /* \"#utility.yul\":891:944   */\n              tag_110\n              jump\t// in\n            tag_122:\n                /* \"#utility.yul\":881:944   */\n              swap2\n              pop\n                /* \"#utility.yul\":837:954   */\n              pop\n                /* \"#utility.yul\":632:961   */\n              swap3\n              swap2\n              pop\n              pop\n              jump\t// out\n                /* \"#utility.yul\":967:1085   */\n            tag_123:\n                /* \"#utility.yul\":1054:1078   */\n              tag_125\n                /* \"#utility.yul\":1072:1077   */\n              dup2\n                /* \"#utility.yul\":1054:1078   */\n              tag_126\n              jump\t// in\n            tag_125:\n                /* \"#utility.yul\":1049:1052   */\n              dup3\n                /* \"#utility.yul\":1042:1079   */\n              mstore\n                /* \"#utility.yul\":967:1085   */\n              pop\n              pop\n              jump\t// out\n                /* \"#utility.yul\":1091:1200   */\n            tag_127:\n                /* \"#utility.yul\":1172:1193   */\n              tag_129\n                /* \"#utility.yul\":1187:1192   */\n              dup2\n                /* \"#utility.yul\":1172:1193   */\n              tag_130\n              jump\t// in\n            tag_129:\n                /* \"#utility.yul\":1167:1170   */\n              dup3\n                /* \"#utility.yul\":1160:1194   */\n              mstore\n                /* \"#utility.yul\":1091:1200   */\n              pop\n              pop\n              jump\t// out\n                /* \"#utility.yul\":1206:1324   */\n            tag_131:\n                /* \"#utility.yul\":1293:1317   */\n              tag_133\n                /* \"#utility.yul\":1311:1316   */\n              dup2\n                /* \"#utility.yul\":1293:1317   */\n              tag_134\n              jump\t// in\n            tag_133:\n                /* \"#utility.yul\":1288:1291   */\n              dup3\n                /* \"#utility.yul\":1281:1318   */\n              mstore\n                /* \"#utility.yul\":1206:1324   */\n              pop\n              pop\n              jump\t// out\n                /* \"#utility.yul\":1330:1696   */\n            tag_135:\n                /* \"#utility.yul\":1472:1475   */\n              0x00\n                /* \"#utility.yul\":1493:1560   */\n              tag_137\n                /* \"#utility.yul\":1557:1559   */\n              0x14\n                /* \"#utility.yul\":1552:1555   */\n              dup4\n                /* \"#utility.yul\":1493:1560   */\n              tag_138\n              jump\t// in\n            tag_137:\n                /* \"#utility.yul\":1486:1560   */\n              swap2\n              pop\n                /* \"#utility.yul\":1569:1662   */\n              tag_139\n                /* \"#utility.yul\":1658:1661   */\n              dup3\n                /* \"#utility.yul\":1569:1662   */\n              tag_140\n              jump\t// in\n            tag_139:\n                /* \"#utility.yul\":1687:1689   */\n              0x20\n                /* \"#utility.yul\":1682:1685   */\n              dup3\n                /* \"#utility.yul\":1678:1690   */\n              add\n                /* \"#utility.yul\":1671:1690   */\n              swap1\n              pop\n                /* \"#utility.yul\":1330:1696   */\n              swap2\n              swap1\n              pop\n              jump\t// out\n                /* \"#utility.yul\":1702:2068   */\n            tag_141:\n                /* \"#utility.yul\":1844:1847   */\n              0x00\n                /* \"#utility.yul\":1865:1932   */\n              tag_143\n                /* \"#utility.yul\":1929:1931   */\n              0x0e\n                /* \"#utility.yul\":1924:1927   */\n              dup4\n                /* \"#utility.yul\":1865:1932   */\n              tag_138\n              jump\t// in\n            tag_143:\n                /* \"#utility.yul\":1858:1932   */\n              swap2\n              pop\n                /* \"#utility.yul\":1941:2034   */\n              tag_144\n                /* \"#utility.yul\":2030:2033   */\n              dup3\n                /* \"#utility.yul\":1941:2034   */\n              tag_145\n              jump\t// in\n            tag_144:\n                /* \"#utility.yul\":2059:2061   */\n              0x20\n                /* \"#utility.yul\":2054:2057   */\n              dup3\n                /* \"#utility.yul\":2050:2062   */\n              add\n                /* \"#utility.yul\":2043:2062   */\n              swap1\n              pop\n                /* \"#utility.yul\":1702:2068   */\n              swap2\n              swap1\n              pop\n              jump\t// out\n                /* \"#utility.yul\":2074:2440   */\n            tag_146:\n                /* \"#utility.yul\":2216:2219   */\n              0x00\n                /* \"#utility.yul\":2237:2304   */\n              tag_148\n                /* \"#utility.yul\":2301:2303   */\n              0x12\n                /* \"#utility.yul\":2296:2299   */\n              dup4\n                /* \"#utility.yul\":2237:2304   */\n              tag_138\n              jump\t// in\n            tag_148:\n                /* \"#utility.yul\":2230:2304   */\n              swap2\n              pop\n                /* \"#utility.yul\":2313:2406   */\n              tag_149\n                /* \"#utility.yul\":2402:2405   */\n              dup3\n                /* \"#utility.yul\":2313:2406   */\n              tag_150\n              jump\t// in\n            tag_149:\n                /* \"#utility.yul\":2431:2433   */\n              0x20\n                /* \"#utility.yul\":2426:2429   */\n              dup3\n                /* \"#utility.yul\":2422:2434   */\n              add\n                /* \"#utility.yul\":2415:2434   */\n              swap1\n              pop\n                /* \"#utility.yul\":2074:2440   */\n              swap2\n              swap1\n              pop\n              jump\t// out\n                /* \"#utility.yul\":2446:2812   */\n            tag_151:\n                /* \"#utility.yul\":2588:2591   */\n              0x00\n                /* \"#utility.yul\":2609:2676   */\n              tag_153\n                /* \"#utility.yul\":2673:2675   */\n              0x28\n                /* \"#utility.yul\":2668:2671   */\n              dup4\n                /* \"#utility.yul\":2609:2676   */\n              tag_138\n              jump\t// in\n            tag_153:\n                /* \"#utility.yul\":2602:2676   */\n              swap2\n              pop\n                /* \"#utility.yul\":2685:2778   */\n              tag_154\n                /* \"#utility.yul\":2774:2777   */\n              dup3\n                /* \"#utility.yul\":2685:2778   */\n              tag_155\n              jump\t// in\n            tag_154:\n                /* \"#utility.yul\":2803:2805   */\n              0x40\n                /* \"#utility.yul\":2798:2801   */\n              dup3\n                /* \"#utility.yul\":2794:2806   */\n              add\n                /* \"#utility.yul\":2787:2806   */\n              swap1\n              pop\n                /* \"#utility.yul\":2446:2812   */\n              swap2\n              swap1\n              pop\n              jump\t// out\n                /* \"#utility.yul\":2818:3184   */\n            tag_156:\n                /* \"#utility.yul\":2960:2963   */\n              0x00\n                /* \"#utility.yul\":2981:3048   */\n              tag_158\n                /* \"#utility.yul\":3045:3047   */\n              0x19\n                /* \"#utility.yul\":3040:3043   */\n              dup4\n                /* \"#utility.yul\":2981:3048   */\n              tag_138\n              jump\t// in\n            tag_158:\n                /* \"#utility.yul\":2974:3048   */\n              swap2\n              pop\n                /* \"#utility.yul\":3057:3150   */\n              tag_159\n                /* \"#utility.yul\":3146:3149   */\n              dup3\n                /* \"#utility.yul\":3057:3150   */\n              tag_160\n              jump\t// in\n            tag_159:\n                /* \"#utility.yul\":3175:3177   */\n              0x20\n                /* \"#utility.yul\":3170:3173   */\n              dup3\n                /* \"#utility.yul\":3166:3178   */\n              add\n                /* \"#utility.yul\":3159:3178   */\n              swap1\n              pop\n                /* \"#utility.yul\":2818:3184   */\n              swap2\n              swap1\n              pop\n              jump\t// out\n                /* \"#utility.yul\":3190:3556   */\n            tag_161:\n                /* \"#utility.yul\":3332:3335   */\n              0x00\n                /* \"#utility.yul\":3353:3420   */\n              tag_163\n                /* \"#utility.yul\":3417:3419   */\n              0x18\n                /* \"#utility.yul\":3412:3415   */\n              dup4\n                /* \"#utility.yul\":3353:3420   */\n              tag_138\n              jump\t// in\n            tag_163:\n                /* \"#utility.yul\":3346:3420   */\n              swap2\n              pop\n                /* \"#utility.yul\":3429:3522   */\n              tag_164\n                /* \"#utility.yul\":3518:3521   */\n              dup3\n                /* \"#utility.yul\":3429:3522   */\n              tag_165\n              jump\t// in\n            tag_164:\n                /* \"#utility.yul\":3547:3549   */\n              0x20\n                /* \"#utility.yul\":3542:3545   */\n              dup3\n                /* \"#utility.yul\":3538:3550   */\n              add\n                /* \"#utility.yul\":3531:3550   */\n              swap1\n              pop\n                /* \"#utility.yul\":3190:3556   */\n              swap2\n              swap1\n              pop\n              jump\t// out\n                /* \"#utility.yul\":3562:3928   */\n            tag_166:\n                /* \"#utility.yul\":3704:3707   */\n              0x00\n                /* \"#utility.yul\":3725:3792   */\n              tag_168\n                /* \"#utility.yul\":3789:3791   */\n              0x1e\n                /* \"#utility.yul\":3784:3787   */\n              dup4\n                /* \"#utility.yul\":3725:3792   */\n              tag_138\n              jump\t// in\n            tag_168:\n                /* \"#utility.yul\":3718:3792   */\n              swap2\n              pop\n                /* \"#utility.yul\":3801:3894   */\n              tag_169\n                /* \"#utility.yul\":3890:3893   */\n              dup3\n                /* \"#utility.yul\":3801:3894   */\n              tag_170\n              jump\t// in\n            tag_169:\n                /* \"#utility.yul\":3919:3921   */\n              0x20\n                /* \"#utility.yul\":3914:3917   */\n              dup3\n                /* \"#utility.yul\":3910:3922   */\n              add\n                /* \"#utility.yul\":3903:3922   */\n              swap1\n              pop\n                /* \"#utility.yul\":3562:3928   */\n              swap2\n              swap1\n              pop\n              jump\t// out\n                /* \"#utility.yul\":3934:4052   */\n            tag_171:\n                /* \"#utility.yul\":4021:4045   */\n              tag_173\n                /* \"#utility.yul\":4039:4044   */\n              dup2\n                /* \"#utility.yul\":4021:4045   */\n              tag_174\n              jump\t// in\n            tag_173:\n                /* \"#utility.yul\":4016:4019   */\n              dup3\n                /* \"#utility.yul\":4009:4046   */\n              mstore\n                /* \"#utility.yul\":3934:4052   */\n              pop\n              pop\n              jump\t// out\n                /* \"#utility.yul\":4058:4280   */\n            tag_24:\n                /* \"#utility.yul\":4151:4155   */\n              0x00\n                /* \"#utility.yul\":4189:4191   */\n              0x20\n                /* \"#utility.yul\":4178:4187   */\n              dup3\n                /* \"#utility.yul\":4174:4192   */\n              add\n                /* \"#utility.yul\":4166:4192   */\n              swap1\n              pop\n                /* \"#utility.yul\":4202:4273   */\n              tag_176\n                /* \"#utility.yul\":4270:4271   */\n              0x00\n                /* \"#utility.yul\":4259:4268   */\n              dup4\n                /* \"#utility.yul\":4255:4272   */\n              add\n                /* \"#utility.yul\":4246:4252   */\n              dup5\n                /* \"#utility.yul\":4202:4273   */\n              tag_123\n              jump\t// in\n            tag_176:\n                /* \"#utility.yul\":4058:4280   */\n              swap3\n              swap2\n              pop\n              pop\n              jump\t// out\n                /* \"#utility.yul\":4286:4508   */\n            tag_44:\n                /* \"#utility.yul\":4379:4383   */\n              0x00\n                /* \"#utility.yul\":4417:4419   */\n              0x20\n                /* \"#utility.yul\":4406:4415   */\n              dup3\n                /* \"#utility.yul\":4402:4420   */\n              add\n                /* \"#utility.yul\":4394:4420   */\n              swap1\n              pop\n                /* \"#utility.yul\":4430:4501   */\n              tag_178\n                /* \"#utility.yul\":4498:4499   */\n              0x00\n                /* \"#utility.yul\":4487:4496   */\n              dup4\n                /* \"#utility.yul\":4483:4500   */\n              add\n                /* \"#utility.yul\":4474:4480   */\n              dup5\n                /* \"#utility.yul\":4430:4501   */\n              tag_131\n              jump\t// in\n            tag_178:\n                /* \"#utility.yul\":4286:4508   */\n              swap3\n              swap2\n              pop\n              pop\n              jump\t// out\n                /* \"#utility.yul\":4514:4846   */\n            tag_20:\n                /* \"#utility.yul\":4635:4639   */\n              0x00\n                /* \"#utility.yul\":4673:4675   */\n              0x40\n                /* \"#utility.yul\":4662:4671   */\n              dup3\n                /* \"#utility.yul\":4658:4676   */\n              add\n                /* \"#utility.yul\":4650:4676   */\n              swap1\n              pop\n                /* \"#utility.yul\":4686:4757   */\n              tag_180\n                /* \"#utility.yul\":4754:4755   */\n              0x00\n                /* \"#utility.yul\":4743:4752   */\n              dup4\n                /* \"#utility.yul\":4739:4756   */\n              add\n                /* \"#utility.yul\":4730:4736   */\n              dup6\n                /* \"#utility.yul\":4686:4757   */\n              tag_131\n              jump\t// in\n            tag_180:\n                /* \"#utility.yul\":4767:4839   */\n              tag_181\n                /* \"#utility.yul\":4835:4837   */\n              0x20\n                /* \"#utility.yul\":4824:4833   */\n              dup4\n                /* \"#utility.yul\":4820:4838   */\n              add\n                /* \"#utility.yul\":4811:4817   */\n              dup5\n                /* \"#utility.yul\":4767:4839   */\n              tag_171\n              jump\t// in\n            tag_181:\n                /* \"#utility.yul\":4514:4846   */\n              swap4\n              swap3\n              pop\n              pop\n              pop\n              jump\t// out\n                /* \"#utility.yul\":4852:5271   */\n            tag_48:\n                /* \"#utility.yul\":5018:5022   */\n              0x00\n                /* \"#utility.yul\":5056:5058   */\n              0x20\n                /* \"#utility.yul\":5045:5054   */\n              dup3\n                /* \"#utility.yul\":5041:5059   */\n              add\n                /* \"#utility.yul\":5033:5059   */\n              swap1\n              pop\n                /* \"#utility.yul\":5105:5114   */\n              dup2\n                /* \"#utility.yul\":5099:5103   */\n              dup2\n                /* \"#utility.yul\":5095:5115   */\n              sub\n                /* \"#utility.yul\":5091:5092   */\n              0x00\n                /* \"#utility.yul\":5080:5089   */\n              dup4\n                /* \"#utility.yul\":5076:5093   */\n              add\n                /* \"#utility.yul\":5069:5116   */\n              mstore\n                /* \"#utility.yul\":5133:5264   */\n              tag_183\n                /* \"#utility.yul\":5259:5263   */\n              dup2\n                /* \"#utility.yul\":5133:5264   */\n              tag_135\n              jump\t// in\n            tag_183:\n                /* \"#utility.yul\":5125:5264   */\n              swap1\n              pop\n                /* \"#utility.yul\":4852:5271   */\n              swap2\n              swap1\n              pop\n              jump\t// out\n                /* \"#utility.yul\":5277:5696   */\n            tag_51:\n                /* \"#utility.yul\":5443:5447   */\n              0x00\n                /* \"#utility.yul\":5481:5483   */\n              0x20\n                /* \"#utility.yul\":5470:5479   */\n              dup3\n                /* \"#utility.yul\":5466:5484   */\n              add\n                /* \"#utility.yul\":5458:5484   */\n              swap1\n              pop\n                /* \"#utility.yul\":5530:5539   */\n              dup2\n                /* \"#utility.yul\":5524:5528   */\n              dup2\n                /* \"#utility.yul\":5520:5540   */\n              sub\n                /* \"#utility.yul\":5516:5517   */\n              0x00\n                /* \"#utility.yul\":5505:5514   */\n              dup4\n                /* \"#utility.yul\":5501:5518   */\n              add\n                /* \"#utility.yul\":5494:5541   */\n              mstore\n                /* \"#utility.yul\":5558:5689   */\n              tag_185\n                /* \"#utility.yul\":5684:5688   */\n              dup2\n                /* \"#utility.yul\":5558:5689   */\n              tag_141\n              jump\t// in\n            tag_185:\n                /* \"#utility.yul\":5550:5689   */\n              swap1\n              pop\n                /* \"#utility.yul\":5277:5696   */\n              swap2\n              swap1\n              pop\n              jump\t// out\n                /* \"#utility.yul\":5702:6121   */\n            tag_63:\n                /* \"#utility.yul\":5868:5872   */\n              0x00\n                /* \"#utility.yul\":5906:5908   */\n              0x20\n                /* \"#utility.yul\":5895:5904   */\n              dup3\n                /* \"#utility.yul\":5891:5909   */\n              add\n                /* \"#utility.yul\":5883:5909   */\n              swap1\n              pop\n                /* \"#utility.yul\":5955:5964   */\n              dup2\n                /* \"#utility.yul\":5949:5953   */\n              dup2\n                /* \"#utility.yul\":5945:5965   */\n              sub\n                /* \"#utility.yul\":5941:5942   */\n              0x00\n                /* \"#utility.yul\":5930:5939   */\n              dup4\n                /* \"#utility.yul\":5926:5943   */\n              add\n                /* \"#utility.yul\":5919:5966   */\n              mstore\n                /* \"#utility.yul\":5983:6114   */\n              tag_187\n                /* \"#utility.yul\":6109:6113   */\n              dup2\n                /* \"#utility.yul\":5983:6114   */\n              tag_146\n              jump\t// in\n            tag_187:\n                /* \"#utility.yul\":5975:6114   */\n              swap1\n              pop\n                /* \"#utility.yul\":5702:6121   */\n              swap2\n              swap1\n              pop\n              jump\t// out\n                /* \"#utility.yul\":6127:6546   */\n            tag_95:\n                /* \"#utility.yul\":6293:6297   */\n              0x00\n                /* \"#utility.yul\":6331:6333   */\n              0x20\n                /* \"#utility.yul\":6320:6329   */\n              dup3\n                /* \"#utility.yul\":6316:6334   */\n              add\n                /* \"#utility.yul\":6308:6334   */\n              swap1\n              pop\n                /* \"#utility.yul\":6380:6389   */\n              dup2\n                /* \"#utility.yul\":6374:6378   */\n              dup2\n                /* \"#utility.yul\":6370:6390   */\n              sub\n                /* \"#utility.yul\":6366:6367   */\n              0x00\n                /* \"#utility.yul\":6355:6364   */\n              dup4\n                /* \"#utility.yul\":6351:6368   */\n              add\n                /* \"#utility.yul\":6344:6391   */\n              mstore\n                /* \"#utility.yul\":6408:6539   */\n              tag_189\n                /* \"#utility.yul\":6534:6538   */\n              dup2\n                /* \"#utility.yul\":6408:6539   */\n              tag_151\n              jump\t// in\n            tag_189:\n                /* \"#utility.yul\":6400:6539   */\n              swap1\n              pop\n                /* \"#utility.yul\":6127:6546   */\n              swap2\n              swap1\n              pop\n              jump\t// out\n                /* \"#utility.yul\":6552:6971   */\n            tag_71:\n                /* \"#utility.yul\":6718:6722   */\n              0x00\n                /* \"#utility.yul\":6756:6758   */\n              0x20\n                /* \"#utility.yul\":6745:6754   */\n              dup3\n                /* \"#utility.yul\":6741:6759   */\n              add\n                /* \"#utility.yul\":6733:6759   */\n              swap1\n              pop\n                /* \"#utility.yul\":6805:6814   */\n              dup2\n                /* \"#utility.yul\":6799:6803   */\n              dup2\n                /* \"#utility.yul\":6795:6815   */\n              sub\n                /* \"#utility.yul\":6791:6792   */\n              0x00\n                /* \"#utility.yul\":6780:6789   */\n              dup4\n                /* \"#utility.yul\":6776:6793   */\n              add\n                /* \"#utility.yul\":6769:6816   */\n              mstore\n                /* \"#utility.yul\":6833:6964   */\n              tag_191\n                /* \"#utility.yul\":6959:6963   */\n              dup2\n                /* \"#utility.yul\":6833:6964   */\n              tag_156\n              jump\t// in\n            tag_191:\n                /* \"#utility.yul\":6825:6964   */\n              swap1\n              pop\n                /* \"#utility.yul\":6552:6971   */\n              swap2\n              swap1\n              pop\n              jump\t// out\n                /* \"#utility.yul\":6977:7396   */\n            tag_98:\n                /* \"#utility.yul\":7143:7147   */\n              0x00\n                /* \"#utility.yul\":7181:7183   */\n              0x20\n                /* \"#utility.yul\":7170:7179   */\n              dup3\n                /* \"#utility.yul\":7166:7184   */\n              add\n                /* \"#utility.yul\":7158:7184   */\n              swap1\n              pop\n                /* \"#utility.yul\":7230:7239   */\n              dup2\n                /* \"#utility.yul\":7224:7228   */\n              dup2\n                /* \"#utility.yul\":7220:7240   */\n              sub\n                /* \"#utility.yul\":7216:7217   */\n              0x00\n                /* \"#utility.yul\":7205:7214   */\n              dup4\n                /* \"#utility.yul\":7201:7218   */\n              add\n                /* \"#utility.yul\":7194:7241   */\n              mstore\n                /* \"#utility.yul\":7258:7389   */\n              tag_193\n                /* \"#utility.yul\":7384:7388   */\n              dup2\n                /* \"#utility.yul\":7258:7389   */\n              tag_161\n              jump\t// in\n            tag_193:\n                /* \"#utility.yul\":7250:7389   */\n              swap1\n              pop\n                /* \"#utility.yul\":6977:7396   */\n              swap2\n              swap1\n              pop\n              jump\t// out\n                /* \"#utility.yul\":7402:7821   */\n            tag_66:\n                /* \"#utility.yul\":7568:7572   */\n              0x00\n                /* \"#utility.yul\":7606:7608   */\n              0x20\n                /* \"#utility.yul\":7595:7604   */\n              dup3\n                /* \"#utility.yul\":7591:7609   */\n              add\n                /* \"#utility.yul\":7583:7609   */\n              swap1\n              pop\n                /* \"#utility.yul\":7655:7664   */\n              dup2\n                /* \"#utility.yul\":7649:7653   */\n              dup2\n                /* \"#utility.yul\":7645:7665   */\n              sub\n                /* \"#utility.yul\":7641:7642   */\n              0x00\n                /* \"#utility.yul\":7630:7639   */\n              dup4\n                /* \"#utility.yul\":7626:7643   */\n              add\n                /* \"#utility.yul\":7619:7666   */\n              mstore\n                /* \"#utility.yul\":7683:7814   */\n              tag_195\n                /* \"#utility.yul\":7809:7813   */\n              dup2\n                /* \"#utility.yul\":7683:7814   */\n              tag_166\n              jump\t// in\n            tag_195:\n                /* \"#utility.yul\":7675:7814   */\n              swap1\n              pop\n                /* \"#utility.yul\":7402:7821   */\n              swap2\n              swap1\n              pop\n              jump\t// out\n                /* \"#utility.yul\":7827:8049   */\n            tag_32:\n                /* \"#utility.yul\":7920:7924   */\n              0x00\n                /* \"#utility.yul\":7958:7960   */\n              0x20\n                /* \"#utility.yul\":7947:7956   */\n              dup3\n                /* \"#utility.yul\":7943:7961   */\n              add\n                /* \"#utility.yul\":7935:7961   */\n              swap1\n              pop\n                /* \"#utility.yul\":7971:8042   */\n              tag_197\n                /* \"#utility.yul\":8039:8040   */\n              0x00\n                /* \"#utility.yul\":8028:8037   */\n              dup4\n                /* \"#utility.yul\":8024:8041   */\n              add\n                /* \"#utility.yul\":8015:8021   */\n              dup5\n                /* \"#utility.yul\":7971:8042   */\n              tag_171\n              jump\t// in\n            tag_197:\n                /* \"#utility.yul\":7827:8049   */\n              swap3\n              swap2\n              pop\n              pop\n              jump\t// out\n                /* \"#utility.yul\":8055:8596   */\n            tag_40:\n                /* \"#utility.yul\":8226:8230   */\n              0x00\n                /* \"#utility.yul\":8264:8267   */\n              0x80\n                /* \"#utility.yul\":8253:8262   */\n              dup3\n                /* \"#utility.yul\":8249:8268   */\n              add\n                /* \"#utility.yul\":8241:8268   */\n              swap1\n              pop\n                /* \"#utility.yul\":8278:8349   */\n              tag_199\n                /* \"#utility.yul\":8346:8347   */\n              0x00\n                /* \"#utility.yul\":8335:8344   */\n              dup4\n                /* \"#utility.yul\":8331:8348   */\n              add\n                /* \"#utility.yul\":8322:8328   */\n              dup8\n                /* \"#utility.yul\":8278:8349   */\n              tag_171\n              jump\t// in\n            tag_199:\n                /* \"#utility.yul\":8359:8425   */\n              tag_200\n                /* \"#utility.yul\":8421:8423   */\n              0x20\n                /* \"#utility.yul\":8410:8419   */\n              dup4\n                /* \"#utility.yul\":8406:8424   */\n              add\n                /* \"#utility.yul\":8397:8403   */\n              dup7\n                /* \"#utility.yul\":8359:8425   */\n              tag_127\n              jump\t// in\n            tag_200:\n                /* \"#utility.yul\":8435:8507   */\n              tag_201\n                /* \"#utility.yul\":8503:8505   */\n              0x40\n                /* \"#utility.yul\":8492:8501   */\n              dup4\n                /* \"#utility.yul\":8488:8506   */\n              add\n                /* \"#utility.yul\":8479:8485   */\n              dup6\n                /* \"#utility.yul\":8435:8507   */\n              tag_123\n              jump\t// in\n            tag_201:\n                /* \"#utility.yul\":8517:8589   */\n              tag_202\n                /* \"#utility.yul\":8585:8587   */\n              0x60\n                /* \"#utility.yul\":8574:8583   */\n              dup4\n                /* \"#utility.yul\":8570:8588   */\n              add\n                /* \"#utility.yul\":8561:8567   */\n              dup5\n                /* \"#utility.yul\":8517:8589   */\n              tag_171\n              jump\t// in\n            tag_202:\n                /* \"#utility.yul\":8055:8596   */\n              swap6\n              swap5\n              pop\n              pop\n              pop\n              pop\n              pop\n              jump\t// out\n                /* \"#utility.yul\":8683:8852   */\n            tag_138:\n                /* \"#utility.yul\":8767:8778   */\n              0x00\n                /* \"#utility.yul\":8801:8807   */\n              dup3\n                /* \"#utility.yul\":8796:8799   */\n              dup3\n                /* \"#utility.yul\":8789:8808   */\n              mstore\n                /* \"#utility.yul\":8841:8845   */\n              0x20\n                /* \"#utility.yul\":8836:8839   */\n              dup3\n                /* \"#utility.yul\":8832:8846   */\n              add\n                /* \"#utility.yul\":8817:8846   */\n              swap1\n              pop\n                /* \"#utility.yul\":8683:8852   */\n              swap3\n              swap2\n              pop\n              pop\n              jump\t// out\n                /* \"#utility.yul\":8858:9163   */\n            tag_57:\n                /* \"#utility.yul\":8898:8901   */\n              0x00\n                /* \"#utility.yul\":8917:8937   */\n              tag_207\n                /* \"#utility.yul\":8935:8936   */\n              dup3\n                /* \"#utility.yul\":8917:8937   */\n              tag_174\n              jump\t// in\n            tag_207:\n                /* \"#utility.yul\":8912:8937   */\n              swap2\n              pop\n                /* \"#utility.yul\":8951:8971   */\n              tag_208\n                /* \"#utility.yul\":8969:8970   */\n              dup4\n                /* \"#utility.yul\":8951:8971   */\n              tag_174\n              jump\t// in\n            tag_208:\n                /* \"#utility.yul\":8946:8971   */\n              swap3\n              pop\n                /* \"#utility.yul\":9105:9106   */\n              dup3\n                /* \"#utility.yul\":9037:9103   */\n              0xffffffffffffffffffffffffffffffffffffffffffffffffffffffffffffffff\n                /* \"#utility.yul\":9033:9107   */\n              sub\n                /* \"#utility.yul\":9030:9031   */\n              dup3\n                /* \"#utility.yul\":9027:9108   */\n              gt\n                /* \"#utility.yul\":9024:9131   */\n              iszero\n              tag_209\n              jumpi\n                /* \"#utility.yul\":9111:9129   */\n              tag_210\n              tag_211\n              jump\t// in\n            tag_210:\n                /* \"#utility.yul\":9024:9131   */\n            tag_209:\n                /* \"#utility.yul\":9155:9156   */\n              dup3\n                /* \"#utility.yul\":9152:9153   */\n              dup3\n                /* \"#utility.yul\":9148:9157   */\n              add\n                /* \"#utility.yul\":9141:9157   */\n              swap1\n              pop\n                /* \"#utility.yul\":8858:9163   */\n              swap3\n              swap2\n              pop\n              pop\n              jump\t// out\n                /* \"#utility.yul\":9169:9265   */\n            tag_126:\n                /* \"#utility.yul\":9206:9213   */\n              0x00\n                /* \"#utility.yul\":9235:9259   */\n              tag_213\n                /* \"#utility.yul\":9253:9258   */\n              dup3\n                /* \"#utility.yul\":9235:9259   */\n              tag_214\n              jump\t// in\n            tag_213:\n                /* \"#utility.yul\":9224:9259   */\n              swap1\n              pop\n                /* \"#utility.yul\":9169:9265   */\n              swap2\n              swap1\n              pop\n              jump\t// out\n                /* \"#utility.yul\":9271:9361   */\n            tag_130:\n                /* \"#utility.yul\":9305:9312   */\n              0x00\n                /* \"#utility.yul\":9348:9353   */\n              dup2\n                /* \"#utility.yul\":9341:9354   */\n              iszero\n                /* \"#utility.yul\":9334:9355   */\n              iszero\n                /* \"#utility.yul\":9323:9355   */\n              swap1\n              pop\n                /* \"#utility.yul\":9271:9361   */\n              swap2\n              swap1\n              pop\n              jump\t// out\n                /* \"#utility.yul\":9367:9444   */\n            tag_134:\n                /* \"#utility.yul\":9404:9411   */\n              0x00\n                /* \"#utility.yul\":9433:9438   */\n              dup2\n                /* \"#utility.yul\":9422:9438   */\n              swap1\n              pop\n                /* \"#utility.yul\":9367:9444   */\n              swap2\n              swap1\n              pop\n              jump\t// out\n                /* \"#utility.yul\":9450:9576   */\n            tag_214:\n                /* \"#utility.yul\":9487:9494   */\n              0x00\n                /* \"#utility.yul\":9527:9569   */\n              0xffffffffffffffffffffffffffffffffffffffff\n                /* \"#utility.yul\":9520:9525   */\n              dup3\n                /* \"#utility.yul\":9516:9570   */\n              and\n                /* \"#utility.yul\":9505:9570   */\n              swap1\n              pop\n                /* \"#utility.yul\":9450:9576   */\n              swap2\n              swap1\n              pop\n              jump\t// out\n                /* \"#utility.yul\":9582:9659   */\n            tag_174:\n                /* \"#utility.yul\":9619:9626   */\n              0x00\n                /* \"#utility.yul\":9648:9653   */\n              dup2\n                /* \"#utility.yul\":9637:9653   */\n              swap1\n              pop\n                /* \"#utility.yul\":9582:9659   */\n              swap2\n              swap1\n              pop\n              jump\t// out\n                /* \"#utility.yul\":9665:9898   */\n            tag_91:\n                /* \"#utility.yul\":9704:9707   */\n              0x00\n                /* \"#utility.yul\":9727:9751   */\n              tag_220\n                /* \"#utility.yul\":9745:9750   */\n              dup3\n                /* \"#utility.yul\":9727:9751   */\n              tag_174\n              jump\t// in\n            tag_220:\n                /* \"#utility.yul\":9718:9751   */\n              swap2\n              pop\n                /* \"#utility.yul\":9773:9839   */\n              0xffffffffffffffffffffffffffffffffffffffffffffffffffffffffffffffff\n                /* \"#utility.yul\":9766:9771   */\n              dup3\n                /* \"#utility.yul\":9763:9840   */\n              eq\n                /* \"#utility.yul\":9760:9863   */\n              iszero\n              tag_221\n              jumpi\n                /* \"#utility.yul\":9843:9861   */\n              tag_222\n              tag_211\n              jump\t// in\n            tag_222:\n                /* \"#utility.yul\":9760:9863   */\n            tag_221:\n                /* \"#utility.yul\":9890:9891   */\n              0x01\n                /* \"#utility.yul\":9883:9888   */\n              dup3\n                /* \"#utility.yul\":9879:9892   */\n              add\n                /* \"#utility.yul\":9872:9892   */\n              swap1\n              pop\n                /* \"#utility.yul\":9665:9898   */\n              swap2\n              swap1\n              pop\n              jump\t// out\n                /* \"#utility.yul\":9904:10084   */\n            tag_211:\n                /* \"#utility.yul\":9952:10029   */\n              0x4e487b7100000000000000000000000000000000000000000000000000000000\n                /* \"#utility.yul\":9949:9950   */\n              0x00\n                /* \"#utility.yul\":9942:10030   */\n              mstore\n                /* \"#utility.yul\":10049:10053   */\n              0x11\n                /* \"#utility.yul\":10046:10047   */\n              0x04\n                /* \"#utility.yul\":10039:10054   */\n              mstore\n                /* \"#utility.yul\":10073:10077   */\n              0x24\n                /* \"#utility.yul\":10070:10071   */\n              0x00\n                /* \"#utility.yul\":10063:10078   */\n              revert\n                /* \"#utility.yul\":10090:10270   */\n            tag_54:\n                /* \"#utility.yul\":10138:10215   */\n              0x4e487b7100000000000000000000000000000000000000000000000000000000\n                /* \"#utility.yul\":10135:10136   */\n              0x00\n                /* \"#utility.yul\":10128:10216   */\n              mstore\n                /* \"#utility.yul\":10235:10239   */\n              0x32\n                /* \"#utility.yul\":10232:10233   */\n              0x04\n                /* \"#utility.yul\":10225:10240   */\n              mstore\n                /* \"#utility.yul\":10259:10263   */\n              0x24\n                /* \"#utility.yul\":10256:10257   */\n              0x00\n                /* \"#utility.yul\":10249:10264   */\n              revert\n                /* \"#utility.yul\":10399:10516   */\n            tag_117:\n                /* \"#utility.yul\":10508:10509   */\n              0x00\n                /* \"#utility.yul\":10505:10506   */\n              dup1\n                /* \"#utility.yul\":10498:10510   */\n              revert\n                /* \"#utility.yul\":10522:10692   */\n            tag_140:\n                /* \"#utility.yul\":10662:10684   */\n              0x486173206e6f20726967687420746f20766f7465000000000000000000000000\n                /* \"#utility.yul\":10658:10659   */\n              0x00\n                /* \"#utility.yul\":10650:10656   */\n              dup3\n                /* \"#utility.yul\":10646:10660   */\n              add\n                /* \"#utility.yul\":10639:10685   */\n              mstore\n                /* \"#utility.yul\":10522:10692   */\n              pop\n              jump\t// out\n                /* \"#utility.yul\":10698:10862   */\n            tag_145:\n                /* \"#utility.yul\":10838:10854   */\n              0x416c726561647920766f7465642e000000000000000000000000000000000000\n                /* \"#utility.yul\":10834:10835   */\n              0x00\n                /* \"#utility.yul\":10826:10832   */\n              dup3\n                /* \"#utility.yul\":10822:10836   */\n              add\n                /* \"#utility.yul\":10815:10855   */\n              mstore\n                /* \"#utility.yul\":10698:10862   */\n              pop\n              jump\t// out\n                /* \"#utility.yul\":10868:11036   */\n            tag_150:\n                /* \"#utility.yul\":11008:11028   */\n              0x596f7520616c726561647920766f7465642e0000000000000000000000000000\n                /* \"#utility.yul\":11004:11005   */\n              0x00\n                /* \"#utility.yul\":10996:11002   */\n              dup3\n                /* \"#utility.yul\":10992:11006   */\n              add\n                /* \"#utility.yul\":10985:11029   */\n              mstore\n                /* \"#utility.yul\":10868:11036   */\n              pop\n              jump\t// out\n                /* \"#utility.yul\":11042:11269   */\n            tag_155:\n                /* \"#utility.yul\":11182:11216   */\n              0x4f6e6c79206368616972706572736f6e2063616e206769766520726967687420\n                /* \"#utility.yul\":11178:11179   */\n              0x00\n                /* \"#utility.yul\":11170:11176   */\n              dup3\n                /* \"#utility.yul\":11166:11180   */\n              add\n                /* \"#utility.yul\":11159:11217   */\n              mstore\n                /* \"#utility.yul\":11251:11261   */\n              0x746f20766f74652e000000000000000000000000000000000000000000000000\n                /* \"#utility.yul\":11246:11248   */\n              0x20\n                /* \"#utility.yul\":11238:11244   */\n              dup3\n                /* \"#utility.yul\":11234:11249   */\n              add\n                /* \"#utility.yul\":11227:11262   */\n              mstore\n                /* \"#utility.yul\":11042:11269   */\n              pop\n              jump\t// out\n                /* \"#utility.yul\":11275:11450   */\n            tag_160:\n                /* \"#utility.yul\":11415:11442   */\n              0x466f756e64206c6f6f7020696e2064656c65676174696f6e2e00000000000000\n                /* \"#utility.yul\":11411:11412   */\n              0x00\n                /* \"#utility.yul\":11403:11409   */\n              dup3\n                /* \"#utility.yul\":11399:11413   */\n              add\n                /* \"#utility.yul\":11392:11443   */\n              mstore\n                /* \"#utility.yul\":11275:11450   */\n              pop\n              jump\t// out\n                /* \"#utility.yul\":11456:11630   */\n            tag_165:\n                /* \"#utility.yul\":11596:11622   */\n              0x54686520766f74657220616c726561647920766f7465642e0000000000000000\n                /* \"#utility.yul\":11592:11593   */\n              0x00\n                /* \"#utility.yul\":11584:11590   */\n              dup3\n                /* \"#utility.yul\":11580:11594   */\n              add\n                /* \"#utility.yul\":11573:11623   */\n              mstore\n                /* \"#utility.yul\":11456:11630   */\n              pop\n              jump\t// out\n                /* \"#utility.yul\":11636:11816   */\n            tag_170:\n                /* \"#utility.yul\":11776:11808   */\n              0x53656c662d64656c65676174696f6e20697320646973616c6c6f7765642e0000\n                /* \"#utility.yul\":11772:11773   */\n              0x00\n                /* \"#utility.yul\":11764:11770   */\n              dup3\n                /* \"#utility.yul\":11760:11774   */\n              add\n                /* \"#utility.yul\":11753:11809   */\n              mstore\n                /* \"#utility.yul\":11636:11816   */\n              pop\n              jump\t// out\n                /* \"#utility.yul\":11822:11944   */\n            tag_109:\n                /* \"#utility.yul\":11895:11919   */\n              tag_236\n                /* \"#utility.yul\":11913:11918   */\n              dup2\n                /* \"#utility.yul\":11895:11919   */\n              tag_126\n              jump\t// in\n            tag_236:\n                /* \"#utility.yul\":11888:11893   */\n              dup2\n                /* \"#utility.yul\":11885:11920   */\n              eq\n                /* \"#utility.yul\":11875:11938   */\n              tag_237\n              jumpi\n                /* \"#utility.yul\":11934:11935   */\n              0x00\n                /* \"#utility.yul\":11931:11932   */\n              dup1\n                /* \"#utility.yul\":11924:11936   */\n              revert\n                /* \"#utility.yul\":11875:11938   */\n            tag_237:\n                /* \"#utility.yul\":11822:11944   */\n              pop\n              jump\t// out\n                /* \"#utility.yul\":11950:12072   */\n            tag_113:\n                /* \"#utility.yul\":12023:12047   */\n              tag_239\n                /* \"#utility.yul\":12041:12046   */\n              dup2\n                /* \"#utility.yul\":12023:12047   */\n              tag_174\n              jump\t// in\n            tag_239:\n                /* \"#utility.yul\":12016:12021   */\n              dup2\n                /* \"#utility.yul\":12013:12048   */\n              eq\n                /* \"#utility.yul\":12003:12066   */\n              tag_240\n              jumpi\n                /* \"#utility.yul\":12062:12063   */\n              0x00\n                /* \"#utility.yul\":12059:12060   */\n              dup1\n                /* \"#utility.yul\":12052:12064   */\n              revert\n                /* \"#utility.yul\":12003:12066   */\n            tag_240:\n                /* \"#utility.yul\":11950:12072   */\n              pop\n              jump\t// out\n\n            auxdata: 0xa2646970667358221220fac26fe5b2932c5882a6eadf9dcf85d62e21d2fee932a1f87214a86d3b675fc164736f6c63430008070033\n        }\n    }\n\n    auxdata: 0xa264697066735822122005f0a0002d81305348ff8196b4f9a7f0232723dc1448ed856b59ef8f575b0c8264736f6c63430008070033\n}\n",
				"bytecode": {
					"linkReferences": {
						"remix_tests.sol": {
							"Assert": [
								{
									"length": 20,
									"start": 683
								},
								{
									"length": 20,
									"start": 991
								}
							]
						}
					},
					"object": "608060405234801561001057600080fd5b50611e6d806100206000396000f3fe60806040523480156200001157600080fd5b5060043610620000465760003560e01c80633439c57b146200004b5780637fea0d4b146200006d578063ed2bee101462000079575b600080fd5b6200005562000085565b6040516200006491906200074f565b60405180910390f35b6200007762000132565b005b62000083620001f7565b005b600080600160009054906101000a900473ffffffffffffffffffffffffffffffffffffffff1673ffffffffffffffffffffffffffffffffffffffff1663609ff1bd6040518163ffffffff1660e01b815260040160206040518083038186803b158015620000f157600080fd5b505afa15801562000106573d6000803e3d6000fd5b505050506040513d601f19601f820116820180604052508101906200012c9190620005c9565b14905090565b60007f63616e6469646174653100000000000000000000000000000000000000000000908060018154018082558091505060019003906000526020600020016000909190919091505560006040516200018b9062000512565b6200019791906200072b565b604051809103906000f080158015620001b4573d6000803e3d6000fd5b50600160006101000a81548173ffffffffffffffffffffffffffffffffffffffff021916908373ffffffffffffffffffffffffffffffffffffffff160217905550565b600160009054906101000a900473ffffffffffffffffffffffffffffffffffffffff1673ffffffffffffffffffffffffffffffffffffffff16630121b93f60006040518263ffffffff1660e01b8152600401620002559190620007ae565b600060405180830381600087803b1580156200027057600080fd5b505af115801562000285573d6000803e3d6000fd5b5050505073__$acbfb1c35000d78352310b16a054a6b106$__63abcd7960600160009054906101000a900473ffffffffffffffffffffffffffffffffffffffff1673ffffffffffffffffffffffffffffffffffffffff1663609ff1bd6040518163ffffffff1660e01b815260040160206040518083038186803b1580156200030c57600080fd5b505afa15801562000321573d6000803e3d6000fd5b505050506040513d601f19601f82011682018060405250810190620003479190620005c9565b60006040518363ffffffff1660e01b815260040162000368929190620007cb565b60206040518083038186803b1580156200038157600080fd5b505af415801562000396573d6000803e3d6000fd5b505050506040513d601f19601f82011682018060405250810190620003bc919062000565565b5073__$acbfb1c35000d78352310b16a054a6b106$__63ea79dd79600160009054906101000a900473ffffffffffffffffffffffffffffffffffffffff1673ffffffffffffffffffffffffffffffffffffffff1663e2ba53f06040518163ffffffff1660e01b815260040160206040518083038186803b1580156200044057600080fd5b505afa15801562000455573d6000803e3d6000fd5b505050506040513d601f19601f820116820180604052508101906200047b919062000597565b7f63616e64696461746531000000000000000000000000000000000000000000006040518363ffffffff1660e01b8152600401620004bb9291906200076c565b60206040518083038186803b158015620004d457600080fd5b505af4158015620004e9573d6000803e3d6000fd5b505050506040513d601f19601f820116820180604052508101906200050f919062000565565b50565b61146c80620009cc83390190565b60008151905062000531816200097d565b92915050565b600081519050620005488162000997565b92915050565b6000815190506200055f81620009b1565b92915050565b6000602082840312156200057e576200057d620008cd565b5b60006200058e8482850162000520565b91505092915050565b600060208284031215620005b057620005af620008cd565b5b6000620005c08482850162000537565b91505092915050565b600060208284031215620005e257620005e1620008cd565b5b6000620005f2848285016200054e565b91505092915050565b600062000609838362000699565b60208301905092915050565b6000620006228262000822565b6200062e81856200083a565b93506200063b836200080d565b8060005b838110156200067b576200065382620008b8565b6200065f8882620005fb565b97506200066c836200082d565b9250506001810190506200063f565b5085935050505092915050565b620006938162000866565b82525050565b620006a48162000872565b82525050565b620006b58162000872565b82525050565b620006c68162000886565b82525050565b6000620006db6032836200084b565b9150620006e882620008df565b604082019050919050565b6000620007026024836200084b565b91506200070f826200092e565b604082019050919050565b62000725816200087c565b82525050565b6000602082019050818103600083015262000747818462000615565b905092915050565b600060208201905062000766600083018462000688565b92915050565b6000606082019050620007836000830185620006aa565b620007926020830184620006aa565b8181036040830152620007a581620006f3565b90509392505050565b6000602082019050620007c56000830184620006bb565b92915050565b6000606082019050620007e260008301856200071a565b620007f160208301846200071a565b81810360408301526200080481620006cc565b90509392505050565b60008190508160005260206000209050919050565b600081549050919050565b6000600182019050919050565b600082825260208201905092915050565b600082825260208201905092915050565b6000819050919050565b60008115159050919050565b6000819050919050565b6000819050919050565b600062000893826200087c565b9050919050565b6000620008b1620008ab83620008d2565b6200085c565b9050919050565b6000620008c682546200089a565b9050919050565b600080fd5b60008160001c9050919050565b7f70726f706f73616c20617420696e64657820302073686f756c6420626520746860008201527f652077696e6e696e672070726f706f73616c0000000000000000000000000000602082015250565b7f63616e646964617465312073686f756c64206265207468652077696e6e65722060008201527f6e616d6500000000000000000000000000000000000000000000000000000000602082015250565b620009888162000866565b81146200099457600080fd5b50565b620009a28162000872565b8114620009ae57600080fd5b50565b620009bc816200087c565b8114620009c857600080fd5b5056fe60806040523480156200001157600080fd5b506040516200146c3803806200146c833981810160405281019062000037919062000243565b336000806101000a81548173ffffffffffffffffffffffffffffffffffffffff021916908373ffffffffffffffffffffffffffffffffffffffff16021790555060018060008060009054906101000a900473ffffffffffffffffffffffffffffffffffffffff1673ffffffffffffffffffffffffffffffffffffffff1673ffffffffffffffffffffffffffffffffffffffff1681526020019081526020016000206000018190555060005b81518110156200017657600260405180604001604052808484815181106200010f576200010e620003b3565b5b60200260200101518152602001600081525090806001815401808255809150506001900390600052602060002090600202016000909190919091506000820151816000015560208201518160010155505080806200016d9062000336565b915050620000e2565b505062000450565b6000620001956200018f84620002bd565b62000294565b90508083825260208201905082856020860282011115620001bb57620001ba62000416565b5b60005b85811015620001ef5781620001d488826200022c565b845260208401935060208301925050600181019050620001be565b5050509392505050565b600082601f83011262000211576200021062000411565b5b8151620002238482602086016200017e565b91505092915050565b6000815190506200023d8162000436565b92915050565b6000602082840312156200025c576200025b62000420565b5b600082015167ffffffffffffffff8111156200027d576200027c6200041b565b5b6200028b84828501620001f9565b91505092915050565b6000620002a0620002b3565b9050620002ae828262000300565b919050565b6000604051905090565b600067ffffffffffffffff821115620002db57620002da620003e2565b5b602082029050602081019050919050565b6000819050919050565b6000819050919050565b6200030b8262000425565b810181811067ffffffffffffffff821117156200032d576200032c620003e2565b5b80604052505050565b60006200034382620002f6565b91507fffffffffffffffffffffffffffffffffffffffffffffffffffffffffffffffff82141562000379576200037862000384565b5b600182019050919050565b7f4e487b7100000000000000000000000000000000000000000000000000000000600052601160045260246000fd5b7f4e487b7100000000000000000000000000000000000000000000000000000000600052603260045260246000fd5b7f4e487b7100000000000000000000000000000000000000000000000000000000600052604160045260246000fd5b600080fd5b600080fd5b600080fd5b600080fd5b6000601f19601f8301169050919050565b6200044181620002ec565b81146200044d57600080fd5b50565b61100c80620004606000396000f3fe608060405234801561001057600080fd5b50600436106100885760003560e01c8063609ff1bd1161005b578063609ff1bd146101145780639e7b8d6114610132578063a3ec138d1461014e578063e2ba53f01461018157610088565b80630121b93f1461008d578063013cf08b146100a95780632e4176cf146100da5780635c19a95c146100f8575b600080fd5b6100a760048036038101906100a29190610a01565b61019f565b005b6100c360048036038101906100be9190610a01565b6102e6565b6040516100d1929190610b95565b60405180910390f35b6100e261031a565b6040516100ef9190610b5f565b60405180910390f35b610112600480360381019061010d91906109d4565b61033e565b005b61011c6106da565b6040516101299190610c9e565b60405180910390f35b61014c600480360381019061014791906109d4565b610762565b005b610168600480360381019061016391906109d4565b610919565b6040516101789493929190610cb9565b60405180910390f35b610189610976565b6040516101969190610b7a565b60405180910390f35b6000600160003373ffffffffffffffffffffffffffffffffffffffff1673ffffffffffffffffffffffffffffffffffffffff168152602001908152602001600020905060008160000154141561022a576040517f08c379a000000000000000000000000000000000000000000000000000000000815260040161022190610bbe565b60405180910390fd5b8060010160009054906101000a900460ff161561027c576040517f08c379a000000000000000000000000000000000000000000000000000000000815260040161027390610bde565b60405180910390fd5b60018160010160006101000a81548160ff0219169083151502179055508181600201819055508060000154600283815481106102bb576102ba610e2f565b5b906000526020600020906002020160010160008282546102db9190610d0f565b925050819055505050565b600281815481106102f657600080fd5b90600052602060002090600202016000915090508060000154908060010154905082565b60008054906101000a900473ffffffffffffffffffffffffffffffffffffffff1681565b6000600160003373ffffffffffffffffffffffffffffffffffffffff1673ffffffffffffffffffffffffffffffffffffffff16815260200190815260200160002090508060010160009054906101000a900460ff16156103d3576040517f08c379a00000000000000000000000000000000000000000000000000000000081526004016103ca90610bfe565b60405180910390fd5b3373ffffffffffffffffffffffffffffffffffffffff168273ffffffffffffffffffffffffffffffffffffffff161415610442576040517f08c379a000000000000000000000000000000000000000000000000000000000815260040161043990610c7e565b60405180910390fd5b5b600073ffffffffffffffffffffffffffffffffffffffff16600160008473ffffffffffffffffffffffffffffffffffffffff1673ffffffffffffffffffffffffffffffffffffffff16815260200190815260200160002060010160019054906101000a900473ffffffffffffffffffffffffffffffffffffffff1673ffffffffffffffffffffffffffffffffffffffff16146105b257600160008373ffffffffffffffffffffffffffffffffffffffff1673ffffffffffffffffffffffffffffffffffffffff16815260200190815260200160002060010160019054906101000a900473ffffffffffffffffffffffffffffffffffffffff1691503373ffffffffffffffffffffffffffffffffffffffff168273ffffffffffffffffffffffffffffffffffffffff1614156105ad576040517f08c379a00000000000000000000000000000000000000000000000000000000081526004016105a490610c3e565b60405180910390fd5b610443565b60018160010160006101000a81548160ff021916908315150217905550818160010160016101000a81548173ffffffffffffffffffffffffffffffffffffffff021916908373ffffffffffffffffffffffffffffffffffffffff1602179055506000600160008473ffffffffffffffffffffffffffffffffffffffff1673ffffffffffffffffffffffffffffffffffffffff16815260200190815260200160002090508060010160009054906101000a900460ff16156106b5578160000154600282600201548154811061068957610688610e2f565b5b906000526020600020906002020160010160008282546106a99190610d0f565b925050819055506106d5565b81600001548160000160008282546106cd9190610d0f565b925050819055505b505050565b6000806000905060005b60028054905081101561075d57816002828154811061070657610705610e2f565b5b906000526020600020906002020160010154111561074a576002818154811061073257610731610e2f565b5b90600052602060002090600202016001015491508092505b808061075590610db7565b9150506106e4565b505090565b60008054906101000a900473ffffffffffffffffffffffffffffffffffffffff1673ffffffffffffffffffffffffffffffffffffffff163373ffffffffffffffffffffffffffffffffffffffff16146107f0576040517f08c379a00000000000000000000000000000000000000000000000000000000081526004016107e790610c1e565b60405180910390fd5b600160008273ffffffffffffffffffffffffffffffffffffffff1673ffffffffffffffffffffffffffffffffffffffff16815260200190815260200160002060010160009054906101000a900460ff1615610880576040517f08c379a000000000000000000000000000000000000000000000000000000000815260040161087790610c5e565b60405180910390fd5b6000600160008373ffffffffffffffffffffffffffffffffffffffff1673ffffffffffffffffffffffffffffffffffffffff16815260200190815260200160002060000154146108cf57600080fd5b60018060008373ffffffffffffffffffffffffffffffffffffffff1673ffffffffffffffffffffffffffffffffffffffff1681526020019081526020016000206000018190555050565b60016020528060005260406000206000915090508060000154908060010160009054906101000a900460ff16908060010160019054906101000a900473ffffffffffffffffffffffffffffffffffffffff16908060020154905084565b600060026109826106da565b8154811061099357610992610e2f565b5b906000526020600020906002020160000154905090565b6000813590506109b981610fa8565b92915050565b6000813590506109ce81610fbf565b92915050565b6000602082840312156109ea576109e9610e5e565b5b60006109f8848285016109aa565b91505092915050565b600060208284031215610a1757610a16610e5e565b5b6000610a25848285016109bf565b91505092915050565b610a3781610d65565b82525050565b610a4681610d77565b82525050565b610a5581610d83565b82525050565b6000610a68601483610cfe565b9150610a7382610e63565b602082019050919050565b6000610a8b600e83610cfe565b9150610a9682610e8c565b602082019050919050565b6000610aae601283610cfe565b9150610ab982610eb5565b602082019050919050565b6000610ad1602883610cfe565b9150610adc82610ede565b604082019050919050565b6000610af4601983610cfe565b9150610aff82610f2d565b602082019050919050565b6000610b17601883610cfe565b9150610b2282610f56565b602082019050919050565b6000610b3a601e83610cfe565b9150610b4582610f7f565b602082019050919050565b610b5981610dad565b82525050565b6000602082019050610b746000830184610a2e565b92915050565b6000602082019050610b8f6000830184610a4c565b92915050565b6000604082019050610baa6000830185610a4c565b610bb76020830184610b50565b9392505050565b60006020820190508181036000830152610bd781610a5b565b9050919050565b60006020820190508181036000830152610bf781610a7e565b9050919050565b60006020820190508181036000830152610c1781610aa1565b9050919050565b60006020820190508181036000830152610c3781610ac4565b9050919050565b60006020820190508181036000830152610c5781610ae7565b9050919050565b60006020820190508181036000830152610c7781610b0a565b9050919050565b60006020820190508181036000830152610c9781610b2d565b9050919050565b6000602082019050610cb36000830184610b50565b92915050565b6000608082019050610cce6000830187610b50565b610cdb6020830186610a3d565b610ce86040830185610a2e565b610cf56060830184610b50565b95945050505050565b600082825260208201905092915050565b6000610d1a82610dad565b9150610d2583610dad565b9250827fffffffffffffffffffffffffffffffffffffffffffffffffffffffffffffffff03821115610d5a57610d59610e00565b5b828201905092915050565b6000610d7082610d8d565b9050919050565b60008115159050919050565b6000819050919050565b600073ffffffffffffffffffffffffffffffffffffffff82169050919050565b6000819050919050565b6000610dc282610dad565b91507fffffffffffffffffffffffffffffffffffffffffffffffffffffffffffffffff821415610df557610df4610e00565b5b600182019050919050565b7f4e487b7100000000000000000000000000000000000000000000000000000000600052601160045260246000fd5b7f4e487b7100000000000000000000000000000000000000000000000000000000600052603260045260246000fd5b600080fd5b7f486173206e6f20726967687420746f20766f7465000000000000000000000000600082015250565b7f416c726561647920766f7465642e000000000000000000000000000000000000600082015250565b7f596f7520616c726561647920766f7465642e0000000000000000000000000000600082015250565b7f4f6e6c79206368616972706572736f6e2063616e20676976652072696768742060008201527f746f20766f74652e000000000000000000000000000000000000000000000000602082015250565b7f466f756e64206c6f6f7020696e2064656c65676174696f6e2e00000000000000600082015250565b7f54686520766f74657220616c726561647920766f7465642e0000000000000000600082015250565b7f53656c662d64656c65676174696f6e20697320646973616c6c6f7765642e0000600082015250565b610fb181610d65565b8114610fbc57600080fd5b50565b610fc881610dad565b8114610fd357600080fd5b5056fea2646970667358221220fac26fe5b2932c5882a6eadf9dcf85d62e21d2fee932a1f87214a86d3b675fc164736f6c63430008070033a264697066735822122005f0a0002d81305348ff8196b4f9a7f0232723dc1448ed856b59ef8f575b0c8264736f6c63430008070033",
					"opcodes": "PUSH1 0x80 PUSH1 0x40 MSTORE CALLVALUE DUP1 ISZERO PUSH2 0x10 JUMPI PUSH1 0x0 DUP1 REVERT JUMPDEST POP PUSH2 0x1E6D DUP1 PUSH2 0x20 PUSH1 0x0 CODECOPY PUSH1 0x0 RETURN INVALID PUSH1 0x80 PUSH1 0x40 MSTORE CALLVALUE DUP1 ISZERO PUSH3 0x11 JUMPI PUSH1 0x0 DUP1 REVERT JUMPDEST POP PUSH1 0x4 CALLDATASIZE LT PUSH3 0x46 JUMPI PUSH1 0x0 CALLDATALOAD PUSH1 0xE0 SHR DUP1 PUSH4 0x3439C57B EQ PUSH3 0x4B JUMPI DUP1 PUSH4 0x7FEA0D4B EQ PUSH3 0x6D JUMPI DUP1 PUSH4 0xED2BEE10 EQ PUSH3 0x79 JUMPI JUMPDEST PUSH1 0x0 DUP1 REVERT JUMPDEST PUSH3 0x55 PUSH3 0x85 JUMP JUMPDEST PUSH1 0x40 MLOAD PUSH3 0x64 SWAP2 SWAP1 PUSH3 0x74F JUMP JUMPDEST PUSH1 0x40 MLOAD DUP1 SWAP2 SUB SWAP1 RETURN JUMPDEST PUSH3 0x77 PUSH3 0x132 JUMP JUMPDEST STOP JUMPDEST PUSH3 0x83 PUSH3 0x1F7 JUMP JUMPDEST STOP JUMPDEST PUSH1 0x0 DUP1 PUSH1 0x1 PUSH1 0x0 SWAP1 SLOAD SWAP1 PUSH2 0x100 EXP SWAP1 DIV PUSH20 0xFFFFFFFFFFFFFFFFFFFFFFFFFFFFFFFFFFFFFFFF AND PUSH20 0xFFFFFFFFFFFFFFFFFFFFFFFFFFFFFFFFFFFFFFFF AND PUSH4 0x609FF1BD PUSH1 0x40 MLOAD DUP2 PUSH4 0xFFFFFFFF AND PUSH1 0xE0 SHL DUP2 MSTORE PUSH1 0x4 ADD PUSH1 0x20 PUSH1 0x40 MLOAD DUP1 DUP4 SUB DUP2 DUP7 DUP1 EXTCODESIZE ISZERO DUP1 ISZERO PUSH3 0xF1 JUMPI PUSH1 0x0 DUP1 REVERT JUMPDEST POP GAS STATICCALL ISZERO DUP1 ISZERO PUSH3 0x106 JUMPI RETURNDATASIZE PUSH1 0x0 DUP1 RETURNDATACOPY RETURNDATASIZE PUSH1 0x0 REVERT JUMPDEST POP POP POP POP PUSH1 0x40 MLOAD RETURNDATASIZE PUSH1 0x1F NOT PUSH1 0x1F DUP3 ADD AND DUP3 ADD DUP1 PUSH1 0x40 MSTORE POP DUP2 ADD SWAP1 PUSH3 0x12C SWAP2 SWAP1 PUSH3 0x5C9 JUMP JUMPDEST EQ SWAP1 POP SWAP1 JUMP JUMPDEST PUSH1 0x0 PUSH32 0x63616E6469646174653100000000000000000000000000000000000000000000 SWAP1 DUP1 PUSH1 0x1 DUP2 SLOAD ADD DUP1 DUP3 SSTORE DUP1 SWAP2 POP POP PUSH1 0x1 SWAP1 SUB SWAP1 PUSH1 0x0 MSTORE PUSH1 0x20 PUSH1 0x0 KECCAK256 ADD PUSH1 0x0 SWAP1 SWAP2 SWAP1 SWAP2 SWAP1 SWAP2 POP SSTORE PUSH1 0x0 PUSH1 0x40 MLOAD PUSH3 0x18B SWAP1 PUSH3 0x512 JUMP JUMPDEST PUSH3 0x197 SWAP2 SWAP1 PUSH3 0x72B JUMP JUMPDEST PUSH1 0x40 MLOAD DUP1 SWAP2 SUB SWAP1 PUSH1 0x0 CREATE DUP1 ISZERO DUP1 ISZERO PUSH3 0x1B4 JUMPI RETURNDATASIZE PUSH1 0x0 DUP1 RETURNDATACOPY RETURNDATASIZE PUSH1 0x0 REVERT JUMPDEST POP PUSH1 0x1 PUSH1 0x0 PUSH2 0x100 EXP DUP2 SLOAD DUP2 PUSH20 0xFFFFFFFFFFFFFFFFFFFFFFFFFFFFFFFFFFFFFFFF MUL NOT AND SWAP1 DUP4 PUSH20 0xFFFFFFFFFFFFFFFFFFFFFFFFFFFFFFFFFFFFFFFF AND MUL OR SWAP1 SSTORE POP JUMP JUMPDEST PUSH1 0x1 PUSH1 0x0 SWAP1 SLOAD SWAP1 PUSH2 0x100 EXP SWAP1 DIV PUSH20 0xFFFFFFFFFFFFFFFFFFFFFFFFFFFFFFFFFFFFFFFF AND PUSH20 0xFFFFFFFFFFFFFFFFFFFFFFFFFFFFFFFFFFFFFFFF AND PUSH4 0x121B93F PUSH1 0x0 PUSH1 0x40 MLOAD DUP3 PUSH4 0xFFFFFFFF AND PUSH1 0xE0 SHL DUP2 MSTORE PUSH1 0x4 ADD PUSH3 0x255 SWAP2 SWAP1 PUSH3 0x7AE JUMP JUMPDEST PUSH1 0x0 PUSH1 0x40 MLOAD DUP1 DUP4 SUB DUP2 PUSH1 0x0 DUP8 DUP1 EXTCODESIZE ISZERO DUP1 ISZERO PUSH3 0x270 JUMPI PUSH1 0x0 DUP1 REVERT JUMPDEST POP GAS CALL ISZERO DUP1 ISZERO PUSH3 0x285 JUMPI RETURNDATASIZE PUSH1 0x0 DUP1 RETURNDATACOPY RETURNDATASIZE PUSH1 0x0 REVERT JUMPDEST POP POP POP POP PUSH20 0x0 PUSH4 0xABCD7960 PUSH1 0x1 PUSH1 0x0 SWAP1 SLOAD SWAP1 PUSH2 0x100 EXP SWAP1 DIV PUSH20 0xFFFFFFFFFFFFFFFFFFFFFFFFFFFFFFFFFFFFFFFF AND PUSH20 0xFFFFFFFFFFFFFFFFFFFFFFFFFFFFFFFFFFFFFFFF AND PUSH4 0x609FF1BD PUSH1 0x40 MLOAD DUP2 PUSH4 0xFFFFFFFF AND PUSH1 0xE0 SHL DUP2 MSTORE PUSH1 0x4 ADD PUSH1 0x20 PUSH1 0x40 MLOAD DUP1 DUP4 SUB DUP2 DUP7 DUP1 EXTCODESIZE ISZERO DUP1 ISZERO PUSH3 0x30C JUMPI PUSH1 0x0 DUP1 REVERT JUMPDEST POP GAS STATICCALL ISZERO DUP1 ISZERO PUSH3 0x321 JUMPI RETURNDATASIZE PUSH1 0x0 DUP1 RETURNDATACOPY RETURNDATASIZE PUSH1 0x0 REVERT JUMPDEST POP POP POP POP PUSH1 0x40 MLOAD RETURNDATASIZE PUSH1 0x1F NOT PUSH1 0x1F DUP3 ADD AND DUP3 ADD DUP1 PUSH1 0x40 MSTORE POP DUP2 ADD SWAP1 PUSH3 0x347 SWAP2 SWAP1 PUSH3 0x5C9 JUMP JUMPDEST PUSH1 0x0 PUSH1 0x40 MLOAD DUP4 PUSH4 0xFFFFFFFF AND PUSH1 0xE0 SHL DUP2 MSTORE PUSH1 0x4 ADD PUSH3 0x368 SWAP3 SWAP2 SWAP1 PUSH3 0x7CB JUMP JUMPDEST PUSH1 0x20 PUSH1 0x40 MLOAD DUP1 DUP4 SUB DUP2 DUP7 DUP1 EXTCODESIZE ISZERO DUP1 ISZERO PUSH3 0x381 JUMPI PUSH1 0x0 DUP1 REVERT JUMPDEST POP GAS DELEGATECALL ISZERO DUP1 ISZERO PUSH3 0x396 JUMPI RETURNDATASIZE PUSH1 0x0 DUP1 RETURNDATACOPY RETURNDATASIZE PUSH1 0x0 REVERT JUMPDEST POP POP POP POP PUSH1 0x40 MLOAD RETURNDATASIZE PUSH1 0x1F NOT PUSH1 0x1F DUP3 ADD AND DUP3 ADD DUP1 PUSH1 0x40 MSTORE POP DUP2 ADD SWAP1 PUSH3 0x3BC SWAP2 SWAP1 PUSH3 0x565 JUMP JUMPDEST POP PUSH20 0x0 PUSH4 0xEA79DD79 PUSH1 0x1 PUSH1 0x0 SWAP1 SLOAD SWAP1 PUSH2 0x100 EXP SWAP1 DIV PUSH20 0xFFFFFFFFFFFFFFFFFFFFFFFFFFFFFFFFFFFFFFFF AND PUSH20 0xFFFFFFFFFFFFFFFFFFFFFFFFFFFFFFFFFFFFFFFF AND PUSH4 0xE2BA53F0 PUSH1 0x40 MLOAD DUP2 PUSH4 0xFFFFFFFF AND PUSH1 0xE0 SHL DUP2 MSTORE PUSH1 0x4 ADD PUSH1 0x20 PUSH1 0x40 MLOAD DUP1 DUP4 SUB DUP2 DUP7 DUP1 EXTCODESIZE ISZERO DUP1 ISZERO PUSH3 0x440 JUMPI PUSH1 0x0 DUP1 REVERT JUMPDEST POP GAS STATICCALL ISZERO DUP1 ISZERO PUSH3 0x455 JUMPI RETURNDATASIZE PUSH1 0x0 DUP1 RETURNDATACOPY RETURNDATASIZE PUSH1 0x0 REVERT JUMPDEST POP POP POP POP PUSH1 0x40 MLOAD RETURNDATASIZE PUSH1 0x1F NOT PUSH1 0x1F DUP3 ADD AND DUP3 ADD DUP1 PUSH1 0x40 MSTORE POP DUP2 ADD SWAP1 PUSH3 0x47B SWAP2 SWAP1 PUSH3 0x597 JUMP JUMPDEST PUSH32 0x63616E6469646174653100000000000000000000000000000000000000000000 PUSH1 0x40 MLOAD DUP4 PUSH4 0xFFFFFFFF AND PUSH1 0xE0 SHL DUP2 MSTORE PUSH1 0x4 ADD PUSH3 0x4BB SWAP3 SWAP2 SWAP1 PUSH3 0x76C JUMP JUMPDEST PUSH1 0x20 PUSH1 0x40 MLOAD DUP1 DUP4 SUB DUP2 DUP7 DUP1 EXTCODESIZE ISZERO DUP1 ISZERO PUSH3 0x4D4 JUMPI PUSH1 0x0 DUP1 REVERT JUMPDEST POP GAS DELEGATECALL ISZERO DUP1 ISZERO PUSH3 0x4E9 JUMPI RETURNDATASIZE PUSH1 0x0 DUP1 RETURNDATACOPY RETURNDATASIZE PUSH1 0x0 REVERT JUMPDEST POP POP POP POP PUSH1 0x40 MLOAD RETURNDATASIZE PUSH1 0x1F NOT PUSH1 0x1F DUP3 ADD AND DUP3 ADD DUP1 PUSH1 0x40 MSTORE POP DUP2 ADD SWAP1 PUSH3 0x50F SWAP2 SWAP1 PUSH3 0x565 JUMP JUMPDEST POP JUMP JUMPDEST PUSH2 0x146C DUP1 PUSH3 0x9CC DUP4 CODECOPY ADD SWAP1 JUMP JUMPDEST PUSH1 0x0 DUP2 MLOAD SWAP1 POP PUSH3 0x531 DUP2 PUSH3 0x97D JUMP JUMPDEST SWAP3 SWAP2 POP POP JUMP JUMPDEST PUSH1 0x0 DUP2 MLOAD SWAP1 POP PUSH3 0x548 DUP2 PUSH3 0x997 JUMP JUMPDEST SWAP3 SWAP2 POP POP JUMP JUMPDEST PUSH1 0x0 DUP2 MLOAD SWAP1 POP PUSH3 0x55F DUP2 PUSH3 0x9B1 JUMP JUMPDEST SWAP3 SWAP2 POP POP JUMP JUMPDEST PUSH1 0x0 PUSH1 0x20 DUP3 DUP5 SUB SLT ISZERO PUSH3 0x57E JUMPI PUSH3 0x57D PUSH3 0x8CD JUMP JUMPDEST JUMPDEST PUSH1 0x0 PUSH3 0x58E DUP5 DUP3 DUP6 ADD PUSH3 0x520 JUMP JUMPDEST SWAP2 POP POP SWAP3 SWAP2 POP POP JUMP JUMPDEST PUSH1 0x0 PUSH1 0x20 DUP3 DUP5 SUB SLT ISZERO PUSH3 0x5B0 JUMPI PUSH3 0x5AF PUSH3 0x8CD JUMP JUMPDEST JUMPDEST PUSH1 0x0 PUSH3 0x5C0 DUP5 DUP3 DUP6 ADD PUSH3 0x537 JUMP JUMPDEST SWAP2 POP POP SWAP3 SWAP2 POP POP JUMP JUMPDEST PUSH1 0x0 PUSH1 0x20 DUP3 DUP5 SUB SLT ISZERO PUSH3 0x5E2 JUMPI PUSH3 0x5E1 PUSH3 0x8CD JUMP JUMPDEST JUMPDEST PUSH1 0x0 PUSH3 0x5F2 DUP5 DUP3 DUP6 ADD PUSH3 0x54E JUMP JUMPDEST SWAP2 POP POP SWAP3 SWAP2 POP POP JUMP JUMPDEST PUSH1 0x0 PUSH3 0x609 DUP4 DUP4 PUSH3 0x699 JUMP JUMPDEST PUSH1 0x20 DUP4 ADD SWAP1 POP SWAP3 SWAP2 POP POP JUMP JUMPDEST PUSH1 0x0 PUSH3 0x622 DUP3 PUSH3 0x822 JUMP JUMPDEST PUSH3 0x62E DUP2 DUP6 PUSH3 0x83A JUMP JUMPDEST SWAP4 POP PUSH3 0x63B DUP4 PUSH3 0x80D JUMP JUMPDEST DUP1 PUSH1 0x0 JUMPDEST DUP4 DUP2 LT ISZERO PUSH3 0x67B JUMPI PUSH3 0x653 DUP3 PUSH3 0x8B8 JUMP JUMPDEST PUSH3 0x65F DUP9 DUP3 PUSH3 0x5FB JUMP JUMPDEST SWAP8 POP PUSH3 0x66C DUP4 PUSH3 0x82D JUMP JUMPDEST SWAP3 POP POP PUSH1 0x1 DUP2 ADD SWAP1 POP PUSH3 0x63F JUMP JUMPDEST POP DUP6 SWAP4 POP POP POP POP SWAP3 SWAP2 POP POP JUMP JUMPDEST PUSH3 0x693 DUP2 PUSH3 0x866 JUMP JUMPDEST DUP3 MSTORE POP POP JUMP JUMPDEST PUSH3 0x6A4 DUP2 PUSH3 0x872 JUMP JUMPDEST DUP3 MSTORE POP POP JUMP JUMPDEST PUSH3 0x6B5 DUP2 PUSH3 0x872 JUMP JUMPDEST DUP3 MSTORE POP POP JUMP JUMPDEST PUSH3 0x6C6 DUP2 PUSH3 0x886 JUMP JUMPDEST DUP3 MSTORE POP POP JUMP JUMPDEST PUSH1 0x0 PUSH3 0x6DB PUSH1 0x32 DUP4 PUSH3 0x84B JUMP JUMPDEST SWAP2 POP PUSH3 0x6E8 DUP3 PUSH3 0x8DF JUMP JUMPDEST PUSH1 0x40 DUP3 ADD SWAP1 POP SWAP2 SWAP1 POP JUMP JUMPDEST PUSH1 0x0 PUSH3 0x702 PUSH1 0x24 DUP4 PUSH3 0x84B JUMP JUMPDEST SWAP2 POP PUSH3 0x70F DUP3 PUSH3 0x92E JUMP JUMPDEST PUSH1 0x40 DUP3 ADD SWAP1 POP SWAP2 SWAP1 POP JUMP JUMPDEST PUSH3 0x725 DUP2 PUSH3 0x87C JUMP JUMPDEST DUP3 MSTORE POP POP JUMP JUMPDEST PUSH1 0x0 PUSH1 0x20 DUP3 ADD SWAP1 POP DUP2 DUP2 SUB PUSH1 0x0 DUP4 ADD MSTORE PUSH3 0x747 DUP2 DUP5 PUSH3 0x615 JUMP JUMPDEST SWAP1 POP SWAP3 SWAP2 POP POP JUMP JUMPDEST PUSH1 0x0 PUSH1 0x20 DUP3 ADD SWAP1 POP PUSH3 0x766 PUSH1 0x0 DUP4 ADD DUP5 PUSH3 0x688 JUMP JUMPDEST SWAP3 SWAP2 POP POP JUMP JUMPDEST PUSH1 0x0 PUSH1 0x60 DUP3 ADD SWAP1 POP PUSH3 0x783 PUSH1 0x0 DUP4 ADD DUP6 PUSH3 0x6AA JUMP JUMPDEST PUSH3 0x792 PUSH1 0x20 DUP4 ADD DUP5 PUSH3 0x6AA JUMP JUMPDEST DUP2 DUP2 SUB PUSH1 0x40 DUP4 ADD MSTORE PUSH3 0x7A5 DUP2 PUSH3 0x6F3 JUMP JUMPDEST SWAP1 POP SWAP4 SWAP3 POP POP POP JUMP JUMPDEST PUSH1 0x0 PUSH1 0x20 DUP3 ADD SWAP1 POP PUSH3 0x7C5 PUSH1 0x0 DUP4 ADD DUP5 PUSH3 0x6BB JUMP JUMPDEST SWAP3 SWAP2 POP POP JUMP JUMPDEST PUSH1 0x0 PUSH1 0x60 DUP3 ADD SWAP1 POP PUSH3 0x7E2 PUSH1 0x0 DUP4 ADD DUP6 PUSH3 0x71A JUMP JUMPDEST PUSH3 0x7F1 PUSH1 0x20 DUP4 ADD DUP5 PUSH3 0x71A JUMP JUMPDEST DUP2 DUP2 SUB PUSH1 0x40 DUP4 ADD MSTORE PUSH3 0x804 DUP2 PUSH3 0x6CC JUMP JUMPDEST SWAP1 POP SWAP4 SWAP3 POP POP POP JUMP JUMPDEST PUSH1 0x0 DUP2 SWAP1 POP DUP2 PUSH1 0x0 MSTORE PUSH1 0x20 PUSH1 0x0 KECCAK256 SWAP1 POP SWAP2 SWAP1 POP JUMP JUMPDEST PUSH1 0x0 DUP2 SLOAD SWAP1 POP SWAP2 SWAP1 POP JUMP JUMPDEST PUSH1 0x0 PUSH1 0x1 DUP3 ADD SWAP1 POP SWAP2 SWAP1 POP JUMP JUMPDEST PUSH1 0x0 DUP3 DUP3 MSTORE PUSH1 0x20 DUP3 ADD SWAP1 POP SWAP3 SWAP2 POP POP JUMP JUMPDEST PUSH1 0x0 DUP3 DUP3 MSTORE PUSH1 0x20 DUP3 ADD SWAP1 POP SWAP3 SWAP2 POP POP JUMP JUMPDEST PUSH1 0x0 DUP2 SWAP1 POP SWAP2 SWAP1 POP JUMP JUMPDEST PUSH1 0x0 DUP2 ISZERO ISZERO SWAP1 POP SWAP2 SWAP1 POP JUMP JUMPDEST PUSH1 0x0 DUP2 SWAP1 POP SWAP2 SWAP1 POP JUMP JUMPDEST PUSH1 0x0 DUP2 SWAP1 POP SWAP2 SWAP1 POP JUMP JUMPDEST PUSH1 0x0 PUSH3 0x893 DUP3 PUSH3 0x87C JUMP JUMPDEST SWAP1 POP SWAP2 SWAP1 POP JUMP JUMPDEST PUSH1 0x0 PUSH3 0x8B1 PUSH3 0x8AB DUP4 PUSH3 0x8D2 JUMP JUMPDEST PUSH3 0x85C JUMP JUMPDEST SWAP1 POP SWAP2 SWAP1 POP JUMP JUMPDEST PUSH1 0x0 PUSH3 0x8C6 DUP3 SLOAD PUSH3 0x89A JUMP JUMPDEST SWAP1 POP SWAP2 SWAP1 POP JUMP JUMPDEST PUSH1 0x0 DUP1 REVERT JUMPDEST PUSH1 0x0 DUP2 PUSH1 0x0 SHR SWAP1 POP SWAP2 SWAP1 POP JUMP JUMPDEST PUSH32 0x70726F706F73616C20617420696E64657820302073686F756C64206265207468 PUSH1 0x0 DUP3 ADD MSTORE PUSH32 0x652077696E6E696E672070726F706F73616C0000000000000000000000000000 PUSH1 0x20 DUP3 ADD MSTORE POP JUMP JUMPDEST PUSH32 0x63616E646964617465312073686F756C64206265207468652077696E6E657220 PUSH1 0x0 DUP3 ADD MSTORE PUSH32 0x6E616D6500000000000000000000000000000000000000000000000000000000 PUSH1 0x20 DUP3 ADD MSTORE POP JUMP JUMPDEST PUSH3 0x988 DUP2 PUSH3 0x866 JUMP JUMPDEST DUP2 EQ PUSH3 0x994 JUMPI PUSH1 0x0 DUP1 REVERT JUMPDEST POP JUMP JUMPDEST PUSH3 0x9A2 DUP2 PUSH3 0x872 JUMP JUMPDEST DUP2 EQ PUSH3 0x9AE JUMPI PUSH1 0x0 DUP1 REVERT JUMPDEST POP JUMP JUMPDEST PUSH3 0x9BC DUP2 PUSH3 0x87C JUMP JUMPDEST DUP2 EQ PUSH3 0x9C8 JUMPI PUSH1 0x0 DUP1 REVERT JUMPDEST POP JUMP INVALID PUSH1 0x80 PUSH1 0x40 MSTORE CALLVALUE DUP1 ISZERO PUSH3 0x11 JUMPI PUSH1 0x0 DUP1 REVERT JUMPDEST POP PUSH1 0x40 MLOAD PUSH3 0x146C CODESIZE SUB DUP1 PUSH3 0x146C DUP4 CODECOPY DUP2 DUP2 ADD PUSH1 0x40 MSTORE DUP2 ADD SWAP1 PUSH3 0x37 SWAP2 SWAP1 PUSH3 0x243 JUMP JUMPDEST CALLER PUSH1 0x0 DUP1 PUSH2 0x100 EXP DUP2 SLOAD DUP2 PUSH20 0xFFFFFFFFFFFFFFFFFFFFFFFFFFFFFFFFFFFFFFFF MUL NOT AND SWAP1 DUP4 PUSH20 0xFFFFFFFFFFFFFFFFFFFFFFFFFFFFFFFFFFFFFFFF AND MUL OR SWAP1 SSTORE POP PUSH1 0x1 DUP1 PUSH1 0x0 DUP1 PUSH1 0x0 SWAP1 SLOAD SWAP1 PUSH2 0x100 EXP SWAP1 DIV PUSH20 0xFFFFFFFFFFFFFFFFFFFFFFFFFFFFFFFFFFFFFFFF AND PUSH20 0xFFFFFFFFFFFFFFFFFFFFFFFFFFFFFFFFFFFFFFFF AND PUSH20 0xFFFFFFFFFFFFFFFFFFFFFFFFFFFFFFFFFFFFFFFF AND DUP2 MSTORE PUSH1 0x20 ADD SWAP1 DUP2 MSTORE PUSH1 0x20 ADD PUSH1 0x0 KECCAK256 PUSH1 0x0 ADD DUP2 SWAP1 SSTORE POP PUSH1 0x0 JUMPDEST DUP2 MLOAD DUP2 LT ISZERO PUSH3 0x176 JUMPI PUSH1 0x2 PUSH1 0x40 MLOAD DUP1 PUSH1 0x40 ADD PUSH1 0x40 MSTORE DUP1 DUP5 DUP5 DUP2 MLOAD DUP2 LT PUSH3 0x10F JUMPI PUSH3 0x10E PUSH3 0x3B3 JUMP JUMPDEST JUMPDEST PUSH1 0x20 MUL PUSH1 0x20 ADD ADD MLOAD DUP2 MSTORE PUSH1 0x20 ADD PUSH1 0x0 DUP2 MSTORE POP SWAP1 DUP1 PUSH1 0x1 DUP2 SLOAD ADD DUP1 DUP3 SSTORE DUP1 SWAP2 POP POP PUSH1 0x1 SWAP1 SUB SWAP1 PUSH1 0x0 MSTORE PUSH1 0x20 PUSH1 0x0 KECCAK256 SWAP1 PUSH1 0x2 MUL ADD PUSH1 0x0 SWAP1 SWAP2 SWAP1 SWAP2 SWAP1 SWAP2 POP PUSH1 0x0 DUP3 ADD MLOAD DUP2 PUSH1 0x0 ADD SSTORE PUSH1 0x20 DUP3 ADD MLOAD DUP2 PUSH1 0x1 ADD SSTORE POP POP DUP1 DUP1 PUSH3 0x16D SWAP1 PUSH3 0x336 JUMP JUMPDEST SWAP2 POP POP PUSH3 0xE2 JUMP JUMPDEST POP POP PUSH3 0x450 JUMP JUMPDEST PUSH1 0x0 PUSH3 0x195 PUSH3 0x18F DUP5 PUSH3 0x2BD JUMP JUMPDEST PUSH3 0x294 JUMP JUMPDEST SWAP1 POP DUP1 DUP4 DUP3 MSTORE PUSH1 0x20 DUP3 ADD SWAP1 POP DUP3 DUP6 PUSH1 0x20 DUP7 MUL DUP3 ADD GT ISZERO PUSH3 0x1BB JUMPI PUSH3 0x1BA PUSH3 0x416 JUMP JUMPDEST JUMPDEST PUSH1 0x0 JUMPDEST DUP6 DUP2 LT ISZERO PUSH3 0x1EF JUMPI DUP2 PUSH3 0x1D4 DUP9 DUP3 PUSH3 0x22C JUMP JUMPDEST DUP5 MSTORE PUSH1 0x20 DUP5 ADD SWAP4 POP PUSH1 0x20 DUP4 ADD SWAP3 POP POP PUSH1 0x1 DUP2 ADD SWAP1 POP PUSH3 0x1BE JUMP JUMPDEST POP POP POP SWAP4 SWAP3 POP POP POP JUMP JUMPDEST PUSH1 0x0 DUP3 PUSH1 0x1F DUP4 ADD SLT PUSH3 0x211 JUMPI PUSH3 0x210 PUSH3 0x411 JUMP JUMPDEST JUMPDEST DUP2 MLOAD PUSH3 0x223 DUP5 DUP3 PUSH1 0x20 DUP7 ADD PUSH3 0x17E JUMP JUMPDEST SWAP2 POP POP SWAP3 SWAP2 POP POP JUMP JUMPDEST PUSH1 0x0 DUP2 MLOAD SWAP1 POP PUSH3 0x23D DUP2 PUSH3 0x436 JUMP JUMPDEST SWAP3 SWAP2 POP POP JUMP JUMPDEST PUSH1 0x0 PUSH1 0x20 DUP3 DUP5 SUB SLT ISZERO PUSH3 0x25C JUMPI PUSH3 0x25B PUSH3 0x420 JUMP JUMPDEST JUMPDEST PUSH1 0x0 DUP3 ADD MLOAD PUSH8 0xFFFFFFFFFFFFFFFF DUP2 GT ISZERO PUSH3 0x27D JUMPI PUSH3 0x27C PUSH3 0x41B JUMP JUMPDEST JUMPDEST PUSH3 0x28B DUP5 DUP3 DUP6 ADD PUSH3 0x1F9 JUMP JUMPDEST SWAP2 POP POP SWAP3 SWAP2 POP POP JUMP JUMPDEST PUSH1 0x0 PUSH3 0x2A0 PUSH3 0x2B3 JUMP JUMPDEST SWAP1 POP PUSH3 0x2AE DUP3 DUP3 PUSH3 0x300 JUMP JUMPDEST SWAP2 SWAP1 POP JUMP JUMPDEST PUSH1 0x0 PUSH1 0x40 MLOAD SWAP1 POP SWAP1 JUMP JUMPDEST PUSH1 0x0 PUSH8 0xFFFFFFFFFFFFFFFF DUP3 GT ISZERO PUSH3 0x2DB JUMPI PUSH3 0x2DA PUSH3 0x3E2 JUMP JUMPDEST JUMPDEST PUSH1 0x20 DUP3 MUL SWAP1 POP PUSH1 0x20 DUP2 ADD SWAP1 POP SWAP2 SWAP1 POP JUMP JUMPDEST PUSH1 0x0 DUP2 SWAP1 POP SWAP2 SWAP1 POP JUMP JUMPDEST PUSH1 0x0 DUP2 SWAP1 POP SWAP2 SWAP1 POP JUMP JUMPDEST PUSH3 0x30B DUP3 PUSH3 0x425 JUMP JUMPDEST DUP2 ADD DUP2 DUP2 LT PUSH8 0xFFFFFFFFFFFFFFFF DUP3 GT OR ISZERO PUSH3 0x32D JUMPI PUSH3 0x32C PUSH3 0x3E2 JUMP JUMPDEST JUMPDEST DUP1 PUSH1 0x40 MSTORE POP POP POP JUMP JUMPDEST PUSH1 0x0 PUSH3 0x343 DUP3 PUSH3 0x2F6 JUMP JUMPDEST SWAP2 POP PUSH32 0xFFFFFFFFFFFFFFFFFFFFFFFFFFFFFFFFFFFFFFFFFFFFFFFFFFFFFFFFFFFFFFFF DUP3 EQ ISZERO PUSH3 0x379 JUMPI PUSH3 0x378 PUSH3 0x384 JUMP JUMPDEST JUMPDEST PUSH1 0x1 DUP3 ADD SWAP1 POP SWAP2 SWAP1 POP JUMP JUMPDEST PUSH32 0x4E487B7100000000000000000000000000000000000000000000000000000000 PUSH1 0x0 MSTORE PUSH1 0x11 PUSH1 0x4 MSTORE PUSH1 0x24 PUSH1 0x0 REVERT JUMPDEST PUSH32 0x4E487B7100000000000000000000000000000000000000000000000000000000 PUSH1 0x0 MSTORE PUSH1 0x32 PUSH1 0x4 MSTORE PUSH1 0x24 PUSH1 0x0 REVERT JUMPDEST PUSH32 0x4E487B7100000000000000000000000000000000000000000000000000000000 PUSH1 0x0 MSTORE PUSH1 0x41 PUSH1 0x4 MSTORE PUSH1 0x24 PUSH1 0x0 REVERT JUMPDEST PUSH1 0x0 DUP1 REVERT JUMPDEST PUSH1 0x0 DUP1 REVERT JUMPDEST PUSH1 0x0 DUP1 REVERT JUMPDEST PUSH1 0x0 DUP1 REVERT JUMPDEST PUSH1 0x0 PUSH1 0x1F NOT PUSH1 0x1F DUP4 ADD AND SWAP1 POP SWAP2 SWAP1 POP JUMP JUMPDEST PUSH3 0x441 DUP2 PUSH3 0x2EC JUMP JUMPDEST DUP2 EQ PUSH3 0x44D JUMPI PUSH1 0x0 DUP1 REVERT JUMPDEST POP JUMP JUMPDEST PUSH2 0x100C DUP1 PUSH3 0x460 PUSH1 0x0 CODECOPY PUSH1 0x0 RETURN INVALID PUSH1 0x80 PUSH1 0x40 MSTORE CALLVALUE DUP1 ISZERO PUSH2 0x10 JUMPI PUSH1 0x0 DUP1 REVERT JUMPDEST POP PUSH1 0x4 CALLDATASIZE LT PUSH2 0x88 JUMPI PUSH1 0x0 CALLDATALOAD PUSH1 0xE0 SHR DUP1 PUSH4 0x609FF1BD GT PUSH2 0x5B JUMPI DUP1 PUSH4 0x609FF1BD EQ PUSH2 0x114 JUMPI DUP1 PUSH4 0x9E7B8D61 EQ PUSH2 0x132 JUMPI DUP1 PUSH4 0xA3EC138D EQ PUSH2 0x14E JUMPI DUP1 PUSH4 0xE2BA53F0 EQ PUSH2 0x181 JUMPI PUSH2 0x88 JUMP JUMPDEST DUP1 PUSH4 0x121B93F EQ PUSH2 0x8D JUMPI DUP1 PUSH4 0x13CF08B EQ PUSH2 0xA9 JUMPI DUP1 PUSH4 0x2E4176CF EQ PUSH2 0xDA JUMPI DUP1 PUSH4 0x5C19A95C EQ PUSH2 0xF8 JUMPI JUMPDEST PUSH1 0x0 DUP1 REVERT JUMPDEST PUSH2 0xA7 PUSH1 0x4 DUP1 CALLDATASIZE SUB DUP2 ADD SWAP1 PUSH2 0xA2 SWAP2 SWAP1 PUSH2 0xA01 JUMP JUMPDEST PUSH2 0x19F JUMP JUMPDEST STOP JUMPDEST PUSH2 0xC3 PUSH1 0x4 DUP1 CALLDATASIZE SUB DUP2 ADD SWAP1 PUSH2 0xBE SWAP2 SWAP1 PUSH2 0xA01 JUMP JUMPDEST PUSH2 0x2E6 JUMP JUMPDEST PUSH1 0x40 MLOAD PUSH2 0xD1 SWAP3 SWAP2 SWAP1 PUSH2 0xB95 JUMP JUMPDEST PUSH1 0x40 MLOAD DUP1 SWAP2 SUB SWAP1 RETURN JUMPDEST PUSH2 0xE2 PUSH2 0x31A JUMP JUMPDEST PUSH1 0x40 MLOAD PUSH2 0xEF SWAP2 SWAP1 PUSH2 0xB5F JUMP JUMPDEST PUSH1 0x40 MLOAD DUP1 SWAP2 SUB SWAP1 RETURN JUMPDEST PUSH2 0x112 PUSH1 0x4 DUP1 CALLDATASIZE SUB DUP2 ADD SWAP1 PUSH2 0x10D SWAP2 SWAP1 PUSH2 0x9D4 JUMP JUMPDEST PUSH2 0x33E JUMP JUMPDEST STOP JUMPDEST PUSH2 0x11C PUSH2 0x6DA JUMP JUMPDEST PUSH1 0x40 MLOAD PUSH2 0x129 SWAP2 SWAP1 PUSH2 0xC9E JUMP JUMPDEST PUSH1 0x40 MLOAD DUP1 SWAP2 SUB SWAP1 RETURN JUMPDEST PUSH2 0x14C PUSH1 0x4 DUP1 CALLDATASIZE SUB DUP2 ADD SWAP1 PUSH2 0x147 SWAP2 SWAP1 PUSH2 0x9D4 JUMP JUMPDEST PUSH2 0x762 JUMP JUMPDEST STOP JUMPDEST PUSH2 0x168 PUSH1 0x4 DUP1 CALLDATASIZE SUB DUP2 ADD SWAP1 PUSH2 0x163 SWAP2 SWAP1 PUSH2 0x9D4 JUMP JUMPDEST PUSH2 0x919 JUMP JUMPDEST PUSH1 0x40 MLOAD PUSH2 0x178 SWAP5 SWAP4 SWAP3 SWAP2 SWAP1 PUSH2 0xCB9 JUMP JUMPDEST PUSH1 0x40 MLOAD DUP1 SWAP2 SUB SWAP1 RETURN JUMPDEST PUSH2 0x189 PUSH2 0x976 JUMP JUMPDEST PUSH1 0x40 MLOAD PUSH2 0x196 SWAP2 SWAP1 PUSH2 0xB7A JUMP JUMPDEST PUSH1 0x40 MLOAD DUP1 SWAP2 SUB SWAP1 RETURN JUMPDEST PUSH1 0x0 PUSH1 0x1 PUSH1 0x0 CALLER PUSH20 0xFFFFFFFFFFFFFFFFFFFFFFFFFFFFFFFFFFFFFFFF AND PUSH20 0xFFFFFFFFFFFFFFFFFFFFFFFFFFFFFFFFFFFFFFFF AND DUP2 MSTORE PUSH1 0x20 ADD SWAP1 DUP2 MSTORE PUSH1 0x20 ADD PUSH1 0x0 KECCAK256 SWAP1 POP PUSH1 0x0 DUP2 PUSH1 0x0 ADD SLOAD EQ ISZERO PUSH2 0x22A JUMPI PUSH1 0x40 MLOAD PUSH32 0x8C379A000000000000000000000000000000000000000000000000000000000 DUP2 MSTORE PUSH1 0x4 ADD PUSH2 0x221 SWAP1 PUSH2 0xBBE JUMP JUMPDEST PUSH1 0x40 MLOAD DUP1 SWAP2 SUB SWAP1 REVERT JUMPDEST DUP1 PUSH1 0x1 ADD PUSH1 0x0 SWAP1 SLOAD SWAP1 PUSH2 0x100 EXP SWAP1 DIV PUSH1 0xFF AND ISZERO PUSH2 0x27C JUMPI PUSH1 0x40 MLOAD PUSH32 0x8C379A000000000000000000000000000000000000000000000000000000000 DUP2 MSTORE PUSH1 0x4 ADD PUSH2 0x273 SWAP1 PUSH2 0xBDE JUMP JUMPDEST PUSH1 0x40 MLOAD DUP1 SWAP2 SUB SWAP1 REVERT JUMPDEST PUSH1 0x1 DUP2 PUSH1 0x1 ADD PUSH1 0x0 PUSH2 0x100 EXP DUP2 SLOAD DUP2 PUSH1 0xFF MUL NOT AND SWAP1 DUP4 ISZERO ISZERO MUL OR SWAP1 SSTORE POP DUP2 DUP2 PUSH1 0x2 ADD DUP2 SWAP1 SSTORE POP DUP1 PUSH1 0x0 ADD SLOAD PUSH1 0x2 DUP4 DUP2 SLOAD DUP2 LT PUSH2 0x2BB JUMPI PUSH2 0x2BA PUSH2 0xE2F JUMP JUMPDEST JUMPDEST SWAP1 PUSH1 0x0 MSTORE PUSH1 0x20 PUSH1 0x0 KECCAK256 SWAP1 PUSH1 0x2 MUL ADD PUSH1 0x1 ADD PUSH1 0x0 DUP3 DUP3 SLOAD PUSH2 0x2DB SWAP2 SWAP1 PUSH2 0xD0F JUMP JUMPDEST SWAP3 POP POP DUP2 SWAP1 SSTORE POP POP POP JUMP JUMPDEST PUSH1 0x2 DUP2 DUP2 SLOAD DUP2 LT PUSH2 0x2F6 JUMPI PUSH1 0x0 DUP1 REVERT JUMPDEST SWAP1 PUSH1 0x0 MSTORE PUSH1 0x20 PUSH1 0x0 KECCAK256 SWAP1 PUSH1 0x2 MUL ADD PUSH1 0x0 SWAP2 POP SWAP1 POP DUP1 PUSH1 0x0 ADD SLOAD SWAP1 DUP1 PUSH1 0x1 ADD SLOAD SWAP1 POP DUP3 JUMP JUMPDEST PUSH1 0x0 DUP1 SLOAD SWAP1 PUSH2 0x100 EXP SWAP1 DIV PUSH20 0xFFFFFFFFFFFFFFFFFFFFFFFFFFFFFFFFFFFFFFFF AND DUP2 JUMP JUMPDEST PUSH1 0x0 PUSH1 0x1 PUSH1 0x0 CALLER PUSH20 0xFFFFFFFFFFFFFFFFFFFFFFFFFFFFFFFFFFFFFFFF AND PUSH20 0xFFFFFFFFFFFFFFFFFFFFFFFFFFFFFFFFFFFFFFFF AND DUP2 MSTORE PUSH1 0x20 ADD SWAP1 DUP2 MSTORE PUSH1 0x20 ADD PUSH1 0x0 KECCAK256 SWAP1 POP DUP1 PUSH1 0x1 ADD PUSH1 0x0 SWAP1 SLOAD SWAP1 PUSH2 0x100 EXP SWAP1 DIV PUSH1 0xFF AND ISZERO PUSH2 0x3D3 JUMPI PUSH1 0x40 MLOAD PUSH32 0x8C379A000000000000000000000000000000000000000000000000000000000 DUP2 MSTORE PUSH1 0x4 ADD PUSH2 0x3CA SWAP1 PUSH2 0xBFE JUMP JUMPDEST PUSH1 0x40 MLOAD DUP1 SWAP2 SUB SWAP1 REVERT JUMPDEST CALLER PUSH20 0xFFFFFFFFFFFFFFFFFFFFFFFFFFFFFFFFFFFFFFFF AND DUP3 PUSH20 0xFFFFFFFFFFFFFFFFFFFFFFFFFFFFFFFFFFFFFFFF AND EQ ISZERO PUSH2 0x442 JUMPI PUSH1 0x40 MLOAD PUSH32 0x8C379A000000000000000000000000000000000000000000000000000000000 DUP2 MSTORE PUSH1 0x4 ADD PUSH2 0x439 SWAP1 PUSH2 0xC7E JUMP JUMPDEST PUSH1 0x40 MLOAD DUP1 SWAP2 SUB SWAP1 REVERT JUMPDEST JUMPDEST PUSH1 0x0 PUSH20 0xFFFFFFFFFFFFFFFFFFFFFFFFFFFFFFFFFFFFFFFF AND PUSH1 0x1 PUSH1 0x0 DUP5 PUSH20 0xFFFFFFFFFFFFFFFFFFFFFFFFFFFFFFFFFFFFFFFF AND PUSH20 0xFFFFFFFFFFFFFFFFFFFFFFFFFFFFFFFFFFFFFFFF AND DUP2 MSTORE PUSH1 0x20 ADD SWAP1 DUP2 MSTORE PUSH1 0x20 ADD PUSH1 0x0 KECCAK256 PUSH1 0x1 ADD PUSH1 0x1 SWAP1 SLOAD SWAP1 PUSH2 0x100 EXP SWAP1 DIV PUSH20 0xFFFFFFFFFFFFFFFFFFFFFFFFFFFFFFFFFFFFFFFF AND PUSH20 0xFFFFFFFFFFFFFFFFFFFFFFFFFFFFFFFFFFFFFFFF AND EQ PUSH2 0x5B2 JUMPI PUSH1 0x1 PUSH1 0x0 DUP4 PUSH20 0xFFFFFFFFFFFFFFFFFFFFFFFFFFFFFFFFFFFFFFFF AND PUSH20 0xFFFFFFFFFFFFFFFFFFFFFFFFFFFFFFFFFFFFFFFF AND DUP2 MSTORE PUSH1 0x20 ADD SWAP1 DUP2 MSTORE PUSH1 0x20 ADD PUSH1 0x0 KECCAK256 PUSH1 0x1 ADD PUSH1 0x1 SWAP1 SLOAD SWAP1 PUSH2 0x100 EXP SWAP1 DIV PUSH20 0xFFFFFFFFFFFFFFFFFFFFFFFFFFFFFFFFFFFFFFFF AND SWAP2 POP CALLER PUSH20 0xFFFFFFFFFFFFFFFFFFFFFFFFFFFFFFFFFFFFFFFF AND DUP3 PUSH20 0xFFFFFFFFFFFFFFFFFFFFFFFFFFFFFFFFFFFFFFFF AND EQ ISZERO PUSH2 0x5AD JUMPI PUSH1 0x40 MLOAD PUSH32 0x8C379A000000000000000000000000000000000000000000000000000000000 DUP2 MSTORE PUSH1 0x4 ADD PUSH2 0x5A4 SWAP1 PUSH2 0xC3E JUMP JUMPDEST PUSH1 0x40 MLOAD DUP1 SWAP2 SUB SWAP1 REVERT JUMPDEST PUSH2 0x443 JUMP JUMPDEST PUSH1 0x1 DUP2 PUSH1 0x1 ADD PUSH1 0x0 PUSH2 0x100 EXP DUP2 SLOAD DUP2 PUSH1 0xFF MUL NOT AND SWAP1 DUP4 ISZERO ISZERO MUL OR SWAP1 SSTORE POP DUP2 DUP2 PUSH1 0x1 ADD PUSH1 0x1 PUSH2 0x100 EXP DUP2 SLOAD DUP2 PUSH20 0xFFFFFFFFFFFFFFFFFFFFFFFFFFFFFFFFFFFFFFFF MUL NOT AND SWAP1 DUP4 PUSH20 0xFFFFFFFFFFFFFFFFFFFFFFFFFFFFFFFFFFFFFFFF AND MUL OR SWAP1 SSTORE POP PUSH1 0x0 PUSH1 0x1 PUSH1 0x0 DUP5 PUSH20 0xFFFFFFFFFFFFFFFFFFFFFFFFFFFFFFFFFFFFFFFF AND PUSH20 0xFFFFFFFFFFFFFFFFFFFFFFFFFFFFFFFFFFFFFFFF AND DUP2 MSTORE PUSH1 0x20 ADD SWAP1 DUP2 MSTORE PUSH1 0x20 ADD PUSH1 0x0 KECCAK256 SWAP1 POP DUP1 PUSH1 0x1 ADD PUSH1 0x0 SWAP1 SLOAD SWAP1 PUSH2 0x100 EXP SWAP1 DIV PUSH1 0xFF AND ISZERO PUSH2 0x6B5 JUMPI DUP2 PUSH1 0x0 ADD SLOAD PUSH1 0x2 DUP3 PUSH1 0x2 ADD SLOAD DUP2 SLOAD DUP2 LT PUSH2 0x689 JUMPI PUSH2 0x688 PUSH2 0xE2F JUMP JUMPDEST JUMPDEST SWAP1 PUSH1 0x0 MSTORE PUSH1 0x20 PUSH1 0x0 KECCAK256 SWAP1 PUSH1 0x2 MUL ADD PUSH1 0x1 ADD PUSH1 0x0 DUP3 DUP3 SLOAD PUSH2 0x6A9 SWAP2 SWAP1 PUSH2 0xD0F JUMP JUMPDEST SWAP3 POP POP DUP2 SWAP1 SSTORE POP PUSH2 0x6D5 JUMP JUMPDEST DUP2 PUSH1 0x0 ADD SLOAD DUP2 PUSH1 0x0 ADD PUSH1 0x0 DUP3 DUP3 SLOAD PUSH2 0x6CD SWAP2 SWAP1 PUSH2 0xD0F JUMP JUMPDEST SWAP3 POP POP DUP2 SWAP1 SSTORE POP JUMPDEST POP POP POP JUMP JUMPDEST PUSH1 0x0 DUP1 PUSH1 0x0 SWAP1 POP PUSH1 0x0 JUMPDEST PUSH1 0x2 DUP1 SLOAD SWAP1 POP DUP2 LT ISZERO PUSH2 0x75D JUMPI DUP2 PUSH1 0x2 DUP3 DUP2 SLOAD DUP2 LT PUSH2 0x706 JUMPI PUSH2 0x705 PUSH2 0xE2F JUMP JUMPDEST JUMPDEST SWAP1 PUSH1 0x0 MSTORE PUSH1 0x20 PUSH1 0x0 KECCAK256 SWAP1 PUSH1 0x2 MUL ADD PUSH1 0x1 ADD SLOAD GT ISZERO PUSH2 0x74A JUMPI PUSH1 0x2 DUP2 DUP2 SLOAD DUP2 LT PUSH2 0x732 JUMPI PUSH2 0x731 PUSH2 0xE2F JUMP JUMPDEST JUMPDEST SWAP1 PUSH1 0x0 MSTORE PUSH1 0x20 PUSH1 0x0 KECCAK256 SWAP1 PUSH1 0x2 MUL ADD PUSH1 0x1 ADD SLOAD SWAP2 POP DUP1 SWAP3 POP JUMPDEST DUP1 DUP1 PUSH2 0x755 SWAP1 PUSH2 0xDB7 JUMP JUMPDEST SWAP2 POP POP PUSH2 0x6E4 JUMP JUMPDEST POP POP SWAP1 JUMP JUMPDEST PUSH1 0x0 DUP1 SLOAD SWAP1 PUSH2 0x100 EXP SWAP1 DIV PUSH20 0xFFFFFFFFFFFFFFFFFFFFFFFFFFFFFFFFFFFFFFFF AND PUSH20 0xFFFFFFFFFFFFFFFFFFFFFFFFFFFFFFFFFFFFFFFF AND CALLER PUSH20 0xFFFFFFFFFFFFFFFFFFFFFFFFFFFFFFFFFFFFFFFF AND EQ PUSH2 0x7F0 JUMPI PUSH1 0x40 MLOAD PUSH32 0x8C379A000000000000000000000000000000000000000000000000000000000 DUP2 MSTORE PUSH1 0x4 ADD PUSH2 0x7E7 SWAP1 PUSH2 0xC1E JUMP JUMPDEST PUSH1 0x40 MLOAD DUP1 SWAP2 SUB SWAP1 REVERT JUMPDEST PUSH1 0x1 PUSH1 0x0 DUP3 PUSH20 0xFFFFFFFFFFFFFFFFFFFFFFFFFFFFFFFFFFFFFFFF AND PUSH20 0xFFFFFFFFFFFFFFFFFFFFFFFFFFFFFFFFFFFFFFFF AND DUP2 MSTORE PUSH1 0x20 ADD SWAP1 DUP2 MSTORE PUSH1 0x20 ADD PUSH1 0x0 KECCAK256 PUSH1 0x1 ADD PUSH1 0x0 SWAP1 SLOAD SWAP1 PUSH2 0x100 EXP SWAP1 DIV PUSH1 0xFF AND ISZERO PUSH2 0x880 JUMPI PUSH1 0x40 MLOAD PUSH32 0x8C379A000000000000000000000000000000000000000000000000000000000 DUP2 MSTORE PUSH1 0x4 ADD PUSH2 0x877 SWAP1 PUSH2 0xC5E JUMP JUMPDEST PUSH1 0x40 MLOAD DUP1 SWAP2 SUB SWAP1 REVERT JUMPDEST PUSH1 0x0 PUSH1 0x1 PUSH1 0x0 DUP4 PUSH20 0xFFFFFFFFFFFFFFFFFFFFFFFFFFFFFFFFFFFFFFFF AND PUSH20 0xFFFFFFFFFFFFFFFFFFFFFFFFFFFFFFFFFFFFFFFF AND DUP2 MSTORE PUSH1 0x20 ADD SWAP1 DUP2 MSTORE PUSH1 0x20 ADD PUSH1 0x0 KECCAK256 PUSH1 0x0 ADD SLOAD EQ PUSH2 0x8CF JUMPI PUSH1 0x0 DUP1 REVERT JUMPDEST PUSH1 0x1 DUP1 PUSH1 0x0 DUP4 PUSH20 0xFFFFFFFFFFFFFFFFFFFFFFFFFFFFFFFFFFFFFFFF AND PUSH20 0xFFFFFFFFFFFFFFFFFFFFFFFFFFFFFFFFFFFFFFFF AND DUP2 MSTORE PUSH1 0x20 ADD SWAP1 DUP2 MSTORE PUSH1 0x20 ADD PUSH1 0x0 KECCAK256 PUSH1 0x0 ADD DUP2 SWAP1 SSTORE POP POP JUMP JUMPDEST PUSH1 0x1 PUSH1 0x20 MSTORE DUP1 PUSH1 0x0 MSTORE PUSH1 0x40 PUSH1 0x0 KECCAK256 PUSH1 0x0 SWAP2 POP SWAP1 POP DUP1 PUSH1 0x0 ADD SLOAD SWAP1 DUP1 PUSH1 0x1 ADD PUSH1 0x0 SWAP1 SLOAD SWAP1 PUSH2 0x100 EXP SWAP1 DIV PUSH1 0xFF AND SWAP1 DUP1 PUSH1 0x1 ADD PUSH1 0x1 SWAP1 SLOAD SWAP1 PUSH2 0x100 EXP SWAP1 DIV PUSH20 0xFFFFFFFFFFFFFFFFFFFFFFFFFFFFFFFFFFFFFFFF AND SWAP1 DUP1 PUSH1 0x2 ADD SLOAD SWAP1 POP DUP5 JUMP JUMPDEST PUSH1 0x0 PUSH1 0x2 PUSH2 0x982 PUSH2 0x6DA JUMP JUMPDEST DUP2 SLOAD DUP2 LT PUSH2 0x993 JUMPI PUSH2 0x992 PUSH2 0xE2F JUMP JUMPDEST JUMPDEST SWAP1 PUSH1 0x0 MSTORE PUSH1 0x20 PUSH1 0x0 KECCAK256 SWAP1 PUSH1 0x2 MUL ADD PUSH1 0x0 ADD SLOAD SWAP1 POP SWAP1 JUMP JUMPDEST PUSH1 0x0 DUP2 CALLDATALOAD SWAP1 POP PUSH2 0x9B9 DUP2 PUSH2 0xFA8 JUMP JUMPDEST SWAP3 SWAP2 POP POP JUMP JUMPDEST PUSH1 0x0 DUP2 CALLDATALOAD SWAP1 POP PUSH2 0x9CE DUP2 PUSH2 0xFBF JUMP JUMPDEST SWAP3 SWAP2 POP POP JUMP JUMPDEST PUSH1 0x0 PUSH1 0x20 DUP3 DUP5 SUB SLT ISZERO PUSH2 0x9EA JUMPI PUSH2 0x9E9 PUSH2 0xE5E JUMP JUMPDEST JUMPDEST PUSH1 0x0 PUSH2 0x9F8 DUP5 DUP3 DUP6 ADD PUSH2 0x9AA JUMP JUMPDEST SWAP2 POP POP SWAP3 SWAP2 POP POP JUMP JUMPDEST PUSH1 0x0 PUSH1 0x20 DUP3 DUP5 SUB SLT ISZERO PUSH2 0xA17 JUMPI PUSH2 0xA16 PUSH2 0xE5E JUMP JUMPDEST JUMPDEST PUSH1 0x0 PUSH2 0xA25 DUP5 DUP3 DUP6 ADD PUSH2 0x9BF JUMP JUMPDEST SWAP2 POP POP SWAP3 SWAP2 POP POP JUMP JUMPDEST PUSH2 0xA37 DUP2 PUSH2 0xD65 JUMP JUMPDEST DUP3 MSTORE POP POP JUMP JUMPDEST PUSH2 0xA46 DUP2 PUSH2 0xD77 JUMP JUMPDEST DUP3 MSTORE POP POP JUMP JUMPDEST PUSH2 0xA55 DUP2 PUSH2 0xD83 JUMP JUMPDEST DUP3 MSTORE POP POP JUMP JUMPDEST PUSH1 0x0 PUSH2 0xA68 PUSH1 0x14 DUP4 PUSH2 0xCFE JUMP JUMPDEST SWAP2 POP PUSH2 0xA73 DUP3 PUSH2 0xE63 JUMP JUMPDEST PUSH1 0x20 DUP3 ADD SWAP1 POP SWAP2 SWAP1 POP JUMP JUMPDEST PUSH1 0x0 PUSH2 0xA8B PUSH1 0xE DUP4 PUSH2 0xCFE JUMP JUMPDEST SWAP2 POP PUSH2 0xA96 DUP3 PUSH2 0xE8C JUMP JUMPDEST PUSH1 0x20 DUP3 ADD SWAP1 POP SWAP2 SWAP1 POP JUMP JUMPDEST PUSH1 0x0 PUSH2 0xAAE PUSH1 0x12 DUP4 PUSH2 0xCFE JUMP JUMPDEST SWAP2 POP PUSH2 0xAB9 DUP3 PUSH2 0xEB5 JUMP JUMPDEST PUSH1 0x20 DUP3 ADD SWAP1 POP SWAP2 SWAP1 POP JUMP JUMPDEST PUSH1 0x0 PUSH2 0xAD1 PUSH1 0x28 DUP4 PUSH2 0xCFE JUMP JUMPDEST SWAP2 POP PUSH2 0xADC DUP3 PUSH2 0xEDE JUMP JUMPDEST PUSH1 0x40 DUP3 ADD SWAP1 POP SWAP2 SWAP1 POP JUMP JUMPDEST PUSH1 0x0 PUSH2 0xAF4 PUSH1 0x19 DUP4 PUSH2 0xCFE JUMP JUMPDEST SWAP2 POP PUSH2 0xAFF DUP3 PUSH2 0xF2D JUMP JUMPDEST PUSH1 0x20 DUP3 ADD SWAP1 POP SWAP2 SWAP1 POP JUMP JUMPDEST PUSH1 0x0 PUSH2 0xB17 PUSH1 0x18 DUP4 PUSH2 0xCFE JUMP JUMPDEST SWAP2 POP PUSH2 0xB22 DUP3 PUSH2 0xF56 JUMP JUMPDEST PUSH1 0x20 DUP3 ADD SWAP1 POP SWAP2 SWAP1 POP JUMP JUMPDEST PUSH1 0x0 PUSH2 0xB3A PUSH1 0x1E DUP4 PUSH2 0xCFE JUMP JUMPDEST SWAP2 POP PUSH2 0xB45 DUP3 PUSH2 0xF7F JUMP JUMPDEST PUSH1 0x20 DUP3 ADD SWAP1 POP SWAP2 SWAP1 POP JUMP JUMPDEST PUSH2 0xB59 DUP2 PUSH2 0xDAD JUMP JUMPDEST DUP3 MSTORE POP POP JUMP JUMPDEST PUSH1 0x0 PUSH1 0x20 DUP3 ADD SWAP1 POP PUSH2 0xB74 PUSH1 0x0 DUP4 ADD DUP5 PUSH2 0xA2E JUMP JUMPDEST SWAP3 SWAP2 POP POP JUMP JUMPDEST PUSH1 0x0 PUSH1 0x20 DUP3 ADD SWAP1 POP PUSH2 0xB8F PUSH1 0x0 DUP4 ADD DUP5 PUSH2 0xA4C JUMP JUMPDEST SWAP3 SWAP2 POP POP JUMP JUMPDEST PUSH1 0x0 PUSH1 0x40 DUP3 ADD SWAP1 POP PUSH2 0xBAA PUSH1 0x0 DUP4 ADD DUP6 PUSH2 0xA4C JUMP JUMPDEST PUSH2 0xBB7 PUSH1 0x20 DUP4 ADD DUP5 PUSH2 0xB50 JUMP JUMPDEST SWAP4 SWAP3 POP POP POP JUMP JUMPDEST PUSH1 0x0 PUSH1 0x20 DUP3 ADD SWAP1 POP DUP2 DUP2 SUB PUSH1 0x0 DUP4 ADD MSTORE PUSH2 0xBD7 DUP2 PUSH2 0xA5B JUMP JUMPDEST SWAP1 POP SWAP2 SWAP1 POP JUMP JUMPDEST PUSH1 0x0 PUSH1 0x20 DUP3 ADD SWAP1 POP DUP2 DUP2 SUB PUSH1 0x0 DUP4 ADD MSTORE PUSH2 0xBF7 DUP2 PUSH2 0xA7E JUMP JUMPDEST SWAP1 POP SWAP2 SWAP1 POP JUMP JUMPDEST PUSH1 0x0 PUSH1 0x20 DUP3 ADD SWAP1 POP DUP2 DUP2 SUB PUSH1 0x0 DUP4 ADD MSTORE PUSH2 0xC17 DUP2 PUSH2 0xAA1 JUMP JUMPDEST SWAP1 POP SWAP2 SWAP1 POP JUMP JUMPDEST PUSH1 0x0 PUSH1 0x20 DUP3 ADD SWAP1 POP DUP2 DUP2 SUB PUSH1 0x0 DUP4 ADD MSTORE PUSH2 0xC37 DUP2 PUSH2 0xAC4 JUMP JUMPDEST SWAP1 POP SWAP2 SWAP1 POP JUMP JUMPDEST PUSH1 0x0 PUSH1 0x20 DUP3 ADD SWAP1 POP DUP2 DUP2 SUB PUSH1 0x0 DUP4 ADD MSTORE PUSH2 0xC57 DUP2 PUSH2 0xAE7 JUMP JUMPDEST SWAP1 POP SWAP2 SWAP1 POP JUMP JUMPDEST PUSH1 0x0 PUSH1 0x20 DUP3 ADD SWAP1 POP DUP2 DUP2 SUB PUSH1 0x0 DUP4 ADD MSTORE PUSH2 0xC77 DUP2 PUSH2 0xB0A JUMP JUMPDEST SWAP1 POP SWAP2 SWAP1 POP JUMP JUMPDEST PUSH1 0x0 PUSH1 0x20 DUP3 ADD SWAP1 POP DUP2 DUP2 SUB PUSH1 0x0 DUP4 ADD MSTORE PUSH2 0xC97 DUP2 PUSH2 0xB2D JUMP JUMPDEST SWAP1 POP SWAP2 SWAP1 POP JUMP JUMPDEST PUSH1 0x0 PUSH1 0x20 DUP3 ADD SWAP1 POP PUSH2 0xCB3 PUSH1 0x0 DUP4 ADD DUP5 PUSH2 0xB50 JUMP JUMPDEST SWAP3 SWAP2 POP POP JUMP JUMPDEST PUSH1 0x0 PUSH1 0x80 DUP3 ADD SWAP1 POP PUSH2 0xCCE PUSH1 0x0 DUP4 ADD DUP8 PUSH2 0xB50 JUMP JUMPDEST PUSH2 0xCDB PUSH1 0x20 DUP4 ADD DUP7 PUSH2 0xA3D JUMP JUMPDEST PUSH2 0xCE8 PUSH1 0x40 DUP4 ADD DUP6 PUSH2 0xA2E JUMP JUMPDEST PUSH2 0xCF5 PUSH1 0x60 DUP4 ADD DUP5 PUSH2 0xB50 JUMP JUMPDEST SWAP6 SWAP5 POP POP POP POP POP JUMP JUMPDEST PUSH1 0x0 DUP3 DUP3 MSTORE PUSH1 0x20 DUP3 ADD SWAP1 POP SWAP3 SWAP2 POP POP JUMP JUMPDEST PUSH1 0x0 PUSH2 0xD1A DUP3 PUSH2 0xDAD JUMP JUMPDEST SWAP2 POP PUSH2 0xD25 DUP4 PUSH2 0xDAD JUMP JUMPDEST SWAP3 POP DUP3 PUSH32 0xFFFFFFFFFFFFFFFFFFFFFFFFFFFFFFFFFFFFFFFFFFFFFFFFFFFFFFFFFFFFFFFF SUB DUP3 GT ISZERO PUSH2 0xD5A JUMPI PUSH2 0xD59 PUSH2 0xE00 JUMP JUMPDEST JUMPDEST DUP3 DUP3 ADD SWAP1 POP SWAP3 SWAP2 POP POP JUMP JUMPDEST PUSH1 0x0 PUSH2 0xD70 DUP3 PUSH2 0xD8D JUMP JUMPDEST SWAP1 POP SWAP2 SWAP1 POP JUMP JUMPDEST PUSH1 0x0 DUP2 ISZERO ISZERO SWAP1 POP SWAP2 SWAP1 POP JUMP JUMPDEST PUSH1 0x0 DUP2 SWAP1 POP SWAP2 SWAP1 POP JUMP JUMPDEST PUSH1 0x0 PUSH20 0xFFFFFFFFFFFFFFFFFFFFFFFFFFFFFFFFFFFFFFFF DUP3 AND SWAP1 POP SWAP2 SWAP1 POP JUMP JUMPDEST PUSH1 0x0 DUP2 SWAP1 POP SWAP2 SWAP1 POP JUMP JUMPDEST PUSH1 0x0 PUSH2 0xDC2 DUP3 PUSH2 0xDAD JUMP JUMPDEST SWAP2 POP PUSH32 0xFFFFFFFFFFFFFFFFFFFFFFFFFFFFFFFFFFFFFFFFFFFFFFFFFFFFFFFFFFFFFFFF DUP3 EQ ISZERO PUSH2 0xDF5 JUMPI PUSH2 0xDF4 PUSH2 0xE00 JUMP JUMPDEST JUMPDEST PUSH1 0x1 DUP3 ADD SWAP1 POP SWAP2 SWAP1 POP JUMP JUMPDEST PUSH32 0x4E487B7100000000000000000000000000000000000000000000000000000000 PUSH1 0x0 MSTORE PUSH1 0x11 PUSH1 0x4 MSTORE PUSH1 0x24 PUSH1 0x0 REVERT JUMPDEST PUSH32 0x4E487B7100000000000000000000000000000000000000000000000000000000 PUSH1 0x0 MSTORE PUSH1 0x32 PUSH1 0x4 MSTORE PUSH1 0x24 PUSH1 0x0 REVERT JUMPDEST PUSH1 0x0 DUP1 REVERT JUMPDEST PUSH32 0x486173206E6F20726967687420746F20766F7465000000000000000000000000 PUSH1 0x0 DUP3 ADD MSTORE POP JUMP JUMPDEST PUSH32 0x416C726561647920766F7465642E000000000000000000000000000000000000 PUSH1 0x0 DUP3 ADD MSTORE POP JUMP JUMPDEST PUSH32 0x596F7520616C726561647920766F7465642E0000000000000000000000000000 PUSH1 0x0 DUP3 ADD MSTORE POP JUMP JUMPDEST PUSH32 0x4F6E6C79206368616972706572736F6E2063616E206769766520726967687420 PUSH1 0x0 DUP3 ADD MSTORE PUSH32 0x746F20766F74652E000000000000000000000000000000000000000000000000 PUSH1 0x20 DUP3 ADD MSTORE POP JUMP JUMPDEST PUSH32 0x466F756E64206C6F6F7020696E2064656C65676174696F6E2E00000000000000 PUSH1 0x0 DUP3 ADD MSTORE POP JUMP JUMPDEST PUSH32 0x54686520766F74657220616C726561647920766F7465642E0000000000000000 PUSH1 0x0 DUP3 ADD MSTORE POP JUMP JUMPDEST PUSH32 0x53656C662D64656C65676174696F6E20697320646973616C6C6F7765642E0000 PUSH1 0x0 DUP3 ADD MSTORE POP JUMP JUMPDEST PUSH2 0xFB1 DUP2 PUSH2 0xD65 JUMP JUMPDEST DUP2 EQ PUSH2 0xFBC JUMPI PUSH1 0x0 DUP1 REVERT JUMPDEST POP JUMP JUMPDEST PUSH2 0xFC8 DUP2 PUSH2 0xDAD JUMP JUMPDEST DUP2 EQ PUSH2 0xFD3 JUMPI PUSH1 0x0 DUP1 REVERT JUMPDEST POP JUMP INVALID LOG2 PUSH5 0x6970667358 0x22 SLT KECCAK256 STATICCALL 0xC2 PUSH16 0xE5B2932C5882A6EADF9DCF85D62E21D2 INVALID 0xE9 ORIGIN LOG1 0xF8 PUSH19 0x14A86D3B675FC164736F6C63430008070033A2 PUSH5 0x6970667358 0x22 SLT KECCAK256 SDIV CREATE LOG0 STOP 0x2D DUP2 ADDRESS MSTORE8 BASEFEE SELFDESTRUCT DUP2 SWAP7 0xB4 0xF9 0xA7 CREATE 0x23 0x27 0x23 0xDC EQ BASEFEE 0xED DUP6 PUSH12 0x59EF8F575B0C8264736F6C63 NUMBER STOP ADDMOD SMOD STOP CALLER "
				},
				"gasEstimates": {
					"creation": {
						"codeDepositCost": "1557800",
						"executionCost": "1631",
						"totalCost": "1559431"
					},
					"external": {
						"beforeAll()": "infinite",
						"checkWinninProposalWithReturnValue()": "infinite",
						"checkWinningProposal()": "infinite"
					}
				},
				"methodIdentifiers": {
					"beforeAll()": "7fea0d4b",
					"checkWinninProposalWithReturnValue()": "3439c57b",
					"checkWinningProposal()": "ed2bee10"
				}
			},
			"userdoc": {
				"kind": "user",
				"methods": {},
				"version": 1
			}
		}
	}
}